S02100005A33436F6C6F7254656D704C69676874536F635F656D333538352E7333378E
S31508004000E8670020FD6B02081156020815560208DB
S31508004010A70A0A0100410008040C03AC0061540019
S315080040200000000000000000000000000000000082
S315080040300000000000000000000000000000000072
S315080040400000000000000000FFFFFFFFFFFFFFFF6A
S31508004050FFFFFFFF00D003081016011800600408D0
S31508004060FFFFFFFFFFFFFFFFFF000000000000004B
S315080040700000000000000000000000000000000032
S31508004080F07F002000000000EC7F0020EC7F00207D
S31508004090E8670020B0BF0208C06E0208885E0020EC
S311080040A0C4100020006004080080002006
S31508004100E8670020FD6B02081156020815560208DA
S315080041101D56020819560208215602089856020822
S3150800412098560208985602089856020898560208A1
S31508004130255602089856020898560208E34C0008C5
S31508004140A3530208985602085F9900089856020871
S315080041507FAC00081BA0000898560208985602086B
S3150800416071850008695C0008F1560008A541000839
S31508004170985602086B980008AB98000898560208EB
S315080041805F9C000898560208985602089856020836
S31508004190012100F01F029140354A400942F82010DB
S315080041A070470000F8B5344C344D2178286840072C
S315080041B02BD5032929D23248324A008822F8110021
S315080041C00120314A137800FA01F1194311702F4A78
S315080041D02F491378002B12D0002623FA06F7FF077B
S315080041E008D5B0402670584010702A4830F8160096
S315080041F008600AE0761CF6B2032EEED305E000202E
S31508004200086000F0A3F8032020704FF6FF702860BE
S31508004210BFF35F8FF1BD80B51C49002008700320ED
S315080042201549087000201C490870052011490880A6
S3150800423000201549087000211548016041604FF4B7
S31508004240004181601021C1600D49416101218161F0
S315080042500321C1600421094801644FF6FF7101601A
S315080042600B20FFF795FFBDE8014000F0ADB8000050
S3150800427000E100E0F67B0020657F002010A80040E2
S315080042805E7A0020486C0020667F0020647F00204C
S3150800429004E00040506C0020677F002000F005BC59
S315080042A02248012181604EF6BE214160012101604C
S315080042B070471F49012008607047A52805D11B488B
S315080042C04DF6AD61416002210160704717480068EC
S315080042D010F0010018BF0120704780B51549164A2D
S315080042E01020086015491648007803000BD00328EB
S315080042F00CBF00200120106040F651000860002025
S3150800430000F04CFE06E0022010604FF400600860E2
S3150800431000F08FFB0B480721016000210164102083
S3150800432009490860002002BD000000000060004046
S315080043300860004080E100E0080000400C60004092
S31508004340927F002014A0004000E100E0704770470B
S31508004350DFF8FC3433F810001040C840704730B519
S315080043600FF2AC54DFF8EC3434F810409C6011407E
S31508004370DFF8DC4434F8105095432943D96002220B
S315080043801A6000221A6024F8101058680028FCD118
S3150800439030BDDFF8C424DFF8C4041278DFF8C0148F
S315080043A00AB149780EE0895611F1090FB8BF3021D4
S315080043B008DBC16D39B1C26D40F24A31B1FBF2F189
S315080043C089B2C91E01607047E0B5DFF89804018814
S315080043D00A2300F065F8BDF806104FF6FF720D20A7
S315080043E0FFF7BDFF07BDF8B50546B5F5004FDFF881
S315080043F070441AD1DFF870040188022300F050F8DF
S31508004400BDF80000000AFF2801D0010000D11820DD
S315080044106070BDF800000006C00E10281CBF001D05
S3150800442000F0A3F9BDF80000C543DFF82C647078E6
S3150800443008B1002005E0A089ADB26840C00701D5E3
S3150800444001207070DFF82404A58105F001040168D5
S3150800445041F4004101604FF440520FF2D84000EB9E
S315080044604400C5F340074078010389B20220FFF7EC
S3150800447076FF204600F0FAFD4022B90100F012FA54
S315080044802D06A80E00F0010038433070FFF781FFB3
S31508004490707818B1FFF798FF002070700020F2BD01
S315080044A07F22684600F066BE2DE9F04FDFF8C44368
S315080044B0DFF8BC73207887B0042304900D210B38ED
S315080044C0C0B203906846039A00F000FF9DF800000A
S315080044D08DF80A009DF801008DF809009DF8020084
S315080044E08DF808009DF803008DF80500DFF88803AD
S315080044F00078012806BF607880F00105012501F0E3
S31508004500F8F982469DF9020003990AF10A06AAF10A
S315080045100A09B042B6BF81454FF001084FF00008BE
S3150800452001208840ADF806009DF80100000604D475
S315080045307888BDF80610084201D04FF0010801F04E
S3150800454071FA9DF8030000060AD4B888BDF806106B
S31508004550084205D19DF90000B042B8BF814502DB8B
S315080045604FF0010901E04FF0000948EA050059EA51
S31508004570000000F0A480DFF804B3C149DBF80000AE
S31508004580C04E400800F001008DF80400BE480068DF
S3150800459000F4E06005904FF4E0600860002001F048
S315080045A041FE00F007FCADB1607858B1DBF80000B9
S315080045B0B14940084000CBF800000120087000F01F
S315080045C0DEFC07E0306840F400503060306820F4C4
S315080045D080503060A8480078012810D161780D42D3
S315080045E008BF01F085FFDBF80000A34940F0010091
S315080045F0CBF8000000200870642000F0C0FC60784A
S3150800460080F00100054203D00498C0B202F013F806
S31508004610607838B1306820F480503060306840F4F3
S3150800462000503060BDF80600C543B8F1000F08D049
S3150800463002F0ECF88DF801008DF802A07888284081
S315080046407880B9F1000F08D002F08DF98DF80300D3
S315080046508DF800A0B8882840B8809DF900009DF91B
S315080046600A10884202BF9DF801009DF80910884289
S315080046700BD19DF902009DF90810884202BF9DF8EA
S3150800468003009DF80510884206D0039904236A465C
S31508004690C9B20D2000F02BFE05987B49086000F092
S315080046A05FFE9DF8040001F0BDFD02F07CFA60781B
S315080046B028B148F260703060642000F060FC9DF814
S315080046C0010002F00FF89DF8030002F047F907B061
S315080046D0BDE8F08F80B501F0FFF8BDE80140E3E6DC
S315080046E001F0FAB8A0F10B01102928BFFF20704786
S315080046F070B5064601F0B2FC0546A6F10B00102877
S31508004700A6F10B0401D38A2070BD604881680907A9
S3150800471002D40068C00701D58C2070BD55480670C4
S315080047205B4801680C290FD00FF27C11594A92F99F
S315080047300020A4B231F824105118C161FFF7B4FE65
S31508004740012D08BF01F02BFC002070BD10B50446F2
S3150800475001F0C2F82046BDE81040C9E74548007890
S3150800476070473F4890F9000070472DE9F04104462C
S31508004770202514F12B0F86B049DB474801881423FE
S31508004780FFF78EFEBDF810004FF6FF71884203D082
S31508004790400448BF012607D43F2200211020FFF716
S315080047A0D7FD002680F0200504F12B022F2A2C487D
S315080047B03A491AD213220FF2301300E0521ED2B22F
S315080047C013F91270BC42F9DB03EB42040327647841
S315080047D00C60002413F81210017000218846C6B137
S315080047E0BDF810104FF6BF7228E0092C0FDA025DEB
S315080047F00A60047014232A480188FFF751FE4FF413
S31508004800C0514FF480744FF080082827E7E78B20C3
S3150800481019E04FF4605200F045F84FF4E062214683
S3150800482000F040F88022414600F03CF8781980B242
S315080048304028A8BF3F203F2280F0200100F032F830
S31508004840FFF7A7FD002006B0BDE8F08100000000D4
S3150800485094790020E8100040C37F002064100040CF
S31508004860246A002016BC020824BC02081C1000405A
S315080048702E7E0020FB6A0020C86A002080200040A7
S3150800488080E100E0D010004000E100E06020004038
S31508004890AC100040C27F002012BC0208C0100040C5
S315080048A014BC02080B205AE5AA2129005523290021
S315080048B000252800AA26270055282700002A2600B2
S315080048C0AA2B2600552D2500002F2400AA302400E7
S315080048D05532230000342200AA352200553721001C
S315080048E000392000AA3A2000D500E601EC02EF03C1
S315080048F0F204F405F506F707F808F909FA0AFB0BB6
S31508004900FC0DFD0FFE11FF1300160119021C031FF3
S3150800491010001100200030004000410050006000E7
S31508004920700080009000A000B000C000D000E00039
S31508004930F000000000000103DFF8E01451200860D1
S3150800494070472DE9F041DFF8D8640546F078042869
S31508004950B4BF302760274FF4F070B0FBF7F41E2D74
S3150800496024B201DB281B04D5A8B2BDE8F04100F04B
S3150800497006BB02F053F900F028F870700721DFF83B
S31508004980A404DFF8A42400F047F8291B09B27943E8
S31508004990C91C8908491EDFF89454DFF88074416001
S315080049A02E6800F0B0F83C68386820F0400038609F
S315080049B002F03AF93C602E6002F03AF900F0F6F996
S315080049C04046BDE8F04102F03BB98046012080F33D
S315080049D01088704738B5DFF84814C9780429B4BF79
S315080049E0302460244FF4F071B1FBF4F1451A1E2D02
S315080049F004DAA1210FF2884002F028F9DFF824042E
S31508004A00DFF82424072100F007F805FB04F1C91C88
S31508004A108908491E416031BD0160002141608160FD
S31508004A204FF0007111607047DFF8F42301215170CF
S31508004A30D0E72DE9F041DFF8F863DFF8F843002501
S31508004A40356025604FF4A040606041F29A08404600
S31508004A50FFF777FF706844F69041081A00B24FF4E2
S31508004A60487190FBF1F000B20828A8BF072004DAC5
S31508004A7010F1080FB8BF6FF00700206008274046FE
S31508004A80FFF75FFF4046FFF75CFF706845197F1E1A
S31508004A90F8D1281DC00808BF0120DFF89C13B1FB18
S31508004AA0F0F080B26060BDE8F08138B5DFF88C536D
S31508004AB001206FF00F04A8602C608020FFF741FFEB
S31508004AC0E868FF2802D8641C102CF5DB31BD70B5E8
S31508004AD0DFF86C03DFF85453016841F00101016007
S31508004AE00121416002F09AF82E68044600F00BF89E
S31508004AF0CA49512008602E6002F09AF82046BDE89F
S31508004B00704002F09DB8286840084000286002F00E
S31508004B108FB810B5C24C0120207000202071C948FA
S31508004B20816901F00301032907D10020A070042040
S31508004B3000F060F80120207110BD0F2101600221EC
S31508004B4081610120E0706420BDE810406CE72DE922
S31508004B50F041BD4CBB4EA088B14F4FF6FF7840459B
S31508004B6040F2DC551CD1B948018802237F22201D5A
S31508004B7000F000FBA088404504BF0220A080B06971
S31508004B80800703D4B06940F00200B0610120B87014
S31508004B90A08830602846FFF747FF2846BDE8F08121
S31508004BA0B2699207EED5BA78002AF6D1B268B36828
S31508004BB012F0010203D10F2809D2401C06E09B0718
S31508004BC005D523781BB1032801DB4044A080A088C3
S31508004BD022700228BCBF0220A0803068A1888842C3
S31508004BE0D4D1B06900F00300032818BFFFF76FFFA0
S31508004BF00020D3E72DE9F04780469548017800253F
S31508004C0069B9C078072818BF09280DD0032818BF26
S31508004C10112809D013281CBF15280B2804D08D4845
S31508004C20016841F48071016001F0F8FF8146FFF7E1
S31508004C30CDFE4046FFF78BFF08B9012515E07B4FEF
S31508004C40764E3C68386840084000386001F0F0FF4E
S31508004C50D6F800A0306820F04000306001F0E4FF8C
S31508004C60C6F800A03C6001F0E3FF00F09FF8484654
S31508004C7001F0E6FF2800D7D0BDE8F0870220B9E7A3
S31508004C806848694A002141608160016821F0020193
S31508004C9001600021624841704FF00071116081780F
S31508004CA009B100218170C178012914D16A4901220C
S31508004CB00A606A4A1268D20748BF03210FD4022243
S31508004CC0C270086C40F0010008640420644908605A
S31508004CD0644908607047C178042901D10521C1706B
S31508004CE070474F484078002818BFFFF7C9BF00F043
S31508004CF093BF2DE9F8434A4C207908B354E001F0F4
S31508004D008DFF0546FFF762FEE078032813D0474E6D
S31508004D10DFF8088100F0ACF8D8F80090D8F8000061
S31508004D2020F04000C8F8000001F07EFFC8F80090A7
S31508004D30376001F07DFF00F039F8284601F080FF62
S31508004D40E0780328DBD1404E3E4DB08828604FF608
S31508004D50FF777088B8420CD14348018802237F2226
S31508004D60B01C00F007FA7088B84202D1642070803F
S31508004D7001E0708878B170883C494A6D42F00102BA
S31508004D804A650A68AB68DB07FBD50B689B1AC3F351
S31508004D9013038342F6D3FFF79AFE0420E0704FF41C
S31508004DA0C870BDE8F2433FE6BDE8F183002080F312
S31508004DB0108870472DE9F843194C2179207881F03D
S31508004DC0010108421DD124E001F028FFFFF7FDFD8F
S31508004DD0E078052810D0154E104D00F049F8D5F8A2
S31508004DE00090286820F04000286001F01DFFC5F8F3
S31508004DF00090376001F01CFFFFF7D8FF404601F02E
S31508004E001FFFE0780528DFD10020A0700520FFF7F6
S31508004E10F1FE00202070BDE8F1830000008000400C
S31508004E20D87F002010E000E004ED00E094ED00E0FB
S31508004E30104000400C0000400060E31608400040A7
S31508004E401C40004004400040B86A002028BC020804
S31508004E50960708083840004018A000400C4000405B
S31508004E6080E200E000E100E02CBC020838200040A7
S31508004E703768306840084000306001F0D9BE00004D
S31508004E80636C6F636B732E630000000010B500201F
S31508004E9001F08FFE684C40F68C2188422068B4BF2A
S31508004EA040F0080020F00800206010BD10B5044648
S31508004EB06248018882B000F05DF89DF800109DF800
S31508004EC00100FF2902BFFF280420002122005C4AB6
S31508004ED0136818BF801C23F46073C0B20828A8BFE3
S31508004EE0072043EAC010106008291068A8BF0721E8
S31508004EF0C00841EAC00010605248047013BD524809
S31508004F0000B5018883B000F035F8BDF800004FF60B
S31508004F10FF7188420EBF4FF4E1600A2190FBF1F061
S31508004F20ADF800004748007808B3444801880223D2
S31508004F307F2201A800F01EF99DF80500BDF8003093
S31508004F40FF2808BF0420811CC9B20829A8BF072169
S31508004F50C1F12F0202EBD272C0F12F00521000FBF2
S31508004F600320C1F12F01B0FBF1F0ADF80000BDF848
S31508004F7000000EBD02237F22684600F0FBB83349C5
S31508004F800A68032809D34B6D43F001034B650B6888
S31508004F909B1AC3F313038342F9D3704710B5040071
S31508004FA004D110BD4FF47A70FFF7E9FF2046441E7E
S31508004FB080B20028F6D110BD2548017869B9C078B5
S31508004FC0072818BF092814D0032818BF112810D09D
S31508004FD013281CBF15280B280BD01E48016841F45E
S31508004FE080720260C80504D438210FF2740001F0FB
S31508004FF02DBE704720B1012807D0032818D019E024
S31508005000154801B11721016012E049B1480800F1BD
S31508005010B77000F55850B0FBF1F0B0F1011F01D39D
S31508005020202070470D4900F001024A6040080860D8
S31508005030002070472120704700BC004018BC0208B9
S3150800504018000040C57F00201ABC0208382000401E
S315080050509607080838400040100004E068C8004079
S315080050607573625F6572726F722E6300F0B50446DF
S3150800507089B00020FFF71AFF294801880A237F22F2
S31508005080684600F077F8BDF802004FF6FF75A842AB
S3150800509005D14FF481710FF2940001F0D7FD002677
S315080050A00FF2A00701E02A4616B94FF47C4203E046
S315080050B0022E08BF4EF23F023DF81610B85DFFF704
S315080050C04EF9761C052EEED3012C03D114237F222C
S315080050D0144802E014237F22134801880FF26C0754
S315080050E003A800F047F800262A4608E02A46012EBB
S315080050F008BF4FF6C07202D0082E08BF002203A8C8
S3150800510030F81610B85DFFF72AF9761C0A2EEDD38B
S31508005110012C04BF0120FFF7C9FE09B0F0BD00004D
S3150800512016BC020814BC020812BC0208616E616C47
S315080051306F6775652D63656C6C2D626961732E6387
S315080051400000000000100C0D0E0000000102030410
S315080051500708090A0B0F000038B514467F2C08BF4C
S315080051600024314D29431A4604FB0311BDE8384093
S3150800517001F064BE70B51E00044615461BD04BF2FE
S315080051803460814211D1092E28BF082633467F2272
S3150800519040F612012046FFF7DFFF32462349204634
S315080051A001F096FE38B940F2A27133462A462046E7
S315080051B0BDE87040D0E770BD2DE9F0410C461A49AC
S315080051C0DFF86C8041EA0006C007154602D56C2157
S315080051D000F034F8E80702D56D2100F02FF81548DD
S315080051E0864204D3A819401E1349884202D36E2169
S315080051F000F024F8002706E0F05DFF2802D07521AC
S3150800520000F01CF87F1CAF42F6D36A0821463046E8
S3150800521001F0C9FE28B14046BDE8F0417B2101F006
S3150800522015BDBDE8F0810000000008088CA2020840
S3150800523080A202080008080800100808404601F085
S3150800524005BD000030B5DFF80411DFF804510A681F
S3150800525083B001A80024026001202870002001F014
S31508005260E7FE30B1002001F0E3FE10B12C704920B2
S315080052703EBDDFF8E000018802237F220DF102001F
S3150800528000F024F802237F220021684600F01EF869
S31508005290002001A9BDF8022031F81010914208BF7C
S315080052A00124401C0228F4D3BDF8000024B1B0F54F
S315080052B07F7F07D100203EBDB0F57F7F14BF042055
S315080052C0062000E00720002129703EBD10B5FF2901
S315080052D008DCDFF87C40247844B1BDE81040C9B248
S315080052E002F0B0BABDE81040FFF744BF10BD2DE983
S315080052F0F0410446FF2C0D4616469846DFF858003E
S3150800530015DCDFF84C100978B1B1DFF85070397840
S3150800531011B1BF2101F09AFC0120387043462A4694
S315080053203146E0B202F0E0FD0020387004E0BDE846
S31508005330F041CA2101F08ABCBDE8F081DFF81010FF
S315080053400978002918BF02F0FBBE7047B4B50208F9
S31508005350B17F00201EBC0208B8B50208B27F002043
S3150800536010B5DFF85C461020206301F057FCDFF823
S3150800537054160A6842F001020A6001F061FCDFF87F
S315080053804806606020608A30616889316160012161
S315080053902163E060A060DFF83416E0688930E060D9
S315080053A0022020634FF6FF70086010BDDFF8200664
S315080053B045F26401C1601E21416250210162C82183
S315080053C0C1618165F021C16545F690014166882174
S315080053D081660621C16644F2066101604FF6FF71D7
S315080053E04160DFF8F005007838B1DFF8EC0548F2DF
S315080053F0607101604FF4C1514160DFF8E005016852
S3150800540041F0040101600020DFF8D41548707047A8
S31508005410DFF8B8050068C00700D408E07047DFF871
S31508005420AC05006810F0190F00D100E070470021A4
S31508005430002002F0D5BF2DE9F84F8046DFF8A41505
S31508005440012003F06EF88A21DFF87C0501FB08F1DC
S315080054504518681C4178007800EB0120DFF88815AC
S3150800546009781FFA80F9DFF88405017000EB080A4D
S3150800547000208AF802005FEA896003D5DFF87045E4
S31508005480606E000640F18F80002609F007000328A9
S3150800549061D109F4406009F44041B0F5806F1CBF42
S315080054A0B1F5804F002956D00422B0F5006F08BF29
S315080054B0082203D0B0F5406F08BF0E225FEA4960A4
S315080054C05CBF921CD2B2B1F5004F0CBF971C02F11B
S315080054D00807FFB2781C00EBD070C0054FEA106BC6
S315080054E05FEA080014BF60682068584533D3A818D7
S315080054F0B1F5404F03D103F0BCF8064612E04078F8
S31508005500A95C01EB002080B203F096FAFF2808D0C8
S31508005510DFF8E014096831F810004FF4E461084236
S3150800552000D00126BEB15FEA097014D45FEA08000C
S3150800553014BF606820680BF10101884207D2E06851
S315080055405FEA080114BF022101210842EED1E85D95
S31508005550042818BF0026E06D000900F00100864205
S315080055608AF802001FD0002EA26C4FF400604FF498
S3150800557080610BD0B8F1000F08BF0846024212D06E
S31508005580606C40F00100606401200AE0B8F1000F89
S3150800559008BF0846024206D0606C400840006064B6
S315080055A000208AF80200BDE8F18F2DE9F84F04467D
S315080055B0DFF83C54DFF8346420000CBF28686868BC
S315080055C0C1B2052905DAFFF723FF7068401C706031
S315080055D08CE040008DF800008A2000FB04FBDFF811
S315080055E0E8839DF8000008EB0B094844A0F108077A
S315080055F03878797801EB00201FFA80FAB878663097
S31508005600B870307818B9DFF8E00300783070307871
S3150800561038700020307003F0DDFA7870DFF8AC736C
S31508005620386C20F4805038642000686E02D178689F
S31508005630400504D4012C23D17868000520D5FFF74E
S31508005640E7FEDFF8B403017891B1002101701AF47E
S31508005650E45FDFF8A803016802D00022402005E0D5
S3150800566099F80100000900F001028F2003F093FB6E
S3150800567020000CBF4FF480604FF40060786030E083
S315080056801AF4E45F2BD100F081FD10B15FEA4A40BD
S3150800569025D518F80B00802821DA386C99F80110FE
S315080056A0890626440ED5696E09060FD4A96CC90663
S315080056B00CD4396822000CBF80224FF4807208404F
S315080056C0104203D1FFF7A4FE0020B070B2789DF80F
S315080056D00010484603F07DFC0020B07001E0FFF79B
S315080056E097FE002C0CBF012002202861BDE8F18F2F
S315080056F02DE9F84FB54CBE4E2068216CDFF800B393
S31508005700DFF8F482DFF8FC92DFF8D8A201EA000598
S3150800571038E061B18A22AC49504308444078C00653
S3150800572005D4B648016800228F2003F034FB28060A
S3150800573008D50FB9FFF76CFE03F090FC802025F022
S3150800574080052060E80509D50FB9FFF761FE03F06B
S3150800575085FC4FF4807025F480752060680407D5B1
S315080057600FB9FFF755FE4FF4804025F480452060B9
S31508005770280407D50FB9FFF74BFE4FF4004025F470
S3150800578000452060002D73D00027280706D5002085
S31508005790FFF751FE082025F008052060E80606D523
S315080057A00120FFF748FE102025F01005206005F0BF
S315080057B06000602803D1B06CC0050AD401E0A806D1
S315080057C005D52020206025F02005002006E0680683
S315080057D006D54020206025F040050120FFF7E5FEAC
S315080057E0E80404D54FF4805025F480552060E80776
S315080057F09DD5012020606D0802F01AFE6D0078B173
S315080058004FF448725146012002F02EFE02F092FD36
S3150800581040054CBF03200120002102F0E1FD0127CD
S3150800582099F8010008B100F0FBF899F80000002883
S3150800583006D000F01DFC012807D198F800000028C2
S315080058403FF475AF9BF8000004287FF470AFF0684A
S31508005850400800F00100002814BF7168316811B9CA
S315080058602168C904F7D5002814BF7168316850E764
S3150800587000202060BDE8F18F634800687047F0B5E6
S3150800588006460D4689B00021032001F035F904AC1F
S3150800589008E034F811205040491C08293080F8DB0C
S315080058A06D1EB61CE8B290B1002701F040F924F845
S315080058B0170001F03CF9694621F817007F1C082FEC
S315080058C0F3DB04A803F064FC00200021E5E701F0FF
S315080058D06AF9012009B0F0BD0321022001F00CB9D4
S315080058E04FF6FF71081A292190FBF1F03A3040B2C1
S315080058F0704738B501F01BF9FFF7F2FF434D044630
S315080059002878B0B90321032001F0F6F84048018849
S3150800591002237F226846FFF72DFC01F008F9BDF83F
S315080059200010401880B2FFF7DBFF153868700120B9
S31508005930287001F038F96878201A40B232BD80B56F
S315080059400321022001F0D8F8BDE80140D1E770B57F
S3150800595030480078002490B9FFF7F1FF204E05463D
S31508005960707848B13078401B40B203F01AFC0B2817
S3150800597005DB3570012402E0012035707070204681
S3150800598070BD25480078704723490B78984200D1A6
S31508005990704780B5087040B1204900200860094862
S315080059A0016821F08001016001BD00F06FFC00F084
S315080059B045FC00F0AEFBBDE8024000F092BB0000DB
S315080059C00020004084200040387E002000A00040CF
S315080059D04C100040FC6A0020D01000408020004097
S315080059E0D27F00201F540008FB6A0020307A00206E
S315080059F02020004030690020B07A0020B87A0020C4
S31508005A00C76A0020CE7F002038200040D07F0020C3
S31508005A101CBC0208C86A0020D47F0020541000402D
S31508005A207047000010B50D48018884B00A237F220C
S31508005A306846FFF79FFBBDF800004FF6FF74A042CB
S31508005A4004D14F210FF2180001F000F9BDF800103B
S31508005A5022460020FEF783FC1FBD000016BC020884
S31508005A60616E616C6F6775652D66696C7465722EFB
S31508005A7063000000DFF82008007848B1DFF81C084A
S31508005A800179012904BF4079042801D10120704712
S31508005A90002070470FF6B0014008085C7047010601
S31508005AA044BF4FF6F83101EAC0007047491C80012F
S31508005AB089B2B0FBF1F080B2FF288CBF0020C0F19C
S31508005AC0FF00C0B2704738B5DFF8D807C17809B10A
S31508005AD0002032BDDFF8D847617871B1E1780079E6
S31508005AE045182079ADB28542A8BF054603F074FB78
S31508005AF00121A940491E084000E0002061790818E4
S31508005B00C0B232BD2DE9F0470446C00705D540F2BC
S31508005B109B110FF6240001F099F8DFF89857286DC5
S31508005B20C00748BF8C2075D4DFF87807DFF8807780
S31508005B3000210170417829B9397819B1A96F41F066
S31508005B40010102E0A96F49084900A967DFF84C87F7
S31508005B507A7898F80610DFF86097DFF8606792B1F0
S31508005B60002202710129286D40F00400286506D13B
S31508005B704FF6FF7030604FF40070C9F80000FFF769
S31508005B80A2FF82460CE0286D20F004000129286552
S31508005B904FF0000A04D100F02FFA6420FFF7EFF95E
S31508005BA0A86F20F00800A8671420E864C5F848A084
S31508005BB0787838B198F80600002801BFA86C002844
S31508005BC00120A864B8790028286D14BF40F00800A1
S31508005BD020F008002865FFF74DFF18B1306C40F03B
S31508005BE008003064202028626C602C606868DFF842
S31508005BF0D0167F306860042028624FF4E0600860A1
S31508005C00DFF8C0160968C9F80000286D40F00100E1
S31508005C1028650020BDE8F087DFF8AC060021416062
S31508005C208160016821F0020101604FF00070DFF821
S31508005C309C1608600120DFF898160870704733280C
S31508005C4000D2704710B5B0F5002F0CD2DFF88046A9
S31508005C5000212170FEF7BEFE02E0012003F0D8FA0B
S31508005C6020780028F9D010BD2DE9F84FDFF84C86CA
S31508005C70DFF83056D8F80000D8F84010DFF8347648
S31508005C8001EA0004A4B2C8F800406878002840F089
S31508005C90D380E007DFF83C66DFF814964CD5D7F8D2
S31508005CA000A0386C796C41EA0041A96099F80000B7
S31508005CB000283DD09AF80100800639D501202870C1
S31508005CC0FFF7D8FEC0B31920FFF759F9DFF808B671
S31508005CD04FF44040CBF82800DBF800000090F06E47
S31508005CE040F40050F066F06E40F48050F0669AF882
S31508005CF00010A8684901B83101EB000AFFF7BCFD9E
S31508005D00AAEB0000C0F31300FFF799FFF06E4008F6
S31508005D104000F066F06EBDF800100843F0660020FB
S31508005D20CBF8280048F26070F066E888306003E037
S31508005D300022002003F02FF820060ED5287830B16F
S31508005D40002028700022A968402003F024F8D8F81B
S31508005D503C0020F48050C8F83C00600608D56878F6
S31508005D6030B9FFF789FD01460022892003F013F8B0
S31508005D70E00652D5DFF824A5DFF83CB59AF804000A
S31508005D80012804BF9AF8061001291FD100F0B0FBBC
S31508005D90386F40F001003867002400208AF80600B2
S31508005DA0FFF7DEFA0A20FFF7EAF84FF6FF70C8F8A1
S31508005DB000004FF4E060CBF800000920B866012027
S31508005DC0B864B86F40F00800B86718E02979491C2C
S31508005DD02971C9B299F80220914215D2012808BF43
S31508005DE000F0DDF8B86F20F00800B8671420B86630
S31508005DF0FFF769FEB8644FF40070CBF80000386D01
S31508005E0040F00100386508E0687830B9FFF734FDDE
S31508005E10014600228D2002F0BEFF20070CD5FFF7B1
S31508005E2029FE48B13068E88001203060D8F8400083
S31508005E3020F00800C8F84000A0060AD520203862DD
S31508005E40687830B9FFF718FD01460022882002F06D
S31508005E50A2FF687820B114F4407F04BF0120A8701F
S31508005E60BDE8F18FDFF8780400887047DFF8301452
S31508005E700028086814BF40F4404020F440400860F9
S31508005E80704770B582B00546FEF72AFCDFF8540461
S31508005E90DFF81444DFF80464002101601521E1608D
S31508005EA0092101651F21416001210166DFF83004DF
S31508005EB00088FEF798FAFFF779FA03F089FC00F0F4
S31508005EC02BF9308900F055F9708900F05AF900F07D
S31508005ED0A5FE616841F04001616000F0B1FE70788E
S31508005EE000F0E8F8B07800F0FCF8DFF8FC0300787A
S31508005EF000F029F9DFF8F40390F90000FEF735FC05
S31508005F00307800F08FF996F9030000F097F9DFF87A
S31508005F10E00300F0B5F9BDF80000DFF8D813C005B6
S31508005F204CBF0020BDF800000870DFF8CC030078ED
S31508005F30FEF7DEFB28B140F2F2310FF2FC3000F03A
S31508005F4085FE012D04D12068C00748BF00F027F858
S31508005F506DB92068C0070AD400F0CAFA206840F074
S31508005F6001002060C820FFF70AF80020B071F12070
S31508005F70DFF84853286440F2F910E86302F058FA4B
S31508005F80FFF774FFFFF7ECF92068C00704D54FF652
S31508005F90FF70286000F05DF8FEF70CFF73BD70B562
S31508005FA0DFF85853DFF8F4422E68A079012822D08A
S31508005FB000F034FEB6B2DFF808232E604FF4E06135
S31508005FC01160DFF818130A6A520852000A620A6852
S31508005FD0520852000A600A6842F002020A604A6AD7
S31508005FE042F001024A620121A17100F029FEBDE8D2
S31508005FF0704000F05BBA70BD70B5A84CA07938B394
S3150800600000F076FA00F00AFE0546DFF8F412A74E0D
S3150800601001200860306D40F0010030650020A07155
S31508006020FFF79EF920203060306B40F002003063A5
S31508006030F06D40F00800F065284600F001FE0A20E1
S31508006040FEF79DFF9D494FF6FF70086000F001F8C6
S3150800605070BD4FF4E0609849086070478F488079B2
S3150800606070478E480079012808BFFFF798BF704728
S315080060708A480079704780B5022801DB012002BDF5
S31508006080864908718979884205D010B9FFF7B4FFA7
S3150800609001E0FFF784FF002002BD9A4800688002ED
S315080060A000149A3801B211F1800FB8BF6FF07F0063
S315080060B040B2704710B5044600F0B0FD92490A6830
S315080060C0002C04D042F012020A60012103E022F0FB
S315080060D012020A600021714A517043E06F48407805
S315080060E0704738B5054600F099FD0446FFF749FCA8
S315080060F040B985482900016814BF41F0800121F0A4
S3150800610080010160654885702046BDE8324000F090
S3150800611097BD6248807870477C494A780B787C48F6
S3150800612003EB022202608B78CA7803EB02224260F4
S315080061300B794A7903EB02228260CA79897901EBE5
S315080061400221C160704710B5044600F067FD6E492C
S3150800615022000A6814BF42F0200222F020020A60D8
S3150800616061490C70BDE8104000F06ABD4B480089D3
S3150800617070474A4908816749086070474748408917
S315080061807047464948816449086070476348007803
S3150800619070475248816A41F002018162012101601B
S315080061A070474E4800210160816A21F00201816230
S315080061B05020FEF7E4BE38B5594C5A4821695A4D65
S315080061C00180E1694180E96C818000202061FFF748
S315080061D0E0FF0120E0610020606220624CF25D0071
S315080061E0E864286840F4004028604FF400402060C6
S315080061F048F20200206031BD80B5FFF7D2FF48485B
S315080062004FF4004101600021016047490A6822F401
S3150800621000420A60434A9388CB6411880161518819
S31508006220C16101BD204902000A6814BF42F002029A
S3150800623022F002020A6019490870704738B5044608
S315080062407F2C0AD1394800F01BF8BDF80000C005BC
S3150800625054BFBDF800406FF04A0400F0DFFC054665
S31508006260FFF78FFB30B964B204F19A008005304914
S31508006270000C08600948C470284600F0E1FC31BDEE
S31508006280018802237F226846FEF774BF034890F907
S315080062900300704700000000E27F0020C26A002069
S315080062A040A00040B07A0020802000403020004006
S315080062B0346A00201020004000E100E004A00040FD
S315080062C080E100E0A820004010E000E004ED00E0D6
S315080062D0E37F002064100040E41000406020004086
S315080062E0306A00205C100040E17F0020246A00200C
S315080062F02ABC0208C27F0020FB6A00201C1000404E
S31508006300281000400C100040842000400C7A002021
S31508006310982000409420004090200040096B0020FF
S31508006320181000405C7F0020C010004030BC0208F6
S3150800633054100040704700007068792D636F6D6DCA
S315080063406F6E2E6300000000FEF7C80138B5012005
S31508006350FEF7FDFB0020FEF7A9FD904C206840F0F3
S3150800636008002060FDF79CFFFEF790FD00F05CF842
S315080063700D8805604D88456088881060C88850601B
S31508006380088918604889586000F090F8206820F05D
S3150800639010002060FDF73FFF03F026FAFEF76EFCBB
S315080063A0FDF77CFFBDE83140FDF797BF40F201607D
S315080063B003F0B4BA10B503F07EFB03F015FE784976
S315080063C078480A78C2604B78774AD360774B8978E1
S315080063D0D960774900F001F810BD0C8804604C8834
S315080063E0446088881060C8885060088918604889A1
S315080063F05860704710B5FEF78CFBFEF747FD00F0B6
S3150800640013F8FFF7EAFF00F051F86448016821F035
S3150800641010010160FDF7FFFEFEF76BFC03F0EFFDD0
S31508006420BDE8104003F063BB62495E480A78C26063
S315080064304B785D4AD3605D4B8978D9605E49704771
S31508006440F0B50F249D0004FA05F51668284212D007
S31508006450002505EB830720FA07F7FF0708D5AF00E5
S3150800646004FA07F731F813C0BE4307EA0C073E43A0
S315080064706D1C042DEDD31660F0BDF0B5FF25DE00CA
S31508006480B540146828420FD0002505EBC30620FA4C
S3150800649006F7FE0705D50126AE40CF5CB4433E405D
S315080064A034436D1C082DF0D31460F0BD2DE9F84374
S315080064B00021002001F094FF01F0BDFF3F4C206849
S315080064C0A0B10026364FDFF8DC9000F02FF8761CD6
S315080064D0032EFAD3DFF8D8800026002700F034F818
S315080064E000F02CF8761C7F1C032FF7D3BDE8F18348
S315080064F02DE9F84301F0A0FF304C2068A0B1002632
S315080065002C4FDFF8A09000F011F8761C032EFAD372
S31508006510DFF8A4800026002700F016F800F00EF831
S31508006520761C7F1C032FF7D3BDE8F18309EB4620C1
S3150800653000F10C022068334639469EE7761C20682F
S31508006540F3B22A1D41467BE709EB47252068F3B2DB
S315080065502A46414674E70320FEF7F0BE80B503F0ED
S31508006560F9FD014616480B2938BF00EB810002BD2C
S3150800657080B503F0F3FD0104090E0B29C0B209D258
S31508006580104A525C904205DA0F4A52F8211001EB84
S31508006590800002BD0D4802BD0000000000BC00409E
S315080065A09069002000B0004000B2004000B40040EE
S315080065B0846900208069002074690020187300200F
S315080065C094A20208D8A30208ACA30208C0A2020833
S315080065D010B503F0BFFD044603F0C0FDC0B208B90C
S315080065E0012C07D1072C11D8DFE804F0041006089F
S315080065F0080A0C0E002010BD092010BD022010BD8F
S31508006600032010BD0B2010BD062010BD44F08000ED
S3150800661010BD00002A490A68520852000A600A6832
S31508006620104308604FF400412648016000210160CC
S315080066306420FEF7A4BC2DE9F047234D204FD5F87A
S315080066400090224C8046286840F40040286038684C
S3150800665020F480503860207868B162781C48A178A8
S3150800666000EB820200EB880012F82A2C10F82A0C9C
S31508006670891A461802E0012020262070B0B2FFF7DA
S31508006680C9FF0FF2500A02E0B0B2FFF7C3FF386B3A
S31508006690042805D0386B400754BF761E761CF3E7EE
S315080066A0F86A38B184F80180A6701FFA89F0286064
S315080066B0BDE8F0874FF49071504600F0C7FAE6E758
S315080066C0D0100040181000401C100040DE7F00204B
S315080066D0A8480008616E616C6F6775652D76636FF3
S315080066E02E63000081014FF4FE5289B20C20FDF79B
S315080066F036BE2DE9F84F8B4CDFF82CB2A56820681A
S315080067001FFA80FA00F04FFA0127B020ADB2002632
S315080067104FF00A08B946206308E016F1190FB8BF0A
S315080067204FF00A08464436B27019A060DBF800003C
S31508006730000702D559EA070028D00120FEF71FFCFA
S31508006740B9F1000F11D0AAF10300874202DAFF1C43
S31508006750BFB213E00AF5004020600621092000F0C8
S31508006760CBF957464FF000090BE0DBF800000007AD
S3150800677007D5042FA6BFFF1EBFB2002707F50040A6
S3150800678020601A2EC9DB6FF00908CBE7A560C4F8AC
S3150800679000A00820CBF800006448006880B2BDE875
S315080067A0F28F80B55E4B62491B784FF0FF326BB1B2
S315080067B0002819BF4A605F48486041F21110086016
S315080067C05D4841880088BDE8044092E7002819BF63
S315080067D04A600A604860086000F0E5F9BDE80440D0
S315080067E00621092000F0D9B938B50120FFF7D9FFED
S315080067F004460020FFF7D5FF05460120FFF7D1FF25
S315080068004042001B00EB450000B232BD2DE9F04FB7
S315080068104A4C4B4D424F83B0A06AADF802004FF088
S3150800682000082068ADF80000D5F800B0387858B1EF
S315080068304FF6FF7200210820FDF78AFD8046C02228
S31508006840C0210820FDF78BFD3E48DFF8FC90007854
S3150800685018B148F26070C9F800007888364E40F4DE
S31508006860404040F04C00C9F83C000220A0620120DC
S31508006870206040F24C40FEF782FB0120E860286069
S315080068800020308040207080387800B12020FFF743
S3150800689029FFFFF7A9FF8246402030807F207080BD
S315080068A0FFF720FFFFF7A0FF00F050F8FE2148434E
S315080068B00190AAEB060A387848B1304602F071FC16
S315080068C000F044F8019980B201EB861103E000F06C
S315080068D03EF8019980B2B1FBF0F080B2401CC603C5
S315080068E01FFA8BF028600020E86002202060BDF8BF
S315080068F000002060BDF80200A0620020C9F83C0034
S31508006900387828B14FF6FF7241460820FDF727FD73
S3150800691040F24C40FEF733FB300CBDE8FE8F00001A
S31508006920BE6A0020C010004018A000400070004059
S3150800693038100040EEEEFFFF587F00206020004030
S3150800694028100040FC6A0020D01000400646504639
S3150800695002F027BC41003F2289B201E001463F22EE
S315080069600220FDF7FCBC2DE9F04F564C564D95B06C
S31508006970E06CADF810004FF6FF782068ADF80E0011
S315080069804246E86AADF80C0000210120FDF7E0FC5C
S31508006990ADF80A00424600210B20FDF7D9FCADF8F8
S315080069A0080000264FF4004020600DF1140B00206B
S315080069B02861686148F2020000F088F84CF68C30CD
S315080069C0E0644FF4805248F2F000E8621146012074
S315080069D0FDF7C5FC424600210B20FDF7C0FC062149
S315080069E0062000F0DAF8019000F082F800904CF6E4
S315080069F09C30E0640020FFF7ADFF0621062000F07A
S31508006A007BF8B0B2FFF7A6FF0621062000F074F85F
S31508006A1000F08DF82BF81600761C202EF1DB00F01E
S31508006A2086F81020FFF796FF00F062F80099019AA1
S31508006A30401ABBF820108E1A404306FB06094FF091
S31508006A40100A112700F04EF800F052F800F043F84B
S31508006A5005DB1FFA87FA7F1C202F8146F2DBBAF185
S31508006A60100F0ED10F2700F03DF800F041F800F0A6
S31508006A7032F806DB1FFA87FA7F1E3FB2002F8146DF
S31508006A80F1D5BDF81000E0644246BDF80E0020605E
S31508006A90BDF80C00E8620120BDF80A10FDF75FFC9E
S31508006AA0BDF8081042460B20FDF759FC0120286165
S31508006AB0002000F00BF84FEA4A00C0B215B0BDE856
S31508006AC0F08F0000C010004018100040286040F207
S31508006AD04C40FEF754BA0099401A404306FB06009C
S31508006AE0484570473BF817000199461AB8B231E78E
S31508006AF00621072000F051B870B505460E4603F08A
S31508006B003DFB3F4C206C20F00800206403F038FB66
S31508006B1000F084F8E90141F001013A4A41EA0631F8
S31508006B20116008212160BDE8704000F089B82DE9A0
S31508006B30F041354C354D324E25E003F01FFB344904
S31508006B4004200860306C40F0080030642F6828681C
S31508006B5040084000286000F06BF8D4F800802068F0
S31508006B6020F04000206000F05FF8C4F800802F6035
S31508006B7000F05EF8306C274920F0080030640420E5
S31508006B80086003F0FDFA30680007D6D508203060A3
S31508006B902148006880B2BDE8F08180B5FFF7ACFFF8
S31508006BA0BDE80140C3E71748016849084900016084
S31508006BB07047F8B50746FEF7A2F90446394603209A
S31508006BC0FFF7EBFF054639460120FFF7E6FF0646C5
S31508006BD0FDF7BDFB39460020FFF7DFFF0746FDF747
S31508006BE0B5FB08480168490849000160781B00049C
S31508006BF0711BB0FBF1F060434000000CF2BD0000D1
S31508006C0018A00040047000400080004094ED00E0A9
S31508006C1000E100E080E200E000700040EFF3118040
S31508006C20602181F31188704700BF30BF00BF7047ED
S31508006C30BFF35F8FBFF34F8FBFF36F8F70470000AF
S31508006C4080F311887047000042DE704738B5044665
S31508006C500D46FDF72EFBFFF7E1FF2946204603F018
S31508006C60B6FA2B4622466B49002003F0FFFC29465C
S31508006C702046BDE83440E7E767482DE9F047674D09
S31508006C8001682E1D4FF420687165016AB165644973
S31508006C900968F165416A3166816A7166C16AB166D9
S31508006CA0016BF166806B306796F8340040074CBF7D
S31508006CB0F46BB46B02F0C5FE0022F2648442594AB2
S31508006CC0014624BFA2F1200AA2452746316505F1EF
S31508006CD08C03DFF854C1DFF854E118D3A069306497
S31508006CE0E4697464746DC4F30804062C13D1704502
S31508006CF011D360450FD200884DF64264A0420AD1EE
S31508006D003068586040F201787068986003E00027A0
S31508006D103764776407464648814202D2014600E056
S31508006D20091D0846904203D20C68B4F1CD3FF7D04E
S31508006D304049081AB0640021002005EB8004401C75
S31508006D400628A167F9D3002003E0C0B205EB80044A
S31508006D50A167974222D252F8041D7145F9D36145BD
S31508006D60F7D2CC07F5D5002405EB8409D9F8789035
S31508006D70894502D0641C062CF6D3062CE9D10028D6
S31508006D8014BF401E0520E0E7716F002405EB84025E
S31508006D90641CD76F9767052CF8D319600146481EFF
S31508006DA0C9B20029F0D1706DC0F3080002280AD0D4
S31508006DB0032815D0042816D0052817D0062818D079
S31508006DC00C281CD01EE01C480168890748BF40F6FD
S31508006DD002181CD40068C00719D540F2025816E0FC
S31508006DE040F6012813E040F6022810E040F6032892
S31508006DF00DE0B8F5206F0AD140F6042807E040F602
S31508006E00052804E018B1242838BF40F6072840466C
S31508006E10BDE8F0874475020804ED00E00000002094
S31508006E2000E300E0E8670020C06E02089041000811
S31508006E3098000020E86700201CA00040814233D259
S31508006E4010441144401E491E10E011F8013900F89B
S31508006E500139121F11F8013900F8013911F8013901
S31508006E6000F8013911F8013900F8013992B2042AFB
S31508006E70EBDA93B2002B1EBF11F8013900F801397D
S31508006E80521EF6D1704711F8013B00F8013B121F5C
S31508006E9011F8013B00F8013B11F8013B00F8013BF2
S31508006EA011F8013B00F8013B92B2042AEBDA93B2DF
S31508006EB0002B1EBF11F8013B00F8013B521EF6D10C
S31508006EC07047130003D00A46194603F00BBC7047F7
S31508006ED010B500E0521E93B223B100F012F8F9D0B3
S31508006EE0181B10BD002010BD10B500E0521E93B24D
S31508006EF02BB100F006F8F9D0181B40B210BD0020DF
S31508006F0010BD10F8013B11F8014BA3427047000071
S31508006F104148018A40F6A772914202BF408A4FF45F
S31508006F207F41084203D1022801DB01207047002077
S31508006F3070472DE9F84F82468846384DDFF8D4B0B9
S31508006F40FFF76CFE2F680446286840084000286052
S31508006F50FFF76EFE01208BF80000FFF7D9FF28B96E
S31508006F604FF483710FF2B800FFF770FE2A48D0F885
S31508006F70289041464AF48070C84706462F60FFF7B6
S31508006F8057FE2046FFF75CFE00208BF800000FF244
S31508006F9098040EB1A05D04E041464AF40070C84763
S31508006FA0205CBDE8F28F2DE9F84F804689464FEA06
S31508006FB0420A1A4EFFF732FE37680546306840081F
S31508006FC040003060FFF734FEFFF7A2FF28B94FF400
S31508006FD0A4710FF24C00FFF739FE0F48D0F824B021
S31508006FE00023524649464046D84704463760FFF7CD
S31508006FF01FFE2846FFF724FE0FF22C050CB1285D6C
S3150800700005E05346002249464046D847285CBDE875
S31508007010F28F0000D77F00200000080894ED00E0FA
S31508007020666C6173682E6300000202024B4B46478A
S315080070302DE9F84F8046DFF87C903A22FF21484632
S31508007040FFF73FFFDFF870B04FF48372FF21584611
S31508007050FFF737FF3A250024184EDFF864A01AF820
S3150800706004001849375D095D401C00EBD0704010DC
S3150800707001B11930C01C00FB07F2134830F8141090
S31508007080124803F063FB012F1CBF2BF814507D191F
S31508007090641C3A2CE3DB0E483A234FF4805240F244
S315080070A0AD5103F053FB49464046BDE8F44F00F0A6
S315080070B015BB00BF8C78002084770020CCB102086D
S315080070C090B1020854B10208E0B002084CB00208B8
S315080070D068B0020810B5DFF8E84BDFF8E83B24880B
S315080070E0001B03EB4000002304E030F8134021F8AE
S315080070F013405B1C9342F8DB002010BDDFF8C02B61
S31508007100DFF8C01B1288801A01EB40010220FFF746
S3150800711010BFF8B504460F461546DFF8A86BE8B267
S3150800712000B34FF6FF70ADF80000002017F8011BFA
S315080071300DF80010401C6D1EC0B2022802DAE9B232
S315080071400029F3D1DFF8780B0088A4B2201A0122AF
S31508007150694606EB4000FFF726FF641C0100DED0F7
S3150800716000F0D7BB0120F2BD70B582B004460D46CB
S315080071701646F0B278B100F00FF8641C00201DF82E
S31508007180001005F8011B401C761EC0B20228F0DA72
S31508007190F1B20029F3D173BD01226946A0B299E77D
S315080071A0DFF8241BDFF8242B095C125CDFF8243D8A
S315080071B0185C10B102F5997292B241EAC21080B217
S315080071C07047DFF8043BDFF8102D1B5C012B1CBF52
S315080071D032F81000081802EB4000704730B591B03D
S315080071E004460D4604E0401C80B2202809DB203402
S315080071F0A1B28D420ED32022FFF7CFFF00204FF613
S31508007200FF723DF810109142EDD0A0B2FFF776FF5D
S31508007210203CECE711B030BD10B5044661882088E3
S31508007220FFF7DCFF0120A071DFF8F41B208809783E
S315080072300818DFF8A81C098800EB4100801DA0800B
S3150800724010BD10B5DFF8DC4B00F088F800F04EF9F9
S3150800725000F049F904F10801DFF8840C8160446004
S3150800726004F11001C16010BD2DE9F04300F0EEFFF6
S3150800727085B00578A846B8F1070F03DB40F2D3219D
S3150800728000F010FB0020A0716A1C208892B201A9A8
S31508007290FFF720FFBDF804004FF6FF76B04218BF8F
S315080072A0002856D00DF10409301A39F81810814211
S315080072B04FD1012704E0BDF80410884249D17F1C4C
S315080072C0474514DA39F817000100F4D1DFF8141C21
S315080072D00A88208807FB02214118711807FB02005B
S315080072E089B280B2FFF77AFF0220A071E7E7A0799A
S315080072F0022830D020882818C01C00F0A2FFBDF84C
S315080073000000000B404524D120882818401D00F0B5
S3150800731098FFBDF80010BDF80000711A000A01F0C8
S31508007320FF01884215D10320A07101222088281860
S31508007330401C0DF1020180B2FFF7CCFEBDF8020039
S31508007340FF2802D10420A07105E0B04218BF00282A
S3150800735001D000F003F805B0BDE8F08320465BE7EE
S3150800736070B5DFF8C04ADFF8785BDFF858690020A7
S31508007370A071A073A07582B004F10800A8606C60C3
S3150800738004F11000E8602046FFF76EFF04F10800DC
S31508007390FFF76AFF04F11000FFF766FFA179A07BEB
S315080073A0042908D100210428ADF800102CD1FFF7D4
S315080073B048FF012076BDA17D042812D100200429AA
S315080073C0ADF80000F3D0FFF7C9FF00F08CF8DFF83E
S315080073D0503A208900F08DF8060026D10320A073C4
S315080073E034E0042929D10020ADF80000FFF7B6FFE4
S315080073F000F07CF8DFF8283A208A00F07AF80600D0
S3150800740013D10320A07518E0A07D0428CFD000F082
S315080074106DF800F068F8DFF8083A208800F069F897
S31508007420060002D10320A0710AE0304603F09CF959
S315080074301EB140F2C73100F035FAA079032805D10C
S31508007440A07B012804BFA07D012843D0A07903288A
S3150800745001BFA17B0329A17D01293BD0022801BFD9
S31508007460A17B0329A17D01290DD0012801BFA17B9C
S315080074700329A17D012906D0012801BFA17B032983
S31508007480A17D032904D104F1080004F1100125E0C7
S31508007490012801BFA17B0229A17D03290DD001285E
S315080074A001BFA17B0129A17D032906D0032801BFBD
S315080074B0A17B0129A17D032904D104F110002146ED
S315080074C008340BE0032801BFA07B0128A07D022811
S315080074D07FF46DAF204604F1080110346860EC6053
S315080074E0A960002076BD04F1100095E604F10800B5
S315080074F092E61B781818DFF8C8371B88401CC01A94
S315080075000122694606EB4000FFF74DBD2DE9F04F15
S3150800751000F09CFEDFF8209C0078DFF820AC85B0F0
S315080075200D46ADF80C0001222088BDF80C1008188D
S31508007530461D0DF10201B0B2FFF7CCFDBDF8020001
S31508007540000AADF80200761CDFF89009B0F8008052
S31508007550BDF8020040451CBF0120287000271BE02B
S31508007560401CC1B2414515D2C0B283463AF81B1039
S31508007570BDF80A209142F3D1FFF712FE4FF680714B
S315080075800840BDF808104FF680721140884208BFBF
S3150800759009F80B707F1CBFB2BDF80200874207DAF4
S315080075A0022202A9B0B2FFF795FDB61C0020D8E763
S315080075B0002101E0491C89B2414509DA19F80100A0
S315080075C08842F7D00120287002E022F817600646A4
S315080075D06088C01EB6B2B0424FF6FF7A6BDB012256
S315080075E069463046FFF776FDBDF80000FF2750458F
S315080075F061D0701C01220DF1060180B2FFF76AFD09
S31508007600BDF80010BDF80600AAEB0101884261D159
S31508007610BDF80010BDF8000001F07F0ABDF80210A1
S31508007620F61C000A884255DA002100E0491C41454B
S3150800763004DA19F801208242F8D1CFB22388BDF8BE
S315080076400CC0634403EB4000801D00F036FDBDF816
S3150800765004006188C0F3C710401C00EBD07006EB2D
S31508007660600082B2914235D3FF2FB0D0DFF8601C9C
S31508007670C95DBAF17F0F0CBF002252468A4208DA6A
S31508007680BDF80020DFF84C38DB5D1206D20F9A42AF
S3150800769002D0012129709AE70129DFF8382C94D005
S315080076A0BAF17F0F32F8171008BF4FF0000A51449D
S315080076B022F811608BE7A6806088B1B288420BD3A6
S315080076C001226946B0B2FFF705FDBDF80000761C39
S315080076D05045F1D00120287000F0E6BCF8B58DF8C9
S315080076E00000DFF8901BDFF8D805DFF8343702888A
S315080076F0DFF83007DFF8E847028009884180DFF8BD
S31508007700DC171E780D88DFF8D03BB21802EB45026D
S31508007710921D828000228271DFF8C02B12880281B6
S31508007720B21802EB4502921D1B8882814381002212
S315080077308273DFF8AC3BDFF8AC2B12880282B218F2
S3150800774002EB4501891D1B888182438200218175D0
S3150800775003F0B8F900284DD1FFF702FE9DF8001096
S3150800776008438DF800000122606800883018801CE4
S31508007770A11C80B2FFF7AEFC9DF8000000283CD1A2
S315080077806068DFF854776946FFF7C0FEDFF8580BE4
S315080077900688A0688179032921D16946FFF7B6FED4
S315080077A06168DFF82C2B00200FE0A84202DA135C90
S315080077B0012B09D137F81030B1F800E0734524BF22
S315080077C0B1F802C09C450AD2401CB042EDDB02204B
S315080077D08871A16860686160E168A160E060002066
S315080077E04FF6FF7200E0401CB04206DA37F8101078
S315080077F09142F8D101208DF80000607828B1012067
S315080078008DF800000020607002E09DF80000B8B115
S315080078104D2002F0A9FF6088401C6080E068FFF7F1
S31508007820FBFC9DF8000000F041F838B100F075F84F
S3150800783020B19DF8000000F051FA08B90120F2BD08
S315080078400020F2BDF8B50D46DFF8901609881746F0
S315080078507F2F08BF00278D423EBFDFF86C14495DB5
S315080078608F4204461E4605D2DFF86014495D8E42F3
S3150800787000D11CB940F2536100F014F83946284685
S31508007880FFF79FFCDFF8F0190088495D29B101462A
S31508007890284600F037FC2060F1BD32462146BDE897
S315080078A0F84061E40FF67420FFF7D0B9F8B5DFF8B1
S315080078B03016DFF81044DFF88458002814BFC8686B
S315080078C08868DFF85C15008809780818861DB6B23E
S315080078D0002702E0B61CB6B27F1C00F09DFA87426C
S315080078E015DAF8B2FFF75CFCADF80000022235F8AD
S315080078F01700DFF8FC391B88ADF802006946F01A54
S3150800790004EB4000FFF74FFB0100E3D001E0012044
S31508007910F2BD02F029FF0020F2BD2DE9FF47DFF88E
S31508007920BC05DFF8FC1400880978DFF89883ADF801
S315080079300A000025DFF8A805C06800880818BDF801
S315080079400A1000EB4100861DB6B200E06D1CBDF8BA
S315080079500A00854280F2AC80DFF87805405D8DF834
S3150800796008004FF0000A63E0ADF802004FF6FF701A
S31508007970BDF80210401AADF806004FF6FF72D0485F
S31508007980BDF800100488301B761C914208EB4000B5
S31508007990B6B216D100F09EF801001CD100F09FF88F
S315080079A0010018D1B61CB6B2C8483E80425DDFF861
S315080079B0440950F825103046FFF7ABFB002830D1B4
S315080079C07FE0C249495D491C01EBD1714FEAC159B3
S315080079D000F080F8010071D100F081F801006DD146
S315080079E0B61CB6B23E809DF80800002841D000209B
S315080079F00390DFF8EC04007828B103AA6946A8B218
S31508007A0003F0A2F805E0BDF80010E8B200F07AFB32
S31508007A100390301B4FEA196203A900F005FA01002A
S31508007A204CD1DFF8D408405D8619B6B20AF1010ACE
S31508007A30A548445D5FFA8AF0A04287D25FFA8AF1C8
S31508007A40E8B2FFF7BEFB07463888ADF800009DF898
S31508007A500800C00140EA0520ADF80200012CBDF877
S31508007A6002000EBF40F07F005FFA8AFA4AEA000079
S31508007A707AE700270CE000F027F8FFF72BFBB81988
S31508007A80001B012201A900F0CFF9010016D17F1CC5
S31508007A90FFB2B7EB196FC4DADFF8440400780028A0
S31508007AA0BDF80000E7D000F00FF802F0A1FEE6E707
S31508007AB0DFF82C04C0688680012002E002F054FE3C
S31508007AC0002004B0BDE8F087411CADF80010012283
S31508007AD001A9704701220DF10201FFF764BA301BB4
S31508007AE001220DF1060108EB4000FFF75CBA2DE90B
S31508007AF0F64F8046DFF80438DFF8FC071B680C26CB
S31508007B0085B0415CDFF8F8070288500892FBF6F664
S31508007B103618B3424FF00009019128BF481808D219
S31508007B20182692FBF6F2801A834203D301EB510022
S31508007B3080B201900026DFF8A87300E0761C00F0FA
S31508007B406BF9864280F2AE80002441E001220DF1F5
S31508007B5002011FFA8BF0FFF7BDFABB68DFF860C1B8
S31508007B609B88BCF800C05748EB18A3EB0C0301220E
S31508007B7000F0AEF801000BF1010B16D16D1C04984C
S31508007B80EDB28542E2DBBDF80010BB684FF6FF7028
S31508007B90401AADF80200012249489B8805884948E1
S31508007BA09B1E5B1B00F094F8010073D1BB68454827
S31508007BB09B88DB1E5B1B012200F03EFB010069D19E
S31508007BC0B868039A81881180818851448180641C31
S31508007BD03D48855DE0B2A842B0D2E1B2F0B2FFF707
S31508007BE0F0FA0390B0F800B03848805D401C00EB0E
S31508007BF0D070C005000E0490BDF81400864202BF7E
S31508007C009DF81810E0B28842E1D07868028893455A
S31508007C1024BF40885845DAD301981FFA88F880456A
S31508007C204CDADFF8D40610F806A0B86882884188CE
S31508007C305244D21C914203DA01207870452029E08B
S31508007C40A449895DCA0142EA0622ADF80020012D41
S31508007C50BDF800200EBF42F07F02E4B22243ADF821
S31508007C600020D0448288D21C4FF001098280B9B125
S31508007C705946F0B200F046FABB68114D049A0290D4
S31508007C809B882D880F485B1B02A900F023F801008A
S31508007C903FF479AF02F068FD002007B0BDE8F08F29
S31508007CA000256CE7B9F1000F08D1796802208871C0
S31508007CB0B96878687960F968B960F8600120ECE716
S31508007CC03ABC020800D00308CCB1020890B10208F9
S31508007CD00DF1020100EB4300FFF765B92DE9FE4FF0
S31508007CE05FEA000B7E4DDFF8048614BFE868A868D3
S31508007CF001220088019000F08FF8C0F1FF0101F021
S31508007D00FF0141EA0020ADF802000DF102014448E6
S31508007D10047801982618DFF8D8050788701DC01B57
S31508007D2000F082F8010052D140F6227040EA043091
S31508007D30ADF802000122F01CC01B0DF1020100F093
S31508007D4073F8010043D1B01CC01B0122A91C08EB23
S31508007D504000FFF728F9010039D1701CC01B08EB59
S31508007D6040095FEA0B004FF6FE7A05D0FF2000F0C7
S31508007D705FF801002BD109E068680088012269468E
S31508007D80FFF7A8F9BDF80000012802D1ADF800A058
S31508007D9002E0401EADF800004FF6FF70BDF8001077
S31508007DA0401AADF808000122F01B02A900F03CF8C1
S31508007DB001000CD12046441E70B10198A4B22018C7
S31508007DC0C01B0122694600F02FF80100F2D002F02C
S31508007DD0CBFC0020BDE8FE8FBBF1000F17D0E96889
S31508007DE0032088716868FFF717FAA868FFF714FA7E
S31508007DF0EA686868A968AA60A8606960E8606A6055
S31508007E000020E96000F014F80100E0D102E0A9685A
S31508007E10032088710120DDE730480088704700009C
S31508007E2062BC0208706A002008EB4000FFF7BBB886
S31508007E30ADF8020001220DF102014846FFF7B3B87A
S31508007E40F8B50446DFF8B00482B0455CA08813464E
S31508007E5062882E18F61CB24204DA214901204870BD
S31508007E60452033E0C01CDFF89C24A08080B2525C19
S31508007E701946FFF74EF960B3DFF87404DFF86C743F
S31508007E800688A088C01E801B012202A907EB4000B5
S31508007E90FFF789F8010019D1BDF808104FF6FF70F1
S31508007EA0401AADF800000122A088801E801B694692
S31508007EB007EB4000FFF777F8010007D10899A0887B
S31508007EC00880A0882818A0800120FEBD02F04CFC7E
S31508007ED00020FEBD54B102088477002046BC020883
S31508007EE0387A002038BC02082DE9F84F84B00446D9
S31508007EF088469146FCF7DDF9FFF78EFFADF80600D8
S31508007F000127B9F17F0F08BF4FF0000984423EBF31
S31508007F10DFF8BC13095D894509D2DFF8E8139DF837
S31508007F201000095D884202D1B8F1000F03D140F66E
S31508007F30C401FFF7B7FC49462046FFF742F9012579
S31508007F400646DFF8C4038179B6F800A002291FBFE8
S31508007F50817B0229807D022802D1432002F004FC9D
S31508007F60C548005D80B35146204600F0CBF8D8F8E6
S31508007F700010814256D0AAF1030000F09EF8DFF8FF
S31508007F808C53DFF87433686842881B5D8188D21E7B
S31508007F90D21A8A4207DB31B1A9680A889245A4BF7A
S31508007FA04988514575DBE8688079D5F808A0022824
S31508007FB039D1442002F0D8FBE8688079012832D00C
S31508007FC0452002F0D1FB55E09DF8100002904FF0D5
S31508007FD0000B22E00BEBDB700AEB600000F031F9D6
S31508007FE008EB0B0018F80B10407801EB00200299FB
S31508007FF0491E8B4580B207D1BDF8001001F0FF017C
S3150800800000F0FF00ADF80010BDF8001088420BF133
S31508008010020018BF00255FFA80FB02988345D9DB6A
S31508008020002DA8D040E0A8688179012914D1002044
S31508008030FFF73CFC002837D00020FFF74FFE00284A
S3150800804032D0B348BDF80630007800EB4300C01DB7
S315080080504A46214680B204E0032911D14A46214600
S315080080600020FFF744FD28B100F021F85046FFF73D
S31508008070E7FEC8B93846471EC0B2002812D113E039
S3150800808002290CBF40F6B31140F6B511FFF70AFCFA
S315080080900AE000F00CF8FFF7D3FE28B93846471E69
S315080080A0C0B200287FF447AF05B0BDE8F08F009650
S315080080B04246BDF8043021467047012201A980B224
S315080080C0FFF708B870B582B0044600251926FFF7F1
S315080080D063F8BDF80000641C30B14FF47F41401AC4
S315080080E007D0FF3803D006E0AD1C761EEFD168B284
S315080080F076BD6D1CFBE7BDF80000C0B200B96D1C6B
S31508008100ED43F4E738B50C46002100917D490D5C36
S315080081102A4669462046FFF727F8681C00EBD07008
S3150800812004EB600080B2FFF7CDFF002848BFC043CC
S31508008130009940B2401832BD8C780020E0B00208A1
S31508008140F0B5744909880446624883B0254630F874
S3150800815015608C4202D24848405D18B940F66A213B
S31508008160FFF7A0FB6748455D681C00EBD07006EB7F
S315080081706007B8B2FFF7A6FF322814D2BFB2C1070C
S3150800818007EB60005A4F594B3F884CBF00214FF40C
S315080081907F41ADF80410C01B012201A903EB400082
S315080081A0FEF701FF60B131462046FFF7ABFF0090AE
S315080081B02B46401C00907F2269462046FFF794FE16
S315080081C0F7BD70B500F042F8067882B03546294604
S315080081D04D1E2088022921DBEDB2281800F031F85F
S315080081E0BDF800000028F2D04B492088098805FB15
S315080081F0010080B2FEF782FF0020ADF800000122E0
S3150800820023883B4C39482488EB181B1B00F014F8CC
S31508008210010018BF02F0A8FA284676BDFEF76EFFE1
S315080082200120A0713B4920880988301800EB4100DD
S31508008230801DA080E8B276BD694600EB4300FEF7D4
S31508008240B2BE0122694680B2FEF744BF04463048F2
S3150800825070472D488179022908D0817B022908BFF9
S31508008260083003D0817D022901D11030A9E700200A
S31508008270704700003CBC020854B1020870B5FFF70D
S31508008280E5FF067882B000250CE02088F6B23018A3
S31508008290FFF7D7FFBDF8000000281EBF4FF6FF7195
S315080082A088426D1C3046461E0028EED1E8B276BDDF
S315080082B015488179022908D0817B022908BF083030
S315080082C003D0817D022901D11030D7E700207047FD
S315080082D0CCB102088477002040BC02083EBC0208E4
S315080082E044BC020842BC020848BC020800D0030885
S315080082F03ABC0208CCB402089CB0020898B002083E
S3150800830036BC020890B10208706A0020387A00204C
S3150800831062BC020846BC020838BC020873696D2DA7
S31508008320656570726F6D322D696E7465726E616CFB
S315080083302E63000045480068704770B5444C454EAA
S315080083402578307841490968C9031ED405F001012A
S3150800835000F00102114318D03F490A6842B10007EC
S3150800836006D5096808208847307800F0F70030708D
S315080083703A49086870B128070CD509680820884763
S31508008380207800F0F700207004E03548017809B13C
S3150800839000210170BDE870404FE02DE9F84304461E
S315080083A08846FEF73BFC81462E4800780127B0B187
S315080083B0274F2A4E3D78200009D1002D1CBF306872
S315080083C0002804D0680602D5316840208847C6F8D8
S315080083D00080A5421CBF3C70FFF7AFFF002721E0D5
S315080083E02DE9F84304468846FEF718FC81461D48E1
S315080083F000780127B0B1174F174E3D78200009D1F4
S31508008400002D1CBF3068002804D0680602D53168E4
S3150800841040208847C6F80080A5421CBF3C70FFF77D
S315080084208CFF00274846FEF70BFC3846BDE8F2836A
S315080084300C4800787047704700BF0A48084900781A
S3150800844000200870FDF7A0BA00000000B4700020F4
S31508008450737F0020747F0020BC700020B870002055
S31508008460727F0020717F00202DE9F84305460E46ED
S315080084703000144605D1FDF7FFF92018C0F31300A4
S315080084804DE02F46022F0FF23C1803DB40214046F1
S31508008490FEF7DCFB102C05D22846B047BDE8F143B1
S315080084A0FDF7EAB9DFF8109159F8270018B1482105
S315080084B04046FEF7CBFBB4F5002F03D349214046CF
S315080084C0FEF7C4FB49F827603C4F3D4E95B9FEF7C9
S315080084D0A5FB0546FDF7D0F92418A0B27860200C54
S315080084E03860022030602846FEF7AAFB306C40F060
S315080084F0020011E0FEF792FB0546FDF7BDF92418C8
S31508008500A0B2F860200CB860042030602846FEF758
S3150800851097FB306C40F004003064C4F31300BDE8E8
S31508008520F28370B504462646022E0D4604DB662104
S315080085300FF29000FEF78AFBFEF770FB1E4951F812
S315080085402620AA4210D1002241F82620002C1C49D8
S315080085500A6C04D122F002020A64022203E022F025
S3150800856004020A6404220A60BDE87040FEF768BB8C
S3150800857070B5134C104E2068216C01EA0005ADB2A7
S31508008580A80709D5206C20F002002064316808008D
S3150800859002D000203060884768070AD5206C20F092
S315080085A0040020647168080003D000207060012070
S315080085B08847256070BD0000547C0020402000409C
S315080085C008A0004073796D626F6C2D74696D6572D1
S315080085D02E630000DFF8441400200870FF21DFF83E
S315080085E04004017001717047F8B5044602F031FB8A
S315080085F00546DFF83004DFF828740688204602F0BE
S3150800860071FCB0F5006F16D1204602F08FFC00F021
S3150800861013FAFF280DD000F08BF92146381D03F018
S3150800862014F8DFF8F803017881B10089A9190E1A40
S3150800863010E09320F2BDFF21384603F031F80528F3
S3150800864002DA21463846EAE73920F2BD0581314685
S3150800865003F08EF8B2B20321204602F0C0FB0322D3
S315080086600521204602F0C6FB204602F03DFD00200B
S31508008670F2BDF8B50446DFF8A8030078FF2813D042
S31508008680DFF8A45329680E5C3746384602F03FFCEB
S31508008690014608222046FEF71BFC08B90120F2BD58
S315080086A02868C75DB742F0D10020F2BD2DE9F8432E
S315080086B0044602F0C0FB000B00F00106204602F05B
S315080086C04AFC0546204602F035FCB0F5404F14D169
S315080086D0002E62D02946002000F0E5F80446FF2C5B
S315080086E05BD0002103F0CBFA002856D000F001F940
S315080086F040F080020521204646E0284603F02AFE7F
S31508008700054600F099F90446FF2C08BF002045D01D
S3150800871001200021224603F04BFEDFF81023D2E9A0
S31508008720008948EA000349EA0107C2E90037A6B307
S31508008730DFF8FC62336833F814704FF4E4631F42C1
S315080087402BD0BB0623D5280A8DF801008DF80050DA
S315080087506946012000F0A7F80546FF2D08D13068C4
S3150800876030F814104FF6DF72114020F8141014E098
S31508008770002103F084FA80B10521284602F041FB66
S3150800878040F080020521284602F034FB05E0D2E9D4
S31508008790024520432943C2E902010120BDE8F283CC
S315080087A038B5044602F09EFBB0F5006F0CBF0125F4
S315080087B00025204602F0ABFB04462146284600F079
S315080087C072F8FF2810D18DB1204603F0C3FD00F0E2
S315080087D033F9FF280AD0DFF85812096831F8100073
S315080087E04FF4E061084201D0012032BD002032BDBD
S315080087F02DE9F04107460C4602F074FB884DB0F5AA
S31508008800006F0CBF281D28460078FF2845D08649EA
S315080088100968085C0646B7423CD1FEF7FFF9804670
S315080088200521304602F0EDFA00F07F00471EFAB245
S315080088300521304602F0DEFA200018BF312C01D09F
S31508008840FFB207BBFEF7EAF90746304602F04AFBD5
S31508008850B0F5006F314605D1281D02F021FF00F062
S315080088604CF802E0284602F01BFF3846FEF7E8F906
S315080088704046FEF7E5F92146304604F056FD3046F7
S3150800888002F040FC04E000F038F84046FEF7D8F95C
S31508008890012003E08E5D8642BDD10020BDE8F0814F
S315080088A04FF6FF704DE02DE9F04188465C490028F7
S315080088B01ABF091D022508250878FF2816D05A4E22
S315080088C031680F5C3C4600F014F800060AD42046CE
S315080088D002F01DFB01462A464046FEF7F9FA08B99A
S315080088E0204604E03068045DBC42ECD1FF20BDE8B8
S315080088F0F0810521204602F084BA70B500212020B7
S3150800890005F061F946480079FF2810D0464C2168E1
S315080089100D5C2E46304602F009FB00F08DF8FF2864
S3150800892001D000F005F82068865DAE42F2D170BD30
S315080089303F49096831F8102042F0200221F810203A
S3150800894070472DE9F84F80460FF2E800344E00686C
S31508008950354F00904FF6FF7A344600E0341DFEF797
S315080089605DF9814606E0204602F084FE29466846FF
S3150800897002F06BFE204602F0C7FE40B9386821783F
S31508008980455C0321284602F021FA8045EBD2301DCA
S31508008990844208BFFFF7B1FF4846FEF751F9207831
S315080089A0FF2819D0396811F800904D46032128464A
S315080089B002F00CFAA0EB080B1FFA8BF203212846EB
S315080089C002F00DFA3868455D51461FFA8BFA8A455A
S315080089D088BF8A464D45E9D1301D8442BED16846D6
S315080089E002F092FEA8B9684602F044FE044602F078
S315080089F02CFA00F0F1F8FFF77CFF000603D44221B9
S31508008A00204604F092FC204602F07CFB00F0E5F8D4
S31508008A10E5E71FFA8AF0BDE8F28F0000EC7B00203C
S31508008A20906A00209E6A002028690020386C002081
S31508008A3030690020FF000000F8B50F4D2E680400CD
S31508008A4001D1FF20F2BDFEF7E9F80C4F29683A7804
S31508008A5021F8124036F8021BA142FBD1FEF7F0F8C6
S31508008A6029683A78B01E401A4010C1B2914208BF30
S31508008A70FF20C0B2F2BD00BF2C690020DC6A0020CE
S31508008A8010B57348734C0068206060604822002166
S31508008A90FEF717FA70482168007808704FF6FF71DC
S31508008AA020680022418002730020226850730B2040
S31508008AB02268907303202268D0734FF6FE722068EE
S31508008AC00282418200F088FB2168087600F084FB68
S31508008AD02168487600F080FB216888765F4821681F
S31508008AE00078C8765E492068096840F8281F5D49FD
S31508008AF0097801715C4821680068086310BD10B5E3
S31508008B00FBF72CFE534C6168897B884203D00846E4
S31508008B10FBF71CFE50B9FBF724FE0146606890F986
S31508008B200F00814204D0FBF720FE08B1012010BDDA
S31508008B306068008AFDF71DFB6068408AFDF721FB27
S31508008B406068007B012818BF0020FDF7FCFA0020AA
S31508008B5010BD10B5454C0020207003F09DFB20B9D0
S31508008B602046BDE8104002F0F9BD66E080B5002059
S31508008B7000F015F828B1002000F005F808B100202B
S31508008B8002BDFF2002BD33480068407B02281CBF97
S31508008B901128432801D101207047002070472D482D
S31508008BA00068007B01281CBF0228032801D1012088
S31508008BB070470020704700207047002070472C49F6
S31508008BC0087070477047002070470120704770474B
S31508008BD00020704700207047704770470020704794
S31508008BE080B50020FFF7CFFF18B1BDE8024000208E
S31508008BF0D5E702BD80B50020FFF7C5FF30B115489F
S31508008C000068007B032801DA002002BDFF2002BDB0
S31508008C1010B5040005D040F249110FF20810FEF70E
S31508008C2015F81348007808B9702010BD0848006880
S31508008C3048216143084407494860BDE810405EE79B
S31508008C4004484068008A704702484068408A70476E
S31508008C5048690020C0790020E96A0020EA6A0020F5
S31508008C604C690020E16A002050690020B87900208C
S31508008C70FE6A00207047002070470020704703F006
S31508008C80F0B8704705F060BA05F03AB982B08DF8C9
S31508008C900010DDE9002311461A4602B005F065BA50
S31508008CA032B586B004468DF8042005F069FA054603
S31508008CB0204605F073FA80F001010D420DD0BDF88B
S31508008CC0180005F041FB8DF80000FF2804BF0020BE
S31508008CD08DF80000CDF808D01AE0294308BF06A889
S31508008CE015D0054214D0BDF8180005F02DFB8DF8F7
S31508008CF00000FF2804BF00208DF800009DF8000042
S31508008D008DF80C00BDF81800ADF80E0003A8029007
S31508008D10DDE901010A460146204605F026FA07B0B4
S31508008D2030BD0000656D6265722D6D756C74692DB8
S31508008D306E6574776F726B2D737475622E6300009F
S31508008D40DFF8A003002120F8801B0022FF21017014
S31508008D504170C270027141718271704738B504461C
S31508008D60402C154606D1FFF7E5FA00F08020B0F151
S31508008D70004F03D000210020FFF70FFBDFF8680340
S31508008D80290018BF01210470417000F063F9BDE89D
S31508008D90314005F0F3B970B504460D4616468D2CDC
S31508008DA008BF05F0F1FA324629462046BDE870406C
S31508008DB0D4E7F8B5CB4CFDF731FF04F18006757999
S31508008DC0FF2D3FD0FF217171FDF73AFF002D207866
S31508008DD016BF8F2D01270027022802D0CE2100F0CA
S31508008DE09FF8380011D0A01C00F0CDF868B1B07912
S31508008DF038B1012020702921BDE8F440BB4802F0B3
S31508008E00B7BCFDF72EF9312019E0FDF72AF9402DF8
S31508008E1008D16078411E617070B105F0BCFABDE8F2
S31508008E20F1403BE08D2D07D1307802F07FF80146FE
S31508008E3000222020FFF734FF07B100252846BDE8A9
S31508008E40F240B3E0FDF7FCFE2078032804BF0020BB
S31508008E5000F0ACF804F1810002F00CFCFF280AD0FF
S31508008E60F178491EF17003F012F8207818B9BDE8B8
S31508008E70F14002F0C5BEF1BD9BE780B5FFF75AFA8F
S31508008E8040054CBF032001200021FFF786FABDE804
S31508008E90084001224FF4806195481BE180B5012006
S31508008EA005F094FA03F03AFA9249C0B9487830B115
S31508008EB0FFF740FA00280BD5FFF7BAFA40B1FFF7DB
S31508008EC039FA40054CBF032001200021FFF765FA57
S31508008ED001224FF48061864800F0FCF81BE0012867
S31508008EE00DD100204870FFF725FA40054CBF022037
S31508008EF00020814940F01100FFF74FFA0BE00228E5
S31508008F0005D1002200218D20FFF728FF03E040F25B
S31508008F10751100F005F8BDE80240002005F056BAC4
S31508008F200FF2EC10FDF792BE38B5044600208DF816
S31508008F3000006C4D287818B14FF4C071FFF7F0FFA8
S31508008F400220287085F880406A46A91C204602F04F
S31508008F502FFD68494870694800786870FFF79EFFDA
S31508008F6031BD03F05AB9010080B508BF01200201DE
S31508008F7063490020FFF778FA002002BD6049002007
S31508008F80FFF7CFBA704710B5441C204603F0E2F944
S31508008F9000F00700032807D1204601F087FF205C70
S31508008FA0042801D1012010BD002010BD38B50446A3
S31508008FB04C4D7E220021A81CFDF783FF0020287057
S31508008FC002F01EFE95F880102046BDE8344002F0F7
S31508008FD018BE70B504460D461646FDF79AF860B1F8
S31508008FE03EB12046FFF7CFFF18B1607840F0200069
S31508008FF002E0607800F0DF0060702946204602F043
S3150800900004F90146FF2924D0364D3E4E05F1810468
S31508009010204602F01AFB15F8830F401C2870C0B2D0
S31508009020318881420BD26878401C687007E0204678
S3150800903002F020FB02F066F82878401E2870308877
S3150800904029788842F3D300F005F8BDE8704005F0AA
S3150800905095B870BD2C48007802F078BC10B5214C44
S315080090602078012806D1214900200870FCF7F9FF6D
S315080090700320207010BD10B51C490020087000247C
S31508009080FDF7CCFD17490A78012A02D103220124EB
S315080090900A70FDF7D5FD2CB1FCF7E3FFBDE81040DB
S315080090A0312083E710BD0F480178481E8041C00F64
S315080090B07047FCF7E0BFFCF7DBBF0A4890F883105F
S315080090C0002904BF813002F01FBB002070470F48FB
S315080090D002F021BB05F042B902480078012818BF02
S315080090E000207047387B0020BD7B0020C07B002015
S315080090F03A7B0020346A00207B8E00080E6B002025
S31508009100638F0008CE6A0020C67F0020B97B002046
S315080091106C6F7765722D6D61632D65667233322EBD
S31508009120630000000268174912BACA60426812BA98
S315080091308A60826812BA4A60C06800BA08607047D6
S31508009140704710B5104980220A6006230F4A13603B
S3150800915007230B6013689B07FCD5002350F82340B0
S315080091605B1C24BA042B8C62F8D313685B07FCD506
S3150800917000220B6B1BBA40F82230521C042AF8D383
S3150800918010BD0000383000400030004010A00040FC
S3150800919010B504460846FFF7C5FF2046BDE810404F
S315080091A0CFE7002848BF40427047000001468AB210
S315080091B00AB94BF6EF610F4A1180000C0E4908BF39
S315080091C04FF6CE20088070470288130448BF4A40ED
S315080091D0510001801046704710B562210548FFF717
S315080091E0F3FF044641F20B010348FFF7EDFF604029
S315080091F010BD0000A66A0020A86A0020012100F020
S315080092001F029140DFF87425400942F82010704784
S315080092102DE9F04FDFF86C4591B061681091072889
S3150800922008BF032006D0082808BF022002D0052858
S3150800923008BF0420DFF8505529686A6841EA022108
S31508009240AA6841EA024100916968490703D5E169BC
S3150800925041F00201E1612968490703D5E16941F056
S315080092600401E1610099EA69D140C90703D5E169BA
S3150800927041F00801E161401EDFF80465DFF80C756E
S3150800928000210328316000F24682DFE810F01C0254
S3150800929006001B000400616014E0386CC00703D5A3
S315080092A0E06940F04000E061386C400703D5E069AA
S315080092B040F02000E061386C800703D5E06940F093
S315080092C01000E061FDF7AAFCFBF700F88DF83C00FA
S315080092D00120DFF8BC14DFF8BCA4C1F50041090B76
S315080092E000FA01F1491ECAF838104FF00009090AB8
S315080092F007D1DFF8A414097819B1616C41F020018F
S315080093006164396CDFF89484DFF894240E91796CE3
S315080093100D91D8F84C100C91D8F850100B91D8F83C
S3150800932054100A91D8F858100991DAF800100891E3
S31508009330DAF804100791DAF814100691DAF824100E
S315080093400591DAF834100491DFF8581409681268A0
S31508009350039202222260DFF8502412688DF8042056
S31508009360DFF8482412688DF80520DFF844241268CF
S315080093708DF806204FF0FF326262DFF8002413688A
S31508009380DB040AD56B68DB0707D5E369DB0704D579
S31508009390336843F480738146336013689B040AD5A7
S315080093A06B685B0607D5E369DB0704D5336843F4C6
S315080093B080438146336013685B0412D5009BD5F859
S315080093C018C023FA0CF3DB070BD5E369DB0708D5CE
S315080093D03368D5F818C000FA0CFC4CEA030381463A
S315080093E0336013681B0414D5009BD5F81CC023FAF8
S315080093F00CF3DB070DD5E369DB0702D4E3691B072A
S3150800940007D53368D5F81CC0814600FA0CF0184316
S3150800941030603868800707D5E069C00604D5F0785B
S3150800942040F0010000F07FF93868400707D5E06989
S31508009430800604D5F07840F0020000F074F9386828
S31508009440C00707D5E069400604D5F07840F0040067
S3150800945000F069F91068C00307D5E069000604D56D
S31508009460F07840F0080000F05EF900206A68D2073C
S315080094706A6848BF4FF480505206009AAB6948BFE5
S3150800948040F40050DA40D207009AEB6948BF40F42E
S315080094908040DA40D207E26948BF40F40040D2066D
S315080094A005D4E269920602D4E269520601D540F073
S315080094B01000E269120648BF40F480300840029066
S315080094C0A520FAF7FAFE0120E063E069A16B11B165
S315080094D0616A0142FAD0616A014200F0C580002043
S315080094E0E063F07840F04000F07000F047FE049822
S315080094F0CAF83400072038600F20C8F8000004F0C6
S315080095006DFF1098A74960600E9838640D987864C6
S315080095100C98C8F84C000B98C8F850000A98C8F878
S3150800952054000998C8F858000898CAF8000007981F
S31508009530CAF804000698CAF814000598CAF8240060
S31508009540029808609649039808604FF0FF309949D9
