S02700005A3343617053656E736544696D6D6572537769746368536F635F656D333538372E73333731
S31508004000E8EB002059560208853802088938020864
S31508004010A70A0A0100410008040E03AC0061540017
S315080040200000000000000000000000000000000082
S315080040300000000000000000000000000000000072
S315080040400000000000000000FFFFFFFFFFFFFFFF6A
S31508004050FFFFFFFF000804081016011800280408CF
S31508004060FFFFFFFFFFFFFFFFFF000000000000004B
S315080040700000000000000000000000000000000032
S31508004080F0FF002000000000ECFF0020ECFF0020FD
S31508004090E8EB00209C190308165A020888E200205B
S311080040A0C41000200028040800000120BD
S31508004100E8EB002059560208853802088938020863
S31508004110913802088D380208953802089439020841
S315080041209439020894390208943902089439020825
S315080041309938020894390208943902080F4D000884
S315080041406B350208943902087792000894390208F8
S31508004150279F0008943902089439020894390208FE
S31508004160097F0008955C00081D570008A54100084E
S315080041709324020894390208D1910008972402086A
S315080041807795000894390208943902089439020888
S31508004190012100F01F029140354A400942F82010DB
S315080041A070470000F8B5344C344D2178286840072C
S315080041B02BD5032929D23248324A008822F8110021
S315080041C00120314A137800FA01F1194311702F4A78
S315080041D02F491378002B12D0002623FA06F7FF077B
S315080041E008D5B0402670584010702A4830F8160096
S315080041F008600AE0761CF6B2032EEED305E000202E
S31508004200086000F0B9F8032020704FF6FF702860A8
S31508004210BFF35F8FF1BD80B51C49002008700320ED
S315080042201549087000201C490870052011490880A6
S3150800423000201549087000211548016041604FF4B7
S31508004240004181601021C1600D49416101218161F0
S315080042500321C1600421094801644FF6FF7101601A
S315080042600B20FFF795FFBDE8014000F0C3B800003A
S3150800427000E100E0E2FC002059FF002010A8004001
S315080042804AFB0020B0EF00205AFF002058FF00200C
S3150800429004E00040B8EF00205BFF002000F01BBCE4
S315080042A02C48012181604EF6BE2141600121016042
S315080042B070472949012008607047A52805D1254877
S315080042C04DF6AD61416002210160704721480068E2
S315080042D010F0010018BF01207047012100F0070205
S315080042E091401E4AC00802EB4020416170470121F7
S315080042F000F007029140194AC00802EB402001610C
S31508004300704780B51649174A10200860164917489D
S31508004310007803000BD003280CBF00200120106092
S3150800432040F651000860002000F04EFE06E002202C
S3150800433010604FF40060086000F091FB0C480721FC
S3150800434001600021016410200A490860002002BDAE
S3150800435000000000006000400860004000B0004017
S3150800436080E100E0080000400C6000408EFF00205D
S3150800437014A0004000E100E070477047DFF8FC3405
S3150800438033F810001040C840704730B50FF2AC54EF
S31508004390DFF8EC3434F810409C601140DFF8DC4458
S315080043A034F8105095432943D96002221A60002236
S315080043B01A6024F8101058680028FCD130BDDFF8C0
S315080043C0C424DFF8C4041278DFF8C0140AB14978A7
S315080043D00EE0895611F1090FB8BF302108DBC16D0F
S315080043E039B1C26D40F24A31B1FBF2F189B2C91E48
S315080043F001607047E0B5DFF8980401880A2300F0E9
S3150800440065F8BDF806104FF6FF720D20FFF7BDFFE1
S3150800441007BDF8B50546B5F5004FDFF870441AD163
S31508004420DFF870040188022300F050F8BDF8000098
S31508004430000AFF2801D0010000D118206070BDF8DD
S3150800444000000006C00E10281CBF001D00F0A3F9CE
S31508004450BDF80000C543DFF82C64707808B1002069
S3150800446005E0A089ADB26840C00701D5012070708B
S31508004470DFF82404A58105F00104016841F4004130
S3150800448001604FF440520FF2D84000EB4400C5F3E8
S3150800449040074078010389B20220FFF776FF2046DD
S315080044A000F0FAFD4022B90100F012FA2D06A80E16
S315080044B000F0010038433070FFF781FF707818B1BB
S315080044C0FFF798FF002070700020F2BD7F22684633
S315080044D000F066BE2DE9F04FDFF8C443DFF8BC7381
S315080044E0207887B0042304900D210B38C0B20390BE
S315080044F06846039A00F000FF9DF800008DF80A0050
S315080045009DF801008DF809009DF802008DF8080055
S315080045109DF803008DF80500DFF888030078012868
S3150800452006BF607880F00105012501F0F8F982469A
S315080045309DF9020003990AF10A06AAF10A09B0428E
S31508004540B6BF81454FF001084FF0000801208840AA
S31508004550ADF806009DF80100000604D47888BDF879
S315080045600610084201D04FF0010801F071FA9DF8D3
S31508004570030000060AD4B888BDF80610084205D11B
S315080045809DF90000B042B8BF814502DB4FF0010932
S3150800459001E04FF0000948EA050059EA000000F07A
S315080045A0A480DFF804B3C149DBF80000C04E400818
S315080045B000F001008DF80400BE48006800F4E060D1
S315080045C005904FF4E0600860002001F041FE00F01D
S315080045D007FCADB1607858B1DBF80000B149400876
S315080045E04000CBF800000120087000F0DEFC07E070
S315080045F0306840F400503060306820F480503060F5
S31508004600A8480078012810D161780D4208BF01F04A
S3150800461085FFDBF80000A34940F00100CBF8000055
S3150800462000200870642000F0C0FC607880F001006B
S31508004630054203D00498C0B202F013F8607838B186
S31508004640306820F480503060306840F400503060A4
S31508004650BDF80600C543B8F1000F08D002F0ECF823
S315080046608DF801008DF802A0788828407880B9F185
S31508004670000F08D002F08DF98DF803008DF800A020
S31508004680B8882840B8809DF900009DF90A1088422C
S3150800469002BF9DF801009DF8091088420BD19DF9CB
S315080046A002009DF90810884202BF9DF803009DF894
S315080046B00510884206D0039904236A46C9B20D201C
S315080046C000F02BFE05987B49086000F05FFE9DF818
S315080046D0040001F0BDFD02F07CFA607828B148F2CA
S315080046E060703060642000F060FC9DF8010002F004
S315080046F00FF89DF8030002F047F907B0BDE8F08F00
S3150800470080B501F0FFF8BDE80140E3E601F0FAB82C
S31508004710A0F10B01102928BFFF20704770B5064687
S3150800472001F0B2FC0546A6F10B001028A6F10B0411
S3150800473001D38A2070BD60488168090702D40068E1
S31508004740C00701D58C2070BD554806705B480168C6
S315080047500C290FD00FF27C11594A92F90020A4B205
S3150800476031F824105118C161FFF7B4FE012D08BFB6
S3150800477001F02BFC002070BD10B5044601F0C2F80C
S315080047802046BDE81040C9E74548007870473F48CD
S3150800479090F9000070472DE9F0410446202514F1F0
S315080047A02B0F86B049DB474801881423FFF78EFE96
S315080047B0BDF810004FF6FF71884203D0400448BF89
S315080047C0012607D43F2200211020FFF7D7FD002637
S315080047D080F0200504F12B022F2A2C483A491AD2D8
S315080047E013220FF2301300E0521ED2B213F91270E0
S315080047F0BC42F9DB03EB4204032764780C6000240F
S3150800480013F81210017000218846C6B1BDF81010C1
S315080048104FF6BF7228E0092C0FDA025D0A600470B1
S3150800482014232A480188FFF751FE4FF4C0514FF46C
S3150800483080744FF080082827E7E78B2019E04FF4AB
S31508004840605200F045F84FF4E062214600F040F867
S315080048508022414600F03CF8781980B24028A8BF6B
S315080048603F203F2280F0200100F032F8FFF7A7FD35
S31508004870002006B0BDE8F081000000008CFA002098
S31508004880E8100040C3FF002064100040C0EE00207E
S31508004890901503089E1503081C1000401EFE0020F4
S315080048A084EF00204EEF00208020004080E100E0E9
S315080048B0D010004000E100E060200040AC1000404D
S315080048C0C2FF00208C150308C01000408E1503088F
S315080048D00B205AE5AA21290055232900002528007E
S315080048E0AA26270055282700002A2600AA2B2600D4
S315080048F0552D2500002F2400AA3024005532230008
S3150800490000342200AA35220055372100003920003C
S31508004910AA3A2000D500E601EC02EF03F204F405FA
S31508004920F506F707F808F909FA0AFB0BFC0DFD0F5F
S31508004930FE11FF1300160119021C031F10001100B7
S3150800494020003000400041005000600070008000E8
S315080049509000A000B000C000D000E000F000000009
S3150800496000000103DFF8E0145120086070472DE9C4
S31508004970F041DFF8D8640546F0780428B4BF30273C
S3150800498060274FF4F070B0FBF7F41E2D24B201DB5C
S31508004990281B04D5A8B2BDE8F04100F006BB02F01A
S315080049A053F900F028F870700721DFF8A404DFF83F
S315080049B0A42400F047F8291B09B27943C91C8908C1
S315080049C0491EDFF89454DFF8807441602E6800F0C1
S315080049D0B0F83C68386820F04000386002F03AF9D0
S315080049E03C602E6002F03AF900F0F6F94046BDE860
S315080049F0F04102F03BB98046012080F310887047E9
S31508004A0038B5DFF84814C9780429B4BF30246024BF
S31508004A104FF4F071B1FBF4F1451A1E2D04DAA12109
S31508004A200FF2884002F028F9DFF82404DFF824247E
S31508004A30072100F007F805FB04F1C91C8908491E7F
S31508004A40416031BD01600021416081604FF0007115
S31508004A5011607047DFF8F42301215170D0E72DE982
S31508004A60F041DFF8F863DFF8F84300253560256084
S31508004A704FF4A040606041F29A084046FFF777FF7E
S31508004A80706844F69041081A00B24FF4487190FBDA
S31508004A90F1F000B20828A8BF072004DA10F1080FC1
S31508004AA0B8BF6FF00700206008274046FFF75FFF92
S31508004AB04046FFF75CFF706845197F1EF8D1281D30
S31508004AC0C00808BF0120DFF89C13B1FBF0F080B2E4
S31508004AD06060BDE8F08138B5DFF88C5301206FF0CF
S31508004AE00F04A8602C608020FFF741FFE868FF28C4
S31508004AF002D8641C102CF5DB31BD70B5DFF86C03E9
S31508004B00DFF85453016841F0010101600121416059
S31508004B1002F09AF82E68044600F00BF8CA495120AC
S31508004B2008602E6002F09AF82046BDE8704002F050
S31508004B309DB8286840084000286002F08FB810B574
S31508004B40C24C0120207000202071C948816901F0FB
S31508004B500301032907D10020A070042000F060F8A3
S31508004B600120207110BD0F21016002218161012001
S31508004B70E0706420BDE810406CE72DE9F041BD4CBB
S31508004B80BB4EA088B14F4FF6FF78404540F2DC5542
S31508004B901CD1B948018802237F22201D00F000FBA2
S31508004BA0A088404504BF0220A080B069800703D4CE
S31508004BB0B06940F00200B0610120B870A08830608A
S31508004BC02846FFF747FF2846BDE8F081B2699207F5
S31508004BD0EED5BA78002AF6D1B268B36812F00102A7
S31508004BE003D10F2809D2401C06E09B0705D5237878
S31508004BF01BB1032801DB4044A080A088227002284C
S31508004C00BCBF0220A0803068A1888842D4D1B06990
S31508004C1000F00300032818BFFFF76FFF0020D3E753
S31508004C202DE9F047804695480178002569B9C0788E
S31508004C30072818BF09280DD0032818BF112809D03E
S31508004C4013281CBF15280B2804D08D48016841F489
S31508004C508071016001F0F8FF8146FFF7CDFE4046FE
S31508004C60FFF78BFF08B9012515E07B4F764E3C68A8
S31508004C70386840084000386001F0F0FFD6F800A018
S31508004C80306820F04000306001F0E4FFC6F800A06C
S31508004C903C6001F0E3FF00F09FF8484601F0E6FFAC
S31508004CA02800D7D0BDE8F0870220B9E76848694AE6
S31508004CB0002141608160016821F002010160002144
S31508004CC0624841704FF000711160817809B1002186
S31508004CD08170C178012914D16A4901220A606A4A99
S31508004CE01268D20748BF03210FD40222C270086C8B
S31508004CF040F00100086404206449086064490860BB
S31508004D007047C178042901D10521C17070474F4801
S31508004D104078002818BFFFF7C9BF00F093BF2DE9F8
S31508004D20F8434A4C207908B354E001F08DFF054654
S31508004D30FFF762FEE078032813D0474EDFF80881B4
S31508004D4000F0ACF8D8F80090D8F8000020F0400041
S31508004D50C8F8000001F07EFFC8F80090376001F03F
S31508004D607DFF00F039F8284601F080FFE078032837
S31508004D70DBD1404E3E4DB08828604FF6FF777088ED
S31508004D80B8420CD14348018802237F22B01C00F0A8
S31508004D9007FA7088B84202D16420708001E07088F2
S31508004DA078B170883C494A6D42F001024A650A6842
S31508004DB0AB68DB07FBD50B689B1AC3F31303834267
S31508004DC0F6D3FFF79AFE0420E0704FF4C870BDE8EA
S31508004DD0F2433FE6BDE8F183002080F31088704770
S31508004DE02DE9F843194C2179207881F00101084210
S31508004DF01DD124E001F028FFFFF7FDFDE078052826
S31508004E0010D0154E104D00F049F8D5F800902868D6
S31508004E1020F04000286001F01DFFC5F800903760BB
S31508004E2001F01CFFFFF7D8FF404601F01FFFE078AE
S31508004E300528DFD10020A0700520FFF7F1FE00202D
S31508004E402070BDE8F183000000800040D8FF0020F4
S31508004E5010E000E004ED00E094ED00E010400040B2
S31508004E600C0000400060E316084000401C4000406B
S31508004E70044000403EEF0020A215030896070808E4
S31508004E803840004018A000400C40004080E200E096
S31508004E9000E100E0A61503083820004037683068AE
S31508004EA040084000306001F0D9BE0000636C6F63B3
S31508004EB06B732E630000000010B5002001F08FFE12
S31508004EC0684C40F68C2188422068B4BF40F0080040
S31508004ED020F00800206010BD10B50446624801881D
S31508004EE082B000F05DF89DF800109DF80100FF29DA
S31508004EF002BFFF280420002122005C4A136818BF5D
S31508004F00801C23F46073C0B20828A8BF072043EAB0
S31508004F10C010106008291068A8BF0721C00841EA18
S31508004F20C00010605248047013BD524800B501888D
S31508004F3083B000F035F8BDF800004FF6FF718842DF
S31508004F400EBF4FF4E1600A2190FBF1F0ADF80000C6
S31508004F504748007808B34448018802237F2201A8FD
S31508004F6000F01EF99DF80500BDF80030FF2808BFBF
S31508004F700420811CC9B20829A8BF0721C1F12F0244
S31508004F8002EBD272C0F12F00521000FB0320C1F1D0
S31508004F902F01B0FBF1F0ADF80000BDF800000EBD22
S31508004FA002237F22684600F0FBB833490A680328C3
S31508004FB009D34B6D43F001034B650B689B1AC3F38A
S31508004FC013038342F9D3704710B5040004D110BD0A
S31508004FD04FF47A70FFF7E9FF2046441E80B2002896
S31508004FE0F6D110BD2548017869B9C078072818BFD9
S31508004FF0092814D0032818BF112810D013281CBF5D
S3150800500015280B280BD01E48016841F480720260EF
S31508005010C80504D438210FF2740001F02DBE70477C
S3150800502020B1012807D0032818D019E0154801B186
S315080050301721016012E049B1480800F1B77000F580
S315080050405850B0FBF1F0B0F1011F01D32020704792
S315080050500D4900F001024A604008086000207047C8
S315080050602120704700BC0040921503081800004034
S31508005070C5FF002094150308382000409607080845
S3150800508038400040100004E068C800407573625F4D
S315080050906572726F722E6300F0B5044689B00020FF
S315080050A0FFF71AFF294801880A237F22684600F07D
S315080050B077F8BDF802004FF6FF75A84205D14FF400
S315080050C081710FF2940001F0D7FD00260FF2A007B8
S315080050D001E02A4616B94FF47C4203E0022E08BFC7
S315080050E04EF23F023DF81610B85DFFF74EF9761CF2
S315080050F0052EEED3012C03D114237F22144802E097
S3150800510014237F22134801880FF26C0703A800F0C6
S3150800511047F800262A4608E02A46012E08BF4FF619
S31508005120C07202D0082E08BF002203A830F8161055
S31508005130B85DFFF72AF9761C0A2EEDD3012C04BFB9
S315080051400120FFF7C9FE09B0F0BD0000901503085D
S315080051508E1503088C150308616E616C6F6775659B
S315080051602D63656C6C2D626961732E630000000007
S3150800517000100C0D0E000000010203040708090ABE
S315080051800B0F000038B514467F2C08BF0024314D9C
S3150800519029431A4604FB0311BDE8384001F064BEF2
S315080051A070B51E00044615461BD04BF2346081428A
S315080051B011D1092E28BF082633467F2240F6120150
S315080051C02046FFF7DFFF32462349204601F096FEC8
S315080051D038B940F2A27133462A462046BDE87040E7
S315080051E0D0E770BD2DE9F0410C461A49DFF86C800E
S315080051F041EA0006C007154602D56C2100F034F8CE
S31508005200E80702D56D2100F02FF81548864204D329
S31508005210A819401E1349884202D36E2100F024F8CB
S31508005220002706E0F05DFF2802D0752100F01CF883
S315080052307F1CAF42F6D36A082146304601F0C9FE04
S3150800524028B14046BDE8F0417B2101F015BDBDE817
S31508005250F08100000000080850F5020844F502082D
S315080052600008080800100808404601F005BD704708
S3150800527030B5DFF80411DFF804510A6883B001A8D5
S315080052800024026001202870002001F0E7FE30B1FA
S31508005290002001F0E3FE10B12C7049203EBDDFF876
S315080052A0E000018802237F220DF1020000F024F8B5
S315080052B002237F220021684600F01EF8002001A97B
S315080052C0BDF8022031F81010914208BF0124401C95
S315080052D00228F4D3BDF8000024B1B0F57F7F07D1CA
S315080052E000203EBDB0F57F7F14BF0420062000E0F5
S315080052F00720002129703EBD10B5FF2908DCDFF81C
S315080053007C40247844B1BDE81040C9B202F084B9A3
S31508005310BDE81040FFF744BF10BD2DE9F041044633
S31508005320FF2C0D4616469846DFF8580015DCDFF8C0
S315080053304C100978B1B1DFF85070397811B1BF2136
S3150800534001F09AFC0120387043462A463146E0B2FD
S3150800535002F0CFFA0020387004E0BDE8F041CA2117
S3150800536001F08ABCBDE8F081DFF810100978002941
S3150800537018BF02F0CABB7047EC0B0308AFFF00204A
S3150800538098150308F00B0308B0FF002010B5DFF8E6
S315080053905C461020206301F057FCDFF854160A68B3
S315080053A042F001020A6001F061FCDFF8480660601D
S315080053B020608A3061688931616001212163E0607B
S315080053C0A060DFF83416E0688930E06002202063C8
S315080053D04FF6FF70086010BDDFF8200645F264013D
S315080053E0C1601E21416250210162C821C1618165E7
S315080053F0F021C16545F6900141668821816606213E
S31508005400C16644F2066101604FF6FF714160DFF83C
S31508005410F005007838B1DFF8EC0548F260710160F4
S315080054204FF4C1514160DFF8E005016841F004011D
S3150800543001600020DFF8D41548707047DFF8B8051A
S315080054400068C00700D408E07047DFF8AC050068BC
S3150800545010F0190F00D100E070470021002002F07B
S3150800546089BC2DE9F84F8046DFF8A415012002F023
S3150800547024FD8A21DFF87C0501FB08F14518681C24
S315080054804178007800EB0120DFF8881509781FFAC3
S3150800549080F9DFF88405017000EB080A00208AF815
S315080054A002005FEA896003D5DFF87045606E000682
S315080054B040F18F80002609F00700032861D109F41E
S315080054C0406009F44041B0F5806F1CBFB1F5804FCC
S315080054D0002956D00422B0F5006F08BF082203D071
S315080054E0B0F5406F08BF0E225FEA49605CBF921CA8
S315080054F0D2B2B1F5004F0CBF971C02F10807FFB2F4
S31508005500781C00EBD070C0054FEA106B5FEA080004
S3150800551014BF60682068584533D3A818B1F5404FC2
S3150800552003D102F072FD064612E04078A95C01EB51
S31508005530002080B202F04CFFFF2808D0DFF8E01404
S31508005540096831F810004FF4E461084200D00126DA
S31508005550BEB15FEA097014D45FEA080014BF606838
S3150800556020680BF10101884207D2E0685FEA08016A
S3150800557014BF022101210842EED1E85D042818BFB4
S315080055800026E06D000900F0010086428AF8020054
S315080055901FD0002EA26C4FF400604FF480610BD030
S315080055A0B8F1000F08BF0846024212D0606C40F0FE
S315080055B00100606401200AE0B8F1000F08BF084640
S315080055C0024206D0606C40084000606400208AF8F9
S315080055D00200BDE8F18F2DE9F84F0446DFF83C5488
S315080055E0DFF8346420000CBF28686868C1B2052952
S315080055F005DAFFF723FF7068401C70608CE04000F6
S315080056008DF800008A2000FB04FBDFF8E8839DF88C
S31508005610000008EB0B094844A0F1080738787978A8
S3150800562001EB00201FFA80FAB8786630B870307837
S3150800563018B9DFF8E0030078307030783870002049
S31508005640307002F093FF7870DFF8AC73386C20F492
S31508005650805038642000686E02D17868400504D40A
S31508005660012C23D17868000520D5FFF7E7FEDFF87F
S31508005670B403017891B1002101701AF4E45FDFF8F0
S31508005680A803016802D00022402005E099F801002D
S31508005690000900F001028F2003F049F820000CBF32
S315080056A04FF480604FF40060786030E01AF4E45FED
S315080056B02BD100F081FD10B15FEA4A4025D518F8D4
S315080056C00B00802821DA386C99F8011089062644DF
S315080056D00ED5696E09060FD4A96CC9060CD43968AB
S315080056E022000CBF80224FF480720840104203D17A
S315080056F0FFF7A4FE0020B070B2789DF80010484667
S3150800570003F033F90020B07001E0FFF797FE002C94
S315080057100CBF012002202861BDE8F18F2DE9F84F62
S31508005720B54CBE4E2068216CDFF800B3DFF8F48272
S31508005730DFF8FC92DFF8D8A201EA000538E061B18B
S315080057408A22AC49504308444078C00605D4B64876
S31508005750016800228F2002F0EAFF280608D50FB953
S31508005760FFF76CFE03F046F9802025F080052060DF
S31508005770E80509D50FB9FFF761FE03F03BF94FF4C9
S31508005780807025F480752060680407D50FB9FFF787
S3150800579055FE4FF4804025F480452060280407D53F
S315080057A00FB9FFF74BFE4FF4004025F40045206083
S315080057B0002D73D00027280706D50020FFF751FED5
S315080057C0082025F008052060E80606D50120FFF721
S315080057D048FE102025F01005206005F060006028BE
S315080057E003D1B06CC0050AD401E0A80605D520206F
S315080057F0206025F02005002006E0680606D5402032
S31508005800206025F040050120FFF7E5FEE80404D5F1
S315080058104FF4805025F480552060E8079DD5012077
S3150800582020606D0802F0CEFA6D0078B14FF4487228
S315080058305146012002F0E4FA02F046FA40054CBF50
S3150800584003200120002102F095FA012799F80100AA
S3150800585008B100F0FBF899F80000002806D000F01F
S315080058601DFC012807D198F8000000283FF475AF01
S315080058709BF8000004287FF470AFF068400800F039
S315080058800100002814BF7168316811B92168C9047C
S31508005890F7D5002814BF7168316850E700202060EA
S315080058A0BDE8F18F634800687047F0B506460D46B7
S315080058B089B00021032001F035F904AC08E034F87A
S315080058C011205040491C08293080F8DB6D1EB61C93
S315080058D0E8B290B1002701F040F924F8170001F06A
S315080058E03CF9694621F817007F1C082FF3DB04A84A
S315080058F003F01AF900200021E5E701F06AF9012012
S3150800590009B0F0BD0321022001F00CB94FF6FF7172
S31508005910081A292190FBF1F03A3040B2704738B5A1
S3150800592001F01BF9FFF7F2FF434D04462878B0B99A
S315080059300321032001F0F6F84048018802237F225C
S315080059406846FFF72DFC01F008F9BDF8001040186D
S3150800595080B2FFF7DBFF153868700120287001F068
S3150800596038F96878201A40B232BD80B50321022082
S3150800597001F0D8F8BDE80140D1E770B530480078A5
S31508005980002490B9FFF7F1FF204E0546707848B11C
S315080059903078401B40B203F0D0F80B2805DB357091
S315080059A0012402E0012035707070204670BD25483C
S315080059B00078704723490B78984200D1704780B524
S315080059C0087040B12049002008600948016821F0A4
S315080059D08001016001BD00F06FFC00F045FC00F09D
S315080059E0AEFBBDE8024000F092BB0000002000407C
S315080059F08420004028FE002000A000404C100040F3
S31508005A0085EF0020D010004080200040D2FF002003
S31508005A104B54000884EF00201CFB00202020004087
S31508005A2010ED00209CFB0020A4FB00204DEF002079
S31508005A30CEFF002038200040D0FF0020961503082E
S31508005A404EEF0020D4FF002054100040704700009D
S31508005A5010B50D48018884B00A237F226846FFF7EF
S31508005A609FFBBDF800004FF6FF74A04204D14F21FA
S31508005A700FF2180001F000F9BDF8001022460020C8
S31508005A80FEF783FC1FBD000090150308616E616C6C
S31508005A906F6775652D66696C7465722E6300000004
S31508005AA0DFF82008007848B1DFF81C0801790129D9
S31508005AB004BF4079042801D10120704700207047AF
S31508005AC00FF6B0014008085C7047010644BF4FF660
S31508005AD0F83101EAC0007047491C800189B2B0FB61
S31508005AE0F1F080B2FF288CBF0020C0F1FF00C0B2E1
S31508005AF0704738B5DFF8D807C17809B1002032BD3C
S31508005B00DFF8D847617871B1E178007945182079CE
S31508005B10ADB28542A8BF054603F02AF80121A9407F
S31508005B20491E084000E0002061790818C0B232BD5D
S31508005B302DE9F0470446C00705D540F29B110FF63C
S31508005B40240001F099F8DFF89857286DC00748BF78
S31508005B508C2075D4DFF87807DFF88077002101708C
S31508005B60417829B9397819B1A96F41F0010102E0E4
S31508005B70A96F49084900A967DFF84C877A7898F829
S31508005B800610DFF86097DFF8606792B100220271AD
S31508005B900129286D40F00400286506D14FF6FF70EC
S31508005BA030604FF40070C9F80000FFF7A2FF824684
S31508005BB00CE0286D20F00400012928654FF0000A42
S31508005BC004D100F02FFA6420FFF7EFF9A86F20F050
S31508005BD00800A8671420E864C5F848A0787838B1A2
S31508005BE098F80600002801BFA86C00280120A864C0
S31508005BF0B8790028286D14BF40F0080020F0080086
S31508005C002865FFF74DFF18B1306C40F00800306486
S31508005C10202028626C602C606868DFF8D0167F3018
S31508005C206860042028624FF4E0600860DFF8C01658
S31508005C300968C9F80000286D40F0010028650020B1
S31508005C40BDE8F087DFF8AC06002141608160016895
S31508005C5021F0020101604FF00070DFF89C16086021
S31508005C600120DFF8981608707047332800D270476D
S31508005C7010B5B0F5002F0CD2DFF880460021217050
S31508005C80FEF7BEFE02E0012002F08EFF2078002813
S31508005C90F9D010BD2DE9F84FDFF84C86DFF83056FD
S31508005CA0D8F80000D8F84010DFF8347601EA000486
S31508005CB0A4B2C8F800406878002840F0D380E0070E
S31508005CC0DFF83C66DFF814964CD5D7F800A0386C98
S31508005CD0796C41EA0041A96099F8000000283DD096
S31508005CE09AF80100800639D501202870FFF7D8FEFA
S31508005CF0C0B31920FFF759F9DFF808B64FF440404A
S31508005D00CBF82800DBF800000090F06E40F4005055
S31508005D10F066F06E40F48050F0669AF80010A868B5
S31508005D204901B83101EB000AFFF7BCFDAAEB0000F8
S31508005D30C0F31300FFF799FFF06E40084000F066C5
S31508005D40F06EBDF800100843F0660020CBF8280076
S31508005D5048F26070F066E888306003E000220020B0
S31508005D6002F0E5FC20060ED5287830B10020287010
S31508005D700022A968402002F0DAFCD8F83C0020F49A
S31508005D808050C8F83C00600608D5687830B9FFF737
S31508005D9089FD01460022892002F0C9FCE00652D599
S31508005DA0DFF824A5DFF83CB59AF80400012804BFFB
S31508005DB09AF8061001291FD100F0B0FB386F40F0A1
S31508005DC001003867002400208AF80600FFF7DEFA8B
S31508005DD00A20FFF7EAF84FF6FF70C8F800004FF4FC
S31508005DE0E060CBF800000920B8660120B864B86FF7
S31508005DF040F00800B86718E02979491C2971C9B22A
S31508005E0099F80220914215D2012808BF00F0DDF862
S31508005E10B86F20F00800B8671420B866FFF769FE67
S31508005E20B8644FF40070CBF80000386D40F00100FC
S31508005E30386508E0687830B9FFF734FD0146002276
S31508005E408D2002F074FC20070CD5FFF729FE48B117
S31508005E503068E88001203060D8F8400020F008005B
S31508005E60C8F84000A0060AD520203862687830B9FC
S31508005E70FFF718FD01460022882002F058FC6878D2
S31508005E8020B114F4407F04BF0120A870BDE8F18F4B
S31508005E90DFF8780400887047DFF8301400280868AF
S31508005EA014BF40F4404020F440400860704770B585
S31508005EB082B00546FEF72AFCDFF85404DFF81444DE
S31508005EC0DFF80464002101601521E16009210165FC
S31508005ED01F21416001210166DFF830040088FEF7C2
S31508005EE098FAFFF779FA03F03FF900F02BF93089B1
S31508005EF000F055F9708900F05AF900F0A5FE6168BE
S31508005F0041F04001616000F0B1FE707800F0E8F8F9
S31508005F10B07800F0FCF8DFF8FC03007800F029F907
S31508005F20DFF8F40390F90000FEF735FC307800F04E
S31508005F308FF996F9030000F097F9DFF8E00300F00F
S31508005F40B5F9BDF80000DFF8D813C0054CBF00202E
S31508005F50BDF800000870DFF8CC030078FEF7DEFB1A
S31508005F6028B140F2F2310FF2FC3000F085FE012D27
S31508005F7004D12068C00748BF00F027F86DB920682B
S31508005F80C0070AD400F0CAFA206840F00100206071
S31508005F90C820FFF70AF80020B071F120DFF848534F
S31508005FA0286440F2F910E86301F00CFFFFF774FF6C
S31508005FB0FFF7ECF92068C00704D54FF6FF70286094
S31508005FC000F05DF8FEF70CFF73BD70B5DFF85853A7
S31508005FD0DFF8F4422E68A079012822D000F034FEBA
S31508005FE0B6B2DFF808232E604FF4E0611160DFF8DF
S31508005FF018130A6A520852000A620A6852085200BE
S315080060000A600A6842F002020A604A6A42F001021D
S315080060104A620121A17100F029FEBDE8704000F036
S315080060205BBA70BD70B5A84CA07938B300F076FAA3
S3150800603000F00AFE0546DFF8F412A74E01200860B4
S31508006040306D40F0010030650020A071FFF79EF921
S3150800605020203060306B40F002003063F06D40F075
S315080060600800F065284600F001FE0A20FEF79DFFAD
S315080060709D494FF6FF70086000F001F870BD4FF4B7
S31508006080E0609849086070478F48807970478E4865
S315080060900079012808BFFFF798BF70478A4800793A
S315080060A0704780B5022801DB012002BD86490871C8
S315080060B08979884205D010B9FFF7B4FF01E0FFF7E8
S315080060C084FF002002BD9A480068800200149A38AE
S315080060D001B211F1800FB8BF6FF07F0040B2704770
S315080060E010B5044600F0B0FD92490A68002C04D0A9
S315080060F042F012020A60012103E022F012020A604D
S315080061000021714A517043E06F484078704738B5AE
S31508006110054600F099FD0446FFF749FC40B9854855
S315080061202900016814BF41F0800121F08001016057
S31508006130654885702046BDE8324000F097BD624844
S31508006140807870477C494A780B787C4803EB0222B2
S3150800615002608B78CA7803EB022242600B794A798F
S3150800616003EB02228260CA79897901EB0221C160B8
S31508006170704710B5044600F067FD6E4922000A68AC
S3150800618014BF42F0200222F020020A6061490C7016
S31508006190BDE8104000F06ABD4B48008970474A497F
S315080061A008816749086070474748408970474649EB
S315080061B048816449086070476348007870475248C8
S315080061C0816A41F0020181620121016070474E48EF
S315080061D000210160816A21F0020181625020FEF7E8
S315080061E0E4BE38B5594C5A4821695A4D0180E169CF
S315080061F04180E96C818000202061FFF7E0FF0120E3
S31508006200E0610020606220624CF25D00E864286864
S3150800621040F4004028604FF40040206048F2020035
S31508006220206031BD80B5FFF7D2FF48484FF40041E2
S3150800623001600021016047490A6822F400420A60A9
S31508006240434A9388CB64118801615188C16101BDB5
S31508006250204902000A6814BF42F0020222F0020234
S315080062600A6019490870704738B504467F2C0AD168
S31508006270394800F01BF8BDF80000C00554BFBDF84A
S3150800628000406FF04A0400F0DFFC0546FFF78FFB7D
S3150800629030B964B204F19A0080053049000C0860F0
S315080062A00948C470284600F0E1FC31BD0188022384
S315080062B07F226846FEF774BF034890F903007047CB
S315080062C000000000E2FF002048EF002040A0004048
S315080062D09CFB00208020004030200040D0EE0020AB
S315080062E01020004000E100E004A0004080E100E04A
S315080062F0A820004010E000E004ED00E0E3FF0020E5
S3150800630064100040E410004060200040CCEE0020FD
S315080063105C100040E1FF0020C0EE0020A415030831
S31508006320C2FF002084EF00201C1000402810004007
S315080063300C1000408420004004FB002098200040F8
S31508006340942000409020004092EF00201810004052
S3150800635050FF0020C0100040AA1503085410004042
S31508006360704700007068792D636F6D6D6F6E2E63D0
S3150800637000000000FEF7C80138B50120FEF7FDFB56
S315080063800020FEF7A9FD904C206840F00800206028
S31508006390FDF786FFFEF790FD00F05CF80D880560B6
S315080063A04D88456088881060C888506008891860DC
S315080063B04889586000F090F8206820F010002060A6
S315080063C0FDF729FF02F0DCFEFEF76EFCFDF766FF1F
S315080063D0BDE83140FDF795BF40F2016002F02ABFE3
S315080063E010B502F0F4FF03F0C4F9784978480A7842
S315080063F0C2604B78774AD360774B8978D9607749FA
S3150800640000F001F810BD0C8804604C884460888848
S315080064101060C888506008891860488958607047B5
S3150800642010B5FEF78CFBFEF747FD00F013F8FFF7F3
S31508006430EAFF00F051F86448016821F01001016094
S31508006440FDF7E9FEFEF76BFC03F094F9BDE8104092
S3150800645002F0D9BF62495E480A78C2604B785D4A45
S31508006460D3605D4B8978D9605E497047F0B50F24D3
S315080064709D0004FA05F51668284212D0002505EB9A
S31508006480830720FA07F7FF0708D5AF0004FA07F7CE
S3150800649031F813C0BE4307EA0C073E436D1C042DB2
S315080064A0EDD31660F0BDF0B5FF25DE00B5401468E3
S315080064B028420FD0002505EBC30620FA06F7FE078B
S315080064C005D50126AE40CF5CB4433E4034436D1C2F
S315080064D0082DF0D31460F0BD2DE9F8430021002003
S315080064E001F048FC01F071FC3F4C2068A0B1002681
S315080064F0364FDFF8DC9000F02FF8761C032EFAD31F
S31508006500DFF8D8800026002700F034F800F02CF8D1
S31508006510761C7F1C032FF7D3BDE8F1832DE9F843DA
S3150800652001F054FC304C2068A0B100262C4FDFF84F
S31508006530A09000F011F8761C032EFAD3DFF8A48099
S315080065400026002700F016F800F00EF8761C7F1CCF
S31508006550032FF7D3BDE8F18309EB462000F10C02BF
S315080065602068334639469EE7761C2068F3B22A1D12
S3150800657041467BE709EB47252068F3B22A464146A0
S3150800658074E70320FEF7F0BE80B503F035F901463F
S3150800659016480B2938BF00EB810002BD80B503F011
S315080065A02FF90104090E0B29C0B209D2104A525C10
S315080065B0904205DA0F4A52F8211001EB800002BD1D
S315080065C00D4802BD0000000000BC0040D4ED0020CC
S315080065D000B0004000B2004000B40040C8ED002002
S315080065E0C4ED0020B8ED002074F6002058F5020826
S315080065F09CF6020870F6020884F5020810B503F046
S31508006600FBF8044603F0FCF8C0B208B9012C07D120
S31508006610072C11D8DFE804F004100608080A0C0E47
S31508006620002010BD092010BD022010BD032010BD9A
S315080066300B2010BD062010BD44F0800010BD0000E0
S315080066402A490A68520852000A600A681043086014
S315080066504FF4004126480160002101606420FEF7DE
S31508006660A4BC2DE9F047234D204FD5F80090224CC5
S315080066708046286840F400402860386820F4805036
S315080066803860207868B162781C48A17800EB8202ED
S3150800669000EB880012F82A2C10F82A0C891A4618DA
S315080066A002E0012020262070B0B2FFF7C9FF0FF2E2
S315080066B0500A02E0B0B2FFF7C3FF386B042805D0D2
S315080066C0386B400754BF761E761CF3E7F86A38B174
S315080066D084F80180A6701FFA89F02860BDE8F08763
S315080066E04FF49071504600F0C7FAE6E7D010004024
S315080066F0181000401C100040DEFF0020D448000897
S31508006700616E616C6F6775652D76636F2E63000029
S3150800671081014FF4FE5289B20C20FDF736BE2DE9F1
S31508006720F84F8B4CDFF82CB2A56820681FFA80FA60
S3150800673000F04FFA0127B020ADB200264FF00A0844
S31508006740B946206308E016F1190FB8BF4FF00A08DA
S31508006750464436B27019A060DBF80000000702D57F
S3150800676059EA070028D00120FEF71FFCB9F1000FEF
S3150800677011D0AAF10300874202DAFF1CBFB213E068
S315080067800AF5004020600621092000F0CBF957469B
S315080067904FF000090BE0DBF80000000707D5042FCF
S315080067A0A6BFFF1EBFB2002707F5004020601A2EBD
S315080067B0C9DB6FF00908CBE7A560C4F800A008207C
S315080067C0CBF800006448006880B2BDE8F28F80B557
S315080067D05E4B62491B784FF0FF326BB1002819BF38
S315080067E04A605F48486041F2111008605D48418878
S315080067F00088BDE8044092E7002819BF4A600A608D
S315080068004860086000F0E5F9BDE804400621092063
S3150800681000F0D9B938B50120FFF7D9FF04460020A2
S31508006820FFF7D5FF05460120FFF7D1FF4042001BC1
S3150800683000EB450000B232BD2DE9F04F4A4C4B4DF6
S31508006840424F83B0A06AADF802004FF000082068F6
S31508006850ADF80000D5F800B0387858B14FF6FF7299
S3150800686000210820FDF78AFD8046C022C0210820A5
S31508006870FDF78BFD3E48DFF8FC90007818B148F22A
S315080068806070C9F800007888364E40F4404040F001
S315080068904C00C9F83C000220A0620120206040F2AA
S315080068A04C40FEF782FB0120E8602860002030801B
S315080068B040207080387800B12020FFF729FFFFF7C5
S315080068C0A9FF8246402030807F207080FFF720FF96
S315080068D0FFF7A0FF00F050F8FE2148430190AAEB0D
S315080068E0060A387848B1304602F027F900F044F82D
S315080068F0019980B201EB861103E000F03EF8019998
S3150800690080B2B1FBF0F080B2401CC6031FFA8BF0D0
S3150800691028600020E86002202060BDF800002060A2
S31508006920BDF80200A0620020C9F83C00387828B1FA
S315080069304FF6FF7241460820FDF727FD40F24C400E
S31508006940FEF733FB300CBDE8FE8F000044EF002055
S31508006950C010004018A000400070004038100040E9
S31508006960EEEEFFFF4CFF002060200040281000409C
S3150800697085EF0020D01000400646504602F0DDB8EC
S3150800698041003F2289B201E001463F220220FDF77D
S31508006990FCBC2DE9F04F564C564D95B0E06CADF861
S315080069A010004FF6FF782068ADF80E004246E86AF8
S315080069B0ADF80C0000210120FDF7E0FCADF80A0057
S315080069C0424600210B20FDF7D9FCADF80800002649
S315080069D04FF4004020600DF1140B00202861686117
S315080069E048F2020000F088F84CF68C30E0644FF468
S315080069F0805248F2F000E86211460120FDF7C5FC16
S31508006A00424600210B20FDF7C0FC0621062000F0B7
S31508006A10DAF8019000F082F800904CF69C30E064B9
S31508006A200020FFF7ADFF0621062000F07BF8B0B284
S31508006A30FFF7A6FF0621062000F074F800F08DF88F
S31508006A402BF81600761C202EF1DB00F086F81020B5
S31508006A50FFF796FF00F062F80099019A401ABBF812
S31508006A6020108E1A404306FB06094FF0100A11271C
S31508006A7000F04EF800F052F800F043F805DB1FFA74
S31508006A8087FA7F1C202F8146F2DBBAF1100F0ED150
S31508006A900F2700F03DF800F041F800F032F806DB69
S31508006AA01FFA87FA7F1E3FB2002F8146F1D5BDF83F
S31508006AB01000E0644246BDF80E002060BDF80C00E8
S31508006AC0E8620120BDF80A10FDF75FFCBDF8081062
S31508006AD042460B20FDF759FC01202861002000F0F2
S31508006AE00BF84FEA4A00C0B215B0BDE8F08F0000B7
S31508006AF0C010004018100040286040F24C40FEF7D5
S31508006B0054BA0099401A404306FB060048457047A8
S31508006B103BF817000199461AB8B231E70621072053
S31508006B2000F051B870B505460E4602F079FE3F4CA6
S31508006B30206C20F00800206402F074FE00F084F84F
S31508006B40E90141F001013A4A41EA0631116008219A
S31508006B502160BDE8704000F089B82DE9F041354C58
S31508006B60354D324E25E002F05BFE344904200860BC
S31508006B70306C40F0080030642F68286840084000F0
S31508006B80286000F06BF8D4F80080206820F04000F8
S31508006B90206000F05FF8C4F800802F6000F05EF80F
S31508006BA0306C274920F0080030640420086002F0A1
S31508006BB039FE30680007D6D50820306021480068BD
S31508006BC080B2BDE8F08180B5FFF7ACFFBDE80140B3
S31508006BD0C3E7174801684908490001607047F8B5D6
S31508006BE00746FEF7A2F9044639460320FFF7EBFFEE
S31508006BF0054639460120FFF7E6FF0646FDF7BDFBC9
S31508006C0039460020FFF7DFFF0746FDF7B5FB0848C2
S31508006C100168490849000160781B0004711BB0FB34
S31508006C20F1F060434000000CF2BD000018A00040DF
S31508006C30047000400080004094ED00E000E100E0B0
S31508006C4080E200E000700040EFF31180602181F3DC
S31508006C501188704700BF30BF00BF7047BFF35F8F12
S31508006C60BFF34F8FBFF36F8F7047000080F3118813
S31508006C707047000042DE704738B504460D46FDF7FA
S31508006C8018FBFFF7E1FF2946204602F0F2FD2B46E6
S31508006C9022466B49002003F05FF829462046BDE8E6
S31508006CA03440E7E767482DE9F047674D01682E1D30
S31508006CB04FF420687165016AB16564490968F16530
S31508006CC0416A3166816A7166C16AB166016BF166AD
S31508006CD0806B306796F8340040074CBFF46BB46B92
S31508006CE002F03BFB0022F2648442594A014624BF63
S31508006CF0A2F1200AA2452746316505F18C03DFF883
S31508006D0054C1DFF854E118D3A0693064E4697464A7
S31508006D10746DC4F30804062C13D1704511D360456D
S31508006D200FD200884DF64264A0420AD130685860F6
S31508006D3040F201787068986003E00027376477644A
S31508006D4007464648814202D2014600E0091D084628
S31508006D50904203D20C68B4F1CD3FF7D04049081AE7
S31508006D60B0640021002005EB8004401C0628A167BA
S31508006D70F9D3002003E0C0B205EB8004A16797426F
S31508006D8022D252F8041D7145F9D36145F7D2CC07D2
S31508006D90F5D5002405EB8409D9F87890894502D001
S31508006DA0641C062CF6D3062CE9D1002814BF401E15
S31508006DB00520E0E7716F002405EB8402641CD76F99
S31508006DC09767052CF8D319600146481EC9B20029F1
S31508006DD0F0D1706DC0F3080002280AD0032815D038
S31508006DE0042816D0052817D0062818D00C281CD039
S31508006DF01EE01C480168890748BF40F602181CD4E3
S31508006E000068C00719D540F2025816E040F6012876
S31508006E1013E040F6022810E040F603280DE0B8F526
S31508006E20206F0AD140F6042807E040F6052804E05A
S31508006E3018B1242838BF40F607284046BDE8F08731
S31508006E407C63020804ED00E00000002000E300E097
S31508006E50E8EB0020165A0208904100089800002026
S31508006E60E8EB00201CA00040814233D210441144B4
S31508006E70401E491E10E011F8013900F80139121FA9
S31508006E8011F8013900F8013911F8013900F801390A
S31508006E9011F8013900F8013992B2042AEBDA93B2F3
S31508006EA0002B1EBF11F8013900F80139521EF6D120
S31508006EB0704711F8013B00F8013B121F11F8013B1E
S31508006EC000F8013B11F8013B00F8013B11F8013BC2
S31508006ED000F8013B92B2042AEBDA93B2002B1EBFEC
S31508006EE011F8013B00F8013B521EF6D1704713001A
S31508006EF003D00A46194602F06BBF704710B500E08A
S31508006F00521E93B223B100F012F8F9D0181B10BD27
S31508006F10002010BD10B500E0521E93B22BB100F050
S31508006F2006F8F9D0181B40B210BD002010BD10F8A5
S31508006F30013B11F8014BA342704700004148018A02
S31508006F4040F6A772914202BF408A4FF47F41084239
S31508006F5003D1022801DB01207047002070472DE984
S31508006F60F84F82468846384DDFF8D4B0FFF76CFEF6
S31508006F702F6804462868400840002860FFF76EFE20
S31508006F8001208BF80000FFF7D9FF28B94FF4837169
S31508006F900FF2B800FFF770FE2A48D0F8289041464D
S31508006FA04AF48070C84706462F60FFF757FE20460A
S31508006FB0FFF75CFE00208BF800000FF298040EB174
S31508006FC0A05D04E041464AF40070C847205CBDE86D
S31508006FD0F28F2DE9F84F804689464FEA420A1A4E43
S31508006FE0FFF732FE376805463068400840003060D3
S31508006FF0FFF734FEFFF7A2FF28B94FF4A4710FF28A
S315080070004C00FFF739FE0F48D0F824B0002352464B
S3150800701049464046D84704463760FFF71FFE2846CC
S31508007020FFF724FE0FF22C050CB1285D05E0534648
S31508007030002249464046D847285CBDE8F28F000042
S31508007040D7FF00200000080894ED00E0666C617325
S31508007050682E6300000202024B4B46472DE9F04FAB
S315080070608BB080462B22FF216846FFF740FFDFF8EA
S31508007070A8A0B022FF215046FFF739FF2B2500278D
S31508007080264CDFF89C90274EF05D19F807B0E15DB5
S31508007090401C00EBD070401001B11930401C00FBB9
S315080070A00BF2214830F81710204892B202F0C4FEBD
S315080070B0BBF1010F1CBF2AF817505D447F1C2B2F0C
S315080070C0E2DB1B482B2340F21C4240F2BB2102F0B4
S315080070D0B3FE4FF4E04000F0E2F8164D18B19D21DA
S315080070E02846FFF7C9FD4FF4804000F0D8F818B1DC
S315080070F09F212846FFF7C0FD4FF4805000F0CFF8D7
S3150800710018B1A1212846FFF7B7FD6946404600F0A9
S31508007110F4F80BB0BDE8F08F0CF900203808030826
S315080071209008030864080308E00703083007030803
S315080071304C0703082007030810B5DFF8944ADFF860
S31508007140143B2488001B06E010B5DFF80C4BDFF86B
S31508007150043B24681B1B03EB4000002304E030F8C3
S31508007160134021F813405B1C9342F8DB002010BD46
S315080071702DE9F04182B004460D4616460027DFF891
S31508007180D48A01E0BF1CFFB2B74217DAE819E95DF5
S315080071904078DFF8C83A1B8801EB0020ADF80000FC
S315080071A0012207EBD77004EB6000C01A00F09CFBC5
S315080071B00100E7D002F04EFE002000E00120BDE805
S315080071C0F681F8B504460F46154600260DE000F090
S315080071D019F8BDF8000004EB4601000A48707F1C48
S315080071E0BDF8000004F81600761CB6EB550FEEDB6A
S315080071F0E80706D500F006F8BDF80000611901F8A1
S31508007200010CF1BD01226946B8B295E7DFF8C0293D
S31508007210DFF8401A1288801A01EB40010220FFF7B6
S315080072209EBEDFF83C1ADFF83C2A095C125CDFF8E0
S31508007230383A185C10B102F5997292B241EAC21056
S3150800724080B27047DFF8183ADFF8202A1B5C012B5A
S315080072501CBF32F81000081802EB4000704738B51A
S315080072600C46DFF80C1A0D782A462146FFF764FF0C
S31508007270208801001CBF4FF6FF7188420BD0012001
S3150800728000E0401CC1B2A94207D2C0B234F81010BF
S3150800729022889142F5D0002032BD012032BDF0B5DA
S315080072A0DFF8B41987B008600C2269460020FFF79A
S315080072B04BFFBDF81600BDF80C200346040A012052
S315080072C000254FF6FF763DF81570BDF80010B94257
S315080072D003D1B74218BF002F00D100206D1C062D20
S315080072E0F1DBB21A914218BF0020DBB2C4F1FF01EC
S315080072F08B4218BF002007B0F0BD2DE9F24F0446B7
S31508007300DFF870690020307070809CB0DFF868097B
S315080073100088ADF8020007A9FFF7A1FF8346012000
S31508007320707009A9DFF854090588DFF85409B0F820
S315080073300080DFF89C080788BDF802A03846FFF7EA
S315080073408EFFB8B1BBF1000F3DD0BDF81C10BDF8DB
S3150800735024004FF6FE72914202D1012804D10CE0B6
S31508007360012908BF90422ED00846BDF8241088424D
S3150800737029D202E0BBF1000F24D0002070700297DA
S3150800738050460695CDF810800122DFF8E41891F8EA
S3150800739000804044ADF806006946BDF80600FFF7D0
S315080073A0CBFEDFF8E008008805904FF6FF79BDF8B8
S315080073B00000000B404518BF0F2801D1200021D03E
S315080073C0002516E0012470780028D8D03846CDF874
S315080073D008A0CDF818800495D6E7059805FB00F4B3
S315080073E0E01900F05DFCBDF80200201800F058FC1A
S315080073F06D1C4545F1DB012030704D2002F02AFD59
S315080074000025F7E0BDF80650012201A92846FFF736
S3150800741093FEBDF80400C04300F0FF00ADF8040079
S315080074206F1CDFF864080588BDF80400A84218BF79
S3150800743001244FF0000A20E0401CC1B2A94218D22C
S31508007440C0B2DFF84818BDF80E20834631F81B1085
S315080074509142F1D1FFF7E5FE4FF680710840BDF87D
S315080074600C104FF680721140884204BF1C9800F831
S315080074700BA00AF101001FFA80FABDF80400824544
S3150800748007DA022203A9B8B2FFF756FEBF1C00208E
S31508007490D3E7002001E0401C80B2A84217DA1C9905
S315080074A0095C8142F7D0012411E02AF81070BDF872
S315080074B0060000EB4300401C00F0DBFABDF80200B2
S315080074C0C0F3C710401C00EBD07007EB60070498A8
S315080074D0DFF898A7BFB287420EDA00F099F8BDF830
S315080074E00000484508D0030A00F07F01BDF80400F3
S315080074F07F1C834202DB012400252DE0002000E0EA
S31508007500401CA842D3DA1C9A125C9A42F8D1C0B23F
S31508007510FF28CCD0DFF84827125C7F290CBF4FF034
S31508007520000C8C4694450BDABDF800C0DFF838E746
S315080075301EF800E04FEA0C6C4FEADC7CF44501D0FB
S315080075400124B4E7012AB0D07F293AF8100008BF11
S3150800755000210818A9E76D1CDFF834070088854262
S3150800756004DA3AF815004845F5D1012477800498DD
S31508007570BFB2874207DA00F04BF8BDF800007F1C5F
S315080075804845F4D039E7002CFCD1029801220BA912
S3150800759080B2FFF7D1FDBDF82C0048450DD105E0B6
S315080075A0401C80B2202813DB2034A4B20699029A24
S315080075B0891A8C4205DB0120307000201DB0BDE819
S315080075C0F08FA51820220BA9A8B2FFF7B5FD002059
S315080075D00BA931F810104945E2D0A8B2FFF716FEFC
S315080075E0203CA4B2E0E70298059905FB010000F0EB
S315080075F057FB6D1C4545F6DB01203070494600F007
S3150800760046F818B100F035F90028D6D10120D5E79B
S315080076100122694638468FE52DE9F0420F46DFF824
S315080076206816DFF8405609888F420446164699467A
S315080076300CD2DFF82C16C95D30467F2808BF00201B
S31508007640884203DAE95D894500D11CB940F2D54183
S3150800765000F00BFA31463846FFF7F4FD0188DFF8EB
S315080076600806C05D60B1384600F035FAE95D0129C3
S3150800767008BF207009D0022914BF2060208004E0CA
S315080076804A462046BDE8F0429BE5BDE8F0822DE972
S31508007690F34FDFF83C05DFF8D8150488DFF8D40582
S315080076A00978407883B000281ABFDFF8CC0500882F
S315080076B020460D18DFF8D0050088ADF80800ADB2F1
S315080076C0C04300F0FF0000EB013000F55060ADF854
S315080076D002002B1BDFF87C0501220DF1020100F0E8
S315080076E0E3FA6E1C0100B6B23AD10025DFF89C75A4
S315080076F013E0E8B2FFF795FDADF80400331B37F841
S315080077001500ADF806000222DFF8480500F0CBFAAE
S31508007710010025D1B61CB6B26D1CBDF8080085421D
S31508007720E7DB002500E06D1CBDF80800854280F205
S315080077309B80DFF83405405D8DF80A004FF0000A9B
S315080077401BE001220DF102011FFA89F0FFF7F4FC94
S31508007750BB19DFF8000500F092F9010009F10109EB
S315080077607AD17F1CFFB2B7EB1B6FEADBDFF8240583
S31508007770405D8619B6B20AF1010ADFF8E404475DEE
S315080077805FFA8AF0B842CED25FFA8AF1E8B2FFF71A
S3150800779059FD80469DF80A00B8F80090C00140EAF5
S315080077A00520ADF80000012FBDF800000EBF40F01F
S315080077B07F005FFA8AFA4AEA0000ADF80000311B3A
S315080077C0DFF8900400EB41004FF6FF71771C8945FE
S315080077D01EBFBDF80010BDF810209142BFB219D1E6
S315080077E09DF80C100029C6D001226946FFF7F1FB67
S315080077F001003E4630D1DFF86C04A8F80060425D0F
S31508007800DFF8940450F825103046FFF7B1FC00283D
S31508007810ACD124E0DFF84C14495D491C01EBD17169
S315080078204FEAC15B01226946FFF7D3FB01003E46DA
S3150800783012D1A8F800609DF80A0098B14946E8B246
S3150800784000F049F90190331BDFF808044FEA1B6280
S3150800785000F029FA010089D002F0FCFA002005B0F0
S31508007860BDE8F08F00277DE7DFF808044680012091
S31508007870F5E7DFF804042DE9F0410688DFF8500340
S31508007880DFF8F05304886878DFF8C883002882B0E8
S3150800789012BF20463046264601226946FFF74CFCB1
S315080078A0BDF8000001280CBF4FF6FE70401EADF86B
S315080078B00000DFF8BC0307783846471E58B1BFB248
S315080078C0B819001B012200F00FF80100F4D002F0ED
S315080078D0C1FA002006E0687880F001006870002090
S315080078E028700120BDE8F681694608EB4000FFF7DD
S315080078F070BB2DE9FE4F0D46DFF88C1309888842C8
S31508007900044617461E464FF000094FF001080ED2EE
S31508007910DFF84C13095D38467F2808BF00208842E7
S3150800792005DADFF84013095D8E4200D11DB940F231
S31508007930F95100F09AF839462046FFF783FC019082
S31508007940CC4F787820B1CD48B0F800A0A04803E025
S31508007950CB48B0F800A0C8483978008849B9798872
S31508007960081ACE4909888842B4BF4320442002F049
S3150800797071FA01980188BC48005DF8B1204600F00C
S31508007980AAF8012E08BF297803D0022E0CBF298831
S315080079902968814267D001980088401E00F069F87E
S315080079A0BC48065D7888AAF10101891B814201DB82
S315080079B0002837D1387868BB452046E00291CB4687
S315080079C022E002980BEBDB7300EB630000F002F990
S315080079D005EB0B0015F80B10407801EB0020711E23
S315080079E08B4580B207D1BDF8001001F0FF0100F009
S315080079F0FF00ADF80010BDF8001088420BF1020038
S31508007A0018BFC8465FFA80FBB345DADBB8F1000F4A
S31508007A10C1D028E0BDF802100020FFF738FE10B3E9
S31508007A204FF0010978888F49401C788080B20A5D3A
S31508007A302946FFF79DFBB0B1654C7B8824888548AD
S31508007A405B1E00F01CF8010002D002F003FA0AE0FF
S31508007A50B9F1000F02D0FFF70CFF20B10199788821
S31508007A60088030187880BDE8F78F0FF24420FFF7BA
S31508007A7003B901220DF1020180B2FFF75DBB1B1BA2
S31508007A8001220DF1020100EB4300FFF7A2BA70B51F
S31508007A9082B004460025192601226946A0B2FFF7DE
S31508007AA04BFBBDF80000641C48B14FF47F41401AF7
S31508007AB002D0FF3806D007E0681C40B276BDAD1C80
S31508007AC0761EE9D168B276BDBDF80000C0B200B92D
S31508007AD06D1CE843F1E738B50C4600210091614971
S31508007AE00D5C2A4621466846FFF76BFB681C00EBCF
S31508007AF0D07004EB600080B2FFF7C9FF002848BFCA
S31508007B00C043009940B2401832BDF0B55E490988B5
S31508007B100446564883B0254630F815608C4202D292
S31508007B205148405D18B940F23D71FFF79EFF4D4838
S31508007B30455D681C00EBD07006EB6007B8B2FFF72E
S31508007B40A6FF322814D2BFB2C10707EB6000204F48
S31508007B50404B3F884CBF00214FF47F41ADF80410DD
S31508007B60C01B012201A903EB4000FFF732FA60B1FE
S31508007B7031462046FFF7AFFF00902B46401C009089
S31508007B807F2269462046FFF7B4FEF7BD70B539482F
S31508007B90017882B00024C1B94078002814BF36485D
S31508007BA00B480588324806780BE0F6B2701900F0E3
S31508007BB011F8BDF8000000281EBF4FF6FF71884275
S31508007BC0641C3046461E0028EFD1E0B276BD0000A0
S31508007BD0B21503080122694680B2FFF7ADBAF8B5B7
S31508007BE0244C20780027002832D11C480588607864
S31508007BF000281ABF204806882E461D4807783846AA
S31508007C00471E02281DDBFFB2B819FFF7E3FFBDF8D0
S31508007C1000000028F3D01B48008807FB006000F02E
S31508007C203FF80020ADF80000BB190A485B1B01228B
S31508007C30694600F039F8010018BF02F00BF938461A
S31508007C40F2BD3046FFF7E2FAF8B208B90120207013
S31508007C50F8B2F2BD0008040830FB0020B21503088C
S31508007C609008030864080308380803080CF900207C
S31508007C70CD1503083CFF0020B6150308B415030804
S31508007C80B8150308B0150308BC150308E007030870
S31508007C90BE1503087C070308400B0308BA1503083A
S31508007CA080B2FFF7B3BA01A900EB4300FFF791B919
S31508007CB073696D2D656570726F6D2D696E74657269
S31508007CC06E616C2E6300000045480068704770B509
S31508007CD0444C454E2578307841490968C9031ED475
S31508007CE005F0010100F00102114318D03F490A6866
S31508007CF042B1000706D5096808208847307800F0A1
S31508007D00F70030703A49086870B128070CD5096839
S31508007D1008208847207800F0F700207004E03548EE
S31508007D20017809B100210170BDE870404FE02DE9E6
S31508007D30F84304468846FEF787FF81462E480078B2
S31508007D400127B0B1274F2A4E3D78200009D1002DD2
S31508007D501CBF3068002804D0680602D53168402068
S31508007D608847C6F80080A5421CBF3C70FFF7AFFFE6
S31508007D70002721E02DE9F84304468846FEF764FF0C
S31508007D8081461D4800780127B0B1174F174E3D7838
S31508007D90200009D1002D1CBF3068002804D06806D1
S31508007DA002D5316840208847C6F80080A5421CBF26
S31508007DB03C70FFF78CFF00274846FEF757FF38460A
S31508007DC0BDE8F2830C4800787047704700BF0A4840
S31508007DD00849007800200870FDF7ECBD0000000097
S31508007DE050F3002069FF00206AFF002058F30020A6
S31508007DF054F3002068FF002067FF0020FDF752BDFE
S31508007E002DE9F84305460E463000144605D1FDF720
S31508007E1049FD2018C0F313004DE02F46022F0FF23C
S31508007E203C1803DB40214046FEF726FF102C05D2FE
S31508007E302846B047BDE8F143FDF734BDDFF8109199
S31508007E4059F8270018B148214046FEF715FFB4F542
S31508007E50002F03D349214046FEF70EFF49F8276055
S31508007E603C4F3D4E95B9FEF7EFFE0546FDF71AFD68
S31508007E702418A0B27860200C3860022030602846AA
S31508007E80FEF7F4FE306C40F0020011E0FEF7DCFE6F
S31508007E900546FDF707FD2418A0B2F860200CB86067
S31508007EA0042030602846FEF7E1FE306C40F00400FE
S31508007EB03064C4F31300BDE8F28370B50446264661
S31508007EC0022E0D4604DB66210FF29000FEF7D4FE63
S31508007ED0FEF7BAFE1E4951F82620AA4210D1002202
S31508007EE041F82620002C1C490A6C04D122F0020213
S31508007EF00A64022203E022F004020A6404220A60E9
S31508007F00BDE87040FEF7B2BE70B5134C104E20683F
S31508007F10216C01EA0005ADB2A80709D5206C20F04E
S31508007F20020020643168080002D0002030608847CB
S31508007F3068070AD5206C20F00400206471680800E0
S31508007F4003D00020706001208847256070BD0000BE
S31508007F504CFB00204020004008A0004073796D6269
S31508007F606F6C2D74696D65722E630000DFF844141A
S31508007F7000200870FF21DFF8400401700171704786
S31508007F80F8B5044601F0B9FF0546DFF83004DFF816
S31508007F9028740688204602F0F9F8B0F5006F16D165
S31508007FA0204602F017F900F013FAFF280DD000F06A
S31508007FB08BF92146381D02F09CFCDFF8F80301789E
S31508007FC081B10089A9190E1A10E09320F2BDFF218C
S31508007FD0384602F0B9FC052802DA21463846EAE7AF
S31508007FE03920F2BD0581314602F016FDB2B20321F1
S31508007FF0204602F048F803220521204602F04EF8F2
S31508008000204602F0C5F90020F2BDF8B50446DFF8AF
S31508008010A8030078FF2813D0DFF8A45329680E5C5C
S315080080203746384602F0C7F8014608222046FEF7CA
S3150800803065FF08B90120F2BD2868C75DB742F0D1CF
S315080080400020F2BD2DE9F843044602F048F8000B7B
S3150800805000F00106204602F0D2F80546204602F056
S31508008060BDF8B0F5404F14D1002E62D02946002045
S3150800807000F0E5F80446FF2C5BD0002102F053FF20
S31508008080002856D000F001F940F08002052120466C
S3150800809046E0284603F0B2FA054600F099F9044688
S315080080A0FF2C08BF002045D001200021224603F0FE
S315080080B0D3FADFF81023D2E9008948EA000349EA2F
S315080080C00107C2E90037A6B3DFF8FC62336833F864
S315080080D014704FF4E4631F422BD0BB0623D5280A3D
S315080080E08DF801008DF800506946012000F0A7F8C8
S315080080F00546FF2D08D1306830F814104FF6DF72A8
S31508008100114020F8141014E0002102F00CFF80B191
S315080081100521284601F0C9FF40F0800205212846BE
S3150800812001F0BCFF05E0D2E9024520432943C2E934
S3150800813002010120BDE8F28338B5044602F026F8AC
S31508008140B0F5006F0CBF01250025204602F033F874
S3150800815004462146284600F072F8FF2810D18DB152
S31508008160204603F04BFA00F033F9FF280AD0DFF86F
S315080081705812096831F810004FF4E061084201D03E
S31508008180012032BD002032BD2DE9F04107460C46DC
S3150800819001F0FCFF884DB0F5006F0CBF281D28467E
S315080081A00078FF2845D086490968085C0646B74224
S315080081B03CD1FEF749FD80460521304601F075FFA2
S315080081C000F07F00471EFAB20521304601F066FF2F
S315080081D0200018BF312C01D0FFB207BBFEF734FDD3
S315080081E00746304601F0D2FFB0F5006F314605D19B
S315080081F0281D02F0A9FB00F04CF802E0284602F020
S31508008200A3FB3846FEF732FD4046FEF72FFD214612
S31508008210304604F0DEF9304602F0C8F804E000F013
S3150800822038F84046FEF722FD012003E08E5D8642BF
S31508008230BDD10020BDE8F0814FF6FF704DE02DE975
S31508008240F04188465C4900281ABF091D0225082501
S315080082500878FF2816D05A4E31680F5C3C4600F065
S3150800826014F800060AD4204601F0A5FF01462A465E
S315080082704046FEF743FE08B9204604E03068045D30
S31508008280BC42ECD1FF20BDE8F0810521204601F073
S315080082900CBF70B50021202004F0E9FD464800799E
S315080082A0FF2810D0464C21680D5C2E46304601F05A
S315080082B091FF00F08DF8FF2801D000F005F820683E
S315080082C0865DAE42F2D170BD3F49096831F810208B
S315080082D042F0200221F8102070472DE9F84F804619
S315080082E00FF2E800344E0068354F00904FF6FF7ADB
S315080082F0344600E0341DFEF7A7FC814606E020461A
S3150800830002F00CFB2946684602F0F3FA204602F012
S315080083104FFB40B938682178455C0321284601F0AF
S31508008320A9FE8045EBD2301D844208BFFFF7B1FF96
S315080083304846FEF79BFC2078FF2819D0396811F8C3
S3150800834000904D460321284601F094FEA0EB080B49
S315080083501FFA8BF20321284601F095FE3868455D21
S3150800836051461FFA8BFA8A4588BF8A464D45E9D198
S31508008370301D8442BED1684602F01AFBA8B9684689
S3150800838002F0CCFA044601F0B4FE00F0F1F8FFF76B
S315080083907CFF000603D44221204604F01AF9204641
S315080083A002F004F800F0E5F8E5E71FFA8AF0BDE800
S315080083B0F28F0000D8FC002014EF002022EF0020E6
S315080083C008ED0020A0EF002010ED0020FF000000BF
S315080083D0F8B50F4D2E68040001D1FF20F2BDFEF757
S315080083E033FC0C4F29683A7821F8124036F8021BFC
S315080083F0A142FBD1FEF73AFC29683A78B01E401A2A
S315080084004010C1B2914208BFFF20C0B2F2BD00BF02
S315080084100CED002063EF002010B57348734C00681C
S315080084202060606048220021FEF761FD70482168DF
S31508008430007808704FF6FF712068002241800273A9
S315080084400020226850730B2022689073032022684C
S31508008450D0734FF6FE7220680282418200F088FBD4
S315080084602168087600F084FB2168487600F080FBD6
S31508008470216888765F4821680078C8765E49206852
S31508008480096840F8281F5D49097801715C48216828
S315080084900068086310BD10B5FCF776F9534C61689F
S315080084A0897B884203D00846FCF766F950B9FCF781
S315080084B06EF90146606890F90F00814204D0FCF716
S315080084C06AF908B1012010BD6068008AFDF767FEE9
S315080084D06068408AFDF76BFE6068007B012818BF5C
S315080084E00020FDF746FE002010BD10B5454C0020C3
S315080084F0207003F025F820B92046BDE8104002F0A8
S3150800850081BA66E080B5002000F015F828B1002091
S3150800851000F005F808B1002002BDFF2002BD33486F
S315080085200068407B02281CBF1128432801D101207E
S315080085307047002070472D480068007B01281CBF43
S315080085400228032801D10120704700207047002027
S315080085507047002070472C49087070477047002004
S315080085607047012070477047002070470020704709
S31508008570704770470020704780B50020FFF7CFFF8F
S3150800858018B1BDE802400020D5E702BD80B500203D
S31508008590FFF7C5FF30B115480068007B032801DAEC
S315080085A0002002BDFF2002BD10B5040005D040F230
S315080085B049110FF20810FEF75FFB1348007808B957
S315080085C0702010BD084800684821614308440749DF
S315080085D04860BDE810405EE704484068008A704776
S315080085E002484068408A704728ED0020B8FA002003
S315080085F070EF002071EF00202CED002068EF0020BE
S3150800860030ED0020B0FA002087EF002070470020E8
S3150800861070470020704702F078BD704704F0EDBE41
S3150800862004F0C2BD82B08DF80010DDE900231146C2
S315080086301A4602B004F0F2BE32B586B004468DF88A
S31508008640042004F0F5FE0546204604F0FFFE80F0FF
S3150800865001010D420DD0BDF8180004F0F1FF8DF8A8
S315080086600000FF2804BF00208DF80000CDF808D0D0
S315080086701AE0294308BF06A815D0054214D0BDF84C
S31508008680180004F0DDFF8DF80000FF2804BF002065
S315080086908DF800009DF800008DF80C00BDF8180054
S315080086A0ADF80E0003A80290DDE901010A4601466D
S315080086B0204604F0B3FE07B030BD0000656D626564
S315080086C0722D6D756C74692D6E6574776F726B2D6E
S315080086D0737475622E630000DFF8A003002120F88A
S315080086E0801B0022FF2101704170C2700271417126
S315080086F08271704738B50446402C154606D1FFF7F7
S31508008700E3FA00F08020B0F1004F03D000210020EA
S31508008710FFF70DFBDFF86803290018BF0121047075
S31508008720417000F063F9BDE8314004F080BE70B5D1
S3150800873004460D4616468D2C08BF04F0A1FF3246A6
S3150800874029462046BDE87040D4E7F8B5CB4CFEF77D
S315080087507BFA04F180067579FF2D3FD0FF217171F0
S31508008760FEF784FA002D207816BF8F2D01270027E3
S31508008770022802D0CE2100F09FF8380011D0A01CA4
S3150800878000F0CDF868B1B07938B101202070292100
S31508008790BDE8F440BB4802F03FB9FDF778FC31204C
S315080087A019E0FDF774FC402D08D16078411E617010
S315080087B070B104F06CFFBDE8F1403BE08D2D07D1A8
S315080087C0307801F007FD014600222020FFF734FF2C
S315080087D007B100252846BDE8F240B3E0FEF746FAA1
S315080087E02078032804BF002000F0ACF804F18100CB
S315080087F002F094F8FF280AD0F178491EF17002F0C9
S315080088009AFC207818B9BDE8F14002F04DBBF1BDDD
S315080088109BE780B5FFF758FA40054CBF03200120B7
S315080088200021FFF784FABDE8084001224FF4806171
S3150800883095481BE180B5012004F02CFF02F0C2FE2A
S315080088409249C0B9487830B1FFF73EFA00280BD5EF
S31508008850FFF7B8FA40B1FFF737FA40054CBF0320D7
S3150800886001200021FFF763FA01224FF48061864850
S3150800887000F0FCF81BE001280DD100204870FFF736
S3150800888023FA40054CBF02200020814940F0110020
S31508008890FFF74DFA0BE0022805D1002200218D20B2
S315080088A0FFF728FF03E040F2751100F005F8BDE870
S315080088B00240002004F0EEBE0FF2EC10FEF7DCB921
S315080088C038B5044600208DF800006C4D287818B19C
S315080088D04FF4C071FFF7F0FF0220287085F880403A
S315080088E06A46A91C204602F0B7F9684948706948E3
S315080088F000786870FFF79EFF31BD02F0E2BD010007
S3150800890080B508BF0120020163490020FFF778FA05
S31508008910002002BD60490020FFF7CFBA704710B5A6
S31508008920441C204602F06AFE00F00700032807D11F
S31508008930204601F00FFC205C042801D1012010BD5F
S31508008940002010BD38B504464C4D7E220021A81CD7
S31508008950FEF7CDFA0020287002F0A6FA95F88010E6
S315080089602046BDE8344002F0A0BA70B504460D466C
S315080089701646FDF7E4FB60B13EB12046FFF7CFFF90
S3150800898018B1607840F0200002E0607800F0DF005F
S3150800899060702946204601F08CFD0146FF2924D047
S315080089A0364D3E4E05F18104204601F0A2FF15F82A
S315080089B0830F401C2870C0B2318881420BD2687878
S315080089C0401C687007E0204601F0A8FF01F0EEFCA5
S315080089D02878401E2870308829788842F3D300F01A
S315080089E005F8BDE8704004F022BD70BD2C4800783B
S315080089F002F000B910B5214C2078012806D121498A
S31508008A0000200870FDF743FB0320207010BD10B549
S31508008A101C49002008700024FEF716F917490A7841
S31508008A20012A02D1032201240A70FEF71FF92CB18C
S31508008A30FDF72DFBBDE81040312083E710BD0F4838
S31508008A400178481E8041C00F7047FDF72ABBFDF725
S31508008A5025BB0A4890F88310002904BF813001F02D
S31508008A60A7BF002070470F4801F0A9BF04F0F2BD68
S31508008A7002480078012818BF0020704724FC00200F
S31508008A80A9FC0020ACFC002026FC0020D0EE00202B
S31508008A901388000897EF0020FB88000854EF002091
S31508008AA0C6FF0020A5FC00206C6F7765722D6D61EE
S31508008AB0632D65667233322E63000000026817491B
S31508008AC012BACA60426812BA8A60826812BA4A60E2
S31508008AD0C06800BA08607047704710B51049802210
S31508008AE00A6006230F4A136007230B6013689B0767
S31508008AF0FCD5002350F823405B1C24BA042B8C6257
S31508008B00F8D313685B07FCD500220B6B1BBA40F839
S31508008B102230521C042AF8D310BD00003830004019
S31508008B200030004010A0004010B504460846FFF784
S31508008B30C5FF2046BDE81040CFE7002848BF4042A1
S31508008B407047000001468AB20AB94BF6EF610F4A30
S31508008B501180000C0E4908BF4FF6CE2008807047DA
S31508008B600288130448BF4A405100018010467047E6
S31508008B7010B562210548FFF7F3FF044641F20B01E1
S31508008B800348FFF7EDFF604010BD00002CEF002002
S31508008B902EEF0020012100F01F029140DFF8742516
S31508008BA0400942F8201070472DE9F04FDFF86C4570
S31508008BB091B061681091072808BF032006D00828DD
S31508008BC008BF022002D0052808BF0420DFF8505548
S31508008BD029686A6841EA0221AA6841EA02410091C5
S31508008BE06968490703D5E16941F00201E16129682D
S31508008BF0490703D5E16941F00401E1610099EA6991
S31508008C00D140C90703D5E16941F00801E161401E79
S31508008C10DFF80465DFF80C7500210328316000F2DF
S31508008C204682DFE810F01C0206001B0004006160A3
S31508008C3014E0386CC00703D5E06940F04000E061F5
S31508008C40386C400703D5E06940F02000E061386CD5
S31508008C50800703D5E06940F01000E061FDF7F4FFF6
S31508008C60FBF734FB8DF83C000120DFF8BC14DFF875
S31508008C70BCA4C1F58031090B00FA01F1491ECAF8F6
S31508008C8038104FF00009090A07D1DFF8A41409784B
S31508008C9019B1616C41F020016164396CDFF8948484
S31508008CA0DFF894240E91796C0D91D8F84C100C913C
S31508008CB0D8F850100B91D8F854100A91D8F85810D3
S31508008CC00991DAF800100891DAF804100791DAF831
S31508008CD014100691DAF824100591DAF83410049184
S31508008CE0DFF8581409681268039202222260DFF836
S31508008CF0502412688DF80420DFF8482412688DF88D
S31508008D000520DFF8442412688DF806204FF0FF325C
S31508008D106262DFF800241368DB040AD56B68DB0798
S31508008D2007D5E369DB0704D5336843F480738146C6
S31508008D30336013689B040AD56B685B0607D5E3693D
S31508008D40DB0704D5336843F48043814633601368F0
S31508008D505B0412D5009BD5F818C023FA0CF3DB0781
S31508008D600BD5E369DB0708D53368D5F818C000FAD0
S31508008D700CFC4CEA03038146336013681B0414D5C4
S31508008D80009BD5F81CC023FA0CF3DB070DD5E36965
S31508008D90DB0702D4E3691B0707D53368D5F81CC07F
S31508008DA0814600FA0CF0184330603868800707D50A
S31508008DB0E069C00604D5F07840F0010000F07FF9BC
S31508008DC03868400707D5E069800604D5F07840F092
S31508008DD0020000F074F93868C00707D5E069400654
S31508008DE004D5F07840F0040000F069F91068C00373
S31508008DF007D5E069000604D5F07840F0080000F0D1
S31508008E005EF900206A68D2076A6848BF4FF4805046
S31508008E105206009AAB6948BF40F40050DA40D207C0
S31508008E20009AEB6948BF40F48040DA40D207E2690D
S31508008E3048BF40F40040D20605D4E269920602D43F
S31508008E40E269520601D540F01000E269120648BFF1
S31508008E5040F4803008400290A520FBF72EFA012046
S31508008E60E063E069A16B11B1616A0142FAD0616AF7
S31508008E70014200F0C5800020E063F07840F0400031
S31508008E80F07000F0CDFC0498CAF83400072038606A
S31508008E900F20C8F8000004F0FFFB1098A74960608F
S31508008EA00E9838640D9878640C98C8F84C000B989E
S31508008EB0C8F850000A98C8F854000998C8F8580025
S31508008EC00898CAF800000798CAF804000698CAF86D
S31508008ED014000598CAF82400029808609649039871
S31508008EE008604FF0FF30994908609548006830706F
S31508008EF094480068707094480068B070606AE169C8
S31508008F00EA693368084001994B4000990B4001060D
S31508008F10490E01F0010143EA81230106890E01F099
S31508008F20010143EA81030106C90E01F0010101FAB4
S31508008F3002F200051A4300F07C5010433060FDF73A
S31508008F4083FE00F06FFC002020609DF83C0008B10D
S31508008F50FBF7A6F9F07879490968C90304D5C0F37F
S31508008F60C00109B120212162396C890703D5C107DF
S31508008F7044BF0221F960396C490704D5C0F34001A2
S31508008F8009B10421F960396CC90704D5C0F380001A
S31508008F9008B10120F860D8F84C00800605D530687D
S31508008FA0C00544BF0C20FFF7F5FDD8F85000800631
S31508008FB005D53068400444BF0D20FFF7EBFDD8F80F
S31508008FC05400800607D53068A969C840C00744BF61
S31508008FD00E20FFF7DFFDD8F85800800607D5306861
S31508008FE0E969C840C00744BF0F20FFF7D3FDF078F2
S31508008FF040F08000F07011B0BDE8F04F04F086BB79
S31508009000B9F1000F7FF439AFDAF818004A49DFF8EA
S3150800901040B140084000CAF818004748806840F048
S315080090200400886040F20721BBF80000884202BFAE
S31508009030BBF802004FF20F01884205D14CF23C30D2
S31508009040ABF802004FF00109012004F063FBB9F107
S31508009050000F03D04FF20F00ABF8020013E7FBF73F
S3150800906035F90446A520FBF728F900F0D9FB04F0EA
S315080090704DFB384D384F2E68286840084000286058
S31508009080FDF7ECFDD7F80080386820F0400038601E
S31508009090FDF7E0FDC7F800802E60FDF7DFFD0CB197
S315080090A0FBF7FEF811B0BDE8F04F00F0BBBB11B0FE
S315080090B0BDE8F04F40F259412848FDF7DDBD4FF0B5
S315080090C00109F070704711F1010F154A08D001F037
S315080090D0FF031360C1F307235360C1F3074191608F
S315080090E000231F490B601368002B04BF5368002B2D
S315080090F001D192681AB10A6842F001020A600A6848
S3150800910042F400720A600A6842F080020A604BE57F
S315080091101449D8E700E200E0BCF90020040000404A
S3150800912008BC004014A000400000000004400040B5
S315080091309807080814A8004008ED00E000E100E0E0
S3150800914008B0004008B2004008B4004080E200E0E1
S315080091500000002094ED00E000800040A807030806
S3150800916020000040000160000348018803480823E6
S315080091707F22FCF715B800BFAE15030804FB0020D4
S3150800918010B52648264A002141654FF480442549F2
S315080091900C6004210160C46016211160002141653C
S315080091A0416D41F060014165162000F005F81E4941
S315080091B008701E48046010BD162807D11C480068B0
S315080091C0800900F0010080F0010070470020704718
S315080091D010B51248144C4FF48041C1600421016057
S315080091E01620FFF7E9FF227801468A4218BF217048
S315080091F00DD1501E8041C00F20701620217804F032
S315080092009BFE2178481E8041C00F20702178BDE85A
S315080092101040162004F090BE0000000014A800407C
S3150800922020BC004080E100E065FF002000E100E08E
S3150800923008B4004010B50446FDF706FD484930203D
S31508009240086048490860484908601020474908608E
S31508009250200A0028464808BF24024FF20F0104805E
S315080092604180BFF35F8F4348002101604160424857
S315080092704249086010BD42480168C90708D5414AF5
S3150800928003211170016C490849000164012101603C
S315080092900168090703D5016C21F0080101647047CC
S315080092A080B5002000F009F830B9BDE80440FA217D
S315080092B00FF2E400FDF7E0BC01BD2DE9F042324CA7
S315080092C0216842428D1815F01F0108D0002802D4E3
S315080092D04842054403E04842284400F120052B484B
S315080092E0A5F12006A84224BF2948864203D3EFF3F6
S315080092F00880854201D300202DE0FDF7A5FC8146B4
S315080093002448006810F0010718BF04F0DCF920684B
S3150800931001468D4206D2A84224BFCD2100F8011984
S31508009320F9D206E02038002201E000F8012B884235
S31508009330FBD32560304604F0CBF9E22001E006F8BD
S31508009340010BAE42FBD30FB104F0A6F94846FDF770
S315080093508DFC20682038BDE8F0820B48006870470D
S315080093603020004030C8004030C0004010E00040C7
S31508009370000000201C4000400400FA050CED00E047
S3150800938018A00040DBFF002008EF002088E200203C
S31508009390C410002094ED00E06D6963726F2D696E4C
S315080093A07465726E616C2E630000000080B5A64875
S315080093B00021416041708170A5210170012000F0F3
S315080093C03AFD00F03CFD00F01EF8002002BD9F4863
S315080093D00168C90700D4704780B59D490A6822F418
S315080093E040620A600168490849000160016809028B
S315080093F0FCD49848006810B16420FBF7D6FD96495E
S315080094000020086001BD80B59448016841F080716C
S31508009410016001209249086000209249FBF700FE8E
S315080094209149924A022008600020914908609148B3
S315080094309149016001211160844A9049116040F206
S31508009440014101654FF480308D49086001BD8248AD
S31508009450006800281EBF7F480068002805D07F489E
S315080094600068000E00F00100704700207047D12206
S3150800947002704170090A817082490A78C270501CCC
S315080094800870042070472DE9F14F82B0DFF8F881A3
S3150800949000900026D8F800000099405C451D00F0B1
S315080094A02CFDEDB201904FF6FF7A19E0B11E9DF83A
S315080094B00800C9B201F020F90746514604F03EFDFE
S315080094C082465E46FFB24FEAC90007FA00F0044337
S315080094D009F10109B9F1040F17D34FF06040046090
S315080094E0FFF7B5FFF6B298B3AE4231DA00F005FDE4
S315080094F00199401A80B2B0F5FA7F29D84FF060403A
S3150800950000680128ECD10024A146F0B210B95B2707
S315080095100126D7E706F1010B0128F6B204D1D8F8DF
S3150800952000000099475CCCE7E91E884208BF574609
S31508009530C7D0A91E884208BF4FEA1A27C1D0691E9C
S31508009540884208BF5D27BCD0AE42AFD10027B9E735
