S0320000626F6F746C6F616465722D756172742D786D6F64656D5F65667233326D67317032333266323536676D34382E733337A7
S11308002011002059360000DF0F00009131000054
S1130810E70F0000FF1A0000E31C000000000000C6
S11308200000000000000000400800009F1E0000BF
S1130830C71F0000000000008F200000EF2500000B
S113084007B0CD5E0100000000000401A82F0000E5
S11308500040000000000400F0001000FD32000021
S113086001330000BD33000077360000A5360000D8
S11308700000000038B5044600F08FFA182C054635
S113088005D1182000F089FA182000F086FA2846CD
S113089032BD80B5684600F0FBFA9DF800003128AF
S11308A002D0322802D003E0022002BD052002BD9E
S11308B0002002BD0A28ACBF37303030C0B27047C8
S11308C000F0CCB910B540F6280092B000680FF2E1
S11308D0C02184686846482200F056FB200E00F0D0
S11308E053F98DF81400200C00F04EF98DF8160021
S11308F004F00F00FFF7DEFF8DF8180001224521F8
S1130900684600F017FA002012B010BDADF5007D66
S113091003A8242100F064FB00F066FB00240FF21E
S11309202C350FF2B4260FF2E02B0FF2C02740F65D
S1130930071825E0002C04BF9DF87501012809D192
S1130940009580235EAA03A939A800F01FFD0400C6
S113095040F082809DF80400182801D14FF0060968
S11309609DF80400FFF786FFB9F1060FFCD8DFE815
S113097009F005070D293EF57E00F5E7FFF7A2FF14
S1130980FFF787FF81464FF03C0AEDE70122112172
S1130990304600F0CFF920230CAA27A939A800F08B
S11309A0B9FC242103A800F01BFB0121052000F061
S11309B03DFB00F013FA18B10121002000F071FA98
S11309C001F032F84320FFF755FF00214FF47A700D
S11309D000F02CFB00F002FA18B900F03DFB0028EF
S11309E0F8D000F0FBF900283AD04FF004095DA8D4
S11309F08521401C01F080F800F0F0F90028FBD0BC
S1130A004FF47A70009001235DA802AA0121401CD2
S1130A1000F001FA9DF8750101280ED140F6B830B6
S1130A200090012302AA84210DF5BB7000F0F3F9B4
S1130A300299842908BF0028D9D15DA801A9401CC6
S1130A4000F0F7FF044644457FF474AF00F096F8D5
S1130A504FF006097FF47EAF18208DF804007DE77F
S1130A60BAF1010AAED11820FFF704FF86E701218D
S1130A70002000F016FA01210A2000F0D7FA9DF8B0
S1130A800400062808BF444505D101221B2138462D
S1130A9000F050F972E701221A21584600F04AF991
S1130AA0A4F51060B0F5E06F04D2012218210FF212
S1130AB0741003E0012210210FF2801000F03AF9C3
S1130AC040F60111601A20D0401E20D0401E18D0DC
S1130AD0401E18D0401E1CD0401E1CD040F2FB61AA
S1130AE0401A22D0C01E22D0401E18D0401E1AD058
S1130AF0401E1AD0401E14D0401E0ED0401E14D0EA
S1130B0018E0212014E0222012E0232010E0242009
S1130B100EE025200CE027200AE0412008E04320D5
S1130B2006E0442004E0452002E04F2000E050208D
S1130B308DF804009DF804000009FFF7BBFE00F0E7
S1130B402CF99DF8040000F01FF800F026F90D20A0
S1130B5000F023F90A2000F020F90FE700F00EF866
S1130B6009D09DF80C00002814BF40F2092040F27F
S1130B70012000F0D1FF40F20320FAE79DF80E00B7
S1130B809DF80F100842704700F00F0092E670477E
S1130B900D0A4765636B6F20426F6F746C6F6164FD
S1130BA065722076582E592E410D0A312E2075700B
S1130BB06C6F61642067626C0D0A322E2072756E50
S1130BC00D0A332E2065626C20696E666F0D0A4231
S1130BD04C203E20000000000D0A626567696E200B
S1130BE075706C6F61640D0A000000000D0A536596
S1130BF07269616C2075706C6F616420636F6D70D5
S1130C006C6574650D0A00000D0A53657269616CA8
S1130C102075706C6F61642061626F727465640D1D
S1130C200A0000000D0A584D6F64656D20626C6FF8
S1130C30636B206572726F72203078000D0A6669EA
S1130C406C65206572726F722030780000000000BD
S1130C5005330000000000005533000010B50121E9
S1130C609C489D4C00F09EFF01219C4800F09AFF97
S1130C7001219B4800F096FF01219A4800F092FF61
S1130C8040F6AA60E060002100202060606641F226
S1130C9005006060A1606161E1649349A164002181
S1130CA06167A167E1676060206820608F48006821
S1130CB001280CBF4FF4957040F27B20C0006061A6
S1130CC001230422002000F0B9FF012301220121A5
S1130CD0002000F0B3FF0020A06701230320606719
S1130CE004220521002000F0A9FF0520E0604FF058
S1130CF0E0617F48016000210162C1624163C16615
S1130D004FF440227B490A6000228A604A600FF255
S1130D101822920892008A61774A0A6300228A6341
S1130D204A630321754A11600121C1630220744999
S1130D30086010BD70B50E46802E0546144602D3D9
S1130D4041F2031070BD00F038F810B941F20620EA
S1130D5070BD304600266B4902E0AA5D8A55761CB8
S1130D608642FAD3D1F88020401E60F30E12C1F8F7
S1130D70802001F18000800863498000086002201F
S1130D80624908603CB100F018F80028FBD06048C4
S1130D9000688006FBD5002070BD10B5044600F045
S1130DA00CF80028FBD05A4801684906FBD5446278
S1130DB001688906FCD5002010BD56485649826852
S1130DC0920702D50220086003E00068800703D47C
S1130DD00220886001207047002070474F48006857
S1130DE040F20111884208BF002007D040F20221DE
S1130DF088420EBF4FF480704949401A4949096836
S1130E00814201D10020704701D2401A7047C1F5D8
S1130E10007140187047F8B504460E4615468BB16C
S1130E20069F2FB100F0E0F80021384600F0FEF8EC
S1130E30FFF7D4FFB04205D2002FF9D000F00CF92F
S1130E400028F5D0FFF7CAFFB04202D2FFF7C6FF71
S1130E50064600202A49334A314B03E00027176035
S1130E6002270F60B0420FD2176813F807C004F8C6
S1130E7000C0401C7F1CB7F5007F1760EED0B7F5AB
S1130E80807FEFD10127ECE705B128600020F2BD97
S1130E9080B500210091012300220121FFF7BBFF4F
S1130EA002BD1D4A08B10220106081B1012010600A
S1130EB090600FF2740115481A4A89088900C165C7
S1130EC0002111600121016002200D490860002009
S1130ED07047000040410500000001400025080063
S1130EE00045080000220400F9FF010094400E4070
S1130EF000200E4080200E4001000C0028200E44EB
S1130F0008200E4680000020C8200E403C200E40E1
S1130F101000014020200E4020200E4494200E405A
S1130F202011002028130020F00F10031C000140A2
S1130F30201100201300000009000000000100003F
S1130F400202000013000000F00F10031C00014017
S1130F50201200201300000009000000000200001D
S1130F6001010000D3FFFFFF62B38B0708D0521EBC
S1130F7011F8013B00F8013B00F024808B07F6D107
S1130F80830740F0208000BF103A07D330B4B1E8A3
S1130F903810103AA0E83810F9D230BC530724BFF7
S1130FA0B1E80810A0E8081044BF51F8043B40F829
S1130FB0043BD20724BF31F8022B20F8022B44BF94
S1130FC00B7803707047083A07D3B1E80810083A61
S1130FD040F8043B40F804CBF7D25307E4E7FEE7BC
S1130FE0002200F065BEFEE71FB52648016841F403
S1130FF0801101606C462448016841F001010160E0
S113100000F070FE4FF47A71B0FBF1F01F49800AD2
S113101048600FF288000FC884E80F000A208DF89A
S1131020020069461A4800F0A5FE1FBD30B5194AF2
S1131030164C1369656805FB003060809BB26088BC
S11310409842AD41ED0F257011B111698142FCD177
S113105001201060506030BD0C490F480A78002A06
S1131060026803D0D20705D400207047D20701D507
S1131070012070478069498888428041C043C00F7D
S11310807047000000400E40C0400E402013002076
S113109000800140148001400C80014001000000E8
S11310A00000000000000000000000002DE9F843EB
S11310B01F460446786800280D46164646D000F0C0
S11310C0A9FE216E001D721882421DD300F118037F
S11310D0994219D28446884238BF8C469A4288BFC6
S11310E01A46ACEB0101ACEB000005EB0108A2EBE6
S11310F00C0920444A4641466830FFF735FFFF2279
S11311004946404600F098FE00F089FE216E001D1D
S1131110884222BF7218031D9A420DD3411A05EB6F
S113112001080422414604F18000FFF71DFFFF225D
S11311300421404600F080FE29463B68206E7D680D
S11311403246A847206E301820660020BDE8F2839E
S113115030B54B688C689C4206D200F140021B1BE0
S113116014781B19412B01D3002030BD5378147817
S11311708D68E3180C68645D03F03F03C4548B6806
S11311805B1C8B6013785B1C13704C688B68A342E8
S1131190ECD3012030BD90F840004A6889681018EB
S11311A0401A70472DE9F0410F461446984605460B
S11311B0FFF7F1FF404505F1400607D239462846BE
S11311C0FFF7C6FF00284DD0002049E000200BE0C7
S11311D07178695C2154401C7178491C01F03F010D
S11311E071703178491E3170317809B14045EFD3BF
S11311F0B9687A68914238BF404507D23A68515C71
S11312002154401CB968491CB960F1E7404529D113
S1131210B26C4146204600F055FEB064069820B1F9
S1131220F0684246214600F065FE079800281CBF7E
S1131230F078002805D0B06843462246214600F0E5
S11312407DFEF07838B1F069B1694044F0618842BC
S113125024BF0020F07070694044706141F20300C3
S1131260BDE8F0811220B07141F20200F8E7F0B558
S113127085B004460020019000901546082302AA78
S113128000F0B3FB41F20306B0423CD194F84300B2
S113129004F1480738B100F038F83868082302AA86
S11312A002A900F04BFE9DF80A109DF80B000904FA
S11312B041EA00609DF8091040EA01209DF80810F9
S11312C0084328609DF80E209DF80F10120442EA8E
S11312D001619DF80D2041EA02219DF80C20114383
S11312E0696094F8431049B9DFF8A01688421CBF1E
S11312F0DFF89C16884201D000F007F86868B860EF
S11313000020F860304605B0F0BD7868082202A9D4
S113131000F0F0BDF8B5044604F140070020B871B0
S113132038707870F870787138710D4603F02000C9
S1131330B87016464FF0FF30B864FF2200203862C0
S11313407862182104F1680000F076FDFF22042180
S113135004F1800000F070FDFF22042104F18400F8
S113136000F06AFDBD60FE6000F052FD00B11DB1E9
S113137000F04CFD18B116B941F20B00F2BD16B1E4
S1131380F86800F0ADFD0020F2BD00002DE9FA4F31
S113139099B0044603A80021002300252AC01A9806
S11313A0DDF890A00392049004F1420604F148078A
S11313B041F203080DF120090EE000F001FB404565
S11313C02CD10798DFF8CC15B8600020F860069897
S11313D0884270D10220307105981A99884280F0B1
S11313E0D18230791228F7D8DFE810F01400150004
S11313F0C900420117016401FB0057016401520155
S1131400640152012A02C9029002A602A902D20171
S1131410C902E1E7D1E700F0D3FA404540F0B382D6
S1131420B07820B10698DFF86815884243E0307838
S1131430C0074BD57078002848D10698DFF85415BA
S113144088421CBFDFF85015884222D0DFF84C15C3
S113145088421CBFDFF8481588421AD0DFF84415CB
S1131460884222D0DFF82415884263D0DFF838158B
S1131470884213D0DFF8341588420DD0DFF81015F8
S1131480884215D0DFF8281588421CBFDFF82415E0
S1131490884200F0ED8011E00E209CE70F203071AF
S11314A0B86838610020786196E71220307163E0F3
S11314B000F0ACFC002840F0DB8036E012203071F4
S11314C006A800F04BFD002856D0A9E10698DFF8E5
S11314D0C81488421AD0DFF8C414884214D0DFF844
S11314E0C014884214D0DFF8A41488421FD0DFF857
S11314F0A014884212D0DFF8B81488420CD0DFF868
S1131500B414884206D017E0042064E7062062E79A
S1131510072060E709205EE70B205CE700F076FC1B
S1131520002804BF70780028C5D10C2053E77078D8
S11315300028C0D110204EE706A800F00FFDA0B18E
S11315400698786411203071069800F009FD05466C
S113155030788006A8D5002DA6D069680800A3D0ED
S11315602046884700289FD05AE1122030717078B5
S113157010B141F2040006E241F2080003E2F86807
S1131580082831D200200190082300F03DFA40459C
S1131590F4D199F803000006B0F1407F04D0122082
S11315A0307141F20900EEE199F8050099F8041050
S11315B041EA00200290C00704D5307840F00100D1
S11315C0307002E000F024FC30B900F01FFC002869
S11315D0D5D00298C005D2D41220307141F20A004D
S11315E0D1E1BB68F868984280F0C781012001907E
S11315F0009000F0F8F94045F2D119981C2208A98E
S11316000830FFF7C1FC199901204870E9E705206B
S113161030710120F0700020F861F8680828BFF4E8
S1131620DBAE012001900090082300F0DCF9404576
S1131630D6D11999DFF880230120087000F0C4F98D
S1131640199948600020806A01689142DFD199F8B5
S1131650062099F80710C068120442EA016199F85B
S1131660052041EA022199F8042011438142CED099
S113167012203071D4E0012000F0BEF94045AFD112
S113168000F0A2F90290B868052824BF0298B86156
S1131690F8680428EFD30A209DE60020F8610820AA
S11316A099E6DAF80030F8695A4608A9E047F8697B
S11316B05844F861B868F968814295D2A0EB010BEF
S11316C0BBF1040F03A9204604D3FFF764FD0428EB
S11316D004D26CE0FFF75FFD584568D3BBF1410FBE
S11316E028BF4FF0400B00F083F9584502D200F0B8
S11316F07FF98346BBF1040F24BF4FEA9B004FEAF6
S1131700800B00F088F9404540F03D81307907288E
S113171004D1DAF808C0BCF1000FC2D1CBF1040047
S1131720BBF1040F009007D2014608A8FF225844D9
S113173000F082FB0098834430790A2806D153468E
S11317405A4608A92046FFF7B1FCB3E70528B1D1F2
S1131750DAF80C000028ADD0F869052812D20BEB9A
S1131760000107290ED308A9091D081A0090014693
S1131770042204F18400FFF7F7FB0098FF22042100
S113178000F05AFBDAF80030F869DAF80CC08BE79D
S11317903078800634D5786C00F0E2FB05002FD158
S11317A03EE04FF0010B00F023F9584504D203A9A1
S11317B02046FFF7CDFCE5E0B868F968A0EB010B23
S11317C0BBF1410F28BF4FF0400B00F011F98345E6
S11317D002D300F00DF9834600F01DF9404521D1F4
S11317E0307880060CD5DDB1D5F808C0BCF1000F07
S11317F016D053465A4608A92046E047002811D17E
S1131800F868B968884230780DD28006C9D5002DB1
S1131810C7D029690800C4D0204688478346C2E758
S113182041F20100AFE0800609D5002D07D0EA6837
S1131830100004D05146204690470028F2D19CE085
S1131840002000F0D9F8404507D1386C5B49884244
S113185004D01220307141F2050094E000F0D6FA71
S113186018B919990120C87003E01998C0780028A4
S113187046D0F07850B1DAF80C50280006D0DAF8E7
S11318800030042204F184010420A847B869002828
S11318901CBFDAF80400002832D04FF0FF30029069
S11318A004F180050422294602A800F05BFB50B134
S11318B000F0B5FA38B12946DAF80030DAF8045005
S11318C00422001DA847042204F1680102A800F0C4
S11318D049FBA8B100F09EFADAF80030DAF80450B7
S11318E0142204F16C010830A84700F093FA04F1C3
S11318F06801DAF80030DAF804400422001DA04739
S11319001999012088700D2030713BE0F868102887
S113191033D200200190102300F076F8404532D1F4
S113192000F056FB8021009001910123386809AA38
S1131930022100F0E4FAE9E7012070701DE0B078BC
S1131940D8B901900090402300F04DF840451AD1D9
S1131950786800F0D1FA786810AA08A900F040FB72
S113196038B119990020C8701220307141F2060074
S113197009E019990120C870B07001202BE541F2EB
S1131980070000E000201BB0BDE8F08FF70A0AF75B
S1131990FC0404FCEB17A603F40A0AF4F50909F5A0
S11319A0F60808F6F70909F7F90707F9FA0606FA37
S11319B0FD0303FDFE0101FEAD1007B0E320BBDE15
S11319C006AA03A9204652E499F8021099F80300E4
S11319D0090441EA006099F8011040EA01209DF8E9
S11319E020100843704708AA03A92046FFF7DABB72
S11319F003A92046FFF7CFBB01900090042308AA57
S1131A0003A92046FFF7CEBB0120009008AA03A932
S1131A102046FFF7C7BB0120019000905B4608AA4F
S1131A2003A92046FFF7BEBB324800210170417074
S1131A30704770B504460D462078012808D0032865
S1131A404ED0042847D0182818BF432848D04CE06B
S1131A50284E7078002860780CD1012805D1707068
S1131A606078A1780818FF2815D01520287040F652
S1131A70041070BD3178884204D10620287040F6E5
S1131A80061070BD491CC9B28842E9D015202870DF
S1131A9040F6051070BD00228021E01C00F0E9FA38
S1131AA004F18302010A1378994204D015202870A6
S1131AB040F6021070BD517800F0FF00884204D057
S1131AC01520287040F6011070BD60783070062033
S1131AD02870002070BD0620287040F6071070BDE5
S1131AE01820287040F6081070BD1820287040F6A1
S1131AF0031070BD2C130020002200F0A1B9FEE7F2
S1131B004FF0005108804FF20F00488070470F4992
S1131B104CF23C30088070474FF0005108804FF27F
S1131B200F0048800A48016821F4E06141F48061B3
S1131B300160BFF34F8F0748074A016801F4E06171
S1131B4011430160BFF34F8F00BFFDE70200002087
S1131B5000500E400CED00E00400FA054FF0005078
S1131B604FF20F024188914201D100887047002949
S1131B7004BF0088012802D140F2022070474FF4CC
S1131B8000707047890001EB401000F1844002604E
S1131B907047DFF874104A68D20702D40A68024218
S1131BA0FCD1704770B502120C4602F00F020021FE
S1131BB0521E092ADFF8545014D8DFE802F0051445
S1131BC01313071619131C20DFF83850C0F304361A
S1131BD011B10846FFF7DDFF224631462846BDE82D
S1131BE07040CFE770BD1035F0E730350121EDE7E7
S1131BF038351021EAE740354FF48031E6E7DFF865
S1131C001050E3E700400E4040410E40B0400E400B
S1131C1050410E403023254A584310440C3000F103
S1131C20806006E03023214A584310440C3000F110
S1131C30C060012202FA01F101607047F8B5044660
S1131C40164630000D461F4607D0002F204602D00E
S1131C50FFF7E8FF01E0FFF7DDFF30210F22134813
S1131C6011FB04F1082D084405D2AB00416800F0D3
S1131C7015F8416006E0A5F108039B00816800F0B7
S1131C800DF881604EB9002F2946204602D0BDE8E8
S1131C90F440C7E7BDE8F440BCE7F1BD9A4021EA4F
S1131CA0020206FA03F111437047000000A000404D
S1131CB000B500BF130096469446103928BFA0E82B
S1131CC00C50FAD85FEA417C28BF0CC048BF40F8EA
S1131CD0042BC90728BF20F8022B48BF00F8012BAA
S1131CE000BDFEE7184919480A6802F00702022AF3
S1131CF009D00AD3042A01D002D306E0406805E0E3
S1131D004FF4004002E0006800E08068C96EC1F34F
S1131D100421491CB0FBF1F070470D48016841F4FF
S1131D20700101600B48416941F40051416101684F
S1131D30890889000160416B490849004163016ACF
S1131D4021F080510162704794400E401001002040
S1131D5088ED00E040300E40044988421CBF04492D
S1131D60884201D101207047002070470080014063
S1131D70008401402DE9F84304460D46FFF7ECFFCB
S1131D802878010004BF0221616000216162697842
S1131D9001B140216A7A02B18022AB7A03B12023D7
S1131DA0EE7A06B1102695F8049095F805C095F8DA
S1131DB00CE0EF7895F80280B9F1000F18BF4FF4EA
S1131DC00059BCF1000F18BF4FF0805CBEF1000F4A
S1131DD018BF4FF0080E3F0447EA0868AF7948EA95
S1131DE08728EF792D7A48EA07273D432943114391
S1131DF01943314349EA01014CEA01014EEA010168
S1131E00216008B101206060BDE8F18300207047C3
S1131E100020704740F628000068006970472820B9
S1131E20044A00680168914201D1006970470020AA
S1131E3070470000AD1007B062F30F2262F31F4237
S1131E40401810F0030308D0C91A1FD3DB0748BF9A
S1131E5000F8012D28BF20F8022D130030B41446D9
S1131E601546103928BF20E93C00FAD8490728BF95
S1131E7020E90C0048BF40F8042D890028BF20F851
S1131E80022D48BF00F8012D30BC7047C91818BF97
S1131E9000F8012DCB0728BF00F8012D7047FEE79D
S1131EA00A0A484000F0FF0008214308C00746BF63
S1131EB0034858401846491EF7D150407047000067
S1131EC02083B8ED70B504460D461046002604E0A4
S1131ED00146A05DFFF7E4FF761CAE42F8D370BD67
S1131EE010B5044600F070F92046BDE8104000210A
S1131EF000F070B900F084B9014600F0A5B9F8B556
S1131F0005460E4617461C4600F0A7FA079A06999E
S1131F10284600F0A8FA05F12400002101600675A6
S1131F200C22394605F13900FFF71EF805F145008A
S1131F30210C01708470210A4170F1BD10B584B088
S1131F401C460191029200F12801009100F138032E
S1131F5000F12402214600F0A3FA1FBD00207047BF
S1131F60002070470300002013F0030F09D0521E15
S1131F7022BF13F8010B11F801CBB0EB0C00F3D026
S1131F807047121F22BF53F8040B51F804CB60456D
S1131F90F7D0121D0AD200BA9CFA8CFCB0EB0C00EC
S1131FA038BF6FF0000088BF01207047521E22BF67
S1131FB013F8010B11F801CBB0EB0C00F6D0521C56
S1131FC008BF10467047FEE7024870470248704752
S1131FD0024870474A43E00F6A43E00F8642E00F2D
S1131FE070B504000D4618BF002DA2B0164600D0EF
S1131FF016B940F2016023E001211248FFF7D2FD37
S1132000402111A8FEF7ECFFFFF7DEFF014611A8FF
S113201000F0D6FDFFF7DAFF014619A800F0D0FD65
S1132020294601A800F0CCFD314609A800F0C8FDFE
S113203001A8009011AB20222146034800F0CFFDF7
S113204022B070BD0015080000000F400A460902C6
S113205041EA12214840C0F30311484080EA0030AD
S113206041010206C9B2D20E41EA0221484080B2BF
S1132070704770B504460D461046002604E001463C
S1132080A05DFFF7E3FF761CAE42F8D370BDFEE718
S113209010B54A688B68CC68096801600260036007
S11320A0046010BD10B502680368046800680A6023
S11320B08C604B60C86010BD38B504460D46FFF710
S11320C0E7FF05F110012046FFF7E2FF05F12001CB
S11320D02046FFF7DDFF05F130012046BDE834401E
S11320E0D6E72DE9F04F91B08046894616461C4646
S11320F000F0F3FE074614B1012C02D003E00020E7
S113210000E00420386000207860F864786820F4E7
S11321104060786000203863786300F0F3FE044682
S11321204FF482703D1841462846FFF7B1FF08F18D
S113213010012846FFF7ACFF204600F0E7FE2048D8
S1132140386500254FF4D27007EB000A0CE000F06C
S1132150D9FE044659465046FFF7AEFF204600F02C
S1132160D5FE184838656D1CB54211D209EB851BA4
S11321701BF00300EBD0402259466846FEF7F4FEFC
S113218000F0C0FE044669465046FFF795FFE5E7B8
S113219000F0B8FE04464FF480703E1841463046C5
S11321A0FFF780FF08F110013046FFF77BFF204660
S11321B000F0ACFE384600F099FE11B0BDE8F08F97
S11321C0888AC801070D810100281CBF6C21FEF715
S11321D007BF704700F1200200231360536031B140
S11321E0012180F8681020220FF2541104E080F8D5
S11321F0681020220FF22811FEF7C6BE01238CE0DE
S11322002DE9F0411600044688461BD000F063F81F
S1132210A7B1AE4212D300F059F804F128012046C8
S1132220FFF7ECFFA844761B002707E0B50901235C
S113223000F048F808EB8518A6EB8516402EF5D279
S113224006B155E0BDE8F0817CB5044604F12000F8
S11322500D4642680168D20042EA51728DF80320AB
S1132260C900130E8DF80030160A130C0A0E8DF8EF
S113227004208DF801300A0C8DF805208DF80260D9
S11322800A0A8DF806208DF80710007800F038F857
S113229034BFC0F13802C0F178022046FFF7B0FF26
S11322A0082269462046FFF7ABFF002001E000F05A
S11322B02DF894F86810002914BF1C2120218842AD
S11322C0F5D373BD2A46414620460AE7E0192A465B
S11322D02830FEF749BE206A00F03F073018B042AC
S11322E0C7F14005206202D2606A401C60627047F8
S11322F032464146E019BDE8F0412830FEF734BECD
S11323000FF25C0100F03F0038287047810854F850
S1132310211009BA2950001D70470122E1E600008E
S113232067E6096A85AE67BB72F36E3C3AF54FA562
S11323307F520E518C68059BABD9831F19CDE05B8E
S1132340D89E05C107D57C3617DD703039590EF794
S1132350310BC0FF11155868A78FF964A44FFABE5A
S113236080000000000000000000000000000000E9
S11323700000000000000000000000000000000059
S11323800000000000000000000000000000000049
S11323900000000000000000000000000000000039
S11323A0890001EB401000F184400260704710B5D1
S11323B04A688B68CC680968016002600360046045
S11323C010BD10B502680368046800680A608C6078
S11323D04B60C86010BD38B5102A04460D460ED1B6
S11323E001220021FFF7DCFF4FF4887004442946E2
S11323F02046FFF7DCFF05F11001204606E000222D
S11324000021FFF7CDFF294604F12400BDE8344044
S1132410CDE71FB50C4614F0030108D06946FFF759
S1132420D0FF102269462046FEF79EFD1FBD2146BF
S1132430FFF7C7FF1FBD1FB5044611F0030008D006
S113244010226846FEF790FD69462046FFF7AFFF6D
S11324501FBD2046FFF7ABFF1FBD00281CBF242172
S1132460FEF7BEBD704770B504000D4618BF002DC1
S1132470164602D16FF0210070BD2421FEF7B0FD95
S1132480802E18BFB6F5807F02D06FF01F0070BD9C
S11324902660F2082946201DFEF766FD002070BD67
S11324A02DE9FF4F81B0002A14BF176800270024CC
S11324B000281CBF0F9D002D0AD0DDF84090B9F113
S11324C0000F1EBF002BDDF83880B8F1000F02D1D9
S11324D06FF0210070E00068802818BFB0F5807F9D
S11324E004D06FF01F0067E000F069F8029884429E
S11324F05ED2002FF8D100F0F0FC06460020706098
S11325004FF0000B4FF44040306000F0FBFC82467B
S113251001980068802801980CBF08221022011D30
S11325203046FFF758FF049906F18400FFF783FF54
S113253000F050F80298001B0009009014E000F02D
S11325404CF80BF1010B00F0DDFC8246291906F171
S1132550A000FFF770FF09EB040106F18000FFF70C
S113256058FF00F037F8103400988345E7D30298F9
S1132570001B0FD05FB900F030F800F0C3FC8246B6
S1132580414606F18000FFF744FF00F023F800F015
S113259016F8ECE700F0B6FC8246049906F18400D4
S11325A0FFF737FF00F016F8304600F09FFC9DE778
S11325B0039800B10760002005B0BDE8F08F285DE6
S11325C018F80710484009F80400641C781C00F04F
S11325D00F077047504600F099BC4820B0600520B2
S11325E0B06030698007FCD40320B0607047FEE718
S11325F010B54A688B68CC680968016002600360A2
S1132600046010BD10B502680368046800680A60BD
S11326108C604B60C86010BD38B504460D46FFF7AA
S1132620E7FF05F110012046BDE83440E0E738B586
S113263004460D46FFF7E6FF05F110012046BDE80C
S11326403440DFE78C220FF2F87150430844007ADB
S113265070478C220FF2E87150430844407A704767
S113266010B500F010F8BDE8104000F10C0106E0D0
S113267010B500F008F8BDE8104000F12C0120224C
S11326801846FEF771BC0B468C240FF2B4716043FC
S113269008447047F8B504460D46164600F032FC6F
S11326A007464FF4847029462044FFF7B5FF4FF4E2
S11326B0867031462044FFF7AFFF384600F026FC11
S11326C0DFF8E8062065012060656069000E00F00F
S11326D0010080F00100F2BD2DE9F04F89B00446FD
S11326E088469246994600F00DFC83464FF482706A
S11326F0271808F1400100F08AF94FF48670251874
S1132700514600F025F94FF4887026180AF120018B
S11327103046FFF781FF00F023F900F024F98346E7
S1132720414600F074F94FF4847004EB000A08F198
S1132730200100F013F908F140013046FFF76CFF67
S113274000F00EF9DFF868062065DFF8680600F08F
S11327504BF883464FF48070261809F1400100F0CD
S1132760F4F869465046FFF762FF00F0F9F800F00C
S1132770C9FB834600F0EBF800F0F2F8DFF8380606
S11327802065DFF838066065DFF8340600F0F3F8FA
S1132790054600F03AF900F0DDF8DFF82806206578
S11327A0DFF8240600F020F8054649465046FFF7B6
S11327B03EFF00F0CFF800F0A5FB05466946384619
S11327C0FFF72AFF00F0C6F8DFF800062065DFF8FF
S11327D0000600F009F8044600F0B5F8204600F0C1
S11327E095FB09B0BDE8F08F60650120A06500F09D
S11327F089BB2DE9F04F99B004468846914600F014
S113280081FB05464FF48270271800F0FEF800F0B3
S1132810A1F8DFF8C0052065DFF8BC056065DFF8C6
S1132820BC05FFF7E3FF06464FF48070251808A99E
S113283000F002FB00F0E6F800F064FB064600F04E
S113284086F800F0DFF8DFF898052065DFF89405D6
S113285060654FF48670FFF7C9FF82464FF48670B7
S1132860261810A93046FFF7E2FE694600F0E4FAA4
S1132870504600F04BFB00F045FB824608F1400156
S113288000F0C5F8504600F041FBDFF85C05206518
S11328900120606500F036FB83464FF4847004EB3E
S11328A0000A414600F05AF800F05AF8DFF83C05F7
S11328B02065DFF83C056065DFF8380500F05BF85B
S11328C0834669465046FFF7A7FE10A93046FFF736
S11328D0A3FE00F045F8DFF820052065DFF81C05AD
S11328E06065DFF81C05FFF781FF83464FF48870AD
S11328F049462044FFF79BFE00F032F800F002FB4B
S1132900834600F082F808F1400100F027F808A996
S11329103046FFF781FE00F023F8DFF8E804206575
S1132920DFF8E404606500F0EDFA044609F14001C3
S11329302846FFF77CFE00F006F8204600F0E6FA91
S113294019B0BDE8F08F09F1200130466FE6414629
S1132950284661E6284600F0D9BA314650465BE67F
S1132960584600F0D3BADFF86C042065DFF89C0405
S11329706065DFF89C04A0650120E06500F0C2BA40
S11329802DE9F04105460F461C469046202120467D
S1132990FEF726FB0120206000F0B4FA06464FF44F
S11329A0807041462844FFF737FE4FF48270394661
S11329B02844FFF731FE4FF484702F18214600F0AD
S11329C026F800F01FF8DFF84C0428650BE0DFF868
S11329D048042865DFF844046865DFF84404A86502
S11329E0DFF84004E8656869C001F0D500F08AFAB0
S11329F0054621463846FFF71AFE2846BDE8F04151
S1132A0000F084BA304600F081BA08F1200138465B
S1132A1002E650F8043B934203D007E050F8042B3D
S1132A2022B9091F0129F9DA0120704700207047F3
S1132A302DE9F04188B004460E46154698462021FB
S1132A406846FEF7CDFA0120009020210E9F3846FB
S1132A50FEF7C6FA202107F12000FEF7C1FA202173
S1132A6007F14000FEF7BCFA3046FFF7EBFD00F03B
S1132A70A3F800F09CF88C210FF2C43011FB06F18E
S1132A8008444068461E00E0761E012E16DB00F066
S1132A903EF8F9D512E0202229463846FEF774FAAA
S1132AA0202205F1200107F12000FEF76DFA202213
S1132AB0694607F14000FEF767FA761E002E23D41C
S1132AC03A4639462046FFF794FE00F020F8F4D544
S1132AD0002220213846FFF79CFF70B100222021FC
S1132AE007F12000FFF795FF38B10022202107F1FC
S1132AF04000FFF78EFF0028CDD13B462A463946D9
S1132B002046FFF7E9FDD8E708B0BDE8F0813011B1
S1132B1006EBD060401158F82010A6EB4010C140DD
S1132B20C80770472DE9F04104460F4690B0164699
S1132B301D463846FFF786FD00F03EF800F037F8F2
S1132B4069463846FFF78CFD08AB6A4606F140013A
S1132B502046FFF715FF00F0D5F980464FF4827048
S1132B6008A92044FFF758FD4FF486702718314612
S1132B70FFF74DFF4FF4887006F120012044FFF762
S1132B804BFD404600F0C2F9FFF7EDFE06464FF458
S1132B90807005F120012044FFF749FD294638469D
S1132BA0FFF745FDFFF72EFF10B0BDE8F0810020D0
S1132BB020602063606370470146204600F0AAB994
S1132BC038B50D4604462021FEF70AFAFFE71F2018
S1132BD04242295C2244401ED177F9D531BD2DE90A
S1132BE0F04F0F00984618BFB8F1000FB9B0044673
S1132BF0154603D0429E0EB1012D02DA40F2016067
S1132C00D1E0FFF7D4FF606840F01000606000205E
S1132C10FFF71FFDFFF7D0FF606820F4406040F429
S1132C200060606009A9606820F4407040F400709E
S1132C3060600020FFF71CFD09AA31462046FFF71B
S1132C4029FD30B909AA06F120012046FFF722FD2B
S1132C5010B140F20260A6E0212DA8BF202520215A
S1132C6011A8FEF7BDF9002014E02A1A521E01A98A
S1132C709208A5F1010C01EB8201ACEB000C3B5C6A
S1132C800A6C4FEACC0C0CF0180C03FA0CF31A4340
S1132C900A64401CA842E8DB00F034F905464FF40E
S1132CA08470271811A93846FFF7B6FCFFF752FEC7
S1132CB05D48206500F026F981464FF480702518A0
S1132CC011A900F0B9F8484600F020F919AB09AA97
S1132CD006F120012046FFF753FE00F013F9834666
S1132CE04FF4827019A92044FFF796FC4FF48870C2
S1132CF004EB000911A94846FFF78EFC4FF48670D7
S1132D0004EB000AFFF729FEFFF72AFE4748206577
S1132D104748606500F0F6F8834611A94846FFF776
S1132D2086FC19A900F088F8FFF71AFE21A8009084
S1132D3011AB0FF2581200212046FFF779FE01A8CB
S1132D40009019AB424600212046FFF771FE21ABEB
S1132D5021AA00212046FFF7E5FE01AB21AA01A923
S1132D602046FFF7B9FC01AB01AA00212046FFF77A
S1132D70D9FE00F0C7F805460020FFF76AFCFFF70C
S1132D801BFF01A93846FFF747FCFFF7E6FDFFF7F5
S1132D90E1FD28482065234860656069C0014CBF97
S1132DA0002040F2046039B0BDE8F08F3035DA100D
S1132DB0D01482CB1481E11C8CE11C811C84D91CAD
S1132DC08391D11CE014D8141482E11C84D314829E
S1132DD0D11CE0148AD11C81821CC00C0C0C010093
S1132DE0C00C0C83D91C83D88AD11C83DA0C8114BF
S1132DF082D11C81C80C0C818CE11CD01484E31496
S1132E0082D11C01D81483D11CC00C01D91C83D1DC
S1132E101C81E11C39398401D02484FC1C82FED835
S1132E208B1C81A03938010030D00C0130E11C84A6
S1132E3030D91C013035DA142846FFF7F8BB0000FE
S1132E402000000000010000050C0000FFFFFFFF50
S1132E50FFFFFFFFFFFFFFFF000000000000000076
S1132E600000000001000000FFFFFFFF512563FC8C
S1132E70C2CAB9F3849E17A7ADFAE6BCFFFFFFFFF1
S1132E80FFFFFFFF00000000FFFFFFFF96C298D87E
S1132E904539A1F4A033EB2D817D0377F240A4637F
S1132EA0E5E6BCF847422CE1F2D1176BF551BF3788
S1132EB06840B6CBCE5E316B5733CE2B169E0F7C5B
S1132EC04AEBE78E9B7F1AFEE242E34F890001EB57
S1132ED0401000F184400260704780B5FFE7012292
S1132EE001210648FFF7F2FF054802BD0449884264
S1132EF003D1002201210148E8E77047B0400E40A9
S1132F0000000F40EFF3108072B6704700B962B64C
S1132F107047000042685209042941EA421209D963
S1132F20491F022908D9C91E032903D9091F0229E7
S1132F3002D970474260704742F010014160704707
S1132F4038B5174C206840F00400206001230422A7
S1132F5000F02AF8002001E00098401C009000983E
S1132F606428F9DB0123022200F01EF8002001E0AE
S1132F700098401C00900098B0F5FA7FF8DB0948EF
S1132F800068012814BF012500250123002200F058
S1132F900BF8206820F004002060284632BD0000B1
S1132FA0B0400E409821144206210520FEF746BE8B
S1132FB06849694A01E021B1491E1369DB07FAD463
S1132FC001B9BAE0506001201060106910F0060FDA
S1132FD005D0410700D5B3E0800700D5B3E0002059
S1132FE07047F0B513460022002936D0594C5A4D8B
S1132FF08BB98B4231D250F8046BEE605B1C08260F
S11330002E60264601E036B3761E2F69FF07FAD4F8
S1133010002EEED11FE0EFF3108672B600230EE00F
S11330202F6907F01907102F08BF2F602F693F077A
S1133030F6D550F8047BEF605B1C10272F608B42A1
S1133040F4D306B962B6264601E026B1761E286995
S1133050C007FAD40EB96FF002021046F0BD2DE994
S1133060F84F3B4F0D4639680446002041F00101FA
S11330709B4639604FEA92088146AA4602E0B14471
S11330800AEB860AC14517D204EB89063046FFF7DE
S11330908FFF010022D1C6F30A00C0F50060860844
S11330A0A8EB0900B04238BF06465A46314650469E
S11330B0FFF797FF0100E2D021682A68914209D006
S11330C02046FFF775FF010004D15A460121284626
S11330D0FFF787FF3968490849003960BDE8F28F76
S11330E01B491C4A0B6843F001030B6088600120F4
S11330F048604869400704D50868400840000860F3
S11331001EE04869800704D508684008400008604C
S113311019E00220486001E022B1521E4869C0074C
S1133120FAD422B9086840084000086005E008683D
S1133130400840000860002070476FF002007047AC
S11331404FF0FF3070476FF001007047002386E7AF
S113315008000E40809698000C000E400B494A6807
S11331600B68920002F03C02C3F381131A4382708D
S11331700A6802F03F0242708A68C96802F0F002ED
S1133180C1F303111143017070470000E0FF0FE029
S11331904FF40170FEF7C0FC00BF4D484D49006874
S11331A0086082B04C480068040E6846FFF7D6FFFA
S11331B08F2C10DA49484A4C016841F0040202603D
S11331C04FF05013002230255543521C6351062AF8
S11331D0F9D3016001E0902C06DA42480168C9097C
S11331E0C90141F0200101609DF80100012804D1CA
S11331F03D48016841F00401016000203B4908603A
S113320000F07CF8FEF783FCFDF75AFBFDF75AFB50
S1133210C0B9FDF77BFB0446FDF7B9FC002C1ABFCF
S113322040F20370844240F2012009D040F205705C
S113323084421CBF40F20670844203D140F2032052
S1133240FEF76AFC4FF40170FAE7000038B528482D
S1133250016801240125B1F5803F08BF002512D083
S1133260006840050AD5FEF779FC40F20221401AB5
S113327007D0C01E05D0C01E012802D9FFF760FE8A
S113328008B10024002544F20400006810F1010F85
S113329006D1BDE832404FF40270FEF731BC31BDB7
S11332A02DB14FF4804000F089F80400F1D0002CD7
S11332B0F5D010494FF4804008600246104601687A
S11332C081F3088881F3098840688746FEE7000097
S11332D0180100201C010020FC81E00FB0400E40CA
S11332E000A000402C400E4064310E40B40AC64396
S11332F004500E4008ED00E00020704700207047A5
S1133300002070472DE9F041044640F62800884625
S11333100068016916468C4222BF37194069B842D9
S113332016D3E00AB4EBC02004BF204600F0F0F846
S113333004F50060C50AED0204E0284600F0E8F850
S113334005F50065BD42F8D332464146204631E0DA
S1133350BDE8F0812DE9F041884628211546096829
S1133360394B0A689A4223D10969461840F6280164
S1133370AF1909684A69BA421AD310B9086900F04A
S1133380C7F8F00AB6EBC02004BF304600F0C0F81E
S113339006F50060C40AE40204E0204600F0B8F830
S11333A004F50064BC42F8D32A464146304601E0A5
S11333B0BDE8F081BDE8F04100F0D4B850B585B067
S11333C0044668460FF200111022FDF7DDFD226865
S11333D06068616B02F16042B2F5F84F2AD840F69A
S11333E0280212681269904224D3184B984221D2C1
S11333F002F1400081420E4601D3994205D3FFF702
S11334007BFF401E8041C00F1BE0FFF775FF98B99A
S113341000F054F8A0B9706990B102280CD1B069D9
S1133420001D011B4FF0FF322046FEF74BFD0849FB
S1133430884205D0002004E0204600F00BF800E0AC
S1133440012005B050BD0000AD1007B0010004001C
S1133450E320BBDE50B59FB0044668460FF2780106
S11334601022FDF791FD666B00F028F818B9706919
S113347001280BD1B66940F628000068006986422D
S113348028BFA64202D3B6F5802F01D9002013E04D
S113349004A8FEF725FD321B214604A8FEF72AFDE9
S11334A004A8FEF729FD06F12002314604A8FEF720
S11334B097FD401E8041C00F1FB050BD10226946C9
S11334C03046FEF74FBD000013B779FAC925DDB7C2
S11334D0ADF3CFE0F1B614B813B779FAC925DDB767
S11334E0ADF3CFE0F1B614B8084841F67131816309
S11334F001684908490001607047044801684908A7
S113350049000160002181637047000008000E40FB
S113351010B50446FFF7E8FF2046FFF7E1FD044637
S1133520FFF7EBFF601E8041C00F10BD10B584088B
S1133530800782B005D5080440F47F4040F0FF00C6
S113354003E041F07F4040F47F000090FFF7CCFFA0
S113355004226946A000FFF7F9FD0446FFF7CDFFFA
S1133560204616BD2DE9F04104460E46154604F0EA
S1133570010005F00101084327D125B3A00708D5B0
S113358036F8021B2046FFF7D1FFF0B9A41CAD1E8C
S113359019D0AF08FFF7A8FFBF003A4631462046CE
S11335A0FFF7D4FD8046FFF7A8FF3C197808B8F16F
S11335B0000F06EB400608D1E81B04D031882046F2
S11335C0FFF7B4FF08B9012000E00020BDE8F08156
S11335D04EF68851CEF20001086840F4700008608D
S11335E0BFF34F8FBFF36F8F4FF00070E1EE100AFF
S11335F07047000000F00BF8002801D000F00AF832
S11336000020AFF30080FFF7C8FD00F017F8012099
S11336107047000010B5074979441831064C7C44C2
S1133620163404E00A68081D114488470146A14283
S1133630F8D110BD280100004401000000F000B8DA
S11336400746384600F002F8FBE700002021090392
S113365026311820ABBEF9E780B5FEF75EFBFFF715
S1133660F5FDBDE8014000F000B8AFF30080FFF7BE
S1133670AFFFFFF7BFFF10B5B1F5BC7F044602D220
S113368040F2052010BD4FF4BC71FDF7A9FC04F114
S1133690FC0204F1B40104F12400BDE8104000234D
S11336A0FDF738BE10B582B00446009104F1240041
S11336B02146FDF76BFE00281CBF41F2070188423A
S11336C0C4F874010CD1A01C017839B1407810B150
S11336D040F2032016BD40F2022016BD40F2012044
S11336E016BD19E050F8041BCB0744BFA9F1010330
S11336F05918121F0023042A41F8043BF9D25FEA47
S1133700827C0B4604D54FF0000CA1F800C09B1C32
S1133710D10744BF0021197050F8042B002AE1D1CD
S1133720704730B5016842688468014401EB520374
S1133730D20748BF4C44994201D10C3030BD11F935
S1133740012B11F8015B002A04F8015B02D5521C1D
S1133750F9D1F0E7521EF4D5EDE7000087FFFFFF33
S1133760100200002011002000000000B7FFFFFF3E
S11337700C000000440000008000002081000C00C8
S1133780F07F10308000002034000140FB000EF078
S1133790490200800000C0EA2101C0EA21010000C2
S10737A00000000021
S903366B5B
