S03200005A334F63637570616E637953656E736F72536F635F65667233326D673132703433326631303234676D34382E73333743
S3150000000030DB032081C8020011D90000CDA902000F
S31500000010A70A02020002000004180FAC0061540097
S3150000002000000000000000000000000000000000CA
S315000000300000000030EF0200000000000000000099
S315000000400000000000000000FFFFFFFFFFFFFFFFB2
S31500000050FFFFFFFFFFFFFFFFFFFFFFFFFFFFFFFFAA
S3150000006000E807001016011800080800FFFFFFFF50
S31500000070FFFFFFFF1C000000000000000000000062
S315000000800000000000000000DAFC0320DAFC032078
S3150000009030DB03201C9B030036CB0200D0D10320AB
S311000000A0C410002000080800000000004A
S3150000020030DB032081C8020011D90000CDA902000D
S31500000210D5A90200D1A90200D9A90200BDAA0200EF
S31500000220BDAA0200BDAA0200BDAA0200BDAA020024
S31500000230DDA90200BDAA0200BDAA0200152A00001F
S315000002408F160200C56D0200193A0000BDAA020011
S31500000250ED690200056E0200CB6D0200CD6D020055
S31500000260C76D0200196002006B1C02002D480000D9
S315000002704FEE0000BDAA0200BDAA02003F05000025
S31500000280BDAA0200BDAA0200891C0200BDAA020086
S31500000290BDAA0200BDAA0200BDAA0200BDAA0200B4
S315000002A0BDAA0200BDAA0200BDAA0200BDAA0200A4
S315000002B0076E0200C96D0200094500003B6E020090
S315000002C0BDAA0200C5CA0200BDAA0200BDAA02005C
S315000002D0BDAA0200BDAA0200BDAA0200BDAA020074
S315000002E0BDAA0200BDAA0200BDAA0200BDAA020064
S315000002F0BDAA0200BDAA0200BDAA0200BDAA020054
S31500000300BDAA0200BDAA0200BDAA02006F49704A3A
S3150000031001E021B1491E1369DB07FAD401B9B0E047
S31500000320506001201060106910F0060F05D04107DB
S3150000033000D5A9E0800700D5A9E000207047F0B5F8
S3150000034013460022002936D0604C614D8BB98B4292
S3150000035031D250F8046BEE605B1C08262E602646F0
S3150000036001E036B3761E2F69FF07FAD4002EEED1D0
S315000003701FE0EFF3108672B600230EE02F6907F038
S315000003801907102F08BF2F602F693F07F6D550F8C1
S31500000390047BEF605B1C10272F608B42F4D306B9F9
S315000003A062B6264601E026B1761E2869C007FAD451
S315000003B00EB96FF002021046F0BD2DE9F0479A46DD
S315000003C0444B454F1C681B683B688046002043F041
S315000003D001033B60950881460C4602E0B14404EBFC
S315000003E08604A94517D208EB89063046FFF78EFF2B
S315000003F0010014D1C6F30A00C0F500608608A5EB1B
S315000004000900B04238BF0646524631462046FFF73D
S3150000041096FF0100E2D03968490849003960BDE815
S31500000420F0872C49294A0B6809682B490B6843F069
S3150000043001030B608860012048604869400704D5C5
S3150000044008684008400008601EE04869800704D537
S31500000450086840084000086019E00220486001E092
S3150000046022B1521E4869C007FAD422B9086840086A
S315000004704000086005E00868400840000860002069
S3150000048070476FF0020070474FF0FF3070476FF013
S3150000049001007047002390E70F48016841F0010111
S315000004A0016046F21A31C1644FF4807141604169BE
S315000004B0C907FCD44FF4007141604169C907FCD4F7
S315000004C00021C1640020704700000000809698005B
S315000004D00C000E4004300E4008000E40072802D2E1
S315000004E03549085C7047FF207047072802D2334918
S315000004F0085C7047FF20704738B50446304800EB6B
S315000005008105A8780009FFF7E9FF2071A87800F0B7
S315000005100F00FFF7EAFF6071FF2814BF01200020DB
S31500000520E8702146E878A071287860706878254DD3
S31500000530A070284600F0DCF80120A86031BD10B597
S31500000540214984B01CC968461CC02048204A01784D
S31500000550D36814682340DB072DD503292BD2184C0A
S3150000056012691C4B04EB8104E4781CB114B2002C14
S3150000057048BF002223F811200123174A147803FAF2
S3150000058001F121431170154A117891B100211478B7
S31500000590CC40E40708D501708B40107858401070A5
S315000005A06846FFF7A9FF1FBD491CC9B20329EED350
S315000005B01FBD032101701FBD70DD020078DD020042
S315000005C02CE603200020004064DD020050FC0320DE
S315000005D03820004050E6032051FC032047FB03204F
S315000005E0890001EB401000F184400260704700F181
S315000005F0806300F1C06019600260704730B5002A60
S31500000600446BDFF8D4511ABF1022DFF8D031DFF87F
S31500000610D03123400024A84237D1DFF8C80151B1B8
S3150000062001290CD002291ED003290CD0062915D089
S31500000630812918D023E001680468006816E0016883
S315000006400468006802E0416844684068090C01F4E7
S31500000650FE41C4F303442143000C0CE0816880682A
S3150000066001F00F0107E041684468406801F4FE416B
S3150000067004F00F04214300F0F00040EA010404FAFC
S3150000068002F0DFF864111843086030BDF8B50D4676
S315000006900446EF78504EDFF8540127B9002100F0E8
S315000006A07EF807460AE03168090607D4002100F003
S315000006B076F800214FF4FA4000F071F80A20A060A5
S315000006C0A9782878090401F4FE0141EA006039029C
S315000006D001F4FE41084369780843297909B140F0DD
S315000006E01000206030466A79BDE8F840C0217EE7F8
S315000006F038B504460D460220A0600022A97820469F
S31500000700FFF77CFF287969786B79020242EA016279
S3150000071042EA0342EB7842EAC302EB790BB142F0BC
S3150000072000522B7A0BB142F00402AB790BB142F0C6
S3150000073002026B7A0BB142F00102AB78F32806D1C4
S31500000740180004D10429BCBF042060F31B621806FC
S315000007504CBF42F0E00042EA431020612449606940
S315000007600840A9780A0644BF21F080010843297889
S3150000077040EA4140E97A09B140F4804060610221D3
S31500000780AA7A2046FFF72CFF2879F32804F13000D7
S31500000790BDE838400CBF01220022102120E710B529
S315000007A00446084613498C4228BF104C04D2B4F5BF
S315000007B0FA4F38BF4FF4FA4410B90F4800F00CF95D
S315000007C02018401EB0FBF4F018B1401E802828BF48
S315000007D07F20C0B210BD000000200040FFFF008057
S315000007E00080FFFF1082E00F342000400024F40058
S315000007F0F8BFE1FF0124F40040410500890001EB48
S31500000800401000F1844002607047890001EB4010FF
S3150000081000F184400068704710B5DFF86447122184
S315000008202046FFF7F2FF0028F9D12068000C00F0FF
S31500000830030010BD0122DFF80C1610B5884232BF46
S315000008400022DFF80416884201D2144600E0022492
S315000008501021DFF8F805FFF7D1FFDFF82807016858
S3150000086021F0807141EA0461016010BDF0B5DFF846
S315000008707C26D36B03B1012341F67134D463DFF8D0
S3150000088008571468002405EBC406CFB23679BE4279
S3150000089003D155F83460864202D2641C052CF2D38B
S315000008A0052C0EBF032005EBC4004079116821F02A
S315000008B0407141EA00601060DBB20BB10020D063EA
S315000008C0F0BD80B500F0CBFCBDE804400021CDE7CB
S315000008D0CCE7C01C0F2801D2000770474FF07040CC
S315000008E07047000038B50446002500F05DF9DFF8D2
S315000008F08026DFF80416944208D0DFF87826944262
S3150000090006D0DFF88826944204D006E0086802E0A4
S31500000910486800E0886800F00700401E03281BD8DE
S31500000920DFE800F002050C0800F0CAFC04E000F065
S31500000930CDFC01E000F0C7FC05460DE000F082FCAE
S31500000940DFF840160968090E01F001010122491C71
S3150000095002FA01F1B0FBF1F5284632BDDFF8301698
S315000009604A68D20702D40A680242FCD1704780B5B1
S3150000097000F0D4F8401C02BD70B5020A0C4602F025
S315000009800F020021521E092ADFF8F85714D8DFE8B3
S3150000099002F005141313071619131C20DFF8AC54C4
S315000009A0C0F3043611B10846FFF7D8FF2246314698
S315000009B02846BDE8704021E770BD1035F0E73035B8
S315000009C00121EDE738351021EAE740354FF4803153
S315000009D0E6E7DFF81C58E3E770B5DFF8B815DFF88F
S315000009E090250E68DFF88C15DFF89845012510F480
S315000009F0781075D0B0F5003F30D0B0F5802F27D0F5
S31500000A00B0F5002F6CD0B0F5202F2DD0B0F5402FCB
S31500000A105ED0B0F5602F3FD0B0F5901F53D0B0F543
S31500000A20A01F2AD0B0F5B01F39D0B0F5D01F22D004
S31500000A30B0F5E01F31D0B0F5001F44D0B0F5281F47
S31500000A4022D0B0F5301F31D0B0F5381F4BD061E061
S31500000A5000F007FCE168C1F308210AE000F001FCA0
S31500000A60A168C1F3082104E000F0FBFB6169C1F352
S31500000A700421491C24E0104627E01046FFF732FF08
S31500000A80216A01F00F0119E01046FFF72BFF064619
S31500000A90206AC0F30110C6403DE0084615E008464E
S31500000AA0FFF720FFA16AC1F3011107E00846FFF72F
S31500000AB019FFA16A090A01F00301091D05FA01F1EE
S31500000AC0B0FBF1F627E0DFF8C404FFF70BFF1FE0E9
S31500000AD0DFF8200700F068F807281CD0092819D18C
S31500000AE000F0BFFB14E0DFF8100700F05DF8042803
S31500000AF00CD007280FD008280CD100F0B2FB2168D3
S31500000B00C1F30421491C01FB00F604E000F0C4FB1C
S31500000B10064600E00026304670BD0000030903F0DB
S31500000B200F0301215B1E072BDFF858243AD8DFE8B4
S31500000B3003F004060A0E10142339106800E0506909
S31500000B40C0F3042070471068C0F300607047D06897
S31500000B5000E09068C0F308207047DFF8A03698429E
S31500000B6004D0DFF89C36984204D01BE0106A00F0EF
S31500000B700F0013E0106A09E0DFF88836984204D0C7
S31500000B80DFF88436984204D00CE0906AC0F3011076
S31500000B9004E0906A000A00F00300001D01FA00F06C
S31500000BA0401E704700207047014601F00F010120EA
S31500000BB0491E0729DFF8582649D8DFE801F0040F57
S31500000BC01348202E4836506A00F0070002283AD013
S31500000BD002D3042804D01CD30520704711690FE006
S31500000BE002207047516901F00701491E03292FD8D9
S31500000BF0DFE801F00F020311F2E706207047916962
S31500000C0001F00701012904D00229E9D0042902D004
S31500000C107047032070470A207047116811F00101E0
S31500000C200FD0012914D109207047DFF8E8150968AB
S31500000C3001F03001102904D0202904D0302904D035
S31500000C40704707207047042070470820704700202F
S31500000C50704700002DE9F843804600260324B8F1CA
S31500000C60110F0F46A14612D1042F02D100F014FB3A
S31500000C7008E0052F0BD1DFF8A005DFF8A015006806
S31500000C80884204D306001CBF002100F023FC08F0B4
S31500000C900F00401E0728DFF878550ED8DFE800F071
S31500000CA0043D438B406F8B79022F664806D0032F95
S31500000CB029D0042F2AD0052F2DD07CE004244FF014
S31500000CC0000901220121484600F07AF9FFF7F9FDF3
S31500000CD036B11221DFF8A802FFF797FD0028F8D1F8
S31500000CE06C6000F07AF8FFF7A5FD00F0ABFA044659
S31500000CF0FFF792FD01462046FFF7EAFD002E5AD186
S31500000D00BDE8F443F4E04FF00109DAE70224A14616
S31500000D10FFF790FDD5E70124FAE705F1100404E09A
S31500000D2005F1180401E005F11404012F08D0022F83
S31500000D3009D0032F0ED0062F13D00A2F1DD03AE06C
S31500000D400020206037E001220121002000F038F960
S31500000D500220F6E701220121012000F031F90120ED
S31500000D60EFE700F06FFAFFF765FD01220221DFF8D9
S31500000D701404FFF743FD0320E3E70420E1E7072F10
S31500000D8002D0092F02D016E0002000E001202860E2
S31500000D9011E0012F06D0042F16D0072F0DD0082FF3
S31500000DA019D008E00020DFF86C140A6822F030023F
S31500000DB042EA00100860BDE8F18301220121042007
S31500000DC000F0FEF80120EEE701220121022000F0EA
S31500000DD0F7F80220E7E70320E5E7DFF83004FBE554
S31500000DE06D4ADFF8441490421FBF6C4A90426C4A29
S31500000DF0904215D06B4A904214D06B4A904213D061
S31500000E006A4A904212D06A4A904211D0694A904288
S31500000E1010D0694A90420FD0684A90420ED00FE037
S31500000E2008687047C868704788697047C86970471E
S31500000E30086A7047886A7047C86A7047086B7047C7
S31500000E40002070470148E8010190D00300400E40A1
S31500000E5070B50446FFF7C4FF0646DFF8BC03056815
S31500000E60046000F08AF8052808BFFFF72AFD18215C
S31500000E704748FFF7CAFC0028F9D147498C4208D0F9
S31500000E8046498C4207D046498C4208BF26F0C066C8
S31500000E9004E0022000E0012060F35A6600F06DF8DD
S31500000EA0052804BF2046FFF7C5FCA54203D2012151
S31500000EB0204600F00FFBDFF86803066000F05DF8DF
S31500000EC0052808D100F0BEF90646FFF7A5FC014645
S31500000ED03046FFF7FDFCFFF780FFFFF7ABFCA542AE
S31500000EE002D3BDE8704003E070BD000004000E4070
S31500000EF00121002000F0EEBA80400E4070B500F0EF
S31500000F003BF801220021022000F05AF8217CDFF88C
S31500000F101C5300200229296808BF0120490840EA1D
S31500000F2041002860082122782846FFF767FCA08840
S31500000F30617A41EAC020A860EE68207AFFF7C9FC12
S31500000F40E28806F07F6141EAC221A27A1143227A41
S31500000F5041EAC2110843E860A17B607B090141EACE
S31500000F600030E17B0843217B40EA0140286170BDE7
S31500000F7002001A0003001C000446112014E60000BB
S31500000F8004300E4000410E40486403000500200076
S31500000F9040410E406CDF032040420F0080841E005B
S31500000FA000093D00C0CF6A00405DC6000024F40081
S31500000FB0C0EA210180BA8C010048E80180D54302CD
S31500000FC02DE9F84F04288246904673D8DFE800F0F2
S31500000FD04E493F0344000126022001270024002930
S31500000FE0DFF80892914D60D0BAF1020F02BF28686F
S31500000FF0C0F3011000284FF0000B0CD18C4800689C
S315000010002868C0074FF0010B05D5286820F030008E
S3150000101040F010002860EE6300F04EF80028FBD088
S31500001020B8F1000F46D0394600F047F80028FAD04C
S31500001030BAF1020F3ED1BBF1000F3BD02868C007C2
S315000010401BD501222021022000F0C0F819E0042659
S31500001050082003270224C2E710262020052704249F
S31500001060BDE74026802007270624B8E74FF48076A0
S315000010704FF4007009270824B1E70021022000F090
S3150000108083F8022000F01CF8044601220021022009
S31500001090FFF796FF2146022000F02CF8EE63394652
S315000010A000F00BF80028FAD004E0E86300F004F83A
S315000010B00028FBD1BDE8F18F21464846FFF7A5BBC6
S315000010C0401E0328564912D8DFE800F0020C060835
S315000010D00869C0F308007047086800E0886800F0F7
S315000010E07F00704753480068C0F30A00704700202D
S315000010F07047000070B5401E0D46032805F07F01BD
S31500001100474C484E3DD8DFE800F0022A101DC5F3D3
S3150000111008051A213046FFF778FB0028F9D1206927
S31500001120400A45EA4020206170BD0D461821304630
S31500001130FFF76BFB0028F9D12068C00945EAC0100B
S31500001140206070BD0D4619213046FFF75EFB002872
S31500001150F9D1A068C00945EAC010A06070BD234857
S315000011600068606920F0300040F010006061C5F34F
S31500001170C310FFF7AEFB216A2F4A114029430843EB
S31500001180206270BDB0400E4028480268C2F30112CA
S31500001190002A18BF002907D0202902D0302903D001
S315000011A005E04FF4000103E04FF4400100E023495D
S315000011B0C26E0A408A42FBD1490204D5C06F800A3A
S315000011C000F00100704701207047000010B50228AA
S315000011D00AD10B0004D01A4B4FF480645C6419608A
S315000011E012B1BDE81040CFE7012010BD90400E407F
S315000011F050410E4006000C0098002E0060061400B8
S3150000120060162A007017160070272C0000250800AB
S3150000121070400E405C410E408CE10320012D3101EF
S3150000122010400E4040410E403082E00F24400E40F8
S315000012303C300E409C400E4000F8FF0FFF33E107A4
S3150000124064400E4080B500F00CF82249224A096835
S31500001250C1F30821491CB0FBF1F0106002BD1F4824
S3150000126070471F48016801F00701022909D00AD317
S31500001270042901D002D306E01A4905E04FF40041E3
S3150000128003E0194900E019490968C06EC0F304205B
S31500001290401CB1FBF0F070471348006870471249D4
S315000012A008600F48006800F00700022808BFFFF733
S315000012B0C9BF70470E48016841F47001016070476C
S315000012C04FF4004070474FF47A7070470548006845
S315000012D07047000008410E4088E1032000F04902F3
S315000012E094400E4084E1032080E103208CE103203A
S315000012F088ED00E0890001EB401000F184400260B7
S315000013007047890001EB401000F184400068704787
S315000013102DE9F843DFF80847DFF80867DFF80857D4
S31500001320DFF80887DFF8087780B9206B386011206E
S31500001330FFF73AFC88F8000000F042F80028FBD1DD
S315000013402868000C00F00300307037E03178102078
S31500001350C1F102018840DFF8DC66E86045F60E0060
S31500001360D6F80090306000203968CA0748BF0120CF
S31500001370CA0648BF40F010004A0648BF40F0400089
S315000013804A0748BF40F00400C90548BF40F48070D2
S31500001390206000F015F80028FBD198F80010052908
S315000013A01CBF1120FFF756FC3878C0075CBF02202F
S315000013B020605FEAC97044BF00203060BDE8F18359
S315000013C0122128469DE738B5DFF86C0601684068AB
S315000013D0090A000C01F0030400F003051221DFF8EE
S315000013E04806FFF78EFF0028F8D1A54217D2022C37
S315000013F015D11120FFF7BBFA04461120FFF7ECFACE
S315000014006043DFF83816884224BFDFF83406FFF75A
S315000014101FFDBDE8344005211120FFF71BBC31BD7F
S3150000142010B504001CBF0020FFF772FFFFF7CBFFCB
S3150000143000F01FF804B124E027E010B504001CBF3B
S315000014400020FFF765FFFFF7BEFFDFF8E805DFF8CE
S31500001450D035016845F60E020260C9074FF42072C6
S315000014601A6044BF0021016000F003F804B108E0EF
S315000014700BE0DFF8D005016841F00401016030BFE0
S3150000148070470120BDE8104042E7BDE81040FFF775
S31500001490D9BE70B5DFF8B045206920F4403040F47D
S315000014A00035206940F440364AF6E850206020694D
S315000014B0C00708D4A06B00F00300012812BF022861
S315000014C0002000F0D4F804202561401E2661FBD1DF
S315000014D0256170BD38B50C46DFF870150D6828B962
S315000014E0FFF7BFFEC5F30421491C4843DFF860152A
S315000014F0097831B1DFF85C15884202D22146022014
S3150000150001E021460020BDE83440F8B50446DFF886
S315000015103C05DFF8147500680D46FFF7A2FE064687
S3150000152000F01EF80028FBD13868000C00F003001C
S31500001530A042214613D0022C04BF3046FFF7C8F95B
S315000015401020C4F102018840F8601CB90021304621
S31500001550FFF7BEF91DB100F003F80028FBD1F1BD7D
S3150000156012213846CDE670B5DFF8CC148A690378C7
S31500001570920903B10423447804B10224857805B1A5
S315000015800825C678012E18BF002643EA8212224398
S315000015902A43037932431A438A610A68407922F45E
S315000015A0403242EA0040086070BD0000DFF8A8043F
S315000015B00068032920D8DFE801F00205080B00F0D7
S315000015C0FF0006E0C0F3072003E0C0F3074000E099
S315000015D0000E11000AD1000330F470410CD1DFF87F
S315000015E07C140B6823F4704303430B60012A0CD16F
S315000015F0000330F4704101D000207047DFF860141A
S315000016000A6822F47042104308600120704770B5E2
S315000016100025002452EA0322DFF8486416D0521E41
S315000016200CD0FF3A14D0521E0AD0FF3A12D0521EE6
S3150000163008D0FF3A14D0521E06D015E0B2680AE070
S31500001640B2680EE0F26806E0F2680AE0326802E08C
S31500001650326806E07268C2F3072402F0FF0503E071
S315000016607268140EC2F3074505600C6070BDF8B5CC
S315000016700446DFF8F453686AC007FCD4DFF8EC636D
S31500001680F06910F0030704D001220D212846FFF768
S3150000169031FEA74202D12CBB00221EE0032F18BF49
S315000016A0002F0FD1022C18BF012C0BD14FF40020B4
S315000016B0B06000F018F8800040F00100F06130687A
S315000016C00003FCD500F00FF844EA8000F061686A78
S315000016D0C007FCD4220018BF01222846BDE8F84006
S315000016E00D2107E6F1BD686AC007FCD4F0698008E1
S315000016F07047F8B50446DFF87C5302202860286856
S3150000170000F00F00022850D1E0884B2838BF002097
S315000017100DD3B0F5FA7F38BF4FF0805007D340F6AF
S31500001720C411884234BF4FF000504FF04050DFF8EC
S315000017304863DFF848333169B4F90C20DFF84073A9
S315000017401940D243084340EAD2703061DFF81003F3
S31500001750016841F4407101600021386A40F08070F0
S315000017603862FFF7FEFE00B1042000F048F9208938
S31500001770DFF810130880A089DFF80C130880A08812
S31500001780DFF8EC12088000F0D2F8A07B20B1012827
S3150000179005D1DFF8F80201E0DFF8F402F8606088AE
S315000017A00122012100F015F808B90020F2BD686891
S315000017B040F4806068606078FFF759FFA07A2028BF
S315000017C00CBF0122002205213046FFF793FD0120C0
S315000017D0F2BD2DE9F04F89B004468846934605A828
S315000017E00021002200230EC002A80EC0A4F5E1606D
S315000017F0B0F5966F00F28880B4F5E16FDFF89402D9
S315000018004FF4966A02AF05AD0BD94FF4E161019131
S315000018104FF001090068A860010EB960C0F30740E7
S315000018200BE08946CDF804A04FF4167A0068A8604C
S31500001830C0F30721B96000F0FF00A8604A46DFF850
S3150000184040623068000F00F003008DF80100034687
S3150000185002A905A8FFF7DBFEDFF804020068000A0C
S3150000186000F003008DF8000003464A4603A906A8C7
S31500001870FFF7CDFE019AA868B9686D68D7F804E04D
S31500001880DDF814C0A31A0A1AAEEB05075A43029CE8
S31500001890B2FBFAF28218A4EB0C045C437B43B3FB65
S315000018A0FAF3EF189142B4FBFAF428BF824264447B
S315000018B02AD3BE4528BFAF4226D30298A04224BFF2
S315000018C00598844220D3BBF1000F0CD030694946FD
S315000018D0B9F1000F18BF0221DFF8BC31184040EA09
S315000018E0022008433061B8F1000F1CD09DF80110AA
S315000018F000224846FFF75AFE30B19DF8001001223B
S315000019004846FFF753FE08B900200DE0A74228BF5E
S315000019103C46E72CB06928BFE724400A49EA44015F
S3150000192041EA4020B061012009B0BDE8F08F10B552
S31500001930DFF84C114B6A0C68E4074FF0FF3203F0F6
S31500001940070325D5022B23D3142828D314381428AB
S3150000195032D30F22086820F47F4040EA022040EA92
S3150000196002300860474A08681288C0F3032002F173
S315000019702803401C02EB5302283200EB8003B2FB23
S31500001980F3F2521E072A34BF12064FF0E06215E04A
S315000019900C68E40709D4022B07D20A2801D20322D5
S315000019A0D8E70A380A2807D3D3E70C68E407D1D565
S315000019B0022BCFD22828CCD20722CBE70B6823F004
S315000019C0EE631A4342F480120A602F4AB2F90020ED
S315000019D0002A13D492B202F1280302EB5302430801
S315000019E0283203EB4000B2FBF0F04A68072834BF08
S315000019F00001702022F070021043486010BD38B517
S31500001A0004461F4D0021FFF7DCFC686AC00844EA63
S31500001A10C0006862BDE832401548008887E70000CC
S31500001A2060400E4068FC032004300E4067FC032033
S31500001A3084ED032080410E4000300E40012D31011F
S31500001A40C0EA210110ED00E008300E4000410E40D2
S31500001A5080ED0320002D31013083E00F6C300E4005
S31500001A60EC300E401C83E00F54300E4024300E4004
S31500001A709EFB032038300E403C300E40FEFFFFCF69
S31500001A804C300E409CFB0320A0FB0320372110B7EF
S31500001A90774020571883E00FFD80FFFF38B50446D6
S31500001AA00D46104600F0D9F800202070A847BDE882
S31500001AB0314000F0E0B800224D494E48EEE70022E2
S31500001AC04D494E48EAE770B5044616460D4630467F
S31500001AD000F0C8F8002020703046A847BDE87040E6
S31500001AE000F0C9B8012246494648ECE701224649BA
S31500001AF04648E8E7012246494648E4E701224649C6
S31500001B004648E0E780B5012000F0E5F9444800F0DA
S31500001B107AF94449087001BD80B500F0EDF9012855
S31500001B2005D040480078BDE8024000F054B901BD38
S31500001B3030B5002400E0641C3B4D2D88E3B2AB4277
S31500001B400FD2E4B20C25394B15FB04F52B441D7856
S31500001B50854201BF5D888D421D799542EBD11846BD
S31500001B6030BD002030BD80B519B900F0B3F80020B3
S31500001B7002BDB1F1004F02D200F0B6F8F7E702203D
S31500001B8002BDB1F5000F3CBF0902FFF7ECBF022012
S31500001B90704770B504461D46FFF7CAFF06000ED013
S31500001BA0204600F0ADFC50B1B0682946FFF7DBFFD8
S31500001BB028B9049870710598B071002070BD022094
S31500001BC070BD1CB500931346049C0194012205E0E8
S31500001BD01CB500931346049C01940022FFF7D9FF1D
S31500001BE016BD80B500230093FFF7F2FF02BD00008B
S31500001BF0A519010070E60320A5C2000078E60320BF
S31500001C003B33010058E6032007AD010060E60320E0
S31500001C1029C4000068E6032083C4000080E6032090
S31500001C20D0E3020052FC032094E303202CDD0320C2
S31500001C3080B5FFF77DFF20B180680021017000208C
S31500001C4002BD022002BD0122F2E70022F0E70000F9
S31500001C500C490D4808600020704700B1702070479D
S31500001C600020704780B500F013F8FF2801D1A320AB
S31500001C7002BD002002BD00207047704700BF034828
S31500001C800078704700F10320C0930300D8E60320D4
S31500001C9080B500F072FCFF2818BF002002BD0021AD
S31500001CA001707047007800B101207047FFF75BBFF5
S31500001CB0FFF767BF38B54478456800F03BFE00F093
S31500001CC09CF85B1BB3F1004F98BF5550BDE83240FE
S31500001CD000F036BE10B500F07BF86060042020707E
S31500001CE02046BDE81040E5E738B504460D4600F04D
S31500001CF03CFE28186060012020702046BDE8324076
S31500001D00D8E710B50446207801000CD0042806D088
S31500001D1000F02BFE6168421AB2F1004F01D8002094
S31500001D2010BD081A10BD4FF0FF3010BD70B500F0A1
S31500001D304FF8054600F0FEFD064660686FF000416C
S31500001D4000F02CF8401920603046BDE8704000F0E5
S31500001D50F7BDF8B504460D46164600F006FE00210E
S31500001D6056B1FF22327007E0121AAA4202D2154675
S31500001D7006B13170491C083422680AB92846F2BDFA
S31500001D8013781F00F6D0042B04D05268831AB3F1DF
S31500001D90004FE9D806B131700020F2BD0022D8E725
S31500001DA038B500F015F805460EE001780A000AD0AD
S31500001DB0042904D04168691AB1F1004F03D80421FF
S31500001DC0017061688847083420680028EDD131BD6C
S31500001DD0044600F0CABD10B5FFF7FAFF00F00DF893
S31500001DE0C01AB0F1004F07D854186068FFF7D8FF43
S31500001DF02046BDE8104099E710BD0C2111FB04F107
S31500001E00364A5358704770B5354E364909780446F8
S31500001E107078884204D3E5210FF2CC0000F008FE6A
S31500001E207578681C70700C212C4811FB05F108446C
S31500001E3001214460017200E04D7054F8081B00292E
S31500001E40FAD1FFF773FF284670BDF8B54FF0FF31A2
S31500001E500C2400916043214D214E2844002101723B
S31500001E60307820B300F0DAFE28B94FF48F710FF204
S31500001E70780000F0DDFD00F078FD002105E0009B14
S31500001E809A4288BF1A460092491C7378CAB29A428F
S31500001E9011D2C9B214FB01F3EA58871AB7F1004F01
S31500001EA005D92B44121A1B7A0BB9002AE7D100F088
S31500001EB0C2FE0020F2BD684600F0D7FE10B96846A3
S31500001EC000F06FFD0120F2BD0C23044A5843104474
S31500001ED0012101727047024908707047A0ED032086
S31500001EE045FB0320009403006576656E742D636FD1
S31500001EF06E74726F6C2E6300024800787047014959
S31500001F000870704762FC0320DFF8EC09DFF8EC1973
S31500001F10007882B08DF80300DFF8E4090088ADF898
S31500001F200600DFF8E0090088ADF8040000208DF80F
S31500001F300200ADF80000012008709DF80310DFF8DC
S31500001F40C8099DF801200170BDF806104180BDF852
S31500001F50041081809DF802108171DFF8B01901EB41
S31500001F60C20181609DF80010017302B00121417326
S31500001F707047DFF8880900787047DFF88C1901EBA5
S31500001F800010407B00F001007047412818BF42282E
S31500001F9003D0432818BF442801D1012070470020F0
S31500001FA07047412818BF422801D101207047002000
S31500001FB07047432818BF442801D1012070470020EC
S31500001FC07047F8B51546069A04461E4600F03BFAD9
S31500001FD060B1042100F02FFC070007D02046FFF770
S31500001FE041FE324629462046B84790E0F1BD2DE92C
S31500001FF0F04383B00446160098461EBF0A9F002F82
S315000020005FEA08000D461DD03878718800073079E0
S315000020104CBF4022802200F016FA98B1082100F049
S315000020200AFC814670B13079FFF71CFE0B980190CF
S3150000203000974346324629462046C847BDE8F7433F
S31500002040FFF719BEBDE8F783F8B5164605461A46EA
S3150000205000F0F9F9D8B1069C21000BD1022100F05D
S31500002060EAFB040013D02846FFF7FCFD314628465C
S31500002070A0470BE0102100F0DEFB070007D0284642
S31500002080FFF7F0FD224631462846B8473FE0F1BD4E
S31500002090F8B5154604461A4600F0D5F908B9862063
S315000020A0F2BD0699002689B9202100F0C4FB07007D
S315000020B00CD02046FFF7D6FD0998089B079A00909A
S315000020C029462046B8470646FFF7D5FD3046F2BDFD
S315000020D0F8B50446A5682078FFF7C4FD002612E08F
S315000020E02868F6B2142111FB06F1471820783988C2
S315000020F000F0C6FD0121384600F09DFB01001CBF23
S3150000210020788847761C2979F0B28842E8D3BDE862
S31500002110F140FFF7B0BD70B50024DFF8EC57DFF8EB
S31500002120DC6708E0FFF729FF20B1E4B205EB0410F5
S31500002130FFF7CEFF641C3178E0B28842F2D370BD5F
S3150000214010B586B000248DF80800ADF80A108DF899
S315000021500C30ADF80E200194009400230898ADF8D9
S315000021601000002201A902A800F057F8019806B055
S3150000217010BD10B5002301E0001D5B1C9CB28C4213
S3150000218004D204889442F7D1408810BD002010BDC7
S315000021900288B2F57C4FA8BF00F00BB8DFF87007D5
S315000021A0081A0C2190FBF1F082B20021DFF86407D7
S315000021B0DFE7DFF86417401A142190FBF1F082B2D2
S315000021C00221DFF85807D4E710B50C46018863886A
S315000021D099420DD1027B23791A4209D0B1F57C4F81
S315000021E004DBFFF7E6FF2189884201D1012010BDFB
S315000021F0002010BD10B514460A88E3889A420AD119
S315000022000288B2F57C4F04DAFFF7C2FF21898842C3
S3150000221001D1012010BD002010BD2DE9F74F044665
S315000022209B460025002603E0C0884519ADB2761C02
S31500002230DFF8C8160978F0B2884280F0D080F6B28E
S315000022403101DFF8C406DFF8C0260844515C227865
S3150000225080689142E8D100903046FFF78EFE002854
S31500002260E5D04FF0000A05E0B8F80A004519ADB20E
S315000022700AF1010A009909795FFA8AF08842D6D2F2
S3150000228000985FFA8AFA0068142111FB0AF100EB44
S31500002290010821464046FFF797FF0028E4D04FF09B
S315000022A0000908E038793021084202D1F8782D1863
S315000022B0ADB209F10109B8F808101FFA89F0884291
S315000022C0D6D2D8F804001FFA89F90C2101FB09F1CE
S315000022D04718224639464046FFF78CFF0028E1D0D2
S315000022E0019800B107603879800611D5DFF820061D
S315000022F0002106E00279920602D5C278891889B2D1
S315000023000C30B842F6D3DFF8180600EB010A03E0FA
S31500002310DFF8100600EB050A0C9D280018D0029E77
S3150000232000F060F802463B8861882078DFF8F8956F
S3150000233000F0A2FCE8B13879C0061CD500F052F8CE
S315000023400346029800903A4661882078C84747E0DD
S315000023500298002844D05646824600F043F80246CA
S315000023603B8861882078DFF8C49500F083FC00285C
S31500002370E1D17E2034E097F80280BBF1000F0CBF5C
S31500002380FC785C464046FFF70CFE30B1621ED2B2C6
S315000023903146504601F039F81FE04046FFF709FE86
S315000023A030B1A21E92B23146504601F046F814E012
S315000023B03DB9BBF1000F04D0F878834538BF8920BA
S315000023C00ED3002E224604D10021504601F070F9AA
S315000023D003E03146504601F028F9002000E086204F
S315000023E0BDE8FE8F39464046D2E660B5002503E0DB
S315000023F01E7B360616D46D1C0679EBB2B34213D299
S315000024000368EDB2142616FB05F633441E888E4289
S31500002410F1D1160006D0802AEAD0402AEBD11E7BE5
S315000024207606E8D5184660BD002060BD80B500225E
S3150000243001E080B5402200F006F800B1012002BD9F
S3150000244080B58022F7E738B50C46154600F095F8BA
S31500002450FF2801D1002032BD04E038B50C461546F0
S3150000246000F08DF8DFF8A03403EB00102A468068F0
S315000024702146BDE83840B8E74022FFE72DE9F0479E
S31500002480804689469246FFF7DEFF002508B9FF2001
S3150000249019E00026DFF87074DFF8604400E0761C6F
S315000024A02178F0B288420DD2F6B23001385C404550
S315000024B008D052464946FFF7D0FF0028EFD06D1CE2
S315000024C0EDB2ECE72846BDE8F08730B50022DFF82C
S315000024D0383400E0521CDFF824542D78D4B2AC42D4
S315000024E00CD2D2B214011D5D8542F3D10D0003D08A
S315000024F01C44647BE407EDD5104630BDFF2030BD9B
S3150000250080B50021FFF7E1FFFF2801D1002002BDC1
S31500002510BDE8024031E570B50E4604460021FFF7DE
S31500002520D4FFFF2801D1002070BDDFF8DC1301EBDA
S3150000253000153200687B00F0010114BF40F0010075
S315000025400020B142687316D086B12846FFF7C0FD59
S3150000255011E00068F6B2142111FB06F10844761C5E
S31500002560017BCA0901882046FFF762FBA868027949
S31500002570F1B29142EDD3012070BD0121A5E7002102
S31500002580A3E7DFF884130001085C704738B50C46F2
S31500002590FFF7F3FF01460020FF291FBFDFF868237E
S315000025A002EB01118968002916D0002203E01B0600
S315000025B048BF2846521C0D79D3B2AB420BD20B68EA
S315000025C0D2B2142515FB02F52B44451C1B7B002CAF
S315000025D0EDD05B06ECE7C0B232BDF8B50C46154649
S315000025E0FFF7CBFF01460022FF291DD0002301E0A3
S315000025F0521C5B1CC44800EB0110DEB280680779F0
S31500002600BE4211D20068DBB2142616FB03F6304434
S315000026102F00067B02D0760602D4EAE73606E8D516
S31500002620D6B2A642E4D1F2BD0020F2BD002109E0F7
S3150000263010B50446012100F005F82046BDE810401B
S3150000264001F070B82DE9F34F87B001F01EF906903E
S315000026500024AA48DFF8B082007805909DF81C0097
S31500002660019000E0641C0599E4B28C427BDA019982
S31500002670FF2907D09DF81C00FFF77FFF0446FF2CBB
S3150000268006D177E008EB04100699007B8842E9D171
S315000026904FF0000A4FEA041901E00AF1010A08EBBB
S315000026A009005FFA8AF180680279914257D2006880
S315000026B05FFA8AFA142111FB0AF145182889B0F548
S315000026C0967FC8BF01F0C3F9002613E001200090F1
S315000026D000235A46002102A8FFF79FFD9DF820001F
S315000026E038B1BDF80A2018F809103B46584600F0E4
S315000026F072F8761C2989B0B28842CED26868B6B222
S315000027000C21714347183879C006F2D418F809002D
S315000027108DF8080039462888ADF80A003879400651
S315000027204CBF802040208DF80C003888ADF80E0094
S315000027302846FFF72DFDADF810003979F8784907DE
S3150000274006D5D7F808B00328C0DBDBF800B0BDE734
S315000027500328B4BF07F1080BD7F808B0B6E701980D
S31500002760FF283FF47FAF9DF8200018B99DF81C00A4
S3150000277000F003F809B0BDE8F08F30B583B0044629
S3150000278001F083F805460120FFF782FA012C03D0F9
S31500002790FF2C08BFA8421DD102237F22202101A8B9
S315000027A001F099F92920009001AB002240F2024184
S315000027B0012001F00AFA01237F22212101A801F05C
S315000027C08AF91820009001AB002240F20641012050
S315000027D001F0FBF937BDF8B51D4604462879800798
S315000027E00E46174626D502220021684600F060FFF5
S315000027F004B96C46012E1DD140F20240874209D130
S315000028002888B8B92879400614D4022322467F21A5
S3150000281020200DE040F20640874204BF28880028A9
S3150000282008D12879400605D4012322467F2121209C
S3150000283001F062F9F1BD30B5047B012200230C42A0
S3150000284005D1002030BD144218BF5B1C5200D5B222
S315000028508D42F8D30069DBB250F8230030BD2DE974
S31500002860F04F0C4601210028607D4FF0000C08D087
S31500002870050008BF4FF0020E09D0012805D18E468B
S3150000288005E010B94FF0080E01E04FF0040E09986C
S315000028900A9DDDF82C90DDF830A0E046244F07EBCA
S315000028A08806378897421FD1F77817EA0E0F1BD094
S315000028B0B7784F4518D396F803B0E77B5FEACB6B42
S315000028C001D50FB910E07FB9E24501D0844501DB9F
S315000028D000210EE0B77803F80C700CF101062F8882
S315000028E07F1C2F801FFA86FC08F10108B8F1140F2F
S315000028F0D4DB0846BDE8F08FFC93030054FC0320AC
S31500002900EA90030002910300D8E60320F8EC0200E7
S3150000291044E9020008ED020008EC020000ED0200A6
S315000029204CE70320E8E60320A32C00009F2C0000C0
S31500002930F4E80200EFF31180602181F311887047FB
S3150000294080F311887047000080B501F0BEFD01F0EC
S31500002950C9FD80B202BD80B501F0B7FD01F0C2FD30
S31500002960FA21B0FBF1F080B202BD80B501F0ADFDF9
S31500002970BDE8044001F0B6BD80B501F0D4FE1848AC
S3150000298000214160001D01F02FFC20B139210FF21A
S31500002990880000F04DF8002002BD114901200870A2
S315000029A0704770B5044682B02268002502B91BE064
S315000029B000F00DF801201BE070B50C4682B02268CD
S315000029C0002502B910E000F002F8022010E0044EE3
S315000029D0044B357000950021706801F078BC00004A
S315000029E088F603209B29000000F025F9002076BD1B
S315000029F001F0E2FF307828B97068214601F01FFD2A
S31500002A00852501E025603570284676BD0146002201
S31500002A100020D1E700F008B873797374656D2D74E2
S31500002A20696D65722E6300007047000042DE7047D4
S31500002A3038B504460D4602F0FDFA01F008F803F039
S31500002A406BF92946204603F090F92B462246694940
S31500002A50012003F02BFB29462046BDE83440E5E77C
S31500002A6065482DE9F047654D01682E1D4FF4206835
S31500002A707165016AB16562490A68F265496831663D
S31500002A80416A7166816AB166C16AF166016B316736
S31500002A90806B706796F8340040074CBFF46BB46BDC
S31500002AA003F091FB0022F2648442564A014624BF99
S31500002AB0A2F1200AA2452746316505F19003DFF809
S31500002AC048C1DFF848E118D3A0693064E46974644A
S31500002AD0746DC4F30804062C13D1704511D36045F8
S31500002AE00FD200884DF64264A0420AD13068586081
S31500002AF040F201787068986003E0002737647764D5
S31500002B0007464348814202D2014600E0091D0846B5
S31500002B10904203D20C68B4F1CD3FF7D03D49081A74
S31500002B20B0640021002005EB8004401C0628E16704
S31500002B30F9D3002003E0C0B205EB8004E1679742B9
S31500002B4023D252F8041D7145F9D36145F7D2CC075B
S31500002B50F5D5002405EB8409D9F87C90894502D087
S31500002B60641C062CF6D3062CE9D1002814BF401E9F
S31500002B700520E0E7B16F002405EB8402641CD2F85F
S31500002B808070D767052CF7D319600146481EC9B275
S31500002B900029EFD1706DC0F30800032810D0042877
S31500002BA011D0052812D0062813D00C2817D01228C9
S31500002BB018D119480068800719D540F2025816E066
S31500002BC040F6012813E040F6022810E040F60328FC
S31500002BD00DE0B8F5206F0AD140F6042807E040F66C
S31500002BE0052804E018B1432838BF40F607284046B8
S31500002BF0BDE8F08730E8020004ED00E000000020A8
S31500002C0000E300E030DB032036CB0200DC040000EA
S31500002C109C00002030DB03201C200540EFF31080D1
S31500002C20C00706D4EFF3118060288041C043C00F6F
S31500002C30704701207047002080F311887047704765
S31500002C4070477047704770477047704770477047C6
S31500002C50704700207047704770477047704770474D
S31500002C6070477047704700207047002070477047D4
S31500002C700120704701207047012070477047704758
S31500002C8070470020704700207047002070470020E2
S31500002C9070470020704700207047002070470120D1
S31500002CA0704701207047B52070470020704700200C
S31500002CB0704700207047002070477047002070471B
S31500002CC0B520704700207047704700207047B52038
S31500002CD070477047002070477047704770477047CD
S31500002CE070477047704770477047704701207047BC
S31500002CF002460849012003F0C7BA70470120704711
S31500002D00002070477047044800680078012808BF13
S31500002D100220704778EF020000F103200121818133
S31500002D204FF6FE71C1810121016100210170012070
S31500002D30704770477047002070470020704700209A
S31500002D407047002070470020704700207047002021
S31500002D507047002070477047B520704700207047C5
S31500002D60002070470020704770477047002070476A
S31500002D70B5207047704770470020704770470000C5
S31500002D8080B5FFF7FAFBFF2804D018B9DFF8A407CF
S31500002D90007802BD002002BDF0B5059D0026002783
S31500002DA0092D044602D300200021F0BDB4460FE0F1
S31500002DB05FFA8CFCA5EB0C0020443F0210F8010CD6
S31500002DC047EA1667002110EB06264F410CF1010C6D
S31500002DD05FFA8CF0A842EBD39F4206D828BF9642F2
S31500002DE003D2901B63EB0701F0BDB01A67EB03013A
S31500002DF0F0BD10B50168DFF840270B8813804B88BB
S31500002E005380497911710168097951714FF48A51DA
S31500002E10D18001688979890644BF4FF48B51D180EE
S31500002E20DFF8181783690A783BB9C088DFF81037CE
S31500002E30188002F0FD00087010BD42F002020A7010
S31500002E4016228169DFF8FC46204600F0EEFB0020E2
S31500002E50207010BD80B50020FEF7FFFEFF20FFF7B3
S31500002E60E5FBFEF708FFFFF784F802460121DFF8CD
S31500002E70C40600F01DFCDFF8C036DFF8CC26DFF80C
S31500002E80CC06522103F0FCFAFEF73CFE03F074FB7D
S31500002E9003F02EFC03F09CFD03F0DCFE03F0E8FEDD
S31500002EA003F0D6FF04F06EF804F06EF804F0EDF9C6
S31500002EB004F082FC04F002FE04F080FE04F070FFD1
S31500002EC005F094FC05F0F4FD03F0D6FEBDE80140E4
S31500002ED0FFF721B9704780B505F044FF20B907F028
S31500002EE07AFA08B905F032FAFFF735FFBDE8014076
S31500002EF0FFF741BF10B500224FF6FF71DFF85036DD
S31500002F0000E0521C92B233F832408C4203D0844225
S31500002F10F7D1104610BD084610BD38B50446FFF778
S31500002F20E9FFDFF8305601464FF6FF7228889142D6
S31500002F3003D12246DFF8201606E0DFF8142602EB5E
S31500002F40C1014A68DFF8141603F0A4F92888BDE821
S31500002F50324003F08FB910B50446DFF80406007856
S31500002F60002882B03BD007F07DFB0246DFF8F4155F
S31500002F70022003F08FF92068418800914379A289E5
S31500002F80DFF8E415022003F085F9022003F036F994
S31500002F9018B120684088FFF7C0FFE07B28B1228A7D
S31500002FA0DFF8C815022003F075F9E07CDFF8C015DC
S31500002FB00090A0680278A37C022003F06BF9207DC4
S31500002FC0A1890A1AA1680144012392B2022007F0DE
S31500002FD06BFBBDE81C40A4A1022003F055B913BD4C
S31500002FE010B5044620684079FFF7C7FAFF281DD0C0
S31500002FF0DFF88015227F01EB0010017B914215D18D
S31500003000226840881188884206D04FF6FF7399429D
S315000030100CD1B0F5004F09DA2079022818BF032831
S3150000302006D111895079FFF738FE08B9002010BD86
S31500003030A07B0028204603D0BDE8104007F0CCBB9B
S31500003040BDE8104007F000BC30B5144683B01A4600
S3150000305023785B074CBF052303239A420AD20093C9
S315000030601346DFF81425DFF81415022003F00CF9D7
S3150000307000203EBD089D286029710698E880AC6056
S31500003080AA81207800F00100A8732078800800F05B
S315000030900100E8732078C00800F00100687501207F
S315000030A02875E87B30B10121204607F0ECFE297D2A
S315000030B0891C29752882287D411C2975205CA874E5
S315000030C0481C2875C9B2605CE8740798A86100F0CE
S315000030D0DCFB287701203EBD2DE9FE430F46DFF8D5
S315000030E0A014DFF8A054DFF8A08491EC080B85EC5F
S315000030F0080B0B9E0295019600240A990091394609
S31500003100FFF7A2FF002866D0C8F80050A87CDFF8B9
S315000031107C1408702846FFF71EFF2846FFF769FE55
S31500003120284600F001FB20BB2EBB042F18BF052F3D
S3150000313003D0022F18BF032F01D1012200E0002285
S31500003140E988286801914188009101210388E87C7B
S3150000315000F011F990B12868807980060ED4DFF866
S315000031603044012020700121284600F002F9002099
S31500003170207001242FE0307D80072CD52868407907
S31500003180FF2824D10027DFF8B063FEF7F2FEF9B27C
S31500003190814220D2F8B2FFF7F4F98146F8B2FEF781
S315000031A0ECFE90B1286841884846FFF73FF960B1C8
S315000031B02846FFF71EFE286880F8059086F80490DA
S315000031C02846FFF70DFF00B101247F1CDDE72846E6
S315000031D0FFF706FF044607F0D3FD16220021DFF8AD
S315000031E0640300F065FA0020C8F800002046BDE838
S315000031F0FE83DFF8A0030178491C017001F07F000F
S315000032007047DFF838130A78002814BF42F001002F
S3150000321002F0FE0008707047DFF87C1308707047F4
S3150000322078B1DFF874130978012903D1018841F0D8
S31500003230400105E0022904D101884FF6BF72114012
S315000032400180704778B1DFF854130A78012A04D157
S31500003250DFF84C2312780A7001E0022A03D10178C4
S3150000326041F01001017070475D000000F0B5B34DEC
S3150000327004462878C00783B001D50020FEBDB34EB2
S31500003280AD4F3046FFF7DEFFB81DFFF7C9FFBF4859
S315000032903178007849074CBFF0707070AA480188F1
S315000032A02878800708D53246A648FFF709FD297811
S315000032B001F0FD012970FEBDA14800884FF6FC72A1
S315000032C0904208DA0B460146019400963A460020E1
S315000032D007F04DFFFEBD0A4600943346394607F017
S315000032E030FFFEBD0020C1E70A460146A648006839
S315000032F001E00021F8E770B504460E46207901008A
S3150000330018BF012815460BD1A0680078C00601D564
S31500003310300005D0A07B002804BFE07C0B2801D13B
S31500003320002070BD884900200880607DE17B002870
S315000033300CBF0820002011B907F039FD06E040F067
S31500003340040007F034FD208A07F040FDA07C07F05A
S315000033502EFD0B2007F02BFDE07C07F028FD304604
S3150000336007F025FD2046FFF744FD2846BDE87040DE
S315000033707CE70022BFE770B504461846894B844DAA
S315000033801B78012B01D02E7816B10020287070BD55
S3150000339082F001020A4301D1002070BD2BB10A461A
S315000033A004992346FFF76DFC00B1012070BD0000B3
S315000033B038B5D2885224950648BF4924550544BFDE
S315000033C0083CE4B2150544BF083CE4B2120444BF0D
S315000033D0A41EE4B203284FF6FD7310D8DFE800F010
S315000033E00204080D0B460AE0C8B208F0A4F902E090
S315000033F0C8B208F0D2FB034601E0641EE4B21846E8
S31500003400FFF75CFC201AC0B232BDB0B504460D0011
S315000034100EBF00202878FF28174601D12070B0BDC6
S31500003420284607F055FD874288BF07463A46691C7D
S31500003430601C00F0FAF82770B0BDB0B50D00044668
S31500003440174603D1002060702070B0BD2878FF2891
S3150000345002BF6878FF2820700CD0284607F03DFD93
S31500003460874288BF07463A46A91CA01C00F0DDF833
S315000034702770380A6070B0BDF0B5541E002B37D0E7
S31500003480052A48DA0025002600230CE0571EFF1AFD
S31500003490FF000CFA07FC4CEA050511F80EC00CFA01
S315000034A007F73E435B1CDFB2974209D2DBB2A4EBBF
S315000034B0030E00280CBF4FF0000C10F80EC0E5E715
S315000034C0042A0FDAD0000121D200401E9140494261
S315000034D045FA00F2D20748BF0D4346FA00F2D0077C
S315000034E048BF0E43AE420FDBB54214DA10E05B1C58
S315000034F0DDB295420FD2DBB2E51A00280CBF0026DA
S31500003500465D4D5DB54201DA0120F0BDAE42EEDA10
S315000035104FF0FF30F0BD0020F0BD0021224A01E04F
S31500003520891CC9B2535C8342FAD35018407870475D
S3150000353000000000B9FC0320A0F00320BEFC03201D
S315000035402AFC032094F403202CFC0320ACF0032077
S315000035508C8A030034FC0320F48903000C8A0300E0
S31500003560BAE30320148A03001C8A03003C8A030082
S31500003570488A0300D8E60320848A0300688A030089
S31500003580EC8A030070F4032090F40320E4E30320A4
S31500003590BAFC0320E5E30320BBFC0320BCFC0320AC
S315000035A0BDFC0320E3E303200C8B03002838082826
S315000035B08041C00F704710B500F009F8FF2801D10F
S315000035C0A32010BD002104F83010002010BD0446D1
S315000035D00846FEF7D2BF38B500F00BF8FF2801D138
S315000035E0A32032BD294604EBC000BDE83440FEF7F7
S315000035F0BABA044608461546FEF7BFBF40B11C28B6
S315000036000CD01D280DD01E2818BF1F2806D00AE092
S31500003610A1F10B00102806D2002070471B29FBDB06
S3150000362001E00829F8DB8A207047814233D2104432
S315000036301144401E491E10E011F8013900F8013905
S31500003640121F11F8013900F8013911F8013900F893
S31500003650013911F8013900F8013992B2042AEBDA7E
S3150000366093B2002B1EBF11F8013900F80139521E22
S31500003670F6D1704711F8013B00F8013B121F11F813
S31500003680013B00F8013B11F8013B00F8013B11F842
S31500003690013B00F8013B92B2042AEBDA93B2002B0D
S315000036A01EBF11F8013B00F8013B521EF6D17047D0
S315000036B0130003D00A46194608F02CBC704710B513
S315000036C000E0521E93B223B100F012F8F9D0181B95
S315000036D010BD002010BD10B500E0521E93B22BB1F4
S315000036E000F006F8F9D0181B40B210BD002010BD3E
S315000036F010F8013B11F8014BA342704780B508F062
S31500003700CCFCFFF7A7FBBDE8014008F0DBBC80B5A9
S31500003710FFF7DAFAFFF7DEFB08F09EFDBDE8014091
S3150000372003F0E0BB09F09AB8FFF709BBFFF70DBB42
S315000037300020704738B504460D46FFF71FFB2946A3
S315000037402046BDE8344009F0ECB8FFF700BBFFF7B0
S3150000375009BB000010B57448744C006820606060B6
S3150000376048220021FFF7A4FF7148216800780870FD
S315000037704FF6FF7120680022418002730020226804
S3150000378050730B202268907314202268D0734FF672
S31500003790FE7220680282418209F00CF921680876DF
S315000037A009F008F92168487609F004F92168887655
S315000037B0604821680078C8765F492068096840F843
S315000037C0281F5E49097801715D4821680068086311
S315000037D010BD10B501F05BFA544C6168897B8842D4
S315000037E003D0084601F002FA50B901F054FA014636
S315000037F0606890F90F00814204D001F05BFA08B1CD
S31500003800012010BD6068008A01F0AAFE6068408A47
S3150000381001F0C4FE6068007B012818BF002001F09B
S315000038208BFE002010BD10B5464C0020207009F01C
S3150000383061FD20B92046BDE81040FEF74BBA67E0AF
S3150000384080B5002000F015F828B1002000F005F83A
S3150000385008B1002002BDFF2002BD34480068407B4D
S3150000386002281CBF1128432801D1012070470020DF
S3150000387070472E480068007B01281CBF02280328D9
S3150000388001D10120704700207047002070470020BA
S3150000389070472D4908707047704700207047012017
S315000038A07047704700207047002070477047704788
S315000038B00020704780B50020FFF7CFFF18B1BDE8A4
S315000038C002400020D5E702BD80B50020FFF7C5FF06
S315000038D030B116480068007B032801DA002002BDDB
S315000038E0FF2002BD10B5040005D040F249110FF2C9
S315000038F00C10FFF79DF81448007808B9702010BD29
S3150000390009480068482111FB04F10844074948604A
S31500003910BDE810405DE705484068008A70470348E7
S315000039204068408A70470000A0DF032034F503207A
S31500003930D0E30320D1E30320A4DF0320C8E3032060
S31500003940A8DF03202CF50320E8E3032070470020BE
S3150000395070470020704709F0B2BA704709F0D5BF2A
S3150000396009F0ABBE82B08DF80010DDE900231146E8
S315000039701A4602B0FFF772B932B586B004468DF822
S31500003980042006F0CBFC0546204606F0D5FC80F068
S3150000399001010D420DD0BDF8180006F0BEFD8DF8F0
S315000039A00000FF2804BF00208DF80000CDF808D0E5
S315000039B01AE0294308BF06A815D0054214D0BDF861
S315000039C0180006F0AAFD8DF80000FF2804BF0020AD
S315000039D08DF800009DF800008DF80C00BDF8180069
S315000039E0ADF80E0003A80290DDE901010A46014682
S315000039F02046FFF733F907B030BD0000656D6265FC
S31500003A00722D6D756C74692D6E6574776F726B2D82
S31500003A10737475622E63000009F07ABF80B50121C8
S31500003A201548FCF7A9FF0421072009F073FF134886
S31500003A301349144A016004211160022141620421E4
S31500003A40114A1160816A41F00201816201BD0B4891
S31500003A5009F0A2BFA52800D0704780B500F005F890
S31500003A6010B10A490020086001BD0448006810F042
S31500003A70010018BF012070470025080000200540FE
S31500003A800108030080E200E000E100E00000A4423B
S31500003A9010B5DFF8C0400120207082B0002009F088
S31500003AA087FF38B1002009F083FF18B1002020708D
S31500003AB0492016BD02237F220021684600F00BF83C
S31500003AC0BDF80000B0F57F7F03D0002020700720EE
S31500003AD016BD002016BD10B5FF2908DCDFF87440BE
S31500003AE0247844B1BDE81040C9B20AF03FBABDE837
S31500003AF010400AF0C9BD10BD2DE9F0410446FF2C67
S31500003B000D461646984616DCDFF848000078C0B128
S31500003B10DFF84870387818B184210F48FEF788FF1F
S31500003B200120387043462A463146E0B20AF08CFB43
S31500003B300020387005E042463146BDE8F0410AF003
S31500003B40C5BDBDE8F08103490978002918BF0AF010
S31500003B507CBC7047B4FC032070880300B5FC0320CE
S31500003B602DE9F04786B00F9F109D0E9C0295019798
S31500003B7006468A46904699460094FFF779F818B1AA
S31500003B80022803D002D310E001200EE00CBF012072
S31500003B9000200021049103900295019700944B4662
S31500003BA042465146304600F0F2F906B0BDE8F087CD
S31500003BB010B586B00024049401240394099C029451
S31500003BC0089C01940024009418E010B586B000F01B
S31500003BD002F8402312E00024049401930124039484
S31500003BE00023089C00930294704710B586B000F03D
S31500003BF009F84023099C0294089C019400F0C7F937
S31500003C0006B010BD00240494009301240394704769
S31500003C1010B586B001240494002403940A9C0294EF
S31500003C20099C0194089C0094E8E71FB5089C03943E
S31500003C30079C0294069C0194002400940CE01FB596
S31500003C4000F002F8402307E00024019303940023C8
S31500003C50069C00930294704700F063FA04B010BD0E
S31500003C602DE9FE4F92461D46064688462A46FEF731
S31500003C70EAFB002407000C988DF80060A346D9469D
S31500003C80ADF802808DF80450ADF806A0ADF8080036
S31500003C9047D069463846FEF797FA002841D0DDF846
S31500003CA03880002505E007F082F8641C09F1010957
S31500003CB06D1C3989A8B288422BD27868ADB20C2126
S31500003CC0694346183888B0F57C4F09DA3088ADF874
S31500003CD006006A4631463846FEF78CFA0028E7D0D9
S31500003CE03088504538BF0BF1010BDFD39DF83420E7
S31500003CF0A1B29142DAD207F069F8B07807F057F826
S31500003D005FEA0800D1D03079C0074CBF07200520F4
S31500003D10C9E71FFA8BF111FA84F01FFA89F188427C
S31500003D2001D1012000E00020BDE8FE8F2DE9F04F13
S31500003D308DB00025DFF8388400E06D1CFEF719F918
S31500003D40E9B2814280F0AD80EDB24FEA0519DFF8A5
S31500003D50241418F8092000F0D4F9DFF81C1400F038
S31500003D60CDF94FF0000A01E00AF1010A08EB09005B
S31500003D705FFA8AF1806802799142DED200685FFAC2
S31500003D808AFA142111FB0AF14418002617E0FA7882
S31500003D90012392B204A9042006F086FC2088FFF7CE
S31500003DA0A9F84FF6FF71884208D0DFF8D01301EB6F
S31500003DB0C000DFF8CC13426800F0A3F9761C218915
S31500003DC0B0B28842D0D26068B6B20C2171434718AF
S31500003DD0FFF73DFE3879DFF8AC13400638880090CF
S31500003DE04CBFDFF8A433DFF8A4332288042002F0A6
S31500003DF051FA39462046FEF7CBF9834628B9DFF853
S31500003E009013042002F046FA04E05A465BA104200F
S31500003E1002F040FA3879810748BFDFF8781305D4F5
S31500003E20C1064CBFDFF87013DFF87013C00754BF2C
S31500003E3053A054A001910090FB78BA78DFF8601384
S31500003E40042002F027FA3879CDF800B040064CBFBE
S31500003E5080234023002003902120029004A8019093
S31500003E603A88218818F8090000F05BF9862804D101
S31500003E70DFF8301300F042F9A0E7B878FEF791F8C2
S31500003E8020B104A807F024F8421C81E7B878FEF7B1
S31500003E9090F800283FF47BAF04A807F01EF8821CB8
S31500003EA076E70DB0BDE8F08F2DE9F0438FB081467F
S31500003EB0179C052C884617461E4651DB169DDFF8D3
S31500003EC0E81202950196009743464A4600F05CF8D0
S31500003ED004A80390009521200290334605A801907E
S31500003EE03A464146484600F01CF905003BD19DF88C
S31500003EF01000412818BF422804D105A806F0E8FFA3
S31500003F00451C0BE0432818BF442804D105A806F039
S31500003F10E4FF851C02E00AF035FC0546EDB2281DDB
S31500003F2084421DDB384606F051FF002006F03FFFB5
S31500003F309DF810009D4C06F03AFF2088291852295A
S31500003F4008DA9B4B2A4605A91844FFF76EFB208822
S31500003F502818208000953B464246964900F014F802
S31500003F600FB0BDE8F083384606F030FF284606F06D
S31500003F701EFF00953B4642468F49EFE72532780003
S31500003F80524F000052570000042002F07DB92DE97F
S31500003F90F04F89B081460020049000900E46129C96
S31500003FA0174698468DF81490ADF816608DF818806F
S31500003FB0ADF81A70ADF81C400023002204A905A82C
S31500003FC0FEF72BF904987D4A38B9019700964B46BF
S31500003FD07B49FFF7D9FF86208DE0159898B904999B
S31500003FE09DF850008978884204D0764900F089F817
S31500003FF08D2080E004980079C00704D4724900F04F
S3150000400080F8882077E004980079139D400726D52C
S3150000401004988068406802900498806880680190DF
S3150000402004988078FFF7C2FA82460498C0788DF823
S31500004030000003285346024629462ADA02A8FFF75B
S315000040401BFA83469DF800205346294601A8FFF730
S3150000405013FABBF1010F18BF10F1010F28D0169803
S31500004060002844D100F050F8FEF765FE010042D169
S3150000407000F04AF8FEF70CF801003CD10120009050
S3150000408000232A46002105A8FEF7C7F8010011D033
S3150000409031E00298FFF7F0F9012809D09DF80020D9
S315000040A0019853462946FFF7E7F910F1010FD6D1DB
S315000040B0872020E0049B324649462846FEF78BFBC4
S315000040C00295009443469DF8500001903A463146C9
S315000040D0484604F048F900F017F8FEF72BFE009466
S315000040E043463A4631464846FDF7AEFF02E03749B9
S315000040F000F004F8002009B0BDE8F08F042002F0BB
S31500004100C3B8042002F0C0B8039543460498C078AB
S31500004110029000943A469DF8500001903146484678
S31500004120704710B586B000248DF808008DF80C3065
S31500004130ADF80E20ADF80A100194009401A9089874
S315000041400A9B099AADF8100002A8FEF766F804006B
S3150000415005D10B9840B101998978017004E0892C4A
S3150000416002D11B49FFF7CAFF204606B010BD00006A
S31500004170D8E6032014ED020020ED02008C8A03002D
S315000041800CED020060ED020074ED02007CED020011
S3150000419084ED0200A4ED0200ACED0200B4ED0200D5
S315000041A08CED0200BCED0200C8ED02002CFC0320E1
S315000041B0ACF0032020EE0200FCED020074EE0200DB
S315000041C04CEE020080EE020094EE0200A8EE020021
S315000041D0C8EE0200012100F01F029140DFF8DC2446
S315000041E0400942F82010704770B50546FEF7A2FB5D
S315000041F0002600242821DFF8C82401FB06F3134417
S315000042009B7F13B1761C042EF7DB042E08BFDFF864
S31500004210B44408D02DB17143114401238B772E602D
S3150000422001E0DFF8A444FEF78BFB204670BD10B515
S31500004230DFF89804017809B1002010BD0121017052
S31500004240DFF88C04DFF88C44FCF796FB0321DFF8DB
S315000042508804FCF7FFFC032020710121DFF87C04B1
S31500004260FCF78AFB20460AF0B4FADFF87414DFF88C
S31500004270744401200AF096FAE069C00AC002E061BF
S3150000428040F2FF70A061002020601E20FFF7A2FF11
S31500004290DFF854144FF080400860A021E06940F038
S315000042A00100E061DFF818040AF0B4FADFF83C1404
S315000042B000200870DFF838140870DFF8381408603A
S315000042C0DFF834140860DFF83414086010BD2DE9F7
S315000042D0FE4F0546042D8B46144699464FF00008BE
S315000042E028BFDFF820040ED2FEF724FB0290282117
S315000042F0DFF8CC0369434618B07F28B90298FEF769
S315000043001FFBDFF8040488E00C9F34B9B9F1000FF5
S3150000431002D039462846C8477BE0610CE003DFF847
S31500004320C453D5F800A0C6F8189000F078F8C6E98E
S315000043300201BBF1010F0ED14FF47A726243CDE94F
S3150000434000280246F420A0FB0249DDE90001001B1B
S3150000435030617A207061D6E90201401C61F1FF31BB
S31500004360C6E900010120307786F81FB03762DFF812
S315000043707C03007800284CD1DFF87873386810F198
S31500004380010F02D03868401C3860DFF86443DFF85C
S315000043907C932078A8B9C9F800A00420A8616FF022
S315000043A06402D6E90001414501D8904200D3104687
S315000043B05044E864E86940F00400E8610120207098
S315000043C022E0386801281FD186F81C8000F0D7F853
S315000043D0AAEB000000F0DAF800F02CF9B8F1000FB3
S315000043E004BF01203077504600F034F9D5F800A01C
S315000043F0E86C217808F1010831B1D9F80010401AAB
S31500004400AAEB01018842E1D3386810B13868401E32
S3150000441038600298FEF794FA0020BDE8FE8F10F58A
S315000044207A6041F100014FF4FA5200230AF0F6B91E
S315000044302822DFF88C12624311448A7F70472DE9E7
S31500004440F0410446042C0E4628BFDFF8B8023AD2E3
S315000044500EB99D4837E0FEF76DFAFFF7E9FF22B97E
S31500004460FEF76EFADFF8A0022DE00A7F22B9FEF70A
S3150000447067FADFF89C0226E0D1E9004899490F68FF
S31500004480A2490D68FEF75CFA781B0021884504D81E
S31500004490844238BF4FF4804010D3221A68EB0103E0
S315000044A0DB0043EA5273D2004FF47A74A4FB020194
S315000044B004FB031110F5804041F10001C00B40EAF6
S315000044C0414030600020BDE8F08170B58A4E00237F
S315000044D034688448026830688442F9D1981844EBFD
S315000044E0030170BD30B54FF4FA5200F004F8C00B6A
S315000044F040EA414030BDA2FB004502FB015514F5E0
S31500004500804045F1000170472DE9F047FEF712FAA9
S31500004510744D8246E869296900EA010626F005001D
S31500004520A86170071ED5714FDFF8C481DFF8DC91F2
S31500004530012038702C6800F022F8201A00F026F8C6
S3150000454000F078F8204600F085F82C68E86C98F8BA
S31500004550001029B1D9F80010401A611A8842EAD32E
S3150000456000203870F00705D50120A861624801686F
S31500004570491C01605046BDE8F047FEF7E1B9E8691D
S3150000458020F00400E861D9F8000070472DE9F043F7
S315000045900026044600252821494871434718387FDC
S315000045A07D77002841D0D7E900018D4207D828BF82
S315000045B0844204D2001BA941C7E9000135E0F87F17
S315000045C008B938772DE0D7E90001D7E90223201A88
S315000045D0D7E9028965EB01010AF020F9B8EB020080
S315000045E069EB0301C7E9000138693969012878696F
S315000045F009DB0818F428786113D3D7E90001401CB9
S3150000460061F1FF3108E0401AF428786109D3D7E94F
S315000046100001401E61F10001C7E900017869F43824
S315000046207861B86908B101207877761C042EB2DB70
S31500004630BDE8F08310B500242821214861434218C3
S31500004640507F18B1116A926920469047641C042C69
S31500004650F2DB10BDF0B54FF0FF3213460021184CC7
S3150000466028254D436619367F46B12544D5E90067AE
S315000046709F4203D82EBF964232463B46491C042928
S31500004680EEDB00214FF0FF34A34208BFA24212D056
S315000046908B426FF0640401D8A24200D322461B4924
S315000046A0174B0860042119601018586301215868D7
S315000046B040F0040058600E480170F0BD80E200E052
S315000046C020E50320011000F0041000F0A8FC0320F0
S315000046D0002508002CE103200500200080091200B7
S315000046E038E103200820044000E100E0A6FC032096
S315000046F0A7FC032040F2032044F2032048F20320E3
S3150000470020200440021000F0031000F03CF20320C9
S31500004710051000F0012100F01F029140514A4009A6
S3150000472042F82010704730B54F48504D0FC887B03B
S3150000473003AC84E80F0068460021002200230EC067
S3150000474002208DF80600012149484A4CFCF714F96D
S315000047504FF6FF70E0616A46002120460AF03AF9FA
S3150000476000208DF80E0003A920460AF0E7F842481B
S31500004770FCF732F99DF80E1001228A40491C8DF88B
S315000047800E10B0FBF2F0C9B20B29286002D23B49E9
S315000047908842E8D23A48FCF71FF93A492A68B1FB41
S315000047A0F0F339480021E3FB0201384A00230AF0FE
S315000047B035F837490860002036490870A06920F0AE
S315000047C01000A0610B20FFF7A5FF33494FF40060EE
S315000047D0086007B0002030BD38B500F01BF804466D
S315000047E00D4605E04FF6E85000F02AF800F00CF808
S315000047F000218D424FF6E950F4D88442F2D2A0B29D
S3150000480000F01EF8002032BD24484FF0FF31241876
S315000048104D41704715491C4A09680023E0FB0123F6
S3150000482010461946194A002309F0F8BF1C480168CA
S31500004830C90604D510218160012016490870704709
S31500004840010081B00BD017490A6892B20B68ADF827
S315000048500030BDF800309B1A9BB28342F6D301B0FC
S315000048607047000080E200E00489030068F403203A
S3150000487000020400008001404041050081841E00C2
S315000048805000020000B0710B20A1070040420F004B
S315000048906CF40320B8FC032000E100E01802FFFFDF
S315000048A00C800140248001403E480168090C09043F
S315000048B081603B48016070473B4A410952F821201C
S315000048C000F01F00C240D20706D5384A52F8211020
S315000048D0C14001F001007047002070470000000051
S315000048E070B50646072808BF032602D0082808BF69
S315000048F00226FFF7BAF830B1012E04D1A520FFF742
S31500004900A9F8012400E000240AF0BAF8002080F398
S3150000491011880AF0AAFA214D761E0020042E28607E
S3150000492016D8DFE806F0030A0A0E120020480168CE
S3150000493021F00401016030BF0EE00120FCF770FD9C
S315000049400AE00120FCF779FD06E0FCF7A2FD03E092
S31500004950AF211848FEF76CF81248C1680068084095
S3150000496086B22E600A20FFF7A7FF18B91220FFF7BC
S31500004970A3FF10B146F4803028601E20FFF79CFF8D
S3150000498018B1286840F4003028600CB1FFF746F8EB
S315000049900AF084FABDE870400AF0CABCE0F30320CE
S315000049A0E4F303201CA4004000E200E000E100E084
S315000049B010ED00E06C83030092E7000010B54C0098
S315000049C0014600F05EFD22460AF0CDFCA04201D071
S315000049D0002010BD012010BD80B500F052FD0AF088
S315000049E01CFD00B10120C0B202BDDFF8A00A407D67
S315000049F000B101207047DFF8942A117B01B9704796
S31500004A0080B50146106A0AF05EFD20B1BDE804409B
S31500004A1040F24F1100E301BD10B5DFF8704A627D28
S31500004A20010018BF012102B101229142607519D01F
S31500004A3068B16FF07F00FFF7DEFF0AF0BBFDC0052F
S31500004A4010D5206ABDE8104001210AF0ADBEDFF89E
S31500004A50784A94F90C0000F014FE207ABDE8104064
S31500004A6000F034BD10BDDFF8241A497D01F0FE01C7
S31500004A700843D1E780B500F004FD0AF06DFC00F0B4
S31500004A800300032801D1012002BD002002BD80B52C
S31500004A90B0F5004F07D100F021FEDFF8980A00F0CC
S31500004AA0D9FCBDF80000DFF8201AC883002002BD3B
S31500004AB02DE9F04F440900F01F050027DFF89C8A16
S31500004AC000E07F1C98F80660F8B2B04245D2D8F8EC
S31500004AD00800FFB250F827004FF0000C01E00CF17F
S31500004AE0010CC67E5FFA8CFEB645EAD2D0F81CE011
S31500004AF05FFA8CFC182616FB0CF6B6449EF8086086
S31500004B0006F00706A642EAD19EF80960B542E6DB42
S31500004B109EF801B09EF8009006EB0B0AAAEB090A74
S31500004B20AA45DCDBDFF8704A247854B1DFF85C492B
S31500004B30A47B34B9DEF80C401CB12468EC40E407D1
S31500004B400BD511B1AC1B4C440C7012B19EF8081079
S31500004B5011701BB1C3F800E000E00020BDE8F08F43
S31500004B60400918BF40F01800704710B5DFF81C491F
S31500004B70206A0AF052FC0246206ABDE81040002175
S31500004B800AF067BC0B38102834BFDFF8D40ADFF808
S31500004B90480B006870473EB5684600210022002396
S31500004BA00EC0DFF8240901788DF80010817A0A001A
S31500004BB018BF022914D10079DFF8D05800F0BBF8ED
S31500004BC0044600F00EF858B1286A012200210AF0C6
S31500004BD0C5FB00F006F818B140F2792100F068FB39
S31500004BE037BD286A6A4621460AF0E0BB2DE9F04146
S31500004BF0044604F01F001B2886B034D20020009023
S31500004C006B46002200212046FFF752FF07002AD0FC
S31500004C102046FFF7B7FF5FEA000824D0DFF86C688C
S31500004C20DFF8445AF06B804515D001A841460622AC
S31500004C300AF0C0FD306AC6F83C8001A90AF0A5FC5E
S31500004C4088B9306A03A90AF0AEFCB5F91C10306ABF
S31500004C500AF076FC38B90098B062776200980028AE
S31500004C6018BF006901E08A200EE0F06229798C42C3
S31500004C701CBF2C71FFF78FFF96F90D00C101306A3A
S31500004C8009B20AF087FF002006B0BDE8F081DFF820
S31500004C90D80900797047DFF8D009B0F91C00002860
S31500004CA054BF05216FF0040108180A2190FBF1F0AA
S31500004CB040B270470A2110FB01F0FFE7F8B500F596
S31500004CC0D77240F277239A4201D38B20F2BDDFF8E8
S31500004CD0BC47DFF89459A26A0A23002A1EBFAE7F9A
S31500004CE006F0C006802E12D0A67B86B992F9026025
S31500004CF016FB03F7B842B8BF16FB03F007DB92F9C1
S31500004D00032012FB03F68642B8BF12FB03F0217B99
S31500004D1061B10146206A0AF013FC18B14FF43671EE
S31500004D2000F0C6FA206A0AF01EFC01E010FB03F050
S31500004D30A8830020F2BD38B50446FFF723FF90B1E3
S31500004D400023002200212046FFF7B2FE58B104F0EE
S31500004D501F051B2D07D22046FFF702FF18B90B2DA2
S31500004D6001DB284632BDFF2032BD0FF208014008A4
S31500004D70085C7047F0A050007047C0B2704710F151
S31500004D80590F01DA0020704710F1240F01DBFF20D4
S31500004D9070475A300002362190FBF1F0C0B27047DE
S31500004DA070B5DFF8E846DFF8A05A0020206468787E
S31500004DB028B10AF0F3FE012818BF032801D100200C
S31500004DC070BDE16ADFF8843ADFF89C2800291FBF2E
S31500004DD0A66A7669002E022817D12364906900F529
S31500004DE0FA709061E07C18B100200021642203E093
S31500004DF0E87829794FF4A0722070A2806170A878B3
S31500004E00A0708020E080002030E0DFF8445A9069EE
S31500004E10AE4213D1DFF83C3A236400F57A70906114
S31500004E20E07C88B90879207001228B7808799A404D
S31500004E30101891F903201018401E0CE0236400F5A9
S31500004E40FA709061E07C18B100202080642005E0B3
S31500004E50487820708878607008780001A0804879CA
S31500004E60A07008890001E080C8880001A06000F0F9
S31500004E703BFCE07094F90200010048BF4042C0B21A
S31500004E8070BD70B50446DFF80466257896F91400FF
S31500004E9008B18C2070BDFFF783FFB075DFF8A82935
S31500004EA0DFF8C40741780174690101F580718161F9
S31500004EB09379716C002BB37B1DBFAD1EEDB221F053
S31500004EC0020141F0020173B9127862B1627892066A
S31500004ED009D56FF00102327541F00101826902F5D0
S31500004EE00872826104E049084FF0FF3049003075CE
S31500004EF07164032000F006F96A1C306A4FF480736F
S31500004F0092B221460AF073FE691C884203DA40F227
S31500004F10294100F0CDF9002070BD0000F8B5DFF89A
S31500004F206C5595F914100024091D04290FD8DFE8E3
S31500004F3001F0080E10100300FFF7A3FF040008D0CD
S31500004F40F2BD2C75286A0AF00DFA8D20F2BD8C2070
S31500004F50F2BD0AF0C6FBE8B1286CDFF8F01888420B
S31500004F6018D1A87DB0B1DFF8E80A0068002811D58D
S31500004F70DFF8E00AC168C1600122006800F00F0096
S31500004F8002FA00F0401E014204D100F0E5FB642065
S31500004F900AF058FEFDF7CEFC064695F9140010F10E
S31500004FA0010F1CBF95F9140010F1020F29D195F9D4
S31500004FB01400DFF8B47640422875FDF7C5FC786228
S31500004FC0296C387949B9FFF7B6FE01466A6C286A3A
S31500004FD007F110030AF0D9F90BE0FFF7ACFE07F171
S31500004FE01001009101466A6C286AD5F840C02B462C
S31500004FF0E04760B1002028758C244FF0FF307862BE
S3150000500002E0002028758D24286A0AF0ABF93046A4
S31500005010FDF796FC2046F2BDDFF8800AFDF708BDD5
S315000050202046BDE81040FDF78BBCDFF83C06C08B80
S3150000503070470000F8B5FDF77DFCDFF88C54044698
S31500005040A87A012803D12046FDF77AFCF1BDDFF8E6
S31500005050501ADFF83864DFF8447A402008600122ED
S31500005060306A01210AF07AF9DFF8381A4FF4001095
S31500005070086069460FF2880000680090306A0AF0FE
S315000050807DFD20B140F2D7413846FDF7D1FC022024
S315000050908DF800006946306A0AF04DFD20B140F2F5
S315000050A0D9413846FDF7C4FC306A0AF06CF9002194
S315000050B000200AF0B2FA00F03FFB0120A87296F930
S315000050C01400001D072810D8DFE800F0140F0707AA
S315000050D0040B0B0B0AF086FF0CE06FF00300307533
S315000050E008E0892000F06EFB04E040F2FB41384600
S315000050F0FDF79EFC2046FDF723FC0BF027F8F1BDDB
S31500005100040100002DE9F04DDFF8BC530446A87AEF
S31500005110A04282B063D00FF2CC01DFF88C69096837
S31500005120DFF87889DFF86473DFF878A9009103283F
S315000051304FF4001B4FD8DFE800F047023E2B0BF080
S315000051400EF8386A69460AF019FD18B14FF4A361E2
S3150000515000F04AF802208DF800006946386A0AF025
S31500005160EAFC18B140F21A5100F03EF868790028BE
S3150000517014BF00220222386A02210BF041F818B14E
S3150000518040F21F5100F030F80320032CA87218D00B
S31500005190CAF800B00220A8722879FFF7CCFD0146B4
S315000051A0386A00220AF002F918B140F22F5100F0D5
S315000051B01BF8022C13D0002C18BF032C0FD1002093
S315000051C0A872C6F800B00AE0022C08D1CAF800B0EE
S315000051D00220A87203E040F2455100F005F8BDE850
S315000051E0F38D0000040200004046FDF721BC0020BC
S315000051F088E7DFF8BC0A807A70470000032805D8E4
S31500005200DFE800F00302030314E77BE740F2635193
S3150000521002E780B500F00EF804D500210175006A9A
S315000052200AF0A0F8A848407A012802D1BDE801405A
S3150000523000E701BDDFF87C0A90F9141000297047D9
S31500005240DFF86C0A407A704780B5032801DB01203D
S3150000525002BD9D494872897A884218BFFFF7CEFF82
S31500005260002002BD2DE97C4FDFF8486A03EA010BF6
S31500005270D6E9068929EA010528EA000402EA000AB5
S3150000528045EA0B0544EA0A044D4508BF44450DD0DE
S31500005290CDE900230246306A0B460AF071FC18B1CC
S315000052A040F28B5100F004F8C6E90645BDE8738F5D
S315000052B00FF63020FDF7BCBB38B5744D0446287B8D
S315000052C0E8B1200018BFDFF8F02904D1A87C08B1A6
S315000052D0402200E000220023DFF8DC090021FFF76E
S315000052E0C1FF002C14BF08220022286A08210AF0F8
S315000052F087FF20B1BDE8344040F2C7518CE631BD8E
S31500005300F8B50446022C0FF6DC1503DB4FF4BE613C
S3150000531000F0A5F85D4E307B002840F097806A4F7C
S31500005320B87A012803D040F2F65100F098F800212F
S3150000533007F1300009F0FEFF306218B940F2F9516A
S3150000534000F08DF8306A05210AF0B1FA18B140F282
S31500005350FB5100F084F8306A0FF69C110AF062FFE8
S3150000536018B140F2FC5100F07AF8306A0AF08EFF6C
S3150000537018B140F2FD5100F072F84FF0FF30DFF83F
S315000053803C2906230146FFF76DFF306A4FF00111F5
S315000053900AF071F818B140F2126100F060F8306A54
S315000053A04FF4803200210AF054F8306A09224FF097
S315000053B0FF310AF025FF18B140F2196100F04FF8ED
S315000053C0012030730223DFF8F80800F043F8BDF837
S315000053D00000C0054CBF0020BDF8000070730AF045
S315000053E080F9FFF769FFF88BFFF751FB0AF0CEFF54
S315000053F000F08CF83879FFF7F9FB18B140F22C6110
S3150000540000F02DF8F87900F043F8387A00F05EF8ED
S31500005410307C00F091F8787900F0D4F800F064F967
S3150000542000F02FF9B07C00F025FBB7F91C00FFF760
S3150000543045FC388C00F094F8788C00F0AFF8B87919
S3150000544000F014F9601E8041C00FB8722046FFF7C5
S31500005450D5FEF1BD01887F22684609F015B92846B8
S31500005460FDF7E6BA80B500F00CF8012109F0A1FFBE
S3150000547010F5007F02D16FF07F0002BD8005001697
S3150000548002BDDFF83008006A70470000C0E503205F
S3150000549010B50446DFF81C08017B51B1611E894135
S315000054A0006AC90F0AF044FF18B140F26761FFF7BE
S315000054B0FFFE2000DFF8F81718BF0120C87110BDE5
S315000054C0DFF8EC07C0797047E0E10320F8B5044641
S315000054D0FDF730FA05466448DFF8D8670472377B73
S315000054E0FFF783FA00F0010080F00100074204D0C4
S315000054F0306A84F001010AF057F92846BDE8F24007
S31500005500FDF71EBADFF8A807007A7047DFF8A40790
S31500005510017B01B9704780B5006ADFF8A817002241
S315000055200AF0F3FE20B1BDE8044040F2926173E553
S3150000553001BD0000D2930300DFF87827117B1074B9
S3150000554001B9704780B50146106A0AF0E5FE20B140
S31500005550BDE8044040F29D615EE501BD189103007F
S315000055604149DFF850370884197B01B9704780B587
S315000055700146186A00220AF0C1FE20B1BDE80440C7
S3150000558040F2AE6148E501BDDFF82407008C7047A4
S31500005590DFF81C07408C7047ECE303203249DFF844
S315000055A014374884197B01B9704780B50146186ADB
S315000055B000220AF09CFE20B1BDE8044040F2C4611E
S315000055C02AE501BD28494A79824200D1704710B5C3
S315000055D08C7A4871012C05D0FFF72CFD2046BDE8DA
S315000055E010408FE510BD10B500F032F800F02BF832
S315000055F00146206A012209F0D1FE20B1BDE8104023
S3150000560040F2E66108E510BD80B5FFF73AFF09F004
S31500005610C8FE18B140F2EB61FFF74AFEBDE8014053
S31500005620FFF7B9BA10B500F013F800F00CF8014610
S31500005630206A002209F0B2FE20B1BDE8104040F217
