S03000005A334F63637570616E637953656E736F72536F635F65667233326D67317032333266323536676D34382E733337A3
S31500004000285B0020F1FE02009D0F01003DE002004A
S31500004010A70A0A010042000004180FAC0061540010
S31500004020000000000000000000000000000000008A
S3150000403000000000B42203000000000000000000A1
S315000040400000000000000000FFFFFFFFFFFFFFFF72
S31500004050FFFFFFFF00E0030010160118000000003C
S31500004060FFFFFFFFFFFFFFFF100000000000000042
S31500004070000000000000000000000000000000003A
S315000040800000000000000000D97E0020D97E00203C
S31500004090285B0020B0CE0300AA010300C85100200F
S311000040A0C4100020000004000000000016
S31500004200285B0020F1FE02009D0F01003DE0020048
S3150000421045E0020041E0020049E002002DE1020013
S315000042202DE102002DE102002DE102002DE1020048
S315000042304DE002002DE102002DE102004560000084
S31500004240854E02000DA602004970000021A2020060
S3150000425051A6020013A6020015A602000FA6020030
S31500004260B99802003F5502005D7E0000E32401007C
S315000042702DE102002DE10200174500002DE10200AC
S315000042802DE102005D5502002DE102002DE1020044
S315000042902DE102002DE102002DE102002DE10200D8
S315000042A02DE102002DE102002DE1020053A60200DD
S315000042B011A60200397B000087A602002DE102004C
S315000042C0390103002DE102002DE102002DE102007B
S315000042D02DE102002DE102002DE102002DE1020098
S315000042E07149724A01E021B1491E1369DB07FAD40C
S315000042F001B9BAE0506001201060106910F0060F95
S3150000430005D0410700D5B3E0800700D5B3E0002013
S315000043107047F0B513460022002936D0624C634D33
S315000043208BB98B4231D250F8046BEE605B1C0826C9
S315000043302E60264601E036B3761E2F69FF07FAD4B3
S31500004340002EEED11FE0EFF3108672B600230EE0CA
S315000043502F6907F01907102F08BF2F602F693F0735
S31500004360F6D550F8047BEF605B1C10272F608B425C
S31500004370F4D306B962B6264601E026B1761E286950
S31500004380C007FAD40EB96FF002021046F0BD2DE94F
S31500004390F84F474F0D4639680446002041F00101A9
S315000043A09B4639604FEA92088146AA4602E0B1442C
S315000043B00AEB860AC14517D204EB89063046FFF799
S315000043C08FFF010022D1C6F30A00C0F500608608FF
S315000043D0A8EB0900B04238BF06465A463146504659
S315000043E0FFF797FF0100E2D021682A68914209D0C1
S315000043F02046FFF775FF010004D15A4601212846E1
S31500004400FFF787FF3968490849003960BDE8F28F30
S315000044102749254A0B6843F001030B608860012099
S3150000442048604869400704D50868400840000860AD
S315000044301EE04869800704D5086840084000086007
S3150000444019E00220486001E022B1521E4869C00707
S31500004450FAD422B9086840084000086005E00868F8
S31500004460400840000860002070476FF00200704767
S315000044704FF0FF3070476FF001007047002386E76A
S315000044800B48016841F00101016046F21A31C1642E
S315000044904FF4807141604169C907FCD40021C164B1
S315000044A00020704700000000809698000C000E4027
S315000044B008000E40072802D23549085C7047FF20E5
S315000044C07047072802D23349085C7047FF207047BF
S315000044D038B50446304800EB8105A8780009FFF797
S315000044E0E9FF2071A87800F00F00FFF7EAFF60717E
S315000044F0FF2814BF01200020E8702146E878A0714B
S31500004500287860706878254DA070284600F0DFF89E
S315000045100120A86031BD10B5214984B01CC9684688
S315000045201CC02048204A0178D36814682340DB0762
S315000045302DD503292BD2184C12691C4B04EB810490
S31500004540E4781CB114B2002C48BF002223F81120D5
S315000045500123174A147803FA01F121431170154A11
S31500004560117891B100211478CC40E40708D5017088
S315000045708B401078584010706846FFF7A9FF1FBDA2
S31500004580491CC9B20329EED31FBD032101701FBD0B
S31500004590F4100300FC1003002C66002000200040ED
S315000045A0E8100300507E00203820004038660020C6
S315000045B0517E0020437D0020890001EB401000F170
S315000045C084400260704700F1806300F1C0601960AA
S315000045D00260704730B5002A446BDFF8D8511ABF25
S315000045E01022DFF8D431DFF8D43123400024A8426A
S315000045F037D1DFF8CC0151B101290CD002291ED0E8
S3150000460003290CD0062915D0812918D023E001688A
S315000046100468006816E001680468006802E0416802
S3150000462044684068090C01F4FE41C4F30344214385
S31500004630000C0CE08168806801F00F0107E041681A
S315000046404468406801F4FE4104F00F04214300F081
S31500004650F00040EA010404FA02F0DFF8681118439A
S31500004660086030BDF8B50D460446EF78514EDFF8C8
S31500004670580127B9002100F081F807460AE03168A1
S31500004680090607D4002100F079F800214FF4FA401A
S3150000469000F074F80A20A060A9782878090401F4CB
S315000046A0FE0141EA0060390201F4FE4108436978DF
S315000046B00843297909B140F010002060C0216A79C9
S315000046C03046FFF780FF4FF400602064F1BD38B537
S315000046D004460D460220A0600022A9782046FFF776
S315000046E079FF287969786B79020242EA016242EA27
S315000046F00342EB7842EAC302EB790BB142F0005277
S315000047002B7A0BB142F00402AB790BB142F00202F4
S315000047106B7A0BB142F00102AB78F32806D1180090
S3150000472004D10429BCBF042060F31B6218064CBFE9
S3150000473042F0E00042EA43102061244960690840E3
S31500004740A9780A0644BF21F080010843297840EA87
S315000047504140E97A09B140F4804060610221AA7AB9
S315000047602046FFF729FF2879F32804F13000BDE839
S3150000477038400CBF0122002210211DE710B5044667
S31500004780084613498C4228BF0F4C04D2B4F5FA4FA1
S3150000479038BF4FF4FA4410B90E4800F0F1F820186B
S315000047A0401EB0FBF4F018B1401E802828BF7F20C1
S315000047B0C0B210BD00200040FFFF00800080FFFF58
S315000047C01082E00F342000400024F400F8BFE1FF1F
S315000047D00124F40040410500890001EB401000F17E
S315000047E0844002607047890001EB401000F184406C
S315000047F0006870470122DFF8981610B5884232BF6C
S315000048000022DFF89016884201D2144600E0022406
S315000048101021DFF88406FFF7DFFFDFF88C07016859
S3150000482021F0807141EA0461016010BD10B5DFF826
S315000048306C16CA6B02B1012241F67133CB63DFF805
S3150000484060460B6803F04073A04238BF002304D3D0
S31500004850DFF85847A04238BF0123086820F04070AF
S3150000486040EA03600860D2B20AB10020C86310BDF6
S3150000487080B500F0CEFBBDE804400021D6E7D5E7C1
S31500004880C01C0F2801D2000770474FF070407047D8
S315000048900000000038B50446002500F02FF9DFF8C7
S315000048A0FC26DFF89016944208D0DFF8F4269442EE
S315000048B006D0DFF8F026944204D006E0086802E04D
S315000048C0486800E0886800F00700401E03281BD8EF
S315000048D0DFE800F002050C0800F0DDFB04E000F064
S315000048E0E0FB01E000F0DAFB05460DE000F084FB9A
S315000048F0DFF8B4160968090E01F001010122491C0E
S3150000490002FA01F1B0FBF1F5284632BDDFF8A01638
S315000049104A68D20702D40A680242FCD170470000F6
S3150000492070B5020A0C4602F00F020021521E092A37
S31500004930DFF8885614D8DFE802F0051413130716BB
S3150000494019131C20DFF85055C0F3043611B1084680
S31500004950FFF7DCFF224631462846BDE870403BE7BC
S3150000496070BD1035F0E730350121EDE738351021FF
S31500004970EAE740354FF48031E6E7DFF84456E3E7EF
S3150000498070B5DFF83016DFF814260E68DFF810165B
S31500004990DFF81446012510F478105DD0B0F5003F1D
S315000049A02AD0B0F5802F21D0B0F5002F54D0B0F525
S315000049B0202F27D0B0F5402F46D0B0F5602F66D017
S315000049C0B0F5901F3BD0B0F5A01F24D0B0F5B01FB6
S315000049D02AD0B0F5D01F1CD0B0F5E01F22D0B0F51C
S315000049E0001F2CD0B0F5381F39D04FE000F013FB74
S315000049F0E168C1F308210AE000F00DFBA168C1F3EC
S31500004A00082104E000F007FB6169C1F30421491C99
S31500004A1012E0104615E01046FFF73CFF216A01F050
S31500004A200F0107E008460CE00846FFF733FFA16ACE
S31500004A3001F0030105FA01F1B0FBF1F627E0DFF81A
S31500004A406405FFF727FF1FE0DFF8780500F056F84A
S31500004A5007281CD0092819D100F0DDFA14E0DFF888
S31500004A60680500F04BF804280CD007280FD008285A
S31500004A700CD100F0D0FA2168C1F30421491C01FBD6
S31500004A8000F604E000F0E2FA064600E000263046B2
S31500004A9070BD0000030903F00F0301225B1E072B04
S31500004AA0DFF8041528D8DFE803F004060A0E101410
S31500004AB01C27086800E04869C0F3042070470868AE
S31500004AC0C0F300607047C86800E08868C0F308203B
S31500004AD07047DFF8F83498420ED1086A00F00F00EC
S31500004AE006E0DFF8EC34984206D1886A00F003004D
S31500004AF002FA00F0401E704700207047014601F0A0
S31500004B000F010120491E0729DFF8CC2449D8DFE828
S31500004B1001F0040F1348202E4836506A00F00700B3
S31500004B2002283AD002D3042804D01CD305207047AB
S31500004B3011690FE002207047516901F00701491E13
S31500004B4003292FD8DFE801F00F020311F2E7062050
S31500004B507047916901F00701012904D00229E9D0C3
S31500004B60042902D07047032070470A207047116855
S31500004B7011F001010FD0012914D109207047DFF887
S31500004B805C14096801F03001102904D0202904D0F2
S31500004B90302904D07047072070470420704708204A
S31500004BA0704700207047000070B500F00F00032426
S31500004BB00325401E0728DFF820640FD8DFE800F041
S31500004BC0042E347C31607C6A0229DFF8C40206D0E8
S31500004BD003291AD004291AD005291DD070BD042432
S31500004BE0002501220121284600F0BAF8FFF740FE11
S31500004BF07460DFF8E003FFF7C3FEFFF7FBFD00F08C
S31500004C00FBF9BDE87040002139E60125E9E70224F9
S31500004C100225FFF7EFFDE4E70124FAE706F11004A9
S31500004C2004E006F1180401E006F11404012908D095
S31500004C30022909D003290ED0062913D00A291DD02E
S31500004C4070BD0020206070BD01220121002000F00F
S31500004C5087F80220F6E701220121012000F080F802
S31500004C600120EFE700F0C8F9FFF7C4FD012200219B
S31500004C70DFF84803FFF7B0FD0320E3E70420E1E790
S31500004C80072902D0092902D070BD002000E00120CA
S31500004C90306070BD012906D0042915D007290CD033
S31500004CA0082918D070BD0020DFF830130A6822F0FA
S31500004CB0300242EA0010086070BD01220121042082
S31500004CC000F04EF80120EFE701220121022000F05A
S31500004CD047F80220E8E70320E6E770B500F03DF864
S31500004CE001220021022000F03BF8217CDFF8F4527B
S31500004CF000200229296808BF0120490840EA41002E
S31500004D002860082122782846FFF766FD6868E17A60
S31500004D10C00841EAC0006860617AA08841EAC02004
S31500004D20A860EE68207AFFF7ABFDE28806F07F61A7
S31500004D3041EAC221A27A1143227A41EAC21108430A
S31500004D40E860A17B607B090141EA0030E17B084312
S31500004D50217B40EA0140286170BD04461120CDE662
S31500004D602DE9F84F04288246904671D8DFE800F016
S31500004D704C473D034200012602200127002400295A
S31500004D80DFF83492974D5ED0BAF1020F02BF286861
S31500004D90C0F3011000284FF0000B0AD12868C007A5
S31500004DA04FF0010B05D5286820F0300040F01000C8
S31500004DB02860EE6300F04EF80028FBD0B8F1000F33
S31500004DC046D0394600F047F80028FAD0BAF1020F6B
S31500004DD03ED1BBF1000F3BD02868C0071BD501228E
S31500004DE02021022000F0C9F819E004260820032734
S31500004DF00224C4E71026202005270424BFE7402606
S31500004E00802007270624BAE74FF480764FF4007017
S31500004E1009270824B3E70021022000F08DF80220BC
S31500004E2000F01CF80446012200210220FFF798FF3B
S31500004E302146022000F036F8EE63394600F00BF802
S31500004E400028FAD004E0E86300F004F80028FBD15B
S31500004E50BDE8F18F21464846FFF7C5BC401E032832
S31500004E605F4912D8DFE800F0020C06080869C0F3B3
S31500004E7008007047086800E0886800F07F00704707
S31500004E8059480068C0F30A007047002070470000C8
S31500004E900148E8010190D00300400E4004000E4096
S31500004EA041787D0170B5401E0D46032805F07F014F
S31500004EB04B4C3F4E3DD8DFE800F0022A101DC5F3EB
S31500004EC008051A213046FFF78EFC0028F9D1206923
S31500004ED0400A45EA4020206170BD0D461821304643
S31500004EE0FFF781FC0028F9D12068C00945EAC01007
S31500004EF0206070BD0D4619213046FFF774FC00286E
S31500004F00F9D1A068C00945EAC010A06070BD2A4862
S31500004F100068606920F0300040F010006061C5F361
S31500004F20C310FFF7ADFC216A304A114029430843FC
S31500004F30206270BD80400E402A480268C2F301120A
S31500004F40002A18BF002907D0202902D0302903D013
S31500004F5005E04FF4000103E04FF4400100E024496E
S31500004F60C26E0A408A42FBD1490204D5C06F800A4C
S31500004F7000F0010070470120704710B502280AD1E1
S31500004F800B0004D01B4B4FF480645C64196012B1B3
S31500004F90BDE81040D0E7012010BD000002001A0055
S31500004FA003001C000500200000410E40015A620269
S31500004FB040410E403C5F002090400E40B0400E4005
S31500004FC050410E4006000C0098002E0060061400AA
S31500004FD0700716000005080070400E405C410E4048
S31500004FE010400E4024400E409C400E4000F8FF0F3B
S31500004FF0FF03E10764400E4080B500F00CF82A4933
S315000050002A4A0968C1F30821491CB0FBF1F0106077
S3150000501002BD274870472748016801F007010229A9
S3150000502009D00AD3042901D002D306E0224905E0BB
S315000050304FF4004103E0214900E021490968C06EB0
S31500005040C0F30420401CB1FBF0F070471B48006819
S3150000505070471A4908601748006800F007000228E0
S3150000506008BFFFF7C9BF70471648016841F47001D1
S3150000507001601548416941F40051416101688908A0
S3150000508089000160416B490849004163016A21F0CA
S315000050908051016270474FF4004070474FF47A70B8
S315000050A0704705480068704708410E405861002067
S315000050B000F0490294400E405461002050610020E7
S315000050C05C61002088ED00E040300E4038B50446B3
S315000050D00D46104600F0D9F800202070A847BDE81C
S315000050E0314000F0E0B800224D494E48EEE700227C
S315000050F04D494E48EAE770B5044616460D46304619
S3150000510000F0C8F8002020703046A847BDE870407F
S3150000511000F0C9B8012246494648ECE70122464953
S315000051204648E8E7012246494648E4E7012246495F
S315000051304648E0E780B5012000F0E5F9444800F074
S315000051407AF94449087001BD80B500F0EDF90128EF
S3150000515005D040480078BDE8024000F054B901BDD2
S3150000516030B5002400E0641C3B4D2D88E3B2AB4211
S315000051700FD2E4B20C25394B15FB04F52B441D78F0
S31500005180854201BF5D888D421D799542EBD1184657
S3150000519030BD002030BD80B519B900F0B3F800204D
S315000051A002BDB1F1004F02D200F0B6F8F7E70220D7
S315000051B002BDB1F5000F3CBF0902FFF7ECBF0220AC
S315000051C0704770B504461D46FFF7CAFF06000ED0AD
S315000051D0204600F0ADFC50B1B0682946FFF7DBFF72
S315000051E028B9049870710598B071002070BD02202E
S315000051F070BD1CB500931346049C0194012205E082
S315000052001CB500931346049C01940022FFF7D9FFB6
S3150000521016BD80B500230093FFF7F2FF02BD000024
S315000052204D5701005866002031F9000060660020E5
S315000052306B7101004066002037EB010048660020D4
S31500005240B5FA0000506600200FFB000068660020DB
S3150000525054170300527E002094630020FC5C00205B
S3150000526080B5FFF77DFF20B1806800210170002026
S3150000527002BD022002BD0122F2E70022F0E7000093
S315000052800C490D4808600020704700B17020704737
S315000052900020704780B500F013F8FF2801D1A32045
S315000052A002BD002002BD00207047704700BF0348C2
S315000052B000787047BC72002050C70300C06600200B
S315000052C080B500F072FCFF2818BF002002BD002147
S315000052D001707047007800B101207047FFF75BBF8F
S315000052E0FFF767BF38B54478456800F03BFE00F02D
S315000052F09CF85B1BB3F1004F98BF5550BDE8324098
S3150000530000F036BE10B500F07BF860600420207017
S315000053102046BDE81040E5E738B504460D4600F0E6
S315000053203CFE28186060012020702046BDE832400F
S31500005330D8E710B50446207801000CD0042806D022
S3150000534000F02BFE6168421AB2F1004F01D800202E
S3150000535010BD081A10BD4FF0FF3010BD70B500F03B
S315000053604FF8054600F0FEFD064660686FF0004106
S3150000537000F02CF8401920603046BDE8704000F07F
S31500005380F7BDF8B504460D46164600F006FE0021A8
S3150000539056B1FF22327007E0121AAA4202D215460F
S315000053A006B13170491C083422680AB92846F2BD94
S315000053B013781F00F6D0042B04D05268831AB3F179
S315000053C0004FE9D806B131700020F2BD0022D8E7BF
S315000053D038B500F015F805460EE001780A000AD047
S315000053E0042904D04168691AB1F1004F03D8042199
S315000053F0017061688847083420680028EDD131BD06
S31500005400044600F0CABD10B5FFF7FAFF00F00DF82C
S31500005410C01AB0F1004F07D854186068FFF7D8FFDC
S315000054202046BDE8104099E710BD0C2111FB04F1A0
S31500005430364A5358704770B5354E36490978044692
S315000054407078884204D3E5210FF2CC0000F008FE04
S315000054507578681C70700C212C4811FB05F1084406
S3150000546001214460017200E04D7054F8081B0029C8
S31500005470FAD1FFF773FF284670BDF8B54FF0FF313C
S315000054800C2400916043214D214E284400210172D5
S31500005490307820B300F0DAFE28B94FF48F710FF29E
S315000054A0780000F0DDFD00F078FD002105E0009BAE
S315000054B09A4288BF1A460092491C7378CAB29A4229
S315000054C011D2C9B214FB01F3EA58871AB7F1004F9B
S315000054D005D92B44121A1B7A0BB9002AE7D100F022
S315000054E0C2FE0020F2BD684600F0D7FE10B968463D
S315000054F000F06FFD0120F2BD0C23044A584310440E
S315000055000121017270470249087070475C6F0020E4
S31500005510417D002090C703006576656E742D636F2C
S315000055206E74726F6C2E63000248007870470149F2
S3150000553008707047627E0020DFF8EC09DFF8EC198E
S31500005540007882B08DF80300DFF8E4090088ADF832
S315000055500600DFF8E0090088ADF8040000208DF8A9
S315000055600200ADF80000012008709DF80310DFF876
S31500005570C8099DF801200170BDF806104180BDF8EC
S31500005580041081809DF802108171DFF8B01901EBDB
S31500005590C20181609DF80010017302B001214173C0
S315000055A07047DFF8880900787047DFF88C1901EB3F
S315000055B00010407B00F001007047412818BF4228C8
S315000055C003D0432818BF442801D10120704700208A
S315000055D07047412818BF422801D10120704700209A
S315000055E07047432818BF442801D101207047002086
S315000055F07047F8B51546069A04461E4600F03BFA73
S3150000560060B1042100F02FFC070007D02046FFF709
S3150000561041FE324629462046B84790E0F1BD2DE9C5
S31500005620F04383B00446160098461EBF0A9F002F1B
S315000056305FEA08000D461DD038787188000730797A
S315000056404CBF4022802200F016FA98B1082100F0E3
S315000056500AFC814670B13079FFF71CFE0B98019069
S3150000566000974346324629462046C847BDE8F743D9
S31500005670FFF719BEBDE8F783F8B5164605461A4684
S3150000568000F0F9F9D8B1069C21000BD1022100F0F7
S31500005690EAFB040013D02846FFF7FCFD31462846F6
S315000056A0A0470BE0102100F0DEFB070007D02846DC
S315000056B0FFF7F0FD224631462846B8473FE0F1BDE8
S315000056C0F8B5154604461A4600F0D5F908B98620FD
S315000056D0F2BD0699002689B9202100F0C4FB070017
S315000056E00CD02046FFF7D6FD0998089B079A009034
S315000056F029462046B8470646FFF7D5FD3046F2BD97
S31500005700F8B50446A5682078FFF7C4FD002612E028
S315000057102868F6B2142111FB06F14718207839885B
S3150000572000F0C6FD0121384600F09DFB01001CBFBC
S3150000573020788847761C2979F0B28842E8D3BDE8FC
S31500005740F140FFF7B0BD70B50024DFF8EC57DFF885
S31500005750DC6708E0FFF729FF20B1E4B205EB04108F
S31500005760FFF7CEFF641C3178E0B28842F2D370BDF9
S3150000577010B586B000248DF80800ADF80A108DF833
S315000057800C30ADF80E200194009400230898ADF873
S315000057901000002201A902A800F057F8019806B0EF
S315000057A010BD10B5002301E0001D5B1C9CB28C42AD
S315000057B004D204889442F7D1408810BD002010BD61
S315000057C00288B2F57C4FA8BF00F00BB8DFF870076F
S315000057D0081A0C2190FBF1F082B20021DFF8640771
S315000057E0DFE7DFF86417401A142190FBF1F082B26C
S315000057F00221DFF85807D4E710B50C460188638804
S3150000580099420DD1027B23791A4209D0B1F57C4F1A
S3150000581004DBFFF7E6FF2189884201D1012010BD94
S31500005820002010BD10B514460A88E3889A420AD1B2
S315000058300288B2F57C4F04DAFFF7C2FF218988425D
S3150000584001D1012010BD002010BD2DE9F74F0446FF
S315000058509B460025002603E0C0884519ADB2761C9C
S31500005860DFF8C8160978F0B2884280F0D080F6B228
S315000058703101DFF8C406DFF8C0260844515C2278FF
S3150000588080689142E8D100903046FFF78EFE0028EE
S31500005890E5D04FF0000A05E0B8F80A004519ADB2A8
S315000058A00AF1010A009909795FFA8AF08842D6D28C
S315000058B000985FFA8AFA0068142111FB0AF100EBDE
S315000058C0010821464046FFF797FF0028E4D04FF035
S315000058D0000908E038793021084202D1F8782D18FD
S315000058E0ADB209F10109B8F808101FFA89F088422B
S315000058F0D6D2D8F804001FFA89F90C2101FB09F168
S315000059004718224639464046FFF78CFF0028E1D06B
S31500005910019800B107603879800611D5DFF82006B6
S31500005920002106E00279920602D5C278891889B26A
S315000059300C30B842F6D3DFF8180600EB010A03E094
S31500005940DFF8100600EB050A0C9D280018D0029E11
S3150000595000F060F802463B8861882078DFF8F89509
S3150000596000F0A2FCE8B13879C0061CD500F052F868
S315000059700346029800903A4661882078C84747E077
S315000059800298002844D05646824600F043F8024664
S315000059903B8861882078DFF8C49500F083FC0028F6
S315000059A0E1D17E2034E097F80280BBF1000F0CBFF6
S315000059B0FC785C464046FFF70CFE30B1621ED2B260
S315000059C03146504601F039F81FE04046FFF709FE20
S315000059D030B1A21E92B23146504601F046F814E0AC
S315000059E03DB9BBF1000F04D0F878834538BF892054
S315000059F00ED3002E224604D10021504601F070F944
S31500005A0003E03146504601F028F9002000E08620E8
S31500005A10BDE8FE8F39464046D2E660B5002503E074
S31500005A201E7B360616D46D1C0679EBB2B34213D232
S31500005A300368EDB2142616FB05F633441E888E4223
S31500005A40F1D1160006D0802AEAD0402AEBD11E7B7F
S31500005A507606E8D5184660BD002060BD80B50022F8
S31500005A6001E080B5402200F006F800B1012002BD39
S31500005A7080B58022F7E738B50C46154600F095F854
S31500005A80FF2801D1002032BD04E038B50C4615468A
S31500005A9000F08DF8DFF8A03403EB00102A4680688A
S31500005AA02146BDE83840B8E74022FFE72DE9F04738
S31500005AB0804689469246FFF7DEFF002508B9FF209B
S31500005AC019E00026DFF87074DFF8604400E0761C09
S31500005AD02178F0B288420DD2F6B23001385C4045EA
S31500005AE008D052464946FFF7D0FF0028EFD06D1C7C
S31500005AF0EDB2ECE72846BDE8F08730B50022DFF8C6
S31500005B00383400E0521CDFF824542D78D4B2AC426D
S31500005B100CD2D2B214011D5D8542F3D10D0003D023
S31500005B201C44647BE407EDD5104630BDFF2030BD34
S31500005B3080B50021FFF7E1FFFF2801D1002002BD5B
S31500005B40BDE8024031E570B50E4604460021FFF778
S31500005B50D4FFFF2801D1002070BDDFF8DC1301EB74
S31500005B6000153200687B00F0010114BF40F001000F
S31500005B700020B142687316D086B12846FFF7C0FDF3
S31500005B8011E00068F6B2142111FB06F10844761CF8
S31500005B90017BCA0901882046FFF762FBA8680279E3
S31500005BA0F1B29142EDD3012070BD0121A5E700219C
S31500005BB0A3E7DFF884130001085C704738B50C468C
S31500005BC0FFF7F3FF01460020FF291FBFDFF8682318
S31500005BD002EB01118968002916D0002203E01B069A
S31500005BE048BF2846521C0D79D3B2AB420BD20B6884
S31500005BF0D2B2142515FB02F52B44451C1B7B002C49
S31500005C00EDD05B06ECE7C0B232BDF8B50C461546E2
S31500005C10FFF7CBFF01460022FF291DD0002301E03C
S31500005C20521C5B1CC44800EB0110DEB28068077989
S31500005C30BE4211D20068DBB2142616FB03F63044CE
S31500005C402F00067B02D0760602D4EAE73606E8D5B0
S31500005C50D6B2A642E4D1F2BD0020F2BD002109E091
S31500005C6010B50446012100F005F82046BDE81040B5
S31500005C7001F070B82DE9F34F87B001F01EF90690D8
S31500005C800024AA48DFF8B082007805909DF81C0031
S31500005C90019000E0641C0599E4B28C427BDA01991C
S31500005CA0FF2907D09DF81C00FFF77FFF0446FF2C55
S31500005CB006D177E008EB04100699007B8842E9D10B
S31500005CC04FF0000A4FEA041901E00AF1010A08EB55
S31500005CD009005FFA8AF180680279914257D200681A
S31500005CE05FFA8AFA142111FB0AF145182889B0F5E2
S31500005CF0967FC8BF01F0C3F9002613E0012000908B
S31500005D0000235A46002102A8FFF79FFD9DF82000B8
S31500005D1038B1BDF80A2018F809103B46584600F07D
S31500005D2072F8761C2989B0B28842CED26868B6B2BB
S31500005D300C21714347183879C006F2D418F80900C7
S31500005D408DF8080039462888ADF80A0038794006EB
S31500005D504CBF802040208DF80C003888ADF80E002E
S31500005D602846FFF72DFDADF810003979F878490778
S31500005D7006D5D7F808B00328C0DBDBF800B0BDE7CE
S31500005D800328B4BF07F1080BD7F808B0B6E70198A7
S31500005D90FF283FF47FAF9DF8200018B99DF81C003E
S31500005DA000F003F809B0BDE8F08F30B583B00446C3
S31500005DB001F083F805460120FFF782FA012C03D093
S31500005DC0FF2C08BFA8421DD102237F22202101A853
S31500005DD001F099F92920009001AB002240F202411E
S31500005DE0012001F00AFA01237F22212101A801F0F6
S31500005DF08AF91820009001AB002240F206410120EA
S31500005E0001F0FBF937BDF8B51D4604462879800731
S31500005E100E46174626D502220021684600F060FF8E
S31500005E2004B96C46012E1DD140F20240874209D1C9
S31500005E302888B8B92879400614D4022322467F213F
S31500005E4020200DE040F20640874204BF2888002843
S31500005E5008D12879400605D4012322467F21212036
S31500005E6001F062F9F1BD30B5047B012200230C423A
S31500005E7005D1002030BD144218BF5B1C5200D5B2BC
S31500005E808D42F8D30069DBB250F8230030BD2DE90E
S31500005E90F04F0C4601210028607D4FF0000C08D021
S31500005EA0050008BF4FF0020E09D0012805D18E4625
S31500005EB005E010B94FF0080E01E04FF0040E099806
S31500005EC00A9DDDF82C90DDF830A0E046244F07EB64
S31500005ED08806378897421FD1F77817EA0E0F1BD02E
S31500005EE0B7784F4518D396F803B0E77B5FEACB6BDC
S31500005EF001D50FB910E07FB9E24501D0844501DB39
S31500005F0000210EE0B77803F80C700CF101062F881B
S31500005F107F1C2F801FFA86FC08F10108B8F1140FC8
S31500005F20D4DB0846BDE8F08F8CC70300547E002002
S31500005F300AC3030022C30300C06600207C200300BE
S31500005F40C81C03008C2003008C1F03008420030060
S31500005F5034670020D0660020D3620000CF620000C4
S31500005F60781C0300EFF31180602181F311887047DC
S31500005F7080F311887047000080B501F0BEFD01F086
S31500005F80C9FD80B202BD80B501F0B7FD01F0C2FDCA
S31500005F90FA21B0FBF1F080B202BD80B501F0ADFD93
S31500005FA0BDE8044001F0B6BD80B501F0D4FE184846
S31500005FB000214160001D01F02FFC20B139210FF2B4
S31500005FC0880000F04DF8002002BD1149012008703C
S31500005FD0704770B5044682B02268002502B91BE0FE
S31500005FE000F00DF801201BE070B50C4682B0226867
S31500005FF0002502B910E000F002F8022010E0044E7D
S31500006000044B357000950021706801F078BC0000E3
S3150000601084780020CB5F000000F025F9002076BDD3
S3150000602001F0E2FF307828B97068214601F01FFDC3
S31500006030852501E025603570284676BD014600229B
S315000060400020D1E700F008B873797374656D2D747C
S31500006050696D65722E6300007047000042DE70476E
S3150000606038B504460D4602F0FDFA01F008F803F0D3
S315000060706BF92946204603F090F92B4622466949DA
S31500006080012003F02BFB29462046BDE83440E5E716
S3150000609065482DE9F047654D01682E1D4FF42068CF
S315000060A07165016AB16562490A68F26549683166D7
S315000060B0416A7166816AB166C16AF166016B3167D0
S315000060C0806B706796F8340040074CBFF46BB46B76
S315000060D003F0B7FB0022F2648442564A014624BF0D
S315000060E0A2F1200AA2452746316505F19003DFF8A3
S315000060F048C1DFF848E118D3A0693064E4697464E4
S31500006100746DC4F30804062C13D1704511D3604591
S315000061100FD200884DF64264A0420AD1306858601A
S3150000612040F201787068986003E00027376477646E
S3150000613007464348814202D2014600E0091D08464F
S31500006140904203D20C68B4F1CD3FF7D03D49081A0E
S31500006150B0640021002005EB8004401C0628E1679E
S31500006160F9D3002003E0C0B205EB8004E167974253
S3150000617023D252F8041D7145F9D36145F7D2CC07F5
S31500006180F5D5002405EB8409D9F87C90894502D021
S31500006190641C062CF6D3062CE9D1002814BF401E39
S315000061A00520E0E7B16F002405EB8402641CD2F8F9
S315000061B08070D767052CF7D319600146481EC9B20F
S315000061C00029EFD1706DC0F30800032810D0042811
S315000061D011D0052812D0062813D00C2817D0122863
S315000061E018D119480068800719D540F2025816E000
S315000061F040F6012813E040F6022810E040F6032896
S315000062000DE0B8F5206F0AD140F6042807E040F605
S31500006210052804E018B1322838BF40F60728404662
S31500006220BDE8F087B41B030004ED00E00000002089
S3150000623000E300E0285B0020AA010300B44400004C
S315000062409C000020285B00201C200540EFF31080F6
S31500006250C00706D4EFF3118060288041C043C00F09
S31500006260704701207047002080F3118870477047FF
S315000062707047704770477047704770477047704760
S3150000628070470020704770477047704770477047E7
S31500006290704770477047002070470020704770476E
S315000062A001207047012070470120704770477047F2
S315000062B0704700207047002070470020704700207C
S315000062C0704700207047002070470020704701206B
S315000062D0704701207047B5207047002070470020A6
S315000062E070470020704700207047704700207047B5
S315000062F0B520704700207047704700207047B520D2
S315000063007047704700207047704770477047704766
S315000063107047704770477047704770470120704755
S3150000632002460849012003F0F5BA7047012070477C
S31500006330002070477047044800680078012808BFAD
S3150000634002207047FC220300BC72002001218181DB
S315000063504FF6FE71C181012101610021017001200A
S315000063607047704770470020704700207047002034
S3150000637070470020704700207047002070470020BB
S315000063807047002070477047B5207047002070475F
S315000063900020704700207047704770470020704704
S315000063A0B52070477047704700207047704700005F
S315000063B080B5FFF7FAFBFF2804D018B9DFF8A40769
S315000063C0007802BD002002BDF0B5059D002600271D
S315000063D0092D044602D300200021F0BDB4460FE08B
S315000063E05FFA8CFCA5EB0C0020443F0210F8010C70
S315000063F047EA1667002110EB06264F410CF1010C07
S315000064005FFA8CF0A842EBD39F4206D828BF96428B
S3150000641003D2901B63EB0701F0BDB01A67EB0301D3
S31500006420F0BD10B50168DFF840270B8813804B8854
S315000064305380497911710168097951714FF48A5174
S31500006440D18001688979890644BF4FF48B51D18088
S31500006450DFF8181783690A783BB9C088DFF8103768
S31500006460188002F0FD00087010BD42F002020A70AA
S3150000647016228169DFF8FC46204600F0EEFB00207C
S31500006480207010BD80B50020FEF7FFFEFF20FFF74D
S31500006490E5FBFEF708FFFFF784F802460121DFF867
S315000064A0C40600F01DFCDFF8C036DFF8CC26DFF8A6
S315000064B0CC06522103F02AFBFEF73CFE03F0A2FBBA
S315000064C003F05CFC03F0CAFD03F00AFF03F016FFBD
S315000064D004F004F804F09CF804F09CF804F01BFAAD
S315000064E004F0B0FC04F030FE04F0AEFE04F09EFFB3
S315000064F005F0C2FC05F022FE03F004FFBDE80140F2
S31500006500FFF721B9704780B505F072FF20B907F093
S31500006510A8FA08B905F060FAFFF735FFBDE80140B3
S31500006520FFF741BF10B500224FF6FF71DFF8503676
S3150000653000E0521C92B233F832408C4203D08442BF
S31500006540F7D1104610BD084610BD38B50446FFF712
S31500006550E9FFDFF8305601464FF6FF722888914270
S3150000656003D12246DFF8201606E0DFF8142602EBF8
S31500006570C1014A68DFF8141603F0D2F92888BDE88D
S31500006580324003F0BDB910B50446DFF804060078C2
S31500006590002882B03BD007F0ABFB0246DFF8F415CB
S315000065A0022003F0BDF92068418800914379A28951
S315000065B0DFF8E415022003F0B3F9022003F064F9D2
S315000065C018B120684088FFF7C0FFE07B28B1228A17
S315000065D0DFF8C815022003F0A3F9E07CDFF8C01548
S315000065E00090A0680278A37C022003F099F9207D30
S315000065F0A1890A1AA1680144012392B2022007F078
S3150000660099FBBDE81C40A4A1022003F083B913BD89
S3150000661010B5044620684079FFF7C7FAFF281DD059
S31500006620DFF88015227F01EB0010017B914215D126
S31500006630226840881188884206D04FF6FF73994237
S315000066400CD1B0F5004F09DA2079022818BF0328CB
S3150000665006D111895079FFF738FE08B9002010BD20
S31500006660A07B0028204603D0BDE8104007F0FABB07
S31500006670BDE8104007F02EBC30B5144683B01A466C
S3150000668023785B074CBF052303239A420AD2009363
S315000066901346DFF81425DFF81415022003F03AF943
S315000066A000203EBD089D286029710698E880AC60F0
S315000066B0AA81207800F00100A8732078800800F0F5
S315000066C00100E8732078C00800F001006875012019
S315000066D02875E87B30B10121204607F01AFF297D95
S315000066E0891C29752882287D411C2975205CA8747F
S315000066F0481C2875C9B2605CE8740798A86100F068
S31500006700DCFB287701203EBD2DE9FE430F46DFF86E
S31500006710A014DFF8A054DFF8A08491EC080B85ECF8
S31500006720080B0B9E0295019600240A9900913946A2
S31500006730FFF7A2FF002866D0C8F80050A87CDFF853
S315000067407C1408702846FFF71EFF2846FFF769FEEF
S31500006750284600F001FB20BB2EBB042F18BF052FD7
S3150000676003D0022F18BF032F01D1012200E000221F
S31500006770E988286801914188009101210388E87C15
S3150000678000F011F990B12868807980060ED4DFF800
S315000067903044012020700121284600F002F9002033
S315000067A0207001242FE0307D80072CD528684079A1
S315000067B0FF2824D10027DFF8B063FEF7F2FEF9B216
S315000067C0814220D2F8B2FFF7F4F98146F8B2FEF71B
S315000067D0ECFE90B1286841884846FFF73FF960B162
S315000067E02846FFF71EFE286880F8059086F8049074
S315000067F02846FFF70DFF00B101247F1CDDE7284680
S31500006800FFF706FF044607F001FE16220021DFF817
S31500006810640300F065FA0020C8F800002046BDE8D1
S31500006820FE83DFF8A0030178491C017001F07F00A8
S315000068307047DFF838130A78002814BF42F00100C9
S3150000684002F0FE0008707047DFF87C13087070478E
S3150000685078B1DFF874130978012903D1018841F072
S31500006860400105E0022904D101884FF6BF721140AC
S315000068700180704778B1DFF854130A78012A04D1F1
S31500006880DFF84C2312780A7001E0022A03D101785E
S3150000689041F01001017070475D000000F0B5B34D86
S315000068A004462878C00783B001D50020FEBDB34E4C
S315000068B0AD4F3046FFF7DEFFB81DFFF7C9FFBF48F3
S315000068C03178007849074CBFF0707070AA4801888B
S315000068D02878800708D53246A648FFF709FD2978AB
S315000068E001F0FD012970FEBDA14800884FF6FC723B
S315000068F0904208DA0B460146019400963A4600207B
S3150000690007F07BFFFEBD0A4600943346394607F082
S315000069105EFFFEBD0020C1E70A460146A6480068A4
S3150000692001E00021F8E770B504460E462079010023
S3150000693018BF012815460BD1A0680078C00601D5FE
S31500006940300005D0A07B002804BFE07C0B2801D1D5
S31500006950002070BD884900200880607DE17B00280A
S315000069600CBF0820002011B907F067FD06E040F0D3
S31500006970040007F062FD208A07F06EFDA07C07F098
S315000069805CFD0B2007F059FDE07C07F056FD304614
S3150000699007F053FD2046FFF744FD2846BDE870404A
S315000069A07CE70022BFE770B504461846894B844D44
S315000069B01B78012B01D02E7816B10020287070BDEF
S315000069C082F001020A4301D1002070BD2BB10A46B4
S315000069D004992346FFF76DFC00B1012070BD00004D
S315000069E038B5D2885224950648BF4924550544BF78
S315000069F0083CE4B2150544BF083CE4B2120444BFA7
S31500006A00A41EE4B203284FF6FD7310D8DFE800F0A9
S31500006A100204080D0B460AE0C8B208F0D2F902E0FB
S31500006A20C8B208F000FC034601E0641EE4B2184652
S31500006A30FFF75CFC201AC0B232BDB0B504460D00AB
S31500006A400EBF00202878FF28174601D12070B0BD60
S31500006A50284607F083FD874288BF07463A46691CE9
S31500006A60601C00F0FAF82770B0BDB0B50D00044602
S31500006A70174603D1002060702070B0BD2878FF282B
S31500006A8002BF6878FF2820700CD0284607F06BFDFF
S31500006A90874288BF07463A46A91CA01C00F0DDF8CD
S31500006AA02770380A6070B0BDF0B5541E002B37D081
S31500006AB0052A48DA0025002600230CE0571EFF1A97
S31500006AC0FF000CFA07FC4CEA050511F80EC00CFA9B
S31500006AD007F73E435B1CDFB2974209D2DBB2A4EB59
S31500006AE0030E00280CBF4FF0000C10F80EC0E5E7AF
S31500006AF0042A0FDAD0000121D200401E91404942FB
S31500006B0045FA00F2D20748BF0D4346FA00F2D00715
S31500006B1048BF0E43AE420FDBB54214DA10E05B1CF1
S31500006B20DDB295420FD2DBB2E51A00280CBF002673
S31500006B30465D4D5DB54201DA0120F0BDAE42EEDAAA
S31500006B404FF0FF30F0BD0020F0BD0021224A01E0E9
S31500006B50891CC9B2535C8342FAD3501840787047F7
S31500006B6000000000B97E00205C720020BE7E00207E
S31500006B702A7E0020907600202C7E0020687200205D
S31500006B80ACBC0300347E002014BC03002CBC030004
S31500006B90BA63002034BC03003CBC03005CBC0300A9
S31500006BA068BC0300C0660020A4BC030088BC0300C8
S31500006BB00CBD03006C7600208C760020E463002078
S31500006BC0BA7E0020E5630020BB7E0020BC7E00204C
S31500006BD0BD7E0020E36300202CBD03002838082872
S31500006BE08041C00F704710B500F009F8FF2801D1A9
S31500006BF0A32010BD002104F83010002010BD04466B
S31500006C000846FEF7D2BF38B500F00BF8FF2801D1D1
S31500006C10A32032BD294604EBC000BDE83440FEF790
S31500006C20BABA044608461546FEF7BFBF40B11C284F
S31500006C300CD01D280DD01E2818BF1F2806D00AE02C
S31500006C40A1F10B00102806D2002070471B29FBDBA0
S31500006C5001E00829F8DB8A207047814233D21044CC
S31500006C601144401E491E10E011F8013900F801399F
S31500006C70121F11F8013900F8013911F8013900F82D
S31500006C80013911F8013900F8013992B2042AEBDA18
S31500006C9093B2002B1EBF11F8013900F80139521EBC
S31500006CA0F6D1704711F8013B00F8013B121F11F8AD
S31500006CB0013B00F8013B11F8013B00F8013B11F8DC
S31500006CC0013B00F8013B92B2042AEBDA93B2002BA7
S31500006CD01EBF11F8013B00F8013B521EF6D170476A
S31500006CE0130003D00A46194608F05ABC704710B57F
S31500006CF000E0521E93B223B100F012F8F9D0181B2F
S31500006D0010BD002010BD10B500E0521E93B22BB18D
S31500006D1000F006F8F9D0181B40B210BD002010BDD7
S31500006D2010F8013B11F8014BA342704780B508F0FB
S31500006D30FAFCFFF7A7FBBDE8014008F009BD80B5E6
S31500006D40FFF7DAFAFFF7DEFB08F0CCFDBDE80140FD
S31500006D5003F00EBC09F0C8B8FFF709BBFFF70DBB7F
S31500006D600020704738B504460D46FFF71FFB29463D
S31500006D702046BDE8344009F01AB9FFF700BBFFF71B
S31500006D8009BB000010B57448744C00682060606050
S31500006D9048220021FFF7A4FF714821680078087097
S31500006DA04FF6FF712068002241800273002022689E
S31500006DB050730B202268907314202268D0734FF60C
S31500006DC0FE7220680282418209F03AF9216808764B
S31500006DD009F036F92168487609F032F92168887693
S31500006DE0604821680078C8765F492068096840F8DD
S31500006DF0281F5E49097801715D48216800680863AB
S31500006E0010BD10B501F05BFA544C6168897B88426D
S31500006E1003D0084601F002FA50B901F054FA0146CF
S31500006E20606890F90F00814204D001F05BFA08B166
S31500006E30012010BD6068008A01F0AAFE6068408AE1
S31500006E4001F0C4FE6068007B012818BF002001F035
S31500006E508BFE002010BD10B5464C0020207009F0B6
S31500006E608FFD20B92046BDE81040FEF74BBA67E01B
S31500006E7080B5002000F015F828B1002000F005F8D4
S31500006E8008B1002002BDFF2002BD34480068407BE7
S31500006E9002281CBF1128432801D101207047002079
S31500006EA070472E480068007B01281CBF0228032873
S31500006EB001D1012070470020704700207047002054
S31500006EC070472D49087070477047002070470120B1
S31500006ED07047704700207047002070477047704722
S31500006EE00020704780B50020FFF7CFFF18B1BDE83E
S31500006EF002400020D5E702BD80B50020FFF7C5FFA0
S31500006F0030B116480068007B032801DA002002BD74
S31500006F10FF2002BD10B5040005D040F249110FF262
S31500006F200C10FFF79DF81448007808B9702010BDC2
S31500006F3009480068482111FB04F1084407494860E4
S31500006F40BDE810405DE705484068008A7047034881
S31500006F504068408A70470000705F0020307700204C
S31500006F60D0630020D1630020745F0020C863002036
S31500006F70785F002028770020E86300207047002013
S31500006F8070470020704709F0E0BA70470AF003B86E
S31500006F9009F0D9BE82B08DF80010DDE90023114654
S31500006FA01A4602B0FFF772B932B586B004468DF8BC
S31500006FB0042006F0F9FC0546204606F003FD80F0A5
S31500006FC001010D420DD0BDF8180006F0ECFD8DF85C
S31500006FD00000FF2804BF00208DF80000CDF808D07F
S31500006FE01AE0294308BF06A815D0054214D0BDF8FB
S31500006FF0180006F0D8FD8DF80000FF2804BF002019
S315000070008DF800009DF800008DF80C00BDF8180002
S31500007010ADF80E0003A80290DDE901010A4601461B
S315000070202046FFF733F907B030BD0000656D626595
S31500007030722D6D756C74692D6E6574776F726B2D1C
S31500007040737475622E63000009F0A8BF80B5012134
S315000070501548FDF765FC0421072009F0A1FF134838
S315000070601349144A0160042111600221416204217E
S31500007070114A1160816A41F00201816201BD0B482B
S3150000708009F0DEBFA52800D0704780B500F005F8EE
S3150000709010B10A490020086001BD0448006810F0DC
S315000070A0010018BF012070470005080000200540B8
S315000070B00108030080E200E000E100E00000A442D5
S315000070C010B5DFF8C0400120207082B0002009F022
S315000070D0C3FF38B1002009F0BFFF18B100202070AF
S315000070E0492016BD02237F220021684600F00BF8D6
S315000070F0BDF80000B0F57F7F03D000202070072088
S3150000710016BD002016BD10B5FF2908DCDFF8744057
S31500007110247844B1BDE81040C9B20AF07BBABDE894
S3150000712010400AF005BE10BD2DE9F0410446FF2CC3
S315000071300D461646984616DCDFF848000078C0B1C2
S31500007140DFF84870387818B184210F48FEF788FFB9
S315000071500120387043462A463146E0B20AF0C8FBA1
S315000071600020387005E042463146BDE8F0410AF09D
S3150000717001BEBDE8F08103490978002918BF0AF06D
S31500007180B8BC7047B47E002090BA0300B57E0020DC
S315000071902DE9F04786B00F9F109D0E9C0295019732
S315000071A006468A46904699460094FFF779F818B144
S315000071B0022803D002D310E001200EE00CBF01200C
S315000071C000200021049103900295019700944B46FC
S315000071D042465146304600F0F2F906B0BDE8F08767
S315000071E010B586B00024049401240394099C0294EB
S315000071F0089C01940024009418E010B586B000F0B5
S3150000720002F8402312E0002404940193012403941D
S315000072100023089C00930294704710B586B000F0D6
S3150000722009F84023099C0294089C019400F0C7F9D0
S3150000723006B010BD00240494009301240394704703
S3150000724010B586B001240494002403940A9C029489
S31500007250099C0194089C0094E8E71FB5089C0394D8
S31500007260079C0294069C0194002400940CE01FB530
S3150000727000F002F8402307E0002401930394002362
S31500007280069C00930294704700F063FA04B010BDA8
S315000072902DE9FE4F92461D46064688462A46FEF7CB
S315000072A0EAFB002407000C988DF80060A346D94637
S315000072B0ADF802808DF80450ADF806A0ADF80800D0
S315000072C047D069463846FEF797FA002841D0DDF8E0
S315000072D03880002505E007F0B0F8641C09F10109C3
S315000072E06D1C3989A8B288422BD27868ADB20C21C0
S315000072F0694346183888B0F57C4F09DA3088ADF80E
S3150000730006006A4631463846FEF78CFA0028E7D072
S315000073103088504538BF0BF1010BDFD39DF8342080
S31500007320A1B29142DAD207F097F8B07807F085F863
S315000073305FEA0800D1D03079C0074CBF072005208E
S31500007340C9E71FFA8BF111FA84F01FFA89F1884216
S3150000735001D1012000E00020BDE8FE8F2DE9F04FAD
S315000073608DB00025DFF8388400E06D1CFEF719F9B2
S31500007370E9B2814280F0AD80EDB24FEA0519DFF83F
S31500007380241418F8092000F0D4F9DFF81C1400F0D2
S31500007390CDF94FF0000A01E00AF1010A08EB0900F5
S315000073A05FFA8AF1806802799142DED200685FFA5C
S315000073B08AFA142111FB0AF14418002617E0FA781C
S315000073C0012392B204A9042006F0B4FC2088FFF73A
S315000073D0A9F84FF6FF71884208D0DFF8D01301EB09
S315000073E0C000DFF8CC13426800F0A3F9761C2189AF
S315000073F0B0B28842D0D26068B6B20C217143471849
S31500007400FFF73DFE3879DFF8AC1340063888009068
S315000074104CBFDFF8A433DFF8A4332288042002F03F
S315000074207FFA39462046FEF7CBF9834628B9DFF8BE
S315000074309013042002F074FA04E05A465BA104207B
S3150000744002F06EFA3879810748BFDFF8781305D461
S31500007450C1064CBFDFF87013DFF87013C00754BFC6
S3150000746053A054A001910090FB78BA78DFF860131E
S31500007470042002F055FA3879CDF800B040064CBF2A
S3150000748080234023002003902120029004A801902D
S315000074903A88218818F8090000F05BF9862804D19B
S315000074A0DFF8301300F042F9A0E7B878FEF791F85C
S315000074B020B104A807F052F8421C81E7B878FEF71D
S315000074C090F800283FF47BAF04A807F04CF8821C24
S315000074D076E70DB0BDE8F08F2DE9F0438FB0814619
S315000074E0179C052C884617461E4651DB169DDFF86D
S315000074F0E81202950196009743464A4600F05CF86A
S3150000750004A80390009521200290334605A8019017
S315000075103A464146484600F01CF905003BD19DF825
S315000075201000412818BF422804D105A807F016F814
S31500007530451C0BE0432818BF442804D105A807F0D2
S3150000754012F8851C02E00AF071FC0546EDB2281D12
S3150000755084421DDB384606F07FFF002006F06DFFF3
S315000075609DF810009D4C06F068FF208829185229C6
S3150000757008DA9B4B2A4605A91844FFF76EFB2088BC
S315000075802818208000953B464246964900F014F89C
S315000075900FB0BDE8F083384606F05EFF284606F0D9
S315000075A04CFF00953B4642468F49EFE7253278006F
S315000075B0524F000052570000042002F0ABB92DE9EB
S315000075C0F04F89B081460020049000900E46129C30
S315000075D0174698468DF81490ADF816608DF8188009
S315000075E0ADF81A70ADF81C400023002204A905A8C6
S315000075F0FEF72BF904987D4A38B9019700964B4659
S315000076007B49FFF7D9FF86208DE0159898B9049934
S315000076109DF850008978884204D0764900F089F8B0
S315000076208D2080E004980079C00704D4724900F0E8
S3150000763080F8882077E004980079139D400726D5C6
S315000076400498806840680290049880688068019079
S3150000765004988078FFF7C2FA82460498C0788DF8BD
S31500007660000003285346024629462ADA02A8FFF7F5
S315000076701BFA83469DF800205346294601A8FFF7CA
S3150000768013FABBF1010F18BF10F1010F28D016989D
S31500007690002844D100F050F8FEF765FE010042D103
S315000076A000F04AF8FEF70CF801003CD101200090EA
S315000076B000232A46002105A8FEF7C7F8010011D0CD
S315000076C031E00298FFF7F0F9012809D09DF8002073
S315000076D0019853462946FFF7E7F910F1010FD6D175
S315000076E0872020E0049B324649462846FEF78BFB5E
S315000076F00295009443469DF8500001903A46314663
S31500007700484604F076F900F017F8FEF72BFE0094D1
S3150000771043463A4631464846FDF7AEFF02E0374952
S3150000772000F004F8002009B0BDE8F08F042002F054
S31500007730F1B8042002F0EEB8039543460498C078E9
S31500007740029000943A469DF8500001903146484612
S31500007750704710B586B000248DF808008DF80C30FF
S31500007760ADF80E20ADF80A100194009401A908980E
S315000077700A9B099AADF8100002A8FEF766F8040005
S3150000778005D10B9840B101998978017004E0892CE4
S3150000779002D11B49FFF7CAFF204606B010BD000004
S315000077A0C066002098200300A4200300ACBC0300A0
S315000077B090200300E4200300F820030000210300CA
S315000077C0082103002821030030210300382103008B
S315000077D010210300402103004C2103002C7E0020D1
S315000077E068720020A421030080210300F821030011
S315000077F0D021030004220300182203002C220300D8
S315000078004C220300012100F01F029140DFF8DC2426
S31500007810400942F82010704770B50546FEF7A2FBF6
S31500007820002600242821DFF8C82401FB06F31344B0
S315000078309B7F13B1761C042EF7DB042E08BFDFF8FE
S31500007840B44408D02DB17143114401238B772E60C7
S3150000785001E0DFF8A444FEF78BFB204670BD10B5AF
S31500007860DFF89804017809B1002010BD01210170EC
S31500007870DFF88C04DFF88C44FDF752F80321DFF8BB
S315000078808804FDF791F9032020710121DFF87C04BB
S31500007890FDF746F820460AF0F0FADFF87414DFF830
S315000078A0744401200AF0D2FAE069C00AC002E0611D
S315000078B040F2FF70A061002020601D20FFF7A2FFAC
S315000078C0DFF854144FF000500860A021E06940F042
S315000078D00100E061DFF818040AF0F0FADFF83C1462
S315000078E000200870DFF838140870DFF838140860D4
S315000078F0DFF834140860DFF83414086010BD2DE991
S31500007900FE4F0546042D8B46144699464FF0000857
S3150000791028BFDFF820040ED2FEF724FB02902821B0
S31500007920DFF8CC0369434618B07F28B90298FEF702
S315000079301FFBDFF8040488E00C9F34B9B9F1000F8F
S3150000794002D039462846C8477BE0610CE003DFF8E1
S31500007950C453D5F800A0C6F8189000F078F8C6E928
S315000079600201BBF1010F0ED14FF47A726243CDE9E9
S3150000797000280246F420A0FB0249DDE90001001BB5
S3150000798030617A207061D6E90201401C61F1FF3155
S31500007990C6E900010120307786F81FB03762DFF8AC
S315000079A07C03007800284CD1DFF87873386810F132
S315000079B0010F02D03868401C3860DFF86443DFF8F6
S315000079C07C932078A8B9C9F800A00420A8616FF0BC
S315000079D06402D6E90001414501D8904200D3104621
S315000079E05044E864E86940F00400E8610120207032
S315000079F022E0386801281FD186F81C8000F0D7F8ED
S31500007A00AAEB000000F0DAF800F02CF9B8F1000F4C
S31500007A1004BF01203077504600F034F9D5F800A0B5
S31500007A20E86C217808F1010831B1D9F80010401A44
S31500007A30AAEB01018842E1D3386810B13868401ECC
S31500007A4038600298FEF794FA0020BDE8FE8F10F524
S31500007A507A6041F100014FF4FA5200230AF032BA7B
S31500007A602822DFF88C12624311448A7F70472DE981
S31500007A70F0410446042C0E4628BFDFF8B8023AD27D
S31500007A800EB99D4837E0FEF76DFAFFF7E9FF22B918
S31500007A90FEF76EFADFF8A0022DE00A7F22B9FEF7A4
S31500007AA067FADFF89C0226E0D1E9004899490F6899
S31500007AB0A2490D68FEF75CFA781B0021884504D8B8
S31500007AC0844238BF4FF4804010D3221A68EB01037A
S31500007AD0DB0043EA5273D2004FF47A74A4FB02012E
S31500007AE004FB031110F5804041F10001C00B40EA90
S31500007AF0414030600020BDE8F08170B58A4E002319
S31500007B0034688448026830688442F9D1981844EB96
S31500007B10030170BD30B54FF4FA5200F004F8C00B03
S31500007B2040EA414030BDA2FB004502FB015514F579
S31500007B30804045F1000170472DE9F047FEF712FA43
S31500007B40744D8246E869296900EA010626F00500B7
S31500007B50A86170071ED5714FDFF8C481DFF8DC918C
S31500007B60012038702C6800F022F8201A00F026F860
S31500007B7000F078F8204600F085F82C68E86C98F854
S31500007B80001029B1D9F80010401A611A8842EAD3C8
S31500007B9000203870F00705D50120A8616248016809
S31500007BA0491C01605046BDE8F047FEF7E1B9E869B7
S31500007BB020F00400E861D9F8000070472DE9F04391
S31500007BC00026044600252821494871434718387F76
S31500007BD07D77002841D0D7E900018D4207D828BF1C
S31500007BE0844204D2001BA941C7E9000135E0F87FB1
S31500007BF008B938772DE0D7E90001D7E90223201A22
S31500007C00D7E9028965EB01010AF05CF9B8EB0200DD
S31500007C1069EB0301C7E90001386939690128786908
S31500007C2009DB0818F428786113D3D7E90001401C52
S31500007C3061F1FF3108E0401AF428786109D3D7E9E9
S31500007C400001401E61F10001C7E900017869F438BE
S31500007C507861B86908B101207877761C042EB2DB0A
S31500007C60BDE8F08310B5002428212148614342185D
S31500007C70507F18B1116A926920469047641C042C03
S31500007C80F2DB10BDF0B54FF0FF3213460021184C61
S31500007C9028254D436619367F46B12544D5E9006748
S31500007CA09F4203D82EBF964232463B46491C0429C2
S31500007CB0EEDB00214FF0FF34A34208BFA24212D0F0
S31500007CC08B426FF0640401D8A24200D322461B49BE
S31500007CD0174B086004211960101858630121586871
S31500007CE040F0040058600E480170F0BD80E200E0EC
S31500007CF020650020011000F0041000F0A87E00208E
S31500007D0000050800FC600020050020008009120024
S31500007D10086100200820044000E100E0A67E002063
S31500007D20A77E0020FC73002000740020047400204D
S31500007D3020200440021000F0031000F0F873002029
S31500007D40051000F0012100F01F029140514A400940
S31500007D5042F82010704730B54F48504D0FC887B0D5
S31500007D6003AC84E80F0068460021002200230EC001
S31500007D7002208DF80600012149484A4CFCF7D0FD47
S31500007D804FF6FF70E0616A46002120460AF06CF962
S31500007D9000208DF80E0003A920460AF019F9424882
S31500007DA0FCF7EEFD9DF80E1001228A40491C8DF865
S31500007DB00E10B0FBF2F0C9B20B29286002D23B4983
S31500007DC08842E8D23A48FCF7DBFD3A492A68B1FB1B
S31500007DD0F0F339480021E3FB0201384A00230AF098
S31500007DE071F837490860002036490870A06920F00C
S31500007DF01000A0610A20FFF7A5FF33494FF4806009
S31500007E00086007B0002030BD38B500F01BF8044606
S31500007E100D4605E04FF6E85000F02AF800F00CF8A1
S31500007E2000218D424FF6E950F4D88442F2D2A0B236
S31500007E3000F01EF8002032BD24484FF0FF31241810
S31500007E404D41704715491C4A09680023E0FB012390
S31500007E5010461946194A00230AF034B81C4801682E
S31500007E60C90604D5102181600120164908707047A3
S31500007E70010081B00BD017490A6892B20B68ADF8C1
S31500007E800030BDF800309B1A9BB28342F6D301B096
S31500007E907047000080E200E024BB03006476002007
S31500007EA000020400008001404041050081841E005C
S31500007EB05000020000B0710B20A1070040420F00E5
S31500007EC068760020B87E002000E100E01802FFFF7F
S31500007ED00C800140248001403E480168090C0904D9
S31500007EE081603B48016070473B4A410952F82120B6
S31500007EF000F01F00C240D20706D5384A52F82110BA
S31500007F00C14001F0010070470020704700000000EA
S31500007F1070B50646072808BF032602D0082808BF02
S31500007F200226FFF7BAF830B1012E04D1A520FFF7DB
S31500007F30A9F8012400E000240AF0ECF8002080F300
S31500007F4011880AF0DCFA214D761E0020042E2860E6
S31500007F5016D8DFE806F0030A0A0E12002048016868
S31500007F6021F00401016030BF0EE001200AF09BFD04
S31500007F700AE001200AF0A8FD06E00AF0D4FD03E0BD
S31500007F80AF211848FEF76CF81248C168006808402F
S31500007F9086B22E600920FFF7A7FF18B91120FFF758
S31500007FA0A3FF10B146F4803028601D20FFF79CFF28
S31500007FB018B1286840F4003028600CB1FFF746F885
S31500007FC00AF0B6FABDE870400BF06CB89C7500205C
S31500007FD0A07500201CA4004000E200E000E100E0E3
S31500007FE010ED00E08CB5030092E7000010B54C00E0
S31500007FF0014600F05EFD22460BF06FF8A04201D06C
S31500008000002010BD012010BD80B500F052FD0BF020
S31500008010BEF800B10120C0B202BDDFF8A00A407D63
S3150000802000B101207047DFF8942A117B01B970472F
S3150000803080B50146106A0BF000F920B1BDE8044096
S3150000804040F24F1100E301BD10B5DFF8704A627DC2
S31500008050010018BF012102B101229142607519D0B9
S3150000806068B16FF07F00FFF7DEFF0BF05DF9C0052A
S3150000807010D5206ABDE8104001210BF04FBADFF899
S31500008080784A94F90C0000F014FE207ABDE81040FE
S3150000809000F034BD10BDDFF8241A497D01F0FE0161
S315000080A00843D1E780B500F004FD0BF00FF800F0AF
S315000080B00300032801D1012002BD002002BD80B5C6
S315000080C0B0F5004F07D100F021FEDFF8980A00F066
S315000080D0D9FCBDF80000DFF8201AC883002002BDD5
S315000080E02DE9F04F440900F01F050027DFF89C8AB0
S315000080F000E07F1C98F80660F8B2B04245D2D8F886
S315000081000800FFB250F827004FF0000C01E00CF118
S31500008110010CC67E5FFA8CFEB645EAD2D0F81CE0AA
S315000081205FFA8CFC182616FB0CF6B6449EF808601F
S3150000813006F00706A642EAD19EF80960B542E6DBDC
S315000081409EF801B09EF8009006EB0B0AAAEB090A0E
S31500008150AA45DCDBDFF8704A247854B1DFF85C49C5
S31500008160A47B34B9DEF80C401CB12468EC40E4076B
S315000081700BD511B1AC1B4C440C7012B19EF8081013
S3150000818011701BB1C3F800E000E00020BDE8F08FDD
S31500008190400918BF40F01800704710B5DFF81C49B9
S315000081A0206A0AF0F4FF0246206ABDE8104000216A
S315000081B00BF009B80B38102834BFDFF8D40ADFF803
S315000081C0480B006870473EB5684600210022002330
S315000081D00EC0DFF8240901788DF80010817A0A00B4
S315000081E018BF022914D10079DFF8D05800F0BBF887
S315000081F0044600F00EF858B1286A012200210AF060
S3150000820067FF00F006F818B140F2792100F068FB2C
S3150000821037BD286A6A4621460AF082BF2DE9F04139
S31500008220044604F01F001B2886B034D200200090BC
S315000082306B46002200212046FFF752FF07002AD096
S315000082402046FFF7B7FF5FEA000824D0DFF86C6826
S31500008250DFF8445AF06B804515D001A84146062246
S315000082600BF062F9306AC6F83C8001A90BF047F8BA
S3150000827088B9306A03A90BF050F8B5F91C10306ABA
S315000082800BF018F838B90098B062776200980028A9
S3150000829018BF006901E08A200EE0F06229798C425D
S315000082A01CBF2C71FFF78FFF96F90D00C101306AD4
S315000082B009B20BF029FB002006B0BDE8F081DFF81B
S315000082C0D80900797047DFF8D009B0F91C000028FA
S315000082D054BF05216FF0040108180A2190FBF1F044
S315000082E040B270470A2110FB01F0FFE7F8B500F530
S315000082F0D77240F277239A4201D38B20F2BDDFF882
S31500008300BC47DFF89459A26A0A23002A1EBFAE7F33
S3150000831006F0C006802E12D0A67B86B992F90260BE
S3150000832016FB03F7B842B8BF16FB03F007DB92F95A
S31500008330032012FB03F68642B8BF12FB03F0217B33
S3150000834061B10146206A0AF0B5FF18B14FF43671E3
S3150000835000F0C6FA206A0AF0C0FF01E010FB03F045
S31500008360A8830020F2BD38B50446FFF723FF90B17D
S315000083700023002200212046FFF7B2FE58B104F088
S315000083801F051B2D07D22046FFF702FF18B90B2D3C
S3150000839001DB284632BDFF2032BD0FF2080140083E
S315000083A0085C7047F0A050007047C0B2704710F1EB
S315000083B0590F01DA0020704710F1240F01DBFF206E
S315000083C070475A300002362190FBF1F0C0B2704778
S315000083D070B5DFF8E846DFF8A05A00202064687818
S315000083E028B10BF095FA012818BF032801D1002007
S315000083F070BDE16ADFF8843ADFF89C2800291FBFC8
S31500008400A66A7669002E022817D12364906900F5C2
S31500008410FA709061E07C18B100200021642203E02C
S31500008420E87829794FF4A0722070A2806170A8784C
S31500008430A0708020E080002030E0DFF8445A906988
S31500008440AE4213D1DFF83C3A236400F57A709061AE
S31500008450E07C88B90879207001228B7808799A40E7
S31500008460101891F903201018401E0CE0236400F543
S31500008470FA709061E07C18B100202080642005E04D
S31500008480487820708878607008780001A080487964
S31500008490A07008890001E080C8880001A06000F093
S315000084A03BFCE07094F90200010048BF4042C0B2B4
S315000084B070BD70B50446DFF80466257896F9140099
S315000084C008B18C2070BDFFF783FFB075DFF8A829CF
S315000084D0DFF8C40741780174690101F58071816193
S315000084E09379716C002BB37B1DBFAD1EEDB221F0ED
S315000084F0020141F0020173B9127862B16278920604
S3150000850009D56FF00102327541F00101826902F569
S315000085100872826104E049084FF0FF304900307567
S315000085207164032000F006F96A1C306A4FF4807308
S3150000853092B221460BF015FA691C884203DA40F222
S31500008540294100F0CDF9002070BD0000F8B5DFF834
S315000085506C5595F914100024091D04290FD8DFE87D
S3150000856001F0080E10100300FFF7A3FF040008D067
S31500008570F2BD2C75286A0AF0AFFD8D20F2BD8C2065
S31500008580F2BD0AF068FFE8B1286CDFF8F0188842FF
S3150000859018D1A87DB0B1DFF8E80A0068002811D527
S315000085A0DFF8E00AC168C1600122006800F00F0030
S315000085B002FA00F0401E014204D100F0E5FB6420FF
S315000085C00BF0FAF9FDF7CEFC064695F9140010F10A
S315000085D0010F1CBF95F9140010F1020F29D195F96E
S315000085E01400DFF8B47640422875FDF7C5FC7862C2
S315000085F0296C387949B9FFF7B6FE01466A6C286AD4
S3150000860007F110030AF07BFD0BE0FFF7ACFE07F164
S315000086101001009101466A6C286AD5F840C02B46C5
S31500008620E04760B1002028758C244FF0FF30786257
S3150000863002E0002028758D24286A0AF04DFD304698
S31500008640FDF796FC2046F2BDDFF8800AFDF708BD6F
S315000086502046BDE81040FDF78BBCDFF83C06C08B1A
S3150000866070470000F8B5FDF77DFCDFF88C54044632
S31500008670A87A012803D12046FDF77AFCF1BDDFF880
S31500008680501ADFF83864DFF8447A40200860012287
S31500008690306A01210AF01CFDDFF8381A4FF4001089
S315000086A0086069460FF2880000680090306A0BF097
S315000086B01FF920B140F2D7413846FDF7D1FC022020
S315000086C08DF800006946306A0BF0EFF820B140F2F1
S315000086D0D9413846FDF7C4FC306A0AF00EFD002188
S315000086E000200AF054FE00F03FFB0120A87296F924
S315000086F01400001D072810D8DFE800F0140F070744
S31500008700040B0B0B0BF028FB0CE06FF0030030752D
S3150000871008E0892000F06EFB04E040F2FB41384699
S31500008720FDF79EFC2046FDF723FC0BF0DFFBF1BDB9
S31500008730040100002DE9F04DDFF8BC530446A87A89
S31500008740A04282B063D00FF2CC01DFF88C690968D1
S31500008750DFF87889DFF86473DFF878A900910328D9
S315000087604FF4001B4FD8DFE800F047023E2B0BF01A
S31500008770C6FB386A69460BF0BBF818B14FF4A36123
S3150000878000F04AF802208DF800006946386A0BF0BE
S315000087908CF818B140F21A5100F03EF868790028BA
S315000087A014BF00220222386A02210BF0FDFB18B129
S315000087B040F21F5100F030F80320032CA87218D0A5
S315000087C0CAF800B00220A8722879FFF7CCFD01464E
S315000087D0386A00220AF0A4FC18B140F22F5100F0CA
S315000087E01BF8022C13D0002C18BF032C0FD100202D
S315000087F0A872C6F800B00AE0022C08D1CAF800B088
S315000088000220A87203E040F2455100F005F8BDE8E9
S31500008810F38D0000040200004046FDF721BC002055
S3150000882088E7DFF8BC0A807A70470000032805D87D
S31500008830DFE800F00302030314E77BE740F263512D
S3150000884002E780B500F00EF804D500210175006A34
S315000088500AF042FCA848407A012802D1BDE801404E
S3150000886000E701BDDFF87C0A90F914100029704773
S31500008870DFF86C0A407A704780B5032801DB0120D7
S3150000888002BD9D494872897A884218BFFFF7CEFF1C
S31500008890002002BD2DE97C4FDFF8486A03EA010B90
S315000088A0D6E9068929EA010528EA000402EA000A4F
S315000088B045EA0B0544EA0A044D4508BF44450DD078
S315000088C0CDE900230246306A0B460BF013F818B1C7
S315000088D040F28B5100F004F8C6E90645BDE8738FF7
S315000088E00FF63020FDF7BCBB38B5744D0446287B27
S315000088F0E8B1200018BFDFF8F02904D1A87C08B140
S31500008900402200E000220023DFF8DC090021FFF707
S31500008910C1FF002C14BF08220022286A08210BF090
S3150000892043FB20B1BDE8344040F2C7518CE631BD6F
S31500008930F8B50446022C0FF6DC1503DB4FF4BE61D6
S3150000894000F0A5F85D4E307B002840F097806A4F16
S31500008950B87A012803D040F2F65100F098F80021C9
S3150000896007F130000AF0A0FB306218B940F2F95165
S3150000897000F08DF8306A05210AF053FE18B140F276
S31500008980FB5100F084F8306A0FF69C110BF01EFBC9
S3150000899018B140F2FC5100F07AF8306A0BF04AFB4D
S315000089A018B140F2FD5100F072F84FF0FF30DFF8D9
S315000089B03C2906230146FFF76DFF306A4FF001118F
S315000089C00AF013FC18B140F2126100F060F8306A48
S315000089D04FF4803200210AF0F6FB306A09224FF08C
S315000089E0FF310BF0E1FA18B140F2196100F04FF8CF
S315000089F0012030730223DFF8F80800F043F8BDF8D1
S31500008A000000C0054CBF0020BDF8000070730AF0DE
S31500008A1022FDFFF769FFF88BFFF751FB0BF08AFB8E
S31500008A2000F08CF83879FFF7F9FB18B140F22C61A9
S31500008A3000F02DF8F87900F043F8387A00F05EF887
S31500008A40307C00F091F8787900F0D4F800F064F901
S31500008A5000F02FF9B07C00F025FBB7F91C00FFF7FA
S31500008A6045FC388C00F094F8788C00F0AFF8B879B3
S31500008A7000F014F9601E8041C00FB8722046FFF75F
S31500008A80D5FEF1BD01887F22684609F051B9284616
S31500008A90FDF7E6BA80B500F00CF801210AF043FBB9
S31500008AA010F5007F02D16FF07F0002BD8005001631
S31500008AB002BDDFF83008006A70470000C06500207C
S31500008AC010B50446DFF81C08017B51B1611E8941CF
S31500008AD0006AC90F0BF000FB18B140F26761FFF79F
S31500008AE0FFFE2000DFF8F81718BF0120C87110BD7F
S31500008AF0DFF8EC07C0797047B0610020F8B504468E
S31500008B00FDF730FA05466448DFF8D8670472377B0C
S31500008B10FFF783FA00F0010080F00100074204D05D
S31500008B20306A84F001010AF0F9FC2846BDE8F240FB
S31500008B30FDF71EBADFF8A807007A7047DFF8A4072A
S31500008B40017B01B9704780B5006ADFF8A8170022DB
S31500008B500BF0AFFA20B1BDE8044040F2926173E534
S31500008B6001BD000062C70300DFF87827117B10748F
S31500008B7001B9704780B50146106A0BF0A1FA20B121
S31500008B80BDE8044040F29D615EE501BD38C30300C7
S31500008B904149DFF850370884197B01B9704780B521
S31500008BA00146186A00220BF07DFA20B1BDE80440A8
S31500008BB040F2AE6148E501BDDFF82407008C70473E
S31500008BC0DFF81C07408C7047EC6300203249DFF861
S31500008BD014374884197B01B9704780B50146186A75
S31500008BE000220BF058FA20B1BDE8044040F2C461FF
S31500008BF02AE501BD28494A79824200D1704710B55D
S31500008C008C7A4871012C05D0FFF72CFD2046BDE873
S31500008C1010408FE510BD10B500F032F800F02BF8CB
S31500008C200146206A01220AF073FA20B1BDE810401D
S31500008C3040F2E66108E510BD80B5FFF73AFF0AF09D
S31500008C406AFA18B140F2EB61FFF74AFEBDE801404F
S31500008C50FFF7B9BA10B500F013F800F00CF80146AA
S31500008C60206A00220AF054FA20B1BDE8104040F212
S31500008C70F661E9E410BDDFF868060079FFF773BB1B
S31500008C80DFF86046206A012201210AF021BA0000BD
S31500008C9024600020D0E70000B061002010B5044633
S31500008CA0FFF707FF21460BF051FADFF8340684710F
S31500008CB010BD38B504467F2C0CD100F027F8DFF83C
S31500008CC03806FFF7DFFEBDF800007E24C00558BF5A
S31500008CD0BDF80040FDF746F90546FFF79EF960B975
S31500008CE060B27E2805D1DFF8FC15896A09B191F9D1
S31500008CF004007E28B8BFFFF796F9DFF8E405047391
S31500008D002846FDF735F931BD286000204FF6FF7083
S31500008D10ADF8000002237047DFF8C40590F90C0097
S31500008D207E2807D1DFF8BC05806A08B97F20704726
S31500008D3090F90400704710B50AF0F6FA800411D5D0
S31500008D40DFF89C454FF0FF30A0620AF0EDFAC00450
S31500008D504CBF0320012000210AF03CFBFDF70CF973
S31500008D60E06210BDBDE8104080B5DFF874054FF035
S31500008D70FF318162C162FFF795F920B9BDE8044071
S31500008D8000210AF027BB01BD80B50AF0CDFA4005E7
S31500008D90BDE804404CBF0320012000210AF0F7BAC9
S31500008DA010B5DFF8404594F9140003280DD100F002
S31500008DB024F9DFF82C154FF0FF3048620022216BB2
S31500008DC0BDE8104040200AF042BE10BD38B504464A
S31500008DD0FFF7CAFFDFF80C55FDF7DFF8686314B13B
S31500008DE00AF0AFFD01E000206874BDE831400AF0EA
S31500008DF0B3BF000038B50446DFF8E414DFF8E454E6
S31500008E004FF0FF304862FDF7C8F8686395F9140023
S31500008E10012802DABDE83140A6E7A87D08B1686BF3
S31500008E20A86300F071FAA87B10B10120E87331BD88
S31500008E302046BDE83840002200210AF008BE10B5E1
S31500008E400AF009FB78B1FFF72DF960B1DFF890441D
S31500008E504FF0FF30E062FDF78FF8A0620AF0E2FA09
S31500008E6000210AF0B7FADFF87C04807C18B1BDE86F
S31500008E70104000F068BA10BD7C6100200531010089
S31500008E80449300000B3101002DE9F043DFF8544410
S31500008E900FF28049206A89B005AA02210AF064FD12
S31500008EA0050003D140F6F40100F0A4F89DF8140083
S31500008EB0DFF82C64BDF8168007281CBF70790028DF
S31500008EC019D1B8F1060F16DB08F108008B2812D26B
S31500008ED0002000904346DFF82474206A3A4629466B
S31500008EE00AF04AFD404503D040F60D1100F082F825
S31500008EF03878000602D5FFF71EFF78E001208DF8CE
S31500008F000800CDF804806A46206A29460AF030FD3A
S31500008F1018B140F6241100F06DF8787800F00700DB
S31500008F2002281ED1FFF720FF94F91400032808BF7A
S31500008F30B8F1060F11D19DF80D0070B178780009CF
S31500008F4000F0010500F059F84FF0FF3070622A4634
S31500008F5000218F200AF07BFD49E0F079002846D1F8
S31500008F6005E09DF80D0010B10020FFF719FFF0791C
S31500008F709DF80D10084203D040F64C1100F03AF867
S31500008F80F07930B17878800603D5206A0AF0C9FAFC
S31500008F9018B1FFF7E9FE002060743878401C4045A0
S31500008FA003D040F6661100F025F807EB0805307986
S31500008FB02870FDF791FF68709DF80E00A87095F96E
S31500008FC00200FFF7F4F9E87008F10801FF202871A4
S31500008FD0C9B20098000C68710098000AA871009840
S31500008FE0E8713846627C0AF072FE0020607409B0AF
S31500008FF0BDE8F0834846FDF733B800202075206AA7
S315000090000AF06AB80FF21430FDF72AB838B50446EC
S31500009010002C0D4607D4FCF7AFFF011B89B28D4229
S315000090208041C00F32BD002032BD10B5DFF8B0421E
S31500009030606A4FF47A71FFF7E9FF60B1DFF8A402C6
S3150000904090F91400032803D10020FFF7A9FE02E0DF
S315000090508920FFF7CFFEA06A0A21FFF7D7FF08B1E4
S31500009060FFF782FE0AF060F900F0FF01E06AFFF701
S31500009070CDFF10B1BDE8104076E610BD000000003F
S31500009080044008404C50084010B540B90AF05AFC5C
S31500009090FCF768FF0446FFF7C8FFFFF7D9BABDE83B
S315000090A01040C2E738B58F4D0446287B60B12000DA
S315000090B002D10AF0D0F908B1402200E000220023D4
S315000090C040200021FFF7E6FBAC7431BD149300008D
S315000090D00840084018600846186008442DE9F04723
S315000090E081461446600688B0984648BF002002D4E0
S315000090F0200602D50120FFF7A2FEA003794D25D553
S3150000910000206874694648460AF0FBFFF0B99DF8EE
S31500009110080002280ED1BDF800000BF01BF8FF284E
S315000091200ED07749096831F810004FF4E46108421F
S3150000913006D10BE0032809D168460BF07EF828B16A
S31500009140286A0AF0DBFF08B901206874600410D5AC
S315000091500AF081F968B1FEF7A5FF50B10AF06FF980
S3150000916006460AF05FF9864203D0002130460AF02F
S3150000917031F9200744BF4846FFF786FEE00548BFA1
S31500009180FFF7D9FD4FF41850044218BFFFF7ECFD66
S31500009190E00244BF0120FFF719FE600244BF012030
S315000091A0FFF714FEE00144BF0020FFF70FFE95F91C
S315000091B014000FF2601A012864DB286A484E210366
S315000091C04FF0FF3730D595F9141001295ADB95F980
S315000091D01410032956DA00218DF8181001218DF894
S315000091E0141003A90AF09CF803982863FCF7D5FE2F
S315000091F06863A87D08B1686BA86395F91400012817
S3150000920004D002280AD1032028753BE000F07CF840
S315000092107762A87BA8B9296B002218E040F61D01E9
S315000092205046FCF71DFF2DE014F0845F12D000219C
S31500009230297509F051FF04200AF085FB7762A87BA7
S3150000924010B10120E8731DE0002200218D200AF0F4
S31500009250FEFB17E0A00248BF892002D4A00103D577
S315000092608820FFF7C7FD0DE0600048BFFFF78CFDC3
S31500009270A00007D523480068400403D4002100203D
S315000092800AF085F8A00744BF4846FFF789FD002C81
S3150000929004D5FFF769FD4846FFF782FD08F0020195
S315000092A00023994212D0484609F00CFF022802D04A
S315000092B0032802D005E0892000E08D20FFF79AFD03
S315000092C004E040F688015046FCF7CAFE08F00401A7
S315000092D00023994218BF0BF093F908B0BDE8F08758
S315000092E0B0610020C0650020406700600A00FA9364
S315000092F064C703007C77002066C70300E877002078
S31500009300585F00200440084000202875286A09F0AC
S31500009310E3BE00007068792E630000006C6962721B
S3150000932061696C2E6100000000000000010060030E
S31500009330010101016400B6006400C00000000000E5
S315000093400B00000000007047602080F31188704712
S3150000935070B50BF084FAA94C20460BF035FED8B94F
S3150000936020460BF0E7FDFF28044615D0A4490968FE
S31500009370085C851EE9B220460BF071FD0646E9B28F
S3150000938020460BF07FFC2146304600F0E5F82046EB
S31500009390BDE870400BF016BB70BD03460A4696A1A9
S315000093A00420FFE70CB480B502AA00F02AF801BC3D
S315000093B05DF80CFB00B587B00AF0BEFD00210591F3
S315000093C0049102466121039100230021029101913B
S315000093D001208C4900910FF23C21FFF7E3FF8A48F8
S315000093E08179C3788278039101880291417901914C
S315000093F00179009142200FF22821FFF7D3FF07B031
S3150000940000BD2DE9F04F85B005460C4690460BF0A1
S31500009410FEFD0026F8B90BF0ABF9E0B101200BF028
S3150000942066FA8246BAF1FF0F15D000210BF05AFA00
S31500009430294601A80BF0A2F905469CB900F087F869
S3150000944030B950460BF002FA10B104200BF0DBFDE8
S3150000945050460BF0B7FA05B0BDE8F08F8DF8042042
S315000094600125641C20780100E8D0A0F130010A290A
S3150000947005D20A2101FB0600A0F13006F1E700F053
S3150000948066F80028E4D122780025422A01A80ED0E9
S31500009490442A1AD0462A25D0572A0DD0622A3AD015
S315000094A0662A2AD06C2A25D0702A26D0D6E758F804
S315000094B0040B8DF80400D3E758F8041B8DF804104C
S315000094C002250904090E4170CBE758F8041B8DF8F4
S315000094D004100A0A427004250A0C8270080E8DF8E0
S315000094E00700BEE758F8041B50460BF07DFB00282A
S315000094F0B7D0ADE758F8046BB3E7012358F8041B5F
S31500009500662A08BF0223F2B250460BF04CFB002835
S3150000951008BF0026ECE73A4858F8047B006810F8C4
S315000095200A90FFB2FF2F9CD010F807B00BEB090191
S31500009530C9B250460BF0A6FB002889D1CDF800B081
S3150000954000233A46494650460BF0ABFC89E72A46CB
S3150000955001A950460BF046BB2DE9F043122885B011
S3150000956080460D4609D03A281FD04FF6FE71884234
S3150000957004BF2846FCF781FE36E02148234F0068E9
S31500009580465D0BE028460BF0A7F90146224600206F
S3150000959008F0E4FF3868455D203EF6B2FF2D23D083
S315000095A0212EACBF20243446ECE704F05AFA81465B
S315000095B0FFF706FB0646FEF786FE0746FEF77FFE2A
S315000095C00446FFF7F9FA02460E480FF25C010390D3
S315000095D0CDF8109023460E48006840880290019608
S315000095E000973B20FFF7DEFE2946404605B0BDE862
S315000095F0F0430BF00EBD0000574600000463002048
S31500009600445F00207C7700200CC303004C5F0020E1
S31500009610307700204242387042424242574242006E
S315000096204242424257420000574242575738704220
S31500009630000000002DE9F0410125012818BF20286F
