S02C00005A33536D6172744F75746C6574536F635F65667233326D67317032333266323536676D34382E73333742
S31500004000D85600208D4B03002D0D010065320300AC
S31500004010A70A0A010042000004180FAC0061540010
S31500004020000000000000000000000000000000008A
S3150000403000000000446E03000000000000000000C5
S315000040400000000000000000FFFFFFFFFFFFFFFF72
S31500004050FFFFFFFF00E0030010160118000000003C
S31500004060FFFFFFFFFFFFFFFF100000000000000042
S31500004070000000000000000000000000000000003A
S3150000408000000000000000007B7E00207B7E0020F8
S31500004090D8560020E4CB03005C4E0300784D002088
S311000040A05C12002000000400000000007C
S31500004200D85600208D4B03002D0D010065320300AA
S315000042106D32030069320300713203001935030061
S315000042201935030019350300193503001935030044
S31500004230753203001935030019350300BD5500001A
S31500004240CD90020045F702009D65000059F302007B
S3150000425089F702004BF702004DF7020047F702000C
S3150000426035C30200D7EB020071720000972A0100E5
S3150000427019350300193503001745000019350300E9
S3150000428019350300F5EB0200193503001935030053
S3150000429019350300193503001935030019350300D4
S315000042A01935030019350300193503008BF7020091
S315000042B049F702004B6F0000BFF7020019350300F3
S315000042C0D54D0300193503001935030019350300D0
S315000042D01935030019350300193503001935030094
S315000042E07149724A01E021B1491E1369DB07FAD40C
S315000042F001B9BAE0506001201060106910F0060F95
S3150000430005D0410700D5B3E0800700D5B3E0002013
S315000043107047F0B513460022002936D0624C634D33
S315000043208BB98B4231D250F8046BEE605B1C0826C9
S315000043302E60264601E036B3761E2F69FF07FAD4B3
S31500004340002EEED11FE0EFF3108672B600230EE0CA
S315000043502F6907F01907102F08BF2F602F693F0735
S31500004360F6D550F8047BEF605B1C10272F608B425C
S31500004370F4D306B962B6264601E026B1761E286950
S31500004380C007FAD40EB96FF002021046F0BD2DE94F
S31500004390F84F474F0D4639680446002041F00101A9
S315000043A09B4639604FEA92088146AA4602E0B1442C
S315000043B00AEB860AC14517D204EB89063046FFF799
S315000043C08FFF010022D1C6F30A00C0F500608608FF
S315000043D0A8EB0900B04238BF06465A463146504659
S315000043E0FFF797FF0100E2D021682A68914209D0C1
S315000043F02046FFF775FF010004D15A4601212846E1
S31500004400FFF787FF3968490849003960BDE8F28F30
S315000044102749254A0B6843F001030B608860012099
S3150000442048604869400704D50868400840000860AD
S315000044301EE04869800704D5086840084000086007
S3150000444019E00220486001E022B1521E4869C00707
S31500004450FAD422B9086840084000086005E00868F8
S31500004460400840000860002070476FF00200704767
S315000044704FF0FF3070476FF001007047002386E76A
S315000044800B48016841F00101016046F21A31C1642E
S315000044904FF4807141604169C907FCD40021C164B1
S315000044A00020704700000000809698000C000E4027
S315000044B008000E40072802D23549085C7047FF20E5
S315000044C07047072802D23349085C7047FF207047BF
S315000044D038B50446304800EB8105A8780009FFF797
S315000044E0E9FF2071A87800F00F00FFF7EAFF60717E
S315000044F0FF2814BF01200020E8702146E878A0714B
S31500004500287860706878254DA070284600F0A3F8DA
S315000045100120A86031BD10B5214984B01CC9684688
S315000045201CC02048204A0178D36814682340DB0762
S315000045302DD503292BD2184C12691C4B04EB810490
S31500004540E4781CB114B2002C48BF002223F81120D5
S315000045500123174A147803FA01F121431170154A11
S31500004560117891B100211478CC40E40708D5017088
S315000045708B401078584010706846FFF7A9FF1FBDA2
S31500004580491CC9B20329EED31FBD032101701FBD0B
S31500004590F45D0300FC5D030074620020002000400F
S315000045A0E85D0300F47D0020382000408062002092
S315000045B0F57D0020D77C0020890001EB401000F13A
S315000045C084400260704730B5002A446BDFF83451EE
S315000045D01ABF1022DFF83031DFF8303123400024D3
S315000045E0A84237D1DFF8280151B101290CD00229A0
S315000045F01ED003290CD0062915D0812918D023E016
S3150000460001680468006816E001680468006802E052
S31500004610416844684068090C01F4FE41C4F3034450
S315000046202143000C0CE08168806801F00F0107E06F
S3150000463041684468406801F4FE4104F00F042143D8
S3150000464000F0F00040EA010404FA02F0DFF8C410BA
S315000046501843086030BD38B504460D460220A060F8
S315000046600022A9782046FFF7AEFF287969786B7992
S31500004670020242EA016242EA0342EB7842EAC302DC
S31500004680EB790BB142F000522B7A0BB142F00402E7
S31500004690AB790BB142F002026B7A0BB142F0010228
S315000046A0AB78F32806D1180004D10429BCBF042036
S315000046B060F31B6218064CBF42F0E00042EA43106A
S315000046C02061154960690840A9780A0644BF21F0AF
S315000046D080010843297840EA4140E97A09B140F46B
S315000046E0804060610221AA7A2046FFF765FF28799B
S315000046F0F32804F13000BDE838400CBF0122002247
S31500004700102159E700200040FFFF00800080FFFFD6
S315000047101082E00F34200040F8BFE1FF70B5044678
S3150000472016460D46304600F0B7F800202070304699
S31500004730A847BDE8704000F0B8B801223F4940489C
S31500004740ECE701223F494048E8E701223F4940485B
S31500004750E4E780B5012000F0D2F93E4800F067F9A1
S315000047603D49087001BD80B500F0DAF9012805D091
S3150000477039480078BDE8024000F041B901BD30B5C6
S31500004780002400E0641C354D2D88E3B2AB420FD205
S31500004790E4B20C25324B15FB04F52B441D788542FB
S315000047A001BF5D888D421D799542EBD1184630BD1B
S315000047B0002030BD80B519B900F0A0F8002002BD78
S315000047C0B1F1004F02D200F0A3F8F7E7022002BDD4
S315000047D0B1F5000F3CBF0902FFF7ECBF022070479E
S315000047E070B504461D46FFF7CAFF06000ED02046E8
S315000047F000F0AAFC50B1B0682946FFF7DBFF28B9E4
S31500004800049870710598B071002070BD022070BDCB
S315000048101CB500931346049C0194012205E01CB5C7
S3150000482000931346049C01940022FFF7D9FF16BD9E
S3150000483080B500230093FFF7F2FF02BDFFDF020001
S3150000484088620020BD1A020090620020033902002F
S3150000485098620020D8630300F67D0020845F002064
S31500004860AC58002080B5FFF78AFF20B18068002190
S315000048700170002002BD022002BD0122F2E70022E3
S31500004880F0E700000C490D4808600020704700B1B1
S31500004890702070470020704780B500F013F8FF289D
S315000048A001D1A32002BD002002BD00207047704741
S315000048B000BF0348007870471C7100200EC003003B
S315000048C0F062002080B500F04AFCFF2818BF0020E7
S315000048D002BD002101707047FFF77ABF38B54478F2
S315000048E0456800F0FBFD00F09CF85B1BB3F1004F40
S315000048F098BF5550BDE8324000F0F6BD10B500F047
S315000049007BF86060042020702046BDE81040E5E793
S3150000491038B504460D4600F0FCFD281860600120FD
S3150000492020702046BDE83240D8E710B5044620780E
S3150000493001000CD0042806D000F0EBFD6168421A95
S31500004940B2F1004F01D8002010BD081A10BD4FF07B
S31500004950FF3010BD70B500F04FF8054600F0BEFD03
S31500004960064660686FF0004100F02CF840192060A0
S315000049703046BDE8704000F0B7BDF8B504460D46B8
S31500004980164600F0C6FD002156B1FF22327007E040
S31500004990121AAA4202D2154606B13170491C0834D1
S315000049A022680AB92846F2BD13781F00F6D0042BF8
S315000049B004D05268831AB3F1004FE9D806B13170BA
S315000049C00020F2BD0022D8E738B500F015F80546FC
S315000049D00EE001780A000AD0042904D04168691A59
S315000049E0B1F1004F03D8042101706168884708348B
S315000049F020680028EDD131BD044600F08ABD10B50F
S31500004A00FFF7FAFF00F00DF8C01AB0F1004F07D813
S31500004A1054186068FFF7D8FF2046BDE8104099E7B4
S31500004A2010BD0C2111FB04F1364A5358704770B57E
S31500004A30354E3649097804467078884204D3E52114
S31500004A400FF2CC0000F0C8FD7578681C70700C2160
S31500004A502C4811FB05F1084401214460017200E075
S31500004A604D7054F8081B0029FAD1FFF773FF28464A
S31500004A7070BDF8B54FF0FF310C2400916043214D15
S31500004A80214E284400210172307820B300F09AFEAE
S31500004A9028B94FF48F710FF2780000F09DFD00F0F9
S31500004AA038FD002105E0009B9A4288BF1A46009215
S31500004AB0491C7378CAB29A4211D2C9B214FB01F3E7
S31500004AC0EA58871AB7F1004F05D92B44121A1B7AF8
S31500004AD00BB9002AE7D100F082FE0020F2BD68463D
S31500004AE000F098FE10B9684600F02FFD0120F2BDD7
S31500004AF00C23044A584310440121017270470249AD
S31500004B0008707047F46C0020D57C002079C403003F
S31500004B106576656E742D636F6E74726F6C2E6300AE
S31500004B20024800787047014908707047047E0020EB
S31500004B30DFF86809DFF8681900880A68DFF8641981
S31500004B4084B0ADF8060003A8026002A80A68DFF880
S31500004B50581902600020ADF80400DFF850090088FB
S31500004B60ADF802000020ADF8000002200870002019
S31500004B70DFF83C190DF10603DFF838291B5C02EB60
S31500004B800012137003AB33F81030538002AB33F8C6
S31500004B901030938001AB1B5C93710DF102031B5C1B
S31500004BA001EBC30393601DF800301373401C01230F
S31500004BB002285373DEDB04B07047DFF8EC08007898
S31500004BC07047DFF8F01801EB0010407B00F00100A1
S31500004BD07047412818BF422803D0432818BF4428ED
S31500004BE001D10120704700207047412818BF422894
S31500004BF001D10120704700207047432818BF442880
S31500004C0001D10120704700207047F8B51546069A75
S31500004C1004461E4600F03BFA60B1042100F0DCFBBE
S31500004C20070007D02046FFF737FE324629462046C2
S31500004C30B84790E0F1BD2DE9F04383B00446160075
S31500004C4098461EBF0A9F002F5FEA08000D461DD03A
S31500004C5038787188000730794CBF4022802200F0F6
S31500004C6016FA98B1082100F0B7FB814670B1307989
S31500004C70FFF712FE0B9801900097434632462946ED
S31500004C802046C847BDE8F743FFF70FBEBDE8F783E8
S31500004C90F8B5164605461A4600F0F9F9D8B1069C4D
S31500004CA021000BD1022100F097FB040013D0284607
S31500004CB0FFF7F2FD31462846A0470BE0102100F031
S31500004CC08BFB070007D02846FFF7E6FD2246314654
S31500004CD02846B8473FE0F1BDF8B5154604461A46E2
S31500004CE000F0D5F908B98620F2BD0699002689B9E3
S31500004CF0202100F071FB07000CD02046FFF7CCFD09
S31500004D000998089B079A009029462046B847064608
S31500004D10FFF7CBFD3046F2BDF8B50446A56820780E
S31500004D20FFF7BAFD002612E02868F6B2142111FB3F
S31500004D3006F147182078398800F079FD01213846B8
S31500004D4000F04AFB01001CBF20788847761C2979B1
S31500004D50F0B28842E8D3BDE8F140FFF7A6BD70B5D2
S31500004D600024DFF85057DFF8406708E0FFF729FF17
S31500004D7020B1E4B205EB0410FFF7CEFF641C3178D6
S31500004D80E0B28842F2D370BD10B586B000248DF82B
S31500004D900800ADF80A108DF80C30ADF80E2001941D
S31500004DA0009400230898ADF81000002201A902A87B
S31500004DB000F057F8019806B010BD10B5002301E0C9
S31500004DC0001D5B1C9CB28C4204D204889442F7D12D
S31500004DD0408810BD002010BD0288B2F57C4FA8BFE8
S31500004DE000F00BB8DFF8D006081A0C2190FBF1F0A2
S31500004DF082B20021DFF8C406DFE7DFF8C416401AE6
S31500004E00142190FBF1F082B20221DFF8B806D4E754
S31500004E1010B50C460188638899420DD1027B23792F
S31500004E201A4209D0B1F57C4F04DBFFF7E6FF218972
S31500004E30884201D1012010BD002010BD10B51446D6
S31500004E400A88E3889A420AD10288B2F57C4F04DACE
S31500004E50FFF7C2FF2189884201D1012010BD002041
S31500004E6010BD2DE9F74F04469B460025002603E0BA
S31500004E70C0884519ADB2761CDFF82C160978F0B259
S31500004E80884280F0D080F6B23101DFF82806DFF8DC
S31500004E9024260844515C227880689142E8D100902B
S31500004EA03046FFF78EFE0028E5D04FF0000A05E0F9
S31500004EB0B8F80A004519ADB20AF1010A0099097954
S31500004EC05FFA8AF08842D6D200985FFA8AFA0068BA
S31500004ED0142111FB0AF100EB010821464046FFF7B9
S31500004EE097FF0028E4D04FF0000908E03879302118
S31500004EF0084202D1F8782D18ADB209F10109B8F8C7
S31500004F0008101FFA89F08842D6D2D8F804001FFA92
S31500004F1089F90C2101FB09F147182246394640461A
S31500004F20FFF78CFF0028E1D0019800B107603879BF
S31500004F30800611D5DFF88005002106E00279920689
S31500004F4002D5C278891889B20C30B842F6D3DFF898
S31500004F50780500EB010A03E0DFF8700500EB050AAF
S31500004F600C9D280018D0029E00F060F802463B888F
S31500004F7061882078DFF8589500F055FCE8B138795B
S31500004F80C0061CD500F052F80346029800903A4637
S31500004F9061882078C84747E00298002844D05646E2
S31500004FA0824600F043F802463B8861882078DFF8A5
S31500004FB0249500F036FC0028E1D17E2034E097F8F5
S31500004FC00280BBF1000F0CBFFC785C464046FFF741
S31500004FD00CFE30B1621ED2B23146504600F0FCFFE4
S31500004FE01FE04046FFF709FE30B1A21E92B23146DD
S31500004FF0504601F009F814E03DB9BBF1000F04D0AA
S31500005000F878834538BF89200ED3002E224604D176
S315000050100021504601F00FF903E03146504601F0F9
S31500005020C7F8002000E08620BDE8FE8F39464046DE
S31500005030D2E660B5002503E01E7B360616D46D1C4D
S315000050400679EBB2B34213D20368EDB2142616FB0F
S3150000505005F633441E888E42F1D1160006D0802A0A
S31500005060EAD0402AEBD11E7B7606E8D5184660BD0D
S31500005070002060BD80B5002201E080B5402200F02E
S3150000508006F800B1012002BD80B58022F7E738B5E9
S315000050900C46154600F063F8FF2801D1002032BD0A
S315000050A004E038B50C46154600F05BF8DFF804342A
S315000050B003EB00102A4680682146BDE83840B8E771
S315000050C04022FFE72DE9F047804689469246FFF7E2
S315000050D0DEFF002508B9FF2019E00026DFF8D473AB
S315000050E0DFF8C44300E0761C2178F0B288420DD286
S315000050F0F6B23001385C404508D052464946FFF7C3
S31500005100D0FF0028EFD06D1CEDB2ECE72846BDE8D5
S31500005110F08730B50022DFF89C3300E0521CDFF840
S3150000512088532D78D4B2AC420CD2D2B214011D5D94
S315000051308542F3D10D0003D01C44647BE407EDD512
S31500005140104630BDFF2030BD80B50021FFF7E1FFDE
S31500005150FF2801D1002002BDBDE8024031E5012152
S31500005160D7E70021D5E7DFF84C130001085C70474C
S3150000517038B50C46FFF7F3FF01460020FF291FBF95
S31500005180DFF8302302EB01118968002916D00022CE
S3150000519003E01B0648BF2846521C0D79D3B2AB422A
S315000051A00BD20B68D2B2142515FB02F52B44451C15
S315000051B01B7B002CEDD05B06ECE7C0B232BDF8B528
S315000051C00C461546FFF7CBFF01460022FF291DD0EE
S315000051D0002301E0521C5B1CB64800EB0110DEB256
S315000051E080680779BE4211D20068DBB2142616FB2E
S315000051F003F630442F00067B02D0760602D4EAE797
S315000052003606E8D5D6B2A642E4D1F2BD0020F2BDFC
S31500005210002109E010B50446012100F005F82046FA
S31500005220BDE8104001F03BB82DE9F34F87B001F01F
S31500005230EEF8069000249C48DFF878820078059006
S315000052409DF81C00019000E0641C0599E4B28C42B4
S315000052507BDA0199FF2907D09DF81C00FFF77FFF35
S315000052600446FF2C06D177E008EB04100699007B74
S315000052708842E9D14FF0000A4FEA041901E00AF129
S31500005280010A08EB09005FFA8AF180680279914207
S3150000529057D200685FFA8AFA142111FB0AF1451801
S315000052A02889B0F5967FC8BF01F093F9002613E070
S315000052B00120009000235A46002102A8FFF7D1FDE5
S315000052C09DF8200038B1BDF80A2018F809103B46B1
S315000052D0584600F062F8761C2989B0B28842CED2D0
S315000052E06868B6B20C21714347183879C006F2D403
S315000052F018F809008DF8080039462888ADF80A0024
S31500005300387940064CBF802040208DF80C00388844
S31500005310ADF80E002846FFF75FFDADF810003979AD
S31500005320F878490706D5D7F808B00328C0DBDBF8BC
S3150000533000B0BDE70328B4BF07F1080BD7F808B0E3
S31500005340B6E70198FF283FF47FAF9DF8200018B913
S315000053509DF81C0000F003F809B0BDE8F08F30B5E9
S3150000536083B0044601F053F805460120FFF7AAFA78
S31500005370012C03D0FF2C08BFA8420DD101237F22A8
S31500005380202101A801F069F91020009001AB00224C
S315000053900621012001F0E1F937BDF8B51F460446A4
S315000053A0387980070D46164615D501220021684634
S315000053B000F041FF04B96C46012D08BF062E0AD144
S315000053C0388840B93879400605D4012322467F2122
S315000053D0202001F053F9F1BD30B5047B01220023F2
S315000053E00C4205D1002030BD144218BF5B1C520090
S315000053F0D5B28D42F8D30069DBB250F8230030BD38
S315000054002DE9F04F0C4601210028607D4FF0000C7D
S3150000541008D0050008BF4FF0020E09D0012805D1BB
S315000054208E4605E010B94FF0080E01E04FF0040E6D
S3150000543009980A9DDDF82C90DDF830A0E046264F4D
S3150000544007EB8806378897421FD1F77817EA0E0FC1
S315000054501BD0B7784F4518D396F803B0E77B5FEAC1
S31500005460CB6B01D50FB910E07FB9E24501D0844579
S3150000547001DB00210EE0B77803F80C700CF1010691
S315000054802F887F1C2F801FFA86FC08F10108B8F1CF
S31500005490220FD4DB0846BDE8F08F0000FEBF0300F4
S315000054A06C68030070680300F87D00200AC00300E2
S315000054B00C6E0300F062002088690300246E03006E
S315000054C0F46C03001C6E0300B06300201063002020
S315000054D0515800004D58000000690300EFF3118099
S315000054E0602181F31188704780F3118870470000AE
S315000054F080B501F00BFD01F016FD80B202BD80B54E
S3150000550001F004FD01F00FFDFA21B0FBF1F080B2CD
S3150000551002BD80B501F0FAFCBDE8044001F003BD10
S3150000552080B501F022FE184800214160001D01F0FF
S3150000553053FB20B139210FF2880000F04DF800200E
S3150000554002BD114901200870704770B5044682B04B
S315000055502268002502B91BE000F00DF801201BE0CF
S3150000556070B50C4682B02268002502B910E000F042
S3150000557002F8022010E0044E044B3570009500211D
S31500005580706801F0ACBB0000C477002043550000F2
S3150000559000F025F9002076BD01F030FF307828B9FB
S315000055A07068214601F06CFC852501E025603570A8
S315000055B0284676BD014600220020D1E700F008B853
S315000055C073797374656D2D74696D65722E63000051
S315000055D07047000042DE704738B504460D4602F0BB
S315000055E04BFA00F0F6FF03F0B9F82946204603F01F
S315000055F0DEF82B4622466949202003F075FA294633
S315000056002046BDE83440E5E765482DE9F047654D9D
S3150000561001682E1D4FF420687165016AB165624903
S315000056200A68F26549683166416A7166816AB166DF
S31500005630C16AF166016B3167806B706796F834005A
S3150000564040074CBFF46BB46B03F0FFFA0022F26420
S315000056508442564A014624BFA2F1200AA2452746A3
S31500005660316505F19003DFF848C1DFF848E118D34A
S31500005670A0693064E4697464746DC4F30804062C8C
S3150000568013D1704511D360450FD200884DF64264A0
S31500005690A0420AD13068586040F20178706898607C
S315000056A003E000273764776407464348814202D205
S315000056B0014600E0091D0846904203D20C68B4F189
S315000056C0CD3FF7D03D49081AB0640021002005EB14
S315000056D08004401C0628E167F9D3002003E0C0B22D
S315000056E005EB8004E167974223D252F8041D714509
S315000056F0F9D36145F7D2CC07F5D5002405EB84092B
S31500005700D9F87C90894502D0641C062CF6D3062C69
S31500005710E9D1002814BF401E0520E0E7B16F002440
S3150000572005EB8402641CD2F88070D767052CF7D38A
S3150000573019600146481EC9B20029EFD1706DC0F349
S315000057400800032810D0042811D0052812D00628F6
S3150000575013D00C2817D0122818D1194800688007D2
S3150000576019D540F2025816E040F6012813E040F63B
S31500005770022810E040F603280DE0B8F5206F0AD1A4
S3150000578040F6042807E040F6052804E018B1322860
S3150000579038BF40F607284046BDE8F0872868030072
S315000057A004ED00E00000002000E300E0D8560020F1
S315000057B05C4E0300B44400009C000020D856002034
S315000057C01C200540EFF31080C00706D4EFF31180CC
S315000057D060288041C043C00F7047012070470020F9
S315000057E080F311887047704770477047704770475D
S315000057F07047704770477047704770477047002082
S3150000580070477047704770477047704770477047DA
S315000058100020704700207047704700007047012045
S3150000582070470120704701207047704770477047E6
S315000058300020704700207047002070470020704706
S3150000584000207047002070470020704701207047F5
S3150000585001207047B5207047002070470020704730
S3150000586000207047002070470020704770470020D6
S315000058707047B520704770470020704770478120F9
S31500005880704700207047B5207047704770477047D3
S31500005890704770477047704770477047704770474A
S315000058A00120704702460649012003F01EBA7047E0
S315000058B0044800680078012808BF022070470000ED
S315000058C0846E03001C710020012181814FF6FE7158
S315000058D0C1810121016100210170012070477047DB
S315000058E00020704700207047002070470020704756
S315000058F00020704700207047002070477047B52091
S31500005900704700207047002070477047002070479E
S3150000591070477047704700207047B5207047704742
S31500005920704700207047704780B5FFF718FCFF28C6
S3150000593005D0022803D2DFF8C817085C02BD002094
S3150000594002BDF0B5059D00260027092D044602D3A9
S3150000595000200021F0BDB4460FE05FFA8CFCA5EBF9
S315000059600C0020443F0210F8010C47EA166700219C
S3150000597010EB06264F410CF1010C5FFA8CF0A842A1
S31500005980EBD39F4206D828BF964203D2901B63EB07
S315000059900701F0BDB01A67EB0301F0BD10B5016851
S315000059A0DFF860270B8813804B8853804979117183
S315000059B00168097951714FF48A51D180016889795A
S315000059C0890644BF4FF48B51D180DFF83C178369B9
S315000059D00A783BB9C088DFF83437188002F0FD003A
S315000059E0087010BD42F002020A7016228169DFF8C3
S315000059F02047204600F0DCFB0020207010BD80B55B
S31500005A000020FEF744FFFF20FFF702FCFEF74DFFE4
S31500005A10FFF7D3F802460121DFF8E40600F00BFC9D
S31500005A20DFF8E036DFF8EC26DFF8EC06522103F06B
S31500005A3019FAFEF78EFE03F0A1FA03F001FC03F05B
S31500005A40F5FC03F07FFE03F021FF04F053FE04F0A3
S31500005A5041FF04F089FF05F0FCF805F0D1FB05F0E5
S31500005A603BFD05F017FE06F075FB04F047FEBDE8AA
S31500005A700140FFF774B9704780B506F0A1FC20B964
S31500005A8008F095F808B906F0DBF8FFF737FFBDE830
S31500005A900140FFF745BF10B500224FF6FF71DFF852
S31500005AA07C3600E0521C92B233F832408C4203D06E
S31500005AB08442F7D1104610BD084610BD38B50446DD
S31500005AC0FFF7E9FFDFF8585601464FF6FF722888C0
S31500005AD0914203D12246DFF84C1606E0DFF83C2659
S31500005AE002EBC1014A68DFF8401603F004F9288882
S31500005AF0BDE8324003F0EFB810B50446DFF82C06D7
S31500005B000078002882B03BD008F0EEF80246DFF8B5
S31500005B102016022003F0EFF82068418800914379AF
S31500005B20A289DFF81016022003F0E5F8022003F040
S31500005B30AFF818B120684088FFF7C0FFE07B28B1B6
S31500005B40228ADFF8F415022003F0D5F8E07CDFF8AE
S31500005B50EC150090A0680278A37C022003F0CBF835
S31500005B60207DA1890A1AA1680144012392B202206C
S31500005B7008F0DCF8BDE81C40A4A1022003F0B5B88B
S31500005B8013BD10B5044620684079FFF7E8FAFF28F0
S31500005B901DD0DFF8AC15227F01EB0010017B91428E
S31500005BA015D1226840881188884206D04FF6FF73C7
S31500005BB099420CD1B0F5004F09DA2079022818BFB6
S31500005BC0032806D111895079FFF73EFE08B9002057
S31500005BD010BDA07B0028204603D0BDE8104008F089
S31500005BE017B9BDE8104008F04BB930B5144683B07C
S31500005BF01A4623785B074CBF052303239A420AD231
S31500005C0000931346DFF83C25DFF83C15022003F02D
S31500005C106CF800203EBD089D286029710698E88032
S31500005C20AC60AA81207800F00100A8732078800873
S31500005C3000F00100E8732078C00800F001006875E4
S31500005C4001202875E87B30B10121204608F0F1FBE0
S31500005C50297D891C29752882287D411C2975205C8F
S31500005C60A874481C2875C9B2605CE8740798A861D6
S31500005C7000F0CDFB287701203EBD2DE9FE430F46FF
S31500005C80DFF8C814DFF8C854DFF8C88491EC080BB5
S31500005C9085EC080B0B9E0295019600240A9900914B
S31500005CA03946FFF7A2FF002866D0C8F80050A87C46
S31500005CB0DFF8A41408702846FFF71EFF2846FFF7F2
S31500005CC06DFE284600F0ECFA20BB2EBB042F18BF51
S31500005CD0052F03D0022F18BF032F01D1012200E0A8
S31500005CE00022E988286801914188009101210388F2
S31500005CF0E87C00F012F990B12868807980060ED40D
S31500005D00DFF85844012020700121284600F003F9ED
S31500005D100020207001242FE0307D80072CD52868D4
S31500005D204079FF2824D10027DFF8D863FEF745FF26
S31500005D30F9B2814220D2F8B2FFF715FA8146F8B2DD
S31500005D40FEF73FFF90B1286841884846FFF792F971
S31500005D5060B12846FFF722FE286880F8059086F88D
S31500005D6004902846FFF70DFF00B101247F1CDDE7F4
S31500005D702846FFF706FF044608F0C6FA1622002159
S31500005D80DFF88C0300F057FA0020C8F80000204620
S31500005D90BDE8FE83DFF8C8030178491C017001F0F5
S31500005DA07F007047DFF860130A78002814BF42F0BE
S31500005DB0010002F0FE0008707047DFF8A8130870B3
S31500005DC0704778B1DFF89C130978012903D101885F
S31500005DD041F0400105E0022904D101884FF6BF7267
S31500005DE011400180704778B1DFF87C130A78012AE8
S31500005DF004D1DFF8782312780A7001E0022A03D171
S31500005E00017841F010010170704700005D0000004C
S31500005E10F0B5BD4D04462878C00783B001D50020F3
S31500005E20FEBDBD4EB74F3046FFF7DDFFB81DFFF78D
S31500005E30C8FFC9483178007849074CBFF0707070C8
S31500005E40B44801882878800708D53246B048FFF75D
S31500005E5010FD297801F0FD012970FEBDAB480088D0
S31500005E604FF6FC72904208DA0B4601460194009602
S31500005E703A46002008F072FCFEBD0A4600943346FE
S31500005E80394608F045FCFEBD0020C1E70A4601463A
S31500005E90B048006801E00021F8E770B504460E46F8
S31500005EA02079010018BF012815460BD1A06800789B
S31500005EB0C00601D5300005D0A07B002804BFE07CD9
S31500005EC00B2801D1002070BD924900200880607D1A
S31500005ED0E17B00280CBF0820002011B908F02BFA3E
S31500005EE006E040F0040008F026FA208A08F032FAAC
S31500005EF0A07C08F020FA0B2008F01DFAE07C08F0E0
S31500005F001AFA304608F017FA2046FFF747FD2846EA
S31500005F10BDE870407CE70022BFE770B5044618462E
S31500005F20934B8E4D1B78012B01D02E7816B1002095
S31500005F30287070BD82F001020A4301D1002070BDB5
S31500005F402BB10A4604992346FFF772FC00B10120E3
S31500005F5070BD000038B5D2885224950648BF492442
S31500005F60550544BF083CE4B2150544BF083CE4B2FD
S31500005F70120444BFA41EE4B203284FF6FD7310D8E2
S31500005F80DFE800F00204080D0B460AE0C8B208F08C
S31500005F90C8FE02E0C8B209F0F6F8034601E0641E46
S31500005FA0E4B21846FFF763FC201AC0B232BD425471
S31500005FB00844120A427070470844110A4170027080
S31500005FC0110C817070470844110A41700270110C5F
S31500005FD08170110EC1707047B0B504460D000EBF3A
S31500005FE000202878FF28174601D12070B0BD28462A
S31500005FF008F044FA874288BF07463A46691C601C87
S3150000600000F0D6F82770B0BDB0B50D0004461746AF
S3150000601003D1002060702070B0BD2878FF2802BF31
S315000060206878FF2820700CD0284608F02CFA8742A2
S3150000603088BF07463A46A91CA01C00F0B9F827708D
S31500006040380A6070B0BDF0B5541E002B37D0052A53
S3150000605048DA0025002600230CE0571EFF1AFF0031
S315000060600CFA07FC4CEA050511F80EC00CFA07F706
S315000060703E435B1CDFB2974209D2DBB2A4EB030EB0
S3150000608000280CBF4FF0000C10F80EC0E5E7042AFC
S315000060900FDAD0000121D200401E9140494245FA54
S315000060A000F2D20748BF0D4346FA00F2D00748BFB8
S315000060B00E43AE420FDBB54214DA10E05B1CDDB2D4
S315000060C095420FD2DBB2E51A00280CBF0026465DCA
S315000060D04D5DB54201DA0120F0BDAE42EEDA4FF079
S315000060E0FF30F0BD0020F0BD0021224A01E0891CEE
S315000060F0C9B2535C8342FAD3501840787047000007
S31500006100D07D0020386F00205B7E0020C07D0020FF
S31500006110B0750020C27D0020446F002008B803003F
S31500006120CE7D002070B7030088B70300AE5F002065
S3150000613090B7030098B70300B8B70300C4B70300CD
S31500006140F062002000B80300E4B7030078B803004B
S315000061508C750020AC750020DB5F0020577E002088
S31500006160DC5F0020587E0020597E00205A7E0020E9
S31500006170DA5F002098B80300283808288041C00F4D
S31500006180704740B11C280CD01D280DD01E2818BF02
S315000061901F2806D00AE0A1F10B00102806D2002025
S315000061A070471B29FBDB01E00829F8DB8A207047D2
S315000061B0814233D210441144401E491E10E011F8AA
S315000061C0013900F80139121F11F8013900F80139B7
S315000061D011F8013900F8013911F8013900F80139CF
S315000061E092B2042AEBDA93B2002B1EBF11F80139E2
S315000061F000F80139521EF6D1704711F8013B00F83C
S31500006200013B121F11F8013B00F8013B11F8013B5D
S3150000621000F8013B11F8013B00F8013B92B2042A59
S31500006220EBDA93B2002B1EBF11F8013B00F8013BDD
S31500006230521EF6D17047130003D00A46194609F0DC
S315000062405FB9704710B500E0521E93B223B100F05B
S3150000625012F8F9D0181B10BD002010BD10B500E0D3
S31500006260521E93B22BB100F006F8F9D0181B40B2BB
S3150000627010BD002010BD10F8013B11F8014BA342E0
S31500006280704780B509F0F0FBBDE80140FFF7B7BBEA
S3150000629080B5FFF7F3FABDE80140FFF7ECBB7047A6
S315000062A0FFF722BBFFF724BB1CB5059C0194049C99
S315000062B0009403F004FE16BD38B504460D46FFF7FC
S315000062C032FB29462046BDE8344009F024BDFFF7DD
S315000062D011BBFFF71BBB000010B57448744C006877
S315000062E02060606048220021FFF7A5FF7148216801
S315000062F0007808704FF6FF71206800224180027313
S315000063000020226850730B202268907314202268A4
S31500006310D0734FF6FE7220680282418209F044FD76
S315000063202168087609F040FD2168487609F03CFDB1
S3150000633021688876604821680078C8765F492068B9
S31500006340096840F8281F5E49097801715D4821688F
S315000063500068086310BD10B501F0BBF9544C6168C4
S31500006360897B884203D0084601F062F950B901F0F2
S31500006370B4F90146606890F90F00814204D001F03B
S31500006380BBF908B1012010BD6068008A01F00AFE61
S315000063906068408A01F024FE6068007B012818BF0F
S315000063A0002001F0EBFD002010BD10B5464C00208A
S315000063B020700AF0AFF920B92046BDE81040FEF77C
S315000063C09DBA67E080B5002000F015F828B10020DE
S315000063D000F005F808B1002002BDFF2002BD3448D8
S315000063E00068407B02281CBF1128432801D10120E8
S315000063F07047002070472E480068007B01281CBFAC
S315000064000228032801D10120704700207047002090
S315000064107047002070472D4908707047704700206C
S315000064207047012070477047002070470020704772
S31500006430704770470020704780B50020FFF7CFFFF8
S3150000644018B1BDE802400020D5E702BD80B50020A6
S31500006450FFF7C5FF30B116480068007B032801DA54
S31500006460002002BDFF2002BD10B5040005D040F299
S3150000647049110FF20C10FFF7AFF81448007808B96D
S31500006480702010BD09480068482111FB04F108443A
S3150000649007494860BDE810405DE705484068008A46
S315000064A0704703484068408A70470000E45B00205C
S315000064B070760020C75F0020C85F0020E85B0020E0
S315000064C0BD5F0020EC5B002060760020DF5F0020CF
S315000064D07047002070470020704709F0EABE7047F9
S315000064E070470AF021BC0AF0FABA82B08DF80010A3
S315000064F0DDE9002311461A4602B002F0A7BE32B506
S3150000650086B004468DF8042007F0F4FA05462046C6
S3150000651007F0FEFA80F001010D420DD0BDF818001B
S3150000652007F0C9FB8DF80000FF2804BF00208DF896
S315000065300000CDF808D01AE0294308BF06A815D0F8
S31500006540054214D0BDF8180007F0B5FB8DF8000021
S31500006550FF2804BF00208DF800009DF800008DF88C
S315000065600C00BDF81800ADF80E0003A80290DDE996
S3150000657001010A460146204602F068FE07B030BD1A
S31500006580656D6265722D6D756C74692D6E657477B7
S315000065906F726B2D737475622E6300000AF0C6BBB2
S315000065A080B5012115480AF067FC042107200AF08E
S315000065B0CFFF13481349144A0160042111600221D8
S315000065C041620421114A1160816A41F0020181622F
S315000065D001BD0B480BF00CB8A52800D0704780B55C
S315000065E000F005F810B10A490020086001BD044812
S315000065F0006810F0010018BF012070470005080070
S31500006600002005400108030080E200E000E100E010
S315000066100000A44210B5DFF8C0400120207082B00F
S3150000662000200AF0F1FF38B100200AF0EDFF18B1A2
S3150000663000202070492016BD02237F2200216846D3
S3150000664000F00BF8BDF80000B0F57F7F03D0002006
S315000066502070072016BD002016BD10B5FF2908DCE6
S31500006660DFF87440247844B1BDE81040C9B20BF09D
S31500006670ABBABDE810400BF035BE10BD2DE9F041B8
S315000066800446FF2C0D461646984616DCDFF84800F1
S315000066900078C0B1DFF84870387818B184210F4807
S315000066A0FEF79AFF0120387043462A463146E0B28B
S315000066B00BF0F8FB0020387005E042463146BDE895
S315000066C0F0410BF031BEBDE8F0810349097800299D
S315000066D018BF0BF0E8BC7047527E0020DCB5030003
S315000066E0537E00202DE9F04786B00F9F109D0E9C2B
S315000066F00295019706468A46904699460094FFF70A
S315000067008EF818B1022803D002D310E001200EE063
S315000067100CBF0120002000210491039002950197EF
S3150000672000944B4642465146304600F079F906B091
S31500006730BDE8F08710B586B00024049401240394C4
S31500006740099C0294089C0194002400941EE010B554
S3150000675086B000F008F8802318E010B586B000F087
S3150000676002F8402312E000240494019301240394C8
S315000067700023089C00930294704710B586B000F081
S3150000678009F84023099C0294089C019400F048F9FA
S3150000679006B010BD002404940093012403947047AE
S315000067A010B586B001240494002403940A9C029434
S315000067B0099C0194089C0094E8E71FB5089C039483
S315000067C0079C0294069C0194002400940CE01FB5DB
S315000067D000F002F8402307E000240193039400230D
S315000067E0069C00930294704700F0CCF904B010BDEB
S315000067F02DE9FE4F92461D46064688462A46FEF776
S3150000680046FC002407000C988DF80060A346D94684
S31500006810ADF802808DF80450ADF806A0ADF808007A
S3150000682047D069463846FEF7F3FA002841D0DDF82E
S315000068303880002505E007F07EFD641C09F101099A
S315000068406D1C3989A8B288422BD27868ADB20C216A
S31500006850694346183888B0F57C4F09DA3088ADF8B8
S3150000686006006A4631463846FEF7E8FA0028E7D0C1
S315000068703088504538BF0BF1010BDFD39DF834202B
S31500006880A1B29142DAD207F065FDB07807F053FD68
S315000068905FEA0800D1D03079C0074CBF0720052039
S315000068A0C9E71FFA8BF111FA84F01FFA89F18842C1
S315000068B001D1012000E00020BDE8FE8F2DE9F04760
S315000068C08EB00025DFF84C9100E06D1CFEF775F9DF
S315000068D0E9B281424CD2EDB200274FEA051A00E038
S315000068E07F1C09EB0A00F9B2806802799142ECD26A
S315000068F00068FFB2142111FB07F100EB0108002428
S3150000690007E0B078FEF779F910B104A807F0BBFDEF
S31500006910641CB8F80810A0B28842E1D2D8F8040086
S31500006920A4B20C2161434618FFF753FE3146404698
S31500006930FEF752FA3179009049064CBF8023402376
S31500006940002103912121029104A901913288B8F80E
S31500006950001019F80A0000F015F98628D8D0B0788A
S31500006960FEF743F90028CCD004A807F087FDCFE74F
S315000069700EB0BDE8F08770B58EB01546139C052C99
S315000069803FDB04AA03922122029205AA0192129ADF
S3150000699000922A4600F0F6F8060034D19DF8100061
S315000069A0412818BF422804D105A807F067FD461CF8
S315000069B00BE0432818BF442804D105A807F063FD5F
S315000069C0861C02E00BF00CFD0646F6B2301D844232
S315000069D017DB284607F0BEFC002007F0ACFC9DF84C
S315000069E010000D4C07F0A7FC20883118522908DA50
S315000069F00A4B324605A91844FFF7DAFB20883018FF
S31500006A0020800EB070BD284607F0A4FC304607F083
S31500006A1092FCF6E7F0620020C27D0020446F002061
S31500006A202DE9F04F89B00546002004900090894674
S31500006A30129C934698468DF81450ADF816908DF832
S31500006A401880ADF81AB0ADF81C400023002204A946
S31500006A5005A8FEF706FA049808B9862082E015987C
S31500006A6068B904999DF850008978884218BF8D202E
S31500006A7078D104980079C00758BF882072D5049849
S31500006A800079139E400725D50498806840680290D7
S31500006A90049880688068019004988078FFF76CFB02
S31500006AA082460498C0788DF80000032853460246B3
S31500006AB0314629DA02A8FFF7C6FA07469DF80020F4
S31500006AC05346314601A8FFF7BEFA012F18BF10F151
S31500006AD0010F28D01698002843D100F046F8FEF79B
S31500006AE0FFFE01003ED100F040F8FEF7F5F8010088
S31500006AF038D10120009000233246002105A8FEF778
S31500006B00B0F9010011D02DE00298FFF79CFA012898
S31500006B1009D09DF80020019853463146FFF793FAB5
S31500006B2010F1010FD6D187201CE0049B4A46294666
S31500006B303046FEF732FC0296009443469DF850001C
S31500006B4001905A464946284605F087F800F00DF8A8
S31500006B50FEF7C5FE009443465A4649462846FEF7C8
S31500006B6097F8002009B0BDE8F08F039643460498D5
S31500006B70C078029000945A469DF85000019049460C
S31500006B802846704710B586B000248DF808008DF8A9
S31500006B900C30ADF80E20ADF80A100194009401A94E
S31500006BA008980A9B099AADF8100002A8FEF759F951
S31500006BB0010004D10B9911B1019A92780A7006B0BE
S31500006BC010BD0000012100F01F029140DFF83025C2
S31500006BD0400942F82010704770B50546FEF77EFC66
S31500006BE0002600242821DFF81C2501FB06F31344A8
S31500006BF09B7F13B1761C042EF7DB042E08BFDFF84B
S31500006C00084508D02DB17143114401238B772E60BE
S31500006C1001E0DFF8F844FEF767FC204670BD10B5CA
S31500006C200446042C00D324E1FEF758FC2822DFF8A2
S31500006C30D4146243114400220A778A771CE110B506
S31500006C40DFF8CC04017809B1002010BD01210170E4
S31500006C50DFF8C004DFF8C0440AF00EF90321DFF8BC
S31500006C60BC040AF04DFA032020710121DFF8B004BC
S31500006C700AF002F920460BF0DAFBDFF8A814DFF879
S31500006C80A84401200BF0BCFBE069C00AC002E06129
S31500006C9040F2FF70A061002020601D20FFF792FFE8
S31500006CA0DFF888144FF000500860A021E06940F03A
S31500006CB00100E061DFF84C040BF0DAFBDFF870143A
S31500006CC000200870DFF86C140870DFF86C14086098
S31500006CD0DFF868140860DFF86814086010BD2DE955
S31500006CE0FE4F0546042D8B46144699464FF0000884
S31500006CF028BFDFF854040ED2FEF7F0FB02902821DD
S31500006D00DFF8000469434618B07F28B90298FEF7F9
S31500006D10EBFBDFF8380488E00C9F34B9B9F1000FBB
S31500006D2002D039462846C8477BE0610CE003DFF80D
S31500006D30F853D5F800A0C6F8189000F078F8C6E920
S31500006D400201BBF1010F0ED14FF47A726243CDE915
S31500006D5000280246F420A0FB0249DDE90001001BE1
S31500006D6030617A207061D6E90201401C61F1FF3181
S31500006D70C6E900010120307786F81FB03762DFF8D8
S31500006D80B003007800284CD1DFF8AC73386810F1F6
S31500006D90010F02D03868401C3860DFF89843DFF8EE
S31500006DA0B0932078A8B9C9F800A00420A8616FF0B4
S31500006DB06402D6E90001414501D8904200D310464D
S31500006DC05044E864E86940F00400E861012020705E
S31500006DD022E0386801281FD186F81C8000F0F0F800
S31500006DE0AAEB000000F0F3F800F045F9B8F1000F47
S31500006DF004BF01203077504600F04DF9D5F800A0C9
S31500006E00E86C217808F1010831B1D9F80010401A70
S31500006E10AAEB01018842E1D3386810B13868401EF8
S31500006E2038600298FEF760FB0020BDE8FE8F10F583
S31500006E307A6041F100014FF4FA5200230BF01CBBBB
S31500006E4010B50446042C00D313E0FEF747FB00F010
S31500006E5009F822B9FEF748FBDFF8F00210BD002260
S31500006E600A7709E02822DFF89C12624311448A7FE0
S31500006E707047DFF8D40210BDFEF736FB002010BDC8
S31500006E802DE9F0410446042C0E4628BFDFF8B8026F
S31500006E903AD20EB99D4837E0FEF720FBFFF7E2FF36
S31500006EA022B9FEF721FBDFF8A4022DE00A7F22B902
S31500006EB0FEF71AFBDFF89C0226E0D1E900489A4962
S31500006EC00F68A3490D68FEF70FFB781B0021884564
S31500006ED004D8844238BF4FF4804010D3221A68EB9E
S31500006EE00103DB0043EA5273D2004FF47A74A4FB29
S31500006EF0020104FB031110F5804041F10001C00BB3
S31500006F0040EA414030600020BDE8F08170B58B4E0C
S31500006F10002334688448026830688442F9D198189E
S31500006F2044EB030170BD30B54FF4FA5200F004F89B
S31500006F30C00B40EA414030BDA2FB004502FB0155B3
S31500006F4014F5804045F1000170472DE9F047FEF742
S31500006F50C5FA754D8246E869296900EA010626F0F8
S31500006F600500A86170071ED5714FDFF8C881DFF8EC
S31500006F70E091012038702C6800F022F8201A00F009
S31500006F8026F800F078F8204600F085F82C68E86CC2
S31500006F9098F8001029B1D9F80010401A611A8842F1
S31500006FA0EAD300203870F00705D50120A8616348B0
S31500006FB00168491C01605046BDE8F047FEF794BAE7
S31500006FC0E86920F00400E861D9F8000070472DE96F
S31500006FD0F04300260446002528214A4871434718F5
S31500006FE0387F7D77002841D0D7E900018D4207D848
S31500006FF028BF844204D2001BA941C7E9000135E03D
S31500007000F87F08B938772DE0D7E90001D7E90223E0
S31500007010201AD7E9028965EB01010BF02DFAB8EBCE
S31500007020020069EB0301C7E90001386939690128E3
S31500007030786909DB0818F428786113D3D7E90001C9
S31500007040401C61F1FF3108E0401AF428786109D349
S31500007050D7E90001401E61F10001C7E90001786926
S31500007060F4387861B86908B101207877761C042E67
S31500007070B2DBBDE8F08310B5002428212148614326
S315000070804218507F18B1116A926920469047641CD5
S31500007090042CF2DB10BDF0B54FF0FF321346002191
S315000070A0184C28254D436619367F46B12544D5E947
S315000070B000679F4203D82EBF964232463B46491C84
S315000070C00429EEDB00214FF0FF34A34208BFA242A1
S315000070D012D08B426FF0640401D8A24200D322463C
S315000070E01B49184B086004211960101858630121C8
S315000070F0586840F0040058600E480170F0BD00006A
S3150000710080E200E068610020011000F0041000F049
S31500007110487E0020000508000C5D002005002000C8
S3150000712080091200185D00200820044000E100E0FC
S31500007130467E0020477E0020C8720020CC720020C8
S31500007140D072002020200440021000F0031000F04E
S31500007150C4720020051000F0012100F01F029140CA
S31500007160514A400942F82010704730B54F48504DFB
S315000071700FC887B003AC84E80F00684600210022E0
S3150000718000230EC002208DF80600012149484A4C12
S3150000719009F072FE4FF6FF70E0616A460021204654
S315000071A00BF03CFA00208DF80E0003A920460BF0E8
S315000071B0E9F9424809F090FE9DF80E1001228A4036
S315000071C0491C8DF80E10B0FBF2F0C9B20B292860ED
S315000071D002D23B498842E8D23A4809F07DFE3A4954
S315000071E02A68B1FBF0F339480021E3FB0201384A73
S315000071F000230BF041F93749086000203649087032
S31500007200A06920F01000A0610A20FFF7A5FF33490E
S315000072104FF48060086007B0002030BD38B500F03C
S315000072201BF804460D4605E04FF6E85000F02AF834
S3150000723000F00CF800218D424FF6E950F4D8844254
S31500007240F2D2A0B200F01EF8002032BD24484FF062
S31500007250FF3124184D41704715491C4A096800231F
S31500007260E0FB012310461946194A00230BF004B926
S315000072701C480168C90604D5102181600120164901
S3150000728008707047010081B00BD017490A6892B2A6
S315000072900B68ADF80030BDF800309B1A9BB28342F4
S315000072A0F6D301B07047000080E200E070B603003C
S315000072B08475002000020400008001404041050062
S315000072C081841E005000020000B0710B20A107004F
S315000072D040420F0088750020567E002000E100E045
S315000072E01802FFFF0C800140248001403E480168DF
S315000072F0090C090481603B48016070473B4A41091B
S3150000730052F8212000F01F00C240D20706D5384AA5
S3150000731052F82110C14001F001007047002070476B
S315000073200000000070B50646072808BF032602D0F5
S31500007330082808BF0226FFF75AF930B1012E04D1FA
S31500007340A520FFF749F9012400E000240BF0BCF961
S31500007350002080F311880BF0ACFB214D761E002037
S31500007360042E286016D8DFE806F0030A0A0E12007B
S315000073702048016821F00401016030BF0EE00120C1
S315000073800BF05BFE0AE001200BF068FE06E00BF056
S3150000739094FE03E0AF211848FEF71EF91248C168B3
S315000073A00068084086B22E600920FFF7A7FF18B9CB
S315000073B01120FFF7A3FF10B146F4803028601D208E
S315000073C0FFF79CFF18B1286840F4003028600CB124
S315000073D0FFF7E6F80BF086FBBDE870400BF0D0BF78
S315000073E0BC740020C07400201CA4004000E200E031
S315000073F000E100E010ED00E07CB1030092E7000040
S3150000740010B54C00014600F05EFD22460BF0D3FF9E
S31500007410A04201D0002010BD012010BD80B500F0B3
S3150000742052FD0CF022F800B10120C0B202BDDFF817
S31500007430A00A407D00B101207047DFF8942A117B35
S3150000744001B9704780B50146106A0CF064F820B1A6
S31500007450BDE8044040F24F1100E301BD10B5DFF86E
S31500007460704A627D010018BF012102B101229142DA
S31500007470607519D068B16FF07F00FFF7DEFF0CF082
S31500007480C1F8C00510D5206ABDE8104001210CF0F6
S31500007490B3B9DFF8784A94F90C0000F014FE207AAC
S315000074A0BDE8104000F034BD10BDDFF8241A497D58
S315000074B001F0FE010843D1E780B500F004FD0BF0B2
S315000074C073FF00F00300032801D1012002BD002054
S315000074D002BD80B5B0F5004F07D100F021FEDFF800
S315000074E0980A00F0D9FCBDF80000DFF8201AC8831E
S315000074F0002002BD2DE9F04F440900F01F050027CA
S31500007500DFF89C8A00E07F1C98F80660F8B2B0426B
S3150000751045D2D8F80800FFB250F827004FF0000C0B
S3150000752001E00CF1010CC67E5FFA8CFEB645EAD28C
S31500007530D0F81CE05FFA8CFC182616FB0CF6B64455
S315000075409EF8086006F00706A642EAD19EF8096092
S31500007550B542E6DB9EF801B09EF8009006EB0B0AFA
S31500007560AAEB090AAA45DCDBDFF8704A247854B195
S31500007570DFF85C49A47B34B9DEF80C401CB1246802
S31500007580EC40E4070BD511B1AC1B4C440C7012B1A6
S315000075909EF8081011701BB1C3F800E000E000204F
S315000075A0BDE8F08F400918BF40F01800704710B5CD
S315000075B0DFF81C49206A0BF058FF0246206ABDE836
S315000075C0104000210BF06DBF0B38102834BFDFF8D8
S315000075D0D40ADFF8480B006870473EB568460021BC
S315000075E0002200230EC0DFF8240901788DF8001070
S315000075F0817A0A0018BF022914D10079DFF8D05821
S3150000760000F0BBF8044600F00EF858B1286A0122D3
S3150000761000210BF0CBFE00F006F818B140F27921FC
S3150000762000F068FB37BD286A6A4621460BF0E6BEC5
S315000076302DE9F041044604F01F001B2886B034D221
S31500007640002000906B46002200212046FFF752FFE3
S3150000765007002AD02046FFF7B7FF5FEA000824D0CC
S31500007660DFF86C68DFF8445AF06B804515D001A846
S31500007670414606220CF0C6F8306AC6F83C8001A9DD
S315000076800BF0ABFF88B9306A03A90BF0B4FFB5F96C
S315000076901C10306A0BF07CFF38B90098B062776234
S315000076A00098002818BF006901E08A200EE0F06209
S315000076B029798C421CBF2C71FFF78FFF96F90D00BC
S315000076C0C101306A09B20CF08DFA002006B0BDE89F
S315000076D0F081DFF8D80900797047DFF8D009B0F9F2
S315000076E01C00002854BF05216FF0040108180A2168
S315000076F090FBF1F040B270470A2110FB01F0FFE762
S31500007700F8B500F5D77240F277239A4201D38B2061
S31500007710F2BDDFF8BC47DFF89459A26A0A23002AB3
S315000077201EBFAE7F06F0C006802E12D0A67B86B99D
S3150000773092F9026016FB03F7B842B8BF16FB03F0D6
S3150000774007DB92F9032012FB03F68642B8BF12FB51
S3150000775003F0217B61B10146206A0BF019FF18B1D5
S315000077604FF4367100F0C6FA206A0BF024FF01E0F0
S3150000777010FB03F0A8830020F2BD38B50446FFF7DE
S3150000778023FF90B10023002200212046FFF7B2FE1E
S3150000779058B104F01F051B2D07D22046FFF702FF44
S315000077A018B90B2D01DB284632BDFF2032BD0FF282
S315000077B008014008085C7047F0A050007047C0B24E
S315000077C0704710F1590F01DA0020704710F1240FAD
S315000077D001DBFF2070475A300002362190FBF1F0A2
S315000077E0C0B2704770B5DFF8E846DFF8A05A00204F
S315000077F02064687828B10CF0F9F9012818BF03282D
S3150000780001D1002070BDE16ADFF8843ADFF89C28D8
S3150000781000291FBFA66A7669002E022817D12364A5
S31500007820906900F5FA709061E07C18B100200021A3
S31500007830642203E0E87829794FF4A0722070A280D0
S315000078406170A878A0708020E080002030E0DFF82A
S31500007850445A9069AE4213D1DFF83C3A236400F5EE
S315000078607A709061E07C88B90879207001228B7863
S3150000787008799A40101891F903201018401E0CE060
S31500007880236400F5FA709061E07C18B10020208036
S31500007890642005E0487820708878607008780001D8
S315000078A0A0804879A07008890001E080C88800019E
S315000078B0A06000F03BFCE07094F90200010048BFB4
S315000078C04042C0B270BD70B50446DFF80466257844
S315000078D096F9140008B18C2070BDFFF783FFB075D0
S315000078E0DFF8A829DFF8C40741780174690101F5BA
S315000078F0807181619379716C002BB37B1DBFAD1EC6
S31500007900EDB221F0020141F0020173B9127862B1C1
S315000079106278920609D56FF00102327541F00101D5
S31500007920826902F50872826104E049084FF0FF306F
S31500007930490030757164032000F006F96A1C306A4C
S315000079404FF4807392B221460CF079F9691C884293
S3150000795003DA40F2294100F0CDF9002070BD0000A5
S31500007960F8B5DFF86C5595F914100024091D0429A3
S315000079700FD8DFE801F0080E10100300FFF7A3FF91
S31500007980040008D0F2BD2C75286A0BF013FD8D207B
S31500007990F2BD8C20F2BD0BF0CCFEE8B1286CDFF80E
S315000079A0F018884218D1A87DB0B1DFF8E80A00685F
S315000079B0002811D5DFF8E00AC168C160012200681D
S315000079C000F00F0002FA00F0401E014204D100F060
S315000079D0E5FB64200CF05EF9FDF780FD064695F99F
S315000079E0140010F1010F1CBF95F9140010F1020FDD
S315000079F029D195F91400DFF8B47640422875FDF7D1
S31500007A0077FD7862296C387949B9FFF7B6FE0146E9
S31500007A106A6C286A07F110030BF0DFFC0BE0FFF736
S31500007A20ACFE07F11001009101466A6C286AD5F890
S31500007A3040C02B46E04760B1002028758C244FF0EB
S31500007A40FF30786202E0002028758D24286A0BF04A
S31500007A50B1FC3046FDF748FD2046F2BDDFF8800A4E
S31500007A60FDF7BABD2046BDE81040FDF73DBDDFF885
S31500007A703C06C08B70470000F8B5FDF72FFDDFF818
S31500007A808C540446A87A012803D12046FDF72CFD24
S31500007A90F1BDDFF8501ADFF83864DFF8447A402089
S31500007AA008600122306A01210BF080FCDFF8381AE9
S31500007AB04FF40010086069460FF2880000680090D5
S31500007AC0306A0CF083F820B140F2D7413846FDF712
S31500007AD083FD02208DF800006946306A0CF053F8E9
S31500007AE020B140F2D9413846FDF776FD306A0BF0F9
S31500007AF072FC002100200BF0B8FD00F03FFB0120D6
S31500007B00A87296F91400001D072810D8DFE800F0C7
S31500007B10140F0707040B0B0B0CF08CFA0CE06FF03C
S31500007B200300307508E0892000F06EFB04E040F2A7
S31500007B30FB413846FDF750FD2046FDF7D5FC0CF01D
S31500007B4043FBF1BD040100002DE9F04DDFF8BC5305
S31500007B500446A87AA04282B063D00FF2CC01DFF8C7
S31500007B608C690968DFF87889DFF86473DFF878A92B
S31500007B70009103284FF4001B4FD8DFE800F04702BE
S31500007B803E2B0CF02AFB386A69460CF01FF818B138
S31500007B904FF4A36100F04AF802208DF80000694610
S31500007BA0386A0BF0F0FF18B140F21A5100F03EF8B7
S31500007BB06879002814BF00220222386A02210CF0DC
S31500007BC061FB18B140F21F5100F030F80320032C7E
S31500007BD0A87218D0CAF800B00220A8722879FFF758
S31500007BE0CCFD0146386A00220BF008FC18B140F2C1
S31500007BF02F5100F01BF8022C13D0002C18BF032CB9
S31500007C000FD10020A872C6F800B00AE0022C08D1F5
S31500007C10CAF800B00220A87203E040F2455100F015
S31500007C2005F8BDE8F38D0000040200004046FDF7AC
S31500007C30D3BC002088E7DFF8BC0A807A70470000D2
S31500007C40032805D8DFE800F00302030314E77BE707
S31500007C5040F2635102E780B500F00EF804D500212A
S31500007C600175006A0BF0A6FBA848407A012802D1EC
S31500007C70BDE8014000E701BDDFF87C0A90F9141069
S31500007C8000297047DFF86C0A407A704780B50328F0
S31500007C9001DB012002BD9D494872897A884218BFDE
S31500007CA0FFF7CEFF002002BD2DE97C4FDFF8486AC2
S31500007CB003EA010BD6E9068929EA010528EA000448
S31500007CC002EA000A45EA0B0544EA0A044D4508BFE4
S31500007CD044450DD0CDE900230246306A0B460BF031
S31500007CE077FF18B140F28B5100F004F8C6E906455B
S31500007CF0BDE8738F0FF63020FDF76EBC38B5744DB6
S31500007D000446287BE8B1200018BFDFF8F02904D12B
S31500007D10A87C08B1402200E000220023DFF8DC093D
S31500007D200021FFF7C1FF002C14BF08220022286A99
S31500007D3008210CF0A7FA20B1BDE8344040F2C75143
S31500007D408CE631BDF8B50446022C0FF6DC1503DBD4
S31500007D504FF4BE6100F0A5F85D4E307B002840F080
S31500007D6097806A4FB87A012803D040F2F65100F0A6
S31500007D7098F8002107F130000BF004FB306218B9C7
S31500007D8040F2F95100F08DF8306A05210BF0B7FD8D
S31500007D9018B140F2FB5100F084F8306A0FF69C11DE
S31500007DA00CF082FA18B140F2FC5100F07AF8306A11
S31500007DB00CF0AEFA18B140F2FD5100F072F84FF037
S31500007DC0FF30DFF83C2906230146FFF76DFF306AD6
S31500007DD04FF001110BF077FB18B140F2126100F081
S31500007DE060F8306A4FF4803200210BF05AFB306A9B
S31500007DF009224FF0FF310CF045FA18B140F2196133
S31500007E0000F04FF8012030730223DFF8F80800F085
S31500007E1043F8BDF80000C0054CBF0020BDF80000C7
S31500007E2070730BF086FCFFF769FFF88BFFF751FBC9
S31500007E300CF0EEFA00F08CF83879FFF7F9FB18B180
S31500007E4040F22C6100F02DF8F87900F043F8387A0A
S31500007E5000F05EF8307C00F091F8787900F0D4F804
S31500007E6000F064F900F02FF9B07C00F025FBB7F9BB
S31500007E701C00FFF745FC388C00F094F8788C00F075
S31500007E80AFF8B87900F014F9601E8041C00FB872DF
S31500007E902046FFF7D5FEF1BD01887F2268460AF02D
S31500007EA021BA2846FDF798BB80B500F00CF80121F1
S31500007EB00BF0A7FA10F5007F02D16FF07F0002BD2C
S31500007EC08005001602BDDFF83008006A7047000022
S31500007ED00862002010B50446DFF81C08017B51B18A
S31500007EE0611E8941006AC90F0CF064FA18B140F2AC
S31500007EF06761FFF7FFFE2000DFF8F81718BF0120C3
S31500007F00C87110BDDFF8EC07C0797047A05D00208E
S31500007F10F8B50446FDF7E2FA05466448DFF8D86787
S31500007F200472377BFFF783FA00F0010080F001004E
S31500007F30074204D0306A84F001010BF05DFC28464C
S31500007F40BDE8F240FDF7D0BADFF8A807007A70471F
S31500007F50DFF8A407017B01B9704780B5006ADFF836
S31500007F60A81700220CF013FA20B1BDE8044040F235
S31500007F70926173E501BD00004EC40300DFF8782767
S31500007F80117B107401B9704780B50146106A0CF078
S31500007F9005FA20B1BDE8044040F29D615EE501BDF1
S31500007FA024C003004149DFF850370884197B01B922
S31500007FB0704780B50146186A00220CF0E1F920B13D
S31500007FC0BDE8044040F2AE6148E501BDDFF8240794
S31500007FD0008C7047DFF81C07408C7047E45F002078
S31500007FE03249DFF814374884197B01B9704780B5E8
S31500007FF00146186A00220CF0BCF920B1BDE8044025
S3150000800040F2C4612AE501BD28494A79824200D17D
S31500008010704710B58C7A4871012C05D0FFF72CFDFE
S315000080202046BDE810408FE510BD10B500F032F8CF
S3150000803000F02BF80146206A01220BF0D7F920B197
S31500008040BDE8104040F2E66108E510BD80B5FFF7D7
S315000080503AFF0BF0CEF918B140F2EB61FFF74AFE9A
S31500008060BDE80140FFF7B9BA10B500F013F800F00B
S315000080700CF80146206A00220BF0B8F920B1BDE8E1
S31500008080104040F2F661E9E410BDDFF868060079B9
S31500008090FFF773BBDFF86046206A012201210BF06F
S315000080A085B900004C5C0020D0E70000A05D0020F0
S315000080B010B50446FFF707FF21460CF0B5F9DFF8C7
S315000080C03406847110BD38B504467F2C0CD100F0FF
S315000080D027F8DFF83806FFF7DFFEBDF800007E243C
S315000080E0C00558BFBDF80040FDF7F8F90546FFF793
S315000080F09EF960B960B27E2805D1DFF8FC15896A61
S3150000810009B191F904007E28B8BFFFF796F9DFF8A8
S31500008110E40504732846FDF7E7F931BD505C0020FD
S315000081204FF6FF70ADF8000002237047DFF8C40574
S3150000813090F90C007E2807D1DFF8BC05806A08B9E3
S315000081407F20704790F90400704710B50BF05AFA7B
S31500008150800411D5DFF89C454FF0FF30A0620BF08C
S3150000816051FAC0044CBF0320012000210BF0A0FAF5
S31500008170FDF7BEF9E06210BDBDE8104080B5DFF83E
S3150000818074054FF0FF318162C162FFF795F920B99E
S31500008190BDE8044000210BF08BBA01BD80B50BF0A1
S315000081A031FA4005BDE804404CBF03200120002100
S315000081B00BF05BBA10B5DFF8404594F914000328BC
S315000081C00DD100F024F9DFF82C154FF0FF3048628E
S315000081D00022216BBDE8104040200BF0A6BD10BD6B
S315000081E038B50446FFF7CAFFDFF80C55FDF791F9DD
S315000081F0686314B10BF013FD01E000206874BDE85C
S3150000820031400BF017BF000038B50446DFF8E41420
S31500008210DFF8E4544FF0FF304862FDF77AF96863FF
S3150000822095F91400012802DABDE83140A6E7A87DD9
S3150000823008B1686BA86300F071FAA87B10B1012041
S31500008240E87331BD2046BDE83840002200210BF01E
S315000082506CBD10B50BF06DFA78B1FFF72DF960B172
S31500008260DFF890444FF0FF30E062FDF741F9A0627D
S315000082700BF046FA00210BF01BFADFF87C04807C39
S3150000828018B1BDE8104000F068BA10BD6C5D002062
S31500008290E133010058870000E73301002DE9F04380
S315000082A0DFF854440FF28049206A89B005AA0221FA
S315000082B00BF0C8FC050003D140F6F40100F0A4F869
S315000082C09DF81400DFF82C64BDF8168007281CBF43
S315000082D07079002819D1B8F1060F16DB08F10800ED
S315000082E08B2812D2002000904346DFF82474206ABF
S315000082F03A4629460BF0AEFC404503D040F60D1138
S3150000830000F082F83878000602D5FFF71EFF78E005
S3150000831001208DF80800CDF804806A46206A2946B7
S315000083200BF094FC18B140F6241100F06DF8787843
S3150000833000F0070002281ED1FFF720FF94F9140071
S31500008340032808BFB8F1060F11D19DF80D0070B1D2
S315000083507878000900F0010500F059F84FF0FF3079
S3150000836070622A4600218F200BF0DFFC49E0F0798D
S31500008370002846D105E09DF80D0010B10020FFF75A
S3150000838019FFF0799DF80D10084203D040F64C1104
S3150000839000F03AF8F07930B17878800603D5206A93
S315000083A00BF02DFA18B1FFF7E9FE0020607438785B
S315000083B0401C404503D040F6661100F025F807EB57
S315000083C0080530792870FEF731F868709DF80E00C0
S315000083D0A87095F90200FFF7F4F9E87008F10801B2
S315000083E0FF202871C9B20098000C68710098000A35
S315000083F0A8710098E8713846627C0BF0D6FD002023
S31500008400607409B0BDE8F0834846FDF7E5B8002082
S315000084102075206A0AF0CEBF0FF21430FDF7DCB8E3
S3150000842038B50446002C0D4607D4FDF761F8011B4C
S3150000843089B28D428041C00F32BD002032BD10B5D9
S31500008440DFF8B042606A4FF47A71FFF7E9FF60B176
S31500008450DFF8A40290F91400032803D10020FFF7E7
S31500008460A9FE02E08920FFF7CFFEA06A0A21FFF7E6
S31500008470D7FF08B1FFF782FE0BF0C4F800F0FF014A
S31500008480E06AFFF7CDFF10B1BDE8104076E610BDFB
S3150000849000000000044008404C50084010B540B9A8
S315000084A00BF0BEFBFDF71AF80446FFF7C8FFFFF70F
S315000084B0D9BABDE81040C2E738B58F4D0446287BCF
S315000084C060B1200002D10BF034F908B1402200E07F
S315000084D00022002340200021FFF7E6FBAC7431BDEB
S315000084E028870000084008401860084618600844BD
S315000084F02DE9F04781461446600688B0984648BF85
S31500008500002002D4200602D50120FFF7A2FEA00318
S31500008510794D25D500206874694648460BF05FFF03
S31500008520F0B99DF8080002280ED1BDF800000BF046
S315000085307FFFFF280ED07749096831F810004FF405
S31500008540E461084206D10BE0032809D168460BF026
S31500008550E2FF28B1286A0BF03FFF08B901206874D2
S31500008560600410D50BF0E5F868B1FEF7A5FF50B131
S315000085700BF0D3F806460BF0C3F8864203D0002171
S3150000858030460BF095F8200744BF4846FFF786FEB5
S31500008590E00548BFFFF7D9FD4FF41850044218BF55
S315000085A0FFF7ECFDE00244BF0120FFF719FE600271
S315000085B044BF0120FFF714FEE00144BF0020FFF78F
S315000085C00FFE95F914000FF2601A012864DB286A81
S315000085D0484E21034FF0FF3730D595F91410012985
S315000085E05ADB95F91410032956DA00218DF8181074
S315000085F001218DF8141003A90BF000F803982863E5
S31500008600FCF787FF6863A87D08B1686BA86395F9D6
S315000086101400012804D002280AD1032028753BE063
S3150000862000F07CF87762A87BA8B9296B002218E0D5
S3150000863040F61D015046FCF7CFFF2DE014F0845F95
S3150000864012D0002129750AF0B5FE04200BF0E9FAD4
S315000086507762A87B10B10120E8731DE0002200219B
S315000086608D200BF062FB17E0A00248BF892002D4E0
S31500008670A00103D58820FFF7C7FD0DE0600048BFC5
S31500008680FFF78CFDA00007D523480068400403D4FB
S31500008690002100200AF0E9FFA00744BF4846FFF783
S315000086A089FD002C04D5FFF769FD4846FFF782FDDA
S315000086B008F002010023994212D048460AF070FEE3
S315000086C0022802D0032802D005E0892000E08D2090
S315000086D0FFF79AFD04E040F688015046FCF77CFF60
S315000086E008F004010023994218BF0CF09BF908B06A
S315000086F0BDE8F087A05D00200862002040670060AA
S315000087000A00FA9350C40300BC76002052C403004A
S3150000871028770020C05B0020044008400020287510
S31500008720286A0AF047BE00007068792E63000000D0
S315000087306C69627261696C2E6100000000000000C5
S3150000874001006003010101016400B6006400C0007D
S31500008750000000000B00000000007047602080F35E
S315000087601188704770B50CF08CFAA94C20460CF0B5
S315000087704FFED8B920460CF002FEFF28044615D05D
S31500008780A4490968085C851EE9B220460CF079FD0B
S315000087900646E9B220460CF087FC2146304600F03A
S315000087A0E5F82046BDE870400CF01EBB70BD0346E0
S315000087B00A4696A10420FFE70CB480B502AA00F091
S315000087C02AF801BC5DF80CFB00B587B00BF022FD62
S315000087D000210591049102466121039100230021A5
S315000087E00291019101208C4900910FF23C21FFF783
S315000087F0E3FF8A488179C3788278039101880291E0
S31500008800417901910179009142200FF22821FFF769
S31500008810D3FF07B000BD2DE9F04F85B005460C46E5
S3150000882090460CF018FE0026F8B90CF0B3F9E0B14A
S3150000883001200CF06EFA8246BAF1FF0F15D0002126
S315000088400CF062FA294601A80CF0AAF905469CB973
S3150000885000F087F830B950460CF00AFA10B104203F
S315000088600CF0F5FD50460CF0BFFA05B0BDE8F08FF0
S315000088708DF804200125641C20780100E8D0A0F1C1
S3150000888030010A2905D20A2101FB0600A0F13006B3
S31500008890F1E700F066F80028E4D122780025422AA4
S315000088A001A80ED0442A1AD0462A25D0572A0DD020
S315000088B0622A3AD0662A2AD06C2A25D0702A26D077
S315000088C0D6E758F8040B8DF80400D3E758F8041BD4
S315000088D08DF8041002250904090E4170CBE758F8FB
S315000088E0041B8DF804100A0A427004250A0C8270D3
S315000088F0080E8DF80700BEE758F8041B50460CF02A
S3150000890085FB0028B7D0ADE758F8046BB3E7012321
S3150000891058F8041B662A08BF0223F2B250460CF030
S3150000892054FB002808BF0026ECE73A4858F8047BB9
S31500008930006810F80A90FFB2FF2F9CD010F807B01D
S315000089400BEB0901C9B250460CF0AEFB002889D1E9
S31500008950CDF800B000233A46494650460CF0C6FC16
S3150000896089E72A4601A950460CF04EBB2DE9F04393
S31500008970122885B080460D4609D03A281FD04FF6FA
S31500008980FE71884204BF2846FCF735FF36E02148D1
S31500008990234F0068465D0BE028460CF0AFF9014610
S315000089A0224600200AF0B4F83868455D203EF6B24B
S315000089B0FF2D23D0212EACBF20243446ECE705F052
S315000089C0F6F88146FFF706FB0646FEF786FE0746E3
S315000089D0FEF77FFE0446FFF7F9FA02460E480FF24D
S315000089E05C010390CDF8109023460E48006840883D
S315000089F00290019600973B20FFF7DEFE294640468F
S31500008A0005B0BDE8F0430CF028BD00005746000055
S31500008A10F45E0020AC5B0020BC76002000C00300A2
S31500008A20B45B0020707600204242387042424242D7
S31500008A305742420042424242574200005742425782
S31500008A4057387042000000002DE9F0410125012849
S31500008A5018BF202894B004460F4690461E4623D1E0
S31500008A600AA8274924220AF0DDFE68460AA924221C
S31500008A700AF0D8FE1020012C18BF202CADF82400D7
S31500008A80ADF8260008D0022C18BF212C04D0032CE8
S31500008A901CBF222C232C14D1012E0197ADF80C807B
S31500008AA004D14FF4805005E001200BE0022E03D1E3
S31500008AB04FF44050ADF80A00694620460AF04BF8DC
S31500008AC00546E8B214B0BDE8F08180B50AF0E6F8D4
S31500008AD0C0B202BD80B50AF055F9C0B202BD80B57C
S31500008AE00AF0E2F9C0B202BD0CB480B50A460146EE
S31500008AF002AB04480CF0F3FC02BC00205DF80CFB52
S31500008B00CCB00300332E010070470000890001EB52
S31500008B10401000F1844002607047000010B5044622
S31500008B20FFF71CFE4A484AF6E8510160C162016B34
S31500008B3001F00F01022913D1464A01211160806B11
S31500008B4000F00300012818BF022809D100221C21C9
S31500008B504148FFF7DBFF002200214048FFF7D6FF20
S31500008B60200A00283E4808BF24024FF20F01048065
S31500008B704180BFF35F8FBFF34F8F3A483A4A01688F
S31500008B8001F4E06111430160BFF34F8F00BFFDE7C1
S31500008B9080B5002000F009F830B9BDE80440E321B3
S31500008BA00FF2D800FCF718BD01BD2DE9F0422F4C9D
S31500008BB0216842428D1815F01F0108D0002802D402
S31500008BC04842054403E04842284400F1200528486D
S31500008BD0A5F12006A84224BF2648864203D3EFF318
S31500008BE00880854201D300202DE0FCF777FC814602
S31500008BF02148006810F0010718BF0CF0BAFD206884
S31500008C0001468D4206D2A84224BFCD2100F80119A3
S31500008C10F9D206E02038002201E000F8012B884254
S31500008C20FBD3256030460CF0ABFDE22001E006F8F0
S31500008C30010BAE42FBD30FB10CF078FD4846FCF7B2
S31500008C4053FC20682038BDE8F08208480068704769
S31500008C5008300E404040084060300E4074300E40F0
S31500008C60000000200CED00E00400FA05F85E00208C
S31500008C70784D00205C12002094ED00E06D6963726F
S31500008C806F2D696E7465726E616C2E630000000054
S31500008C904FF6FF71884207D0010A01D000207047C5
S31500008CA01B490978084000D001207047F8B50446F2
S31500008CB00D4616461F46FFF7EBFF58B13A463146BA
S31500008CC020200CF023FD1DB110A120200CF016FD74
S31500008CD010480480F1BD80B5FFF7DAFF20B1BDE88A
S31500008CE002402020FFF7FBBE01BD0CB480B50A464A
S31500008CF002AB012104E00CB480B50A4602AB0021A8
S31500008D00FFF7D4FF01BC5DF80CFB00000D0A000064
S31500008D10D95F0020CE7D00202DE9F74F03290446B8
S31500008D201D4602DB280006D00529C0F2968042F0D7
S31500008D3004008DF8080002A8FDF755F89DF8080014
S31500008D4020700126280003D0280A6570A07003262B
S31500008D50FDF720F8A055711C0C9889B24D1C605483
S31500008D600026DDF838A006E0424649466019FDF7C0
S31500008D701FFA4544761C0D98F6B2805D01006ED050
S31500008D80002774284FF0000BB9463ADA4C285AF8F7
S31500008D90049B1CBF5328622815D15AF8048B4C2813
S31500008DA008D11FFA88F8C3464FF6FF7083453AD0BC
S31500008DB0022738E0532836D15FFA88FBBBF1FF0F54
S31500008DC031D001272FE06C2805D1484605F05BFB22
S31500008DD000F1020827E0732805D1484605F04EFB4E
S31500008DE000F101081FE0A0F130010A2938BFA0F107
S31500008DF0300818D3A0F1410107292ED2A0F1370877
S31500008E0011E07528C84608BF01270AD0762808BF92
S31500008E10022706D0782808BF032702D077281CD15E
S31500008E2004275AF804BB1FFA88F8BDF8040018FA9C
S31500008E3085F1C919884206DA0FE004F805B06D1C01
S31500008E404FEA1B2B7F1EF9B20029ADB2F5D1B8F15E
S31500008E50000F8FD0B9F1000F86D1002000E0A8B234
S31500008E60BDE8FE8F10B5414C206041480180414865
S31500008E7002604148036010BD3EB50C4607A9029149
S31500008E800093134606990191024607E03EB500920B
S31500008E900C4606A902460291019300233448018834
S31500008EA032480068FFF738FF0546324800680580FB
S31500008EB04FF48A51304800684480C180801DFCF719
S31500008EC080FF28463EBD03462848026829480068B8
S31500008ED001882948006805F06DBC0020F3E7E0B57D
S31500008EE000F003F805F0B0FB0EBD0091029301926D
S31500008EF01E490B681F4909680A881F490968704797
S31500008F000023ECE7194802681A48006801881A48E5
S31500008F10006805F0C4BB00B583B00192134A12681D
S31500008F200092144A12681388134A126805F016FC58
S31500008F300EBD0022EFE780B50091FFF7D9FF05F0DF
S31500008F40E7FB02BDE0B5FFF7D0FF05F0F0FB0EBD75
S31500008F500023F7E70021EEE7074800687047064A56
S31500008F601368187110684171704700009C670020F3
S31500008F70287D0020A0670020A46700209C48FBF7FE
S31500008F80BDBCF8B50446164620000D461F460CBF6C
S31500008F90984A994A234699490220FFF7A6FE3A467F
S31500008FA097490220FFF7A1FE33462A46954902203B
S31500008FB0FFF79BFE224694490220FFF796FE934850
S31500008FC014B900210170F1BDBDE8F4404FF4A05181
S31500008FD0FBF79EBC38B504468D4900F058F807F0FB
S31500008FE093FC00F0ECF800208A4911F830309C42DE
S31500008FF004D0401CC0B20528F7D306E001EBC00040
S315000090007AA142680220FFF776FE902C824D08D1A5
S31500009010902006F07DFC002028704EF660217F48E7
S315000090201CE0912C1ED107F06FFC60B97C49022030
S31500009030FFF75BFE00F0A9F80020287006F096FC0A
S31500009040BDE8314062E007F05FFC03280AD17549AC
S315000090500220FFF74AFE4FF470216C48BDE8344009
S31500009060FBF756BC31BD80B500F020F89DF8000036
S3150000907008B100F00BF85E490020087007F044FCC8
S3150000908018B906F073FC00F041F801BD66490220EC
S31500009090FFF731BE80B561490020087000F006F880
S315000090A09DF8000008B1FFF7F1FF01BD01237F2203
S315000090B02A216846FDF7D1BA10B5544C5B49002009
S315000090C02070FFF7E4FF07F01FFC00F078F807F0C8
S315000090D01BFC20B1012818D0032803D00FE0BDE8FF
S315000090E0104013E052490220FFF7FFFD4FF47021B4
S315000090F02046FBF70DFCBDE81040FCF70CBCBDE8B4
S3150000910010404C490220FFF7F0BD10BD80B50CF0B1
S3150000911049FBE0B90CF04AFBC8B93F480278142A6B
S315000091200CDA511C01700CF087FF06F007FCBDE855
S3150000913004404FF420413548FBF7EABB3E49022084
S31500009140FFF7D3FDBDE80240932006F0E1BB01BD69
S31500009150314900200870704780B507F0D5FB00F054
S315000091602EF82D490020087007F0CEFB022803D008
S3150000917007F0CAFB032805D106F0F8FBBDE801405D
S315000091800DF073B8BDE80140C0E738B506F094F9B4
S3150000919002F056FD00240CE0E0B2FBF7E4FF0546C2
S315000091A0FCF738F82846FCF740FB2846FCF73EFB60
S315000091B0641CFBF702FDE1B28142EDD331BD10B56F
S315000091C000211E4A12F83140A04208D102EBC1002C
S315000091D006A14268BDE810400220FFF78CBD491C7D
S315000091E0C9B20529EED310BD00000000257320008A
S315000091F09869002034860300448603000C86030029
S315000092004C8603006486030088860300A06900205C
S31500009210B4860300905A0020037E0020A86900202F
S31500009220CC860300FC8603002887030054870300CE
S315000092306C8703008887030098870300B85A0020CC
S3150000924080B500F09FF8BDE80140A0E02DE9F641A9
S31500009250804604F04FFC0546404604F059FC9DF854
S31500009260006005424FF0000C03D185F00101084370
S3150000927002D1019890F800C06548018943464FF62F
S31500009280FF778DB3212B2FDABCF1020F4FF0420E80
S31500009290604D18DA1EFB0CFC654435F81320BA4203
S315000092A01CBF521C25F81320032B18BF052B1BD1FE
S315000092B0B5F808C006EB0C0E8E45AEBF2981B44446
S315000092C0A5F808C010E00FD14FF0000C05EB4304E1
S315000092D00EFB0CF20CF1010CA55ABD421CBF6D1C15
S315000092E0A552BCF1020FF3DBDFF82CC130F81350A6
S315000092F03CF81340AC426EEB0E0EBC421CBF671C22
S315000093002CF81370032B6FEA0E0218BF052B4FEAD9
S31500009310D27E0AD1BCF8080037188F42AEBFACF82F
S3150000932008103018ACF808001DE0092B818A18BF18
S315000093300B2B08D1BCF8140032188A4211DA301807
S31500009340ACF814000FE01D2B0DD1BCF83A20408F6D
S31500009350B218824205DA3CF8130030182CF81300D4
S3150000936001E0ACF814103CF81300A84205D3BEF196
S31500009370000F04BF4046FCF792FA31464046BDE86E
S31500009380FC410DE0502200212348FCF754BF502237
S31500009390FF211F48FCF74FBF1D4A22F810107047E7
S315000093A0F8B506460C4600251C48415DB14204D07E
S315000093B06D1CEDB2112DF8DBF1BD112D27DAFDF78D
S315000093C028F8074616480078874203DBE721154848
S315000093D0FCF702F92221144811FB07F108444FF665
S315000093E0FF7230F8151091421CBF491C20F8151069
S315000093F0032E18BF052E03D1018961180181F1BD25
S31500009400092E18BF0B2E02D1818A61188182F1BD07
S31500009410006A0020746A0020B0690020688D03008D
S31500009420BC5F0020588D0300506A002018E0984861
S315000094300078704710B5974C207860B900F010F8A6
S315000094400DF03EF90121217028B10188B1F5817F27
S3150000945024BF007D2070207810BD8D4908707047AC
S3150000946010B58B4C207840BB0DF0FFF802468A49B8
S315000094700120FFF73AFC01202070884C2078FF2855
S315000094801BD10DF01DF9B8B140880006400E00F062
S31500009490010020701022FF218148FCF7CCFE2078C5
S315000094A001280AD1FFF7C6FF032806DBBDE81040F6
S315000094B0B6217C48FCF790B8207010BD80B5FFF748
S315000094C0CFFFBDE801400DF0FBB8754B0822FF2128
S315000094D003EBC000FCF7AFBE2DE9F0471746724A12
S315000094E004468846D2E9000184B06C4DDFF8B0919D
S315000094F0CDE901014FF0000AFFF7B2FF28780128F5
S3150000950027D1FFF797FF022823DB002659F83600FC
S3150000951010F1010F02D0401CA04203D0761C022E8F
S31500009520F4DB16E0F6B2FF2E13D0022E11DA18F88D
S31500009530011B8DF8011009EBC60000F064F8601EEF
S315000095400DF08FF97F1E824680BB3046FFF7BDFFC8
S31500009550641C2878012810D1FFF76CFFBFB297FB77
S31500009560F0F100FB117040B17F1E14FA87F00190F4
S31500009570BFB218F807008DF80800B8B230B1BAB219
S31500009580414620460DF06DF9824678B9019810F1F2
S31500009590010F0BD0002059F8301011F1010F09D03E
S315000095A0401CC0B20228F6DB4FF0010A504604B058
S315000095B0BDE8F087082201A909EBC000FCF7F8FD19
S315000095C0F4E770B535480078012882B019D1FFF765
S315000095D047FF0024324D354E3088ADF8000055F86F
S315000095E0340010F1010F09D005EBC40000F00BF8B0
S315000095F055F834000DF035F9010003D1641C022C36
S31500009600EADB002076BD022200798DF8000069466B
S31500009610704770B504460D461646FFF721FF3246E1
S3150000962029462046BDE870400DF032B92DE9F041DB
S3150000963004460D46FFF714FF294620460DF04DF966
