S03400005A33436F6C6F72436F6E74726F6C4C69676874536F635F65667233326D673132703433326631303234696D34382E73333786
S3150000000030DB032001C402003DAF00007DAE0200DC
S31500000010A70A02020002000004180FAC0061540097
S3150000002000000000000000000000000000000000CA
S3150000003000000000B4E40200000000000000000020
S315000000400000000000000000FFFFFFFFFFFFFFFFB2
S31500000050FFFFFFFFFFFFFFFFFFFFFFFFFFFFFFFFAA
S3150000006000B007001016011800400800FFFFFFFF50
S31500000070FFFFFFFF1C000000000000000000000062
S31500000080000000000000000051FE032051FE032086
S3150000009030DB03204435030086C60200D0D103209E
S311000000A0C4100020004008000000000012
S3150000020030DB032001C402003DAF00007DAE0200DA
S3150000021085AE020081AE020089AE020095AE0200F4
S3150000022095AE020095AE020095AE020095AE0200B4
S315000002308DAE020095AE020095AE0200B917000021
S3150000024027100200E17202008D27000095AE020021
S31500000250096F020021730200E7720200E9720200D0
S31500000260E372020085640200CF66020005340000D6
S31500000270EFD5000095AE020095AE02003F050000E6
S3150000028095AE020095AE0200ED66020095AE020044
S3150000029095AE020095AE020095AE020095AE020044
S315000002A095AE020095AE020095AE020095AE020034
S315000002B023730200E5720200E1300000577302006A
S315000002C095AE020045C6020095AE020095AE02004C
S315000002D095AE020095AE020095AE020095AE020004
S315000002E095AE020095AE020095AE020095AE0200F4
S315000002F095AE020095AE020095AE020095AE0200E4
S3150000030095AE020095AE020095AE02006F49704AA6
S3150000031001E021B1491E1369DB07FAD401B9B0E047
S31500000320506001201060106910F0060F05D04107DB
S3150000033000D5A9E0800700D5A9E000207047F0B5F8
S3150000034013460022002936D0604C614D8BB98B4292
S3150000035031D250F8046BEE605B1C08262E602646F0
S3150000036001E036B3761E2F69FF07FAD4002EEED1D0
S315000003701FE0EFF3108672B600230EE02F6907F038
S315000003801907102F08BF2F602F693F07F6D550F8C1
S31500000390047BEF605B1C10272F608B42F4D306B9F9
S315000003A062B6264601E026B1761E2869C007FAD451
S315000003B00EB96FF002021046F0BD2DE9F0479A46DD
S315000003C0444B454F1C681B683B688046002043F041
S315000003D001033B60950881460C4602E0B14404EBFC
S315000003E08604A94517D208EB89063046FFF78EFF2B
S315000003F0010014D1C6F30A00C0F500608608A5EB1B
S315000004000900B04238BF0646524631462046FFF73D
S3150000041096FF0100E2D03968490849003960BDE815
S31500000420F0872C49294A0B6809682B490B6843F069
S3150000043001030B608860012048604869400704D5C5
S3150000044008684008400008601EE04869800704D537
S31500000450086840084000086019E00220486001E092
S3150000046022B1521E4869C007FAD422B9086840086A
S315000004704000086005E00868400840000860002069
S3150000048070476FF0020070474FF0FF3070476FF013
S3150000049001007047002390E70F48016841F0010111
S315000004A0016046F21A31C1644FF4807141604169BE
S315000004B0C907FCD44FF4007141604169C907FCD4F7
S315000004C00021C1640020704700000000809698005B
S315000004D00C000E4004300E4008000E40072802D2E1
S315000004E03549085C7047FF207047072802D2334918
S315000004F0085C7047FF20704738B50446304800EB6B
S315000005008105A8780009FFF7E9FF2071A87800F0B7
S315000005100F00FFF7EAFF6071FF2814BF01200020DB
S31500000520E8702146E878A071287860706878254DD3
S31500000530A070284600F0A3F80120A86031BD10B5D0
S31500000540214984B01CC968461CC02048204A01784D
S31500000550D36814682340DB072DD503292BD2184C0A
S3150000056012691C4B04EB8104E4781CB114B2002C14
S3150000057048BF002223F811200123174A147803FAF2
S3150000058001F121431170154A117891B100211478B7
S31500000590CC40E40708D501708B40107858401070A5
S315000005A06846FFF7A9FF1FBD491CC9B20329EED350
S315000005B01FBD032101701FBD70D8020078D802004C
S315000005C0D4E603200020004064D80200DEFD0320AC
S315000005D038200040F8E60320DFFD0320DFFC03207F
S315000005E0890001EB401000F184400260704730B58D
S315000005F0002A446BDFF834511ABF1022DFF830317D
S31500000600DFF8303123400024A84237D1DFF8280133
S3150000061051B101290CD002291ED003290CD006297C
S3150000062015D0812918D023E001680468006816E017
S3150000063001680468006802E0416844684068090C83
S3150000064001F4FE41C4F303442143000C0CE081682D
S31500000650806801F00F0107E041684468406801F4D2
S31500000660FE4104F00F04214300F0F00040EA0104CB
S3150000067004FA02F0DFF8C4101843086030BD38B53C
S3150000068004460D460220A0600022A9782046FFF706
S31500000690AEFF287969786B79020242EA016242EA82
S315000006A00342EB7842EAC302EB790BB142F0005207
S315000006B02B7A0BB142F00402AB790BB142F0020285
S315000006C06B7A0BB142F00102AB78F32806D1180021
S315000006D004D10429BCBF042060F31B6218064CBF7A
S315000006E042F0E00042EA4310206115496069084083
S315000006F0A9780A0644BF21F080010843297840EA18
S315000007004140E97A09B140F4804060610221AA7A49
S315000007102046FFF765FF2879F32804F13000BDE88D
S3150000072038400CBF01220022102159E7002000406A
S31500000730FFFF00800080FFFF1082E00F34200040A2
S31500000740F8BFE1FF38B504460D46104600F0D1F873
S3150000075000202070A847BDE8314000F0D8B800223C
S315000007604B494C48EEE700224B494C48EAE770B546
S31500000770044616460D46304600F0C0F800202070AC
S315000007803046A847BDE8704000F0C1B80122444990
S315000007904448ECE7012244494448E8E70122444939
S315000007A04448E4E780B5012000F0E1F9424800F052
S315000007B076F94249087001BD80B500F0E9F90128D3
S315000007C005D03E480078BDE8024000F050B901BDB2
S315000007D030B5002400E0641C394D2D88E3B2AB42ED
S315000007E00FD2E4B20C25374B15FB04F52B441D78CC
S315000007F0854201BF5D888D421D799542EBD1184631
S3150000080030BD002030BD80B519B900F0AFF800202A
S3150000081002BDB1F1004F02D200F0B2F8F7E70220B4
S3150000082002BDB1F5000F3CBF0902FFF7ECBF022085
S31500000830704770B504461D46FFF7CAFF06000ED086
S31500000840204600F0A6FC50B1B0682946FFF7DBFF52
S3150000085028B9049870710598B071002070BD022007
S3150000086070BD1CB500931346049C0194012205E05B
S315000008701CB500931346049C01940022FFF7D9FF90
S3150000088016BD80B500230093FFF7F2FF02BD0000FE
S315000008901512010018E70320559E000020E70320EB
S315000008A0134B020000E70320254D020008E7032052
S315000008B017A1010010E7032068DB0200E0FD03201A
S315000008C098E303202CDD032080B5FFF781FF20B1DC
S315000008D0806800210170002002BD022002BD0122B5
S315000008E0F2E70022F0E700000C490D4808600020FE
S315000008F0704700B1702070470020704780B500F047
S3150000090013F8FF2801D1A32002BD002002BD00205C
S315000009107047704700BF034800787047C8F003204F
S31500000920D42D030078E7032080B500F03DFCFF28B6
S3150000093018BF002002BD002101707047007800B189
S3150000094001207047FFF75FBFFFF76BBF38B54478EC
S31500000950456800F0C1FE00F09CF85B1BB3F1004F48
S3150000096098BF5550BDE8324000F0BCBE10B500F04F
S315000009707BF86060042020702046BDE81040E5E763
S3150000098038B504460D4600F0C2FE28186060012006
S3150000099020702046BDE83240D8E710B504462078DE
S315000009A001000CD0042806D000F0B1FE6168421A9E
S315000009B0B2F1004F01D8002010BD081A10BD4FF04B
S315000009C0FF3010BD70B500F04FF8054600F084FE0C
S315000009D0064660686FF0004100F02CF84019206070
S315000009E03046BDE8704000F07DBEF8B504460D46C1
S315000009F0164600F08CFE002156B1FF22327007E049
S31500000A00121AAA4202D2154606B13170491C0834A0
S31500000A1022680AB92846F2BD13781F00F6D0042BC7
S31500000A2004D05268831AB3F1004FE9D806B1317089
S31500000A300020F2BD0022D8E738B500F015F80546CB
S31500000A400EE001780A000AD0042904D04168691A28
S31500000A50B1F1004F03D8042101706168884708345A
S31500000A6020680028EDD131BD044600F050BE10B517
S31500000A70FFF7FAFF00F00DF8C01AB0F1004F07D8E3
S31500000A8054186068FFF7D8FF2046BDE8104099E784
S31500000A9010BD0C2111FB04F1364A5358704770B54E
S31500000AA0354E3649097804467078884204D3E521E4
S31500000AB00FF2CC0000F08EFE7578681C70700C2169
S31500000AC02C4811FB05F1084401214460017200E045
S31500000AD04D7054F8081B0029FAD1FFF773FF28461A
S31500000AE070BDF8B54FF0FF310C2400916043214DE5
S31500000AF0214E284400210172307820B300F060FFB7
S31500000B0028B94FF48F710FF2780000F063FE00F001
S31500000B10FEFD002105E0009B9A4288BF1A4600921E
S31500000B20491C7378CAB29A4211D2C9B214FB01F3B6
S31500000B30EA58871AB7F1004F05D92B44121A1B7AC7
S31500000B400BB9002AE7D100F048FF0020F2BD684645
S31500000B5000F05DFF10B9684600F0F5FD0120F2BD1A
S31500000B600C23044A5843104401210172704702497C
S31500000B700870704734EF0320DDFC0320222E0300AB
S31500000B806576656E742D636F6E74726F6C2E63007E
S31500000B90024800787047014908707047EBFD032052
S31500000BA0DFF8F80ADFF8F81A007882B08DF803004B
S31500000BB0DFF8F00A0088ADF80600DFF8EC0A0088D6
S31500000BC0ADF8040000208DF80200ADF80000012009
S31500000BD008709DF80310DFF8D40A9DF80120017013
S31500000BE0BDF806104180BDF8041081809DF8021002
S31500000BF08171DFF8BC1A01EBC20181609DF800101B
S31500000C00017302B0012141737047DFF8940A00783E
S31500000C107047DFF8981A01EB0010407B00F00100E6
S31500000C207047412818BF422803D0432818BF4428DC
S31500000C3001D10120704700207047412818BF422883
S31500000C4001D10120704700207047432818BF44286F
S31500000C5001D10120704700207047F8B51546069A65
S31500000C6004461E4600F038FA60B1042100F0B3FCD9
S31500000C70070007D02046FFF741FE324629462046A8
S31500000C80B84790E0F1BD2DE9F04383B00446160065
S31500000C9098461EBF0A9F002F5FEA08000D461DD02A
S31500000CA038787188000730794CBF4022802200F0E6
S31500000CB013FA98B1082100F08EFC814670B13079A4
S31500000CC0FFF71CFE0B9801900097434632462946D3
S31500000CD02046C847BDE8F743FFF719BEBDE8F783CE
S31500000CE0F8B5164605461A4600F0F6F9D8B1069C40
S31500000CF021000BD1022100F06EFC040013D028461F
S31500000D00FFF7FCFD31462846A0470BE0102100F016
S31500000D1062FC070007D02846FFF7F0FD2246314661
S31500000D202846B8473FE0F1BDF8B5154604461A46D1
S31500000D3000F0D2F908B98620F2BD0699002689B9D5
S31500000D40202100F048FC07000CD02046FFF7D6FD16
S31500000D500998089B079A009029462046B8470646F8
S31500000D60FFF7D5FD3046F2BDF8B50446A5682078F4
S31500000D70FFF7C4FD002612E02868F6B2142111FB25
S31500000D8006F147182078398800F04AFE01213846D6
S31500000D9000F021FC01001CBF20788847761C2979C9
S31500000DA0F0B28842E8D3BDE8F140FFF7B0BD70B5B8
S31500000DB00024DFF8F858DFF8E86808E0FFF729FFB5
S31500000DC020B1E4B205EB0410FFF7CEFF641C3178C6
S31500000DD0E0B28842F2D370BD10B586B000248DF81B
S31500000DE00800ADF80A108DF80C30ADF80E2001940D
S31500000DF0009400230898ADF81000002201A902A86B
S31500000E0000F057F8019806B010BD10B5002301E0B8
S31500000E10001D5B1C9CB28C4204D204889442F7D11C
S31500000E20408810BD002010BD0288B2F57C4FA8BFD7
S31500000E3000F00BB8DFF87C08081A0C2190FBF1F0E3
S31500000E4082B20021DFF87008DFE7DFF87018401A79
S31500000E50142190FBF1F082B20221DFF86408D4E796
S31500000E6010B50C460188638899420DD1027B23791F
S31500000E701A4209D0B1F57C4F04DBFFF7E6FF218962
S31500000E80884201D1012010BD002010BD10B51446C6
S31500000E900A88E3889A420AD10288B2F57C4F04DABE
S31500000EA0FFF7C2FF2189884201D1012010BD002031
S31500000EB010BD2DE9F74F04469B460025002603E0AA
S31500000EC0C0884519ADB2761CDFF8D4170978F0B2A0
S31500000ED0884280F0D080F6B23101DFF8D007DFF823
S31500000EE0CC270844515C227880689142E8D1009072
S31500000EF03046FFF78EFE0028E5D04FF0000A05E0E9
S31500000F00B8F80A004519ADB20AF1010A0099097943
S31500000F105FFA8AF08842D6D200985FFA8AFA0068A9
S31500000F20142111FB0AF100EB010821464046FFF7A8
S31500000F3097FF0028E4D04FF0000908E03879302107
S31500000F40084202D1F8782D18ADB209F10109B8F8B6
S31500000F5008101FFA89F08842D6D2D8F804001FFA82
S31500000F6089F90C2101FB09F147182246394640460A
S31500000F70FFF78CFF0028E1D0019800B107603879AF
S31500000F80800611D5DFF82C07002106E002799206CB
S31500000F9002D5C278891889B20C30B842F6D3DFF888
S31500000FA0240700EB010A03E0DFF81C0700EB050A43
S31500000FB00C9D280018D0029E00F060F802463B887F
S31500000FC061882078DFF8049700F028FDE8B13879C9
S31500000FD0C0061CD500F052F80346029800903A4627
S31500000FE061882078C84747E00298002844D05646D2
S31500000FF0824600F043F802463B8861882078DFF895
S31500001000D09600F009FD0028E1D17E2034E097F863
S315000010100280BBF1000F0CBFFC785C464046FFF730
S315000010200CFE30B1621ED2B23146504601F0CDF808
S315000010301FE04046FFF709FE30B1A21E92B23146CC
S31500001040504601F0DAF814E03DB9BBF1000F04D0C8
S31500001050F878834538BF89200ED3002E224604D166
S315000010600021504601F0E1F903E03146504601F017
S3150000107099F9002000E08620BDE8FE8F39464046FB
S31500001080D2E660B5002503E01E7B360616D46D1C3D
S315000010900679EBB2B34213D20368EDB2142616FBFF
S315000010A005F633441E888E42F1D1160006D0802AFA
S315000010B0EAD0402AEBD11E7B7606E8D5184660BDFD
S315000010C0002060BD80B5002201E080B5402200F01E
S315000010D003F800B1012002BD38B50C46154600F0F4
S315000010E063F8FF2801D1002032BD04E038B50C4674
S315000010F0154600F05BF8DFF8B43503EB00102A461E
S3150000110080682146BDE83840BBE74022FFE72DE96D
S31500001110F047804689469246FFF7DEFF002508B96C
S31500001120FF2019E00026DFF88475DFF8744500E03B
S31500001130761C2178F0B288420DD2F6B23001385CC6
S31500001140404508D052464946FFF7D0FF0028EFD069
S315000011506D1CEDB2ECE72846BDE8F08730B50022FD
S31500001160DFF8483500E0521CDFF834552D78D4B24C
S31500001170AC420CD2D2B214011D5D8542F3D10D00F2
S3150000118003D01C44647BE407EDD5104630BDFF2038
S3150000119030BD80B50021FFF7E1FFFF2801D1002017
S315000011A002BDBDE8024034E50121D7E70021D5E7BD
S315000011B0DFF8F8140001085C704738B50C46FFF7F5
S315000011C0F3FF01460020FF291FBFDFF8E02402EBF2
S315000011D001118968002916D0002203E01B0648BFCA
S315000011E02846521C0D79D3B2AB420BD20B68D2B251
S315000011F0142515FB02F52B44451C1B7B002CEDD05A
S315000012005B06ECE7C0B232BDF8B50C461546FFF7F3
S31500001210CBFF01460022FF291ED0002301E0521C0D
S315000012205B1CDFF8880400EB0110DEB280680779EA
S31500001230BE4211D20068DBB2142616FB03F6304418
S315000012402F00067B02D0760602D4E9E73606E7D5FC
S31500001250D6B2A642E3D1F2BD0020F2BD002109E0DC
S3150000126010B50446012100F005F82046BDE81040FF
S3150000127001F013B92DE9F34F87B001F0C0F90690DC
S315000012800024DFF81C04DFF82484007805909DF81C
S315000012901C00019000E0641C0599E4B28C427BDAE4
S315000012A00199FF2907D09DF81C00FFF77DFF044632
S315000012B0FF2C06D177E008EB04100699007B8842E4
S315000012C0E9D14FF0000A4FEA041901E00AF1010AD8
S315000012D008EB09005FFA8AF180680279914257D2D9
S315000012E000685FFA8AFA142111FB0AF14518288969
S315000012F0B0F5967FC8BF01F064FA002613E001201E
S31500001300009000235A46002102A8FFF7D2FD9DF85F
S31500001310200038B1BDF80A2018F809103B46584697
S3150000132000F0CFF8761C2989B0B28842CED2686820
S31500001330B6B20C21714347183879C006F2D418F8B2
S3150000134009008DF8080039462888ADF80A00387972
S3150000135040064CBF802040208DF80C003888ADF840
S315000013600E002846FFF760FDADF810003979F878D1
S31500001370490706D5D7F808B00328C0DBDBF800B06C
S31500001380BDE70328B4BF07F1080BD7F808B0B6E7E6
S315000013900198FF283FF47FAF9DF8200018B99DF80B
S315000013A01C0000F003F809B0BDE8F08F30B583B03B
S315000013B0044601F024F905460120FFF7B5FA012C91
S315000013C003D0FF2C08BFA8426AD101237F22202127
S315000013D000F06BF81020009001AB0022062100F00F
S315000013E069F801237F22212100F05FF800F059F807
S315000013F0002200F062F801237F22222100F055F836
S315000014001820009001AB0F2200F057F801237F222D
S31500001410232100F04AF800F044F8112200F04DF8BC
S3150000142001237F22242100F040F800F03AF8002240
S3150000143000F03EF801237F22252100F036F800F067
S3150000144030F8012200F034F802237F22262100F032
S315000014502CF82120009001AB032200F029F802238A
S315000014607F22272100F021F82120009001AB0422E1
S3150000147000F01EF802237F22282100F016F8212012
S31500001480009001AB072200F013F801237F222921E7
S3150000149000F00BF83020009001AB082200F008F8AD
S315000014A037BD2020009001AB704701A801F0CDB9EF
S315000014B04FF44071012001F044BA0821012001F0E7
S315000014C040BAF8B51D460446287980070E461746E9
S315000014D07CD502220021684600F0A7FF04B96C46BD
S315000014E0012E73D1062F09D1288800286ED12879BC
S315000014F040066BD400F06BF8202065E0082F1ED163
S31500001500288838B92879400660D400F060F8212090
S3150000151001F0ACF928880F2807D12879400604D4B1
S3150000152000F055F8222001F0A1F9288811284DD1A4
S31500001530287940064AD400F04AF8232044E0B7F55B
S31500001540407F43D1288838B9287940063ED400F038
S315000015503EF8242001F08AF92888012807D1287945
S31500001560400604D400F033F8252001F07FF92888DE
S31500001570032808D12879400605D4022322467F2174
S31500001580262001F073F92888042808D12879400616
S3150000159005D4022322467F21272001F067F92888F7
S315000015A0072808D12879400605D4022322467F2140
S315000015B0282001F05BF92888082807D128794006F9
S315000015C004D400F004F8292001F050F9F1BD0123FC
S315000015D022467F21704730B5047B012200230C424E
S315000015E005D1002030BD144218BF5B1C5200D5B295
S315000015F08D42F8D30069DBB250F8230030BD2DE9E7
S31500001600F04F0C4601210028607D4FF0000C08D0F9
S31500001610050008BF4FF0020E09D0012805D18E46FD
S3150000162005E010B94FF0080E01E04FF0040E0998DE
S315000016300A9DDDF82C90DDF830A0E046254F07EB3B
S315000016408806378897421FD1F77817EA0E0F1BD006
S31500001650B7784F4518D396F803B0E77B5FEACB6BB4
S3150000166001D50FB910E07FB9E24501D0844501DB11
S3150000167000210EE0B77803F80C700CF101062F88F4
S315000016807F1C2F801FFA86FC08F10108B8F13F0F76
S31500001690D4DB0846BDE8F08F000000001E2E0300D4
S315000016A0E2FD0320FE2A0300162B030078E7032041
S315000016B084E40200D8E0020094E40200A8E30200F9
S315000016C08CE40200ECE7032088E703203F1A0000C1
S315000016D03B1A0000DCDF0200EFF31180602181F38A
S315000016E01188704780F311887047000080B501F0BB
S315000016F0D8FC01F0E3FC80B202BD80B501F0D1FC5C
S3150000170001F0DCFCFA21B0FBF1F080B202BD80B53D
S3150000171001F0C7FCBDE8044001F0D0BC80B501F083
S31500001720EEFD184800214160001D01F049FB20B183
S3150000173039210FF2880000F04DF8002002BD114952
S3150000174001200870704770B5044682B022680025F3
S3150000175002B91BE000F00DF801201BE070B50C4645
S3150000176082B02268002502B910E000F002F80220DB
S3150000177010E0044E044B357000950021706801F0AE
S3150000178092BB000010F703203F17000000F025F978
S31500001790002076BD01F0FCFE307828B9706821463D
S315000017A001F039FC852501E025603570284676BDB7
S315000017B0014600220020D1E700F008B8737973745F
S315000017C0656D2D74696D65722E63000070470000AB
S315000017D042DE704738B504460D4602F017FA00F0AF
S315000017E0F0FF03F085F82946204603F0AAF82B46B9
S315000017F022466949012003F041FA29462046BDE800
S315000018003440E5E765482DE9F047654D01682E1D32
S315000018104FF420687165016AB16562490A68F2652C
S3150000182049683166416A7166816AB166C16AF16664
S31500001830016B3167806B706796F8340040074CBFC8
S31500001840F46BB46B03F0A5FA0022F2648442564AA4
S31500001850014624BFA2F1200AA2452746316505F1BB
S315000018609003DFF848C1DFF848E118D3A069306477
S31500001870E4697464746DC4F30804062C13D17045CE
S3150000188011D360450FD200884DF64264A0420AD1BA
S315000018903068586040F201787068986003E000276D
S315000018A03764776407464348814202D2014600E026
S315000018B0091D0846904203D20C68B4F1CD3FF7D01B
S315000018C03D49081AB0640021002005EB8004401C45
S315000018D00628E167F9D3002003E0C0B205EB8004D7
S315000018E0E167974223D252F8041D7145F9D3614549
S315000018F0F7D2CC07F5D5002405EB8409D9F87C90FE
S31500001900894502D0641C062CF6D3062CE9D10028A2
S3150000191014BF401E0520E0E7B16F002405EB8402EA
S31500001920641CD2F88070D767052CF7D3196001467E
S31500001930481EC9B20029EFD1706DC0F30800032814
S3150000194010D0042811D0052812D0062813D00C2850
S3150000195017D0122818D119480068800719D540F207
S31500001960025816E040F6012813E040F6022810E07F
S3150000197040F603280DE0B8F5206F0AD140F604289A
S3150000198007E040F6052804E018B1432838BF40F6C2
S3150000199007284046BDE8F08718DF020004ED00E0A6
S315000019A00000002000E300E030DB032086C60200D2
S315000019B0DC0400009C00002030DB03201C200540D6
S315000019C0EFF31080C00706D4EFF311806028804142
S315000019D0C043C00F704701207047002080F3118874
S315000019E07047704770477047704770477047704739
S315000019F070477047704700207047704770477047C0
S31500001A007047704770477047704700207047002046
S31500001A1070477047012070470120704701207047CA
S31500001A207047002070470020704700207047002054
S31500001A307047002070470020704701207047012042
S31500001A407047B5207047002070470020704700207F
S31500001A50704700207047002070477047002070478D
S31500001A60B5207047704700207047704700207047C8
S31500001A70B520704770470020704770477047704721
S31500001A8000207047704770B50C4615461E4601008B
S31500001A900CBF0D4A0D4A03460D49012003F0C1F95A
S31500001AA032460C49012003F0BCF92B462246BDE81C
S31500001AB070400949012003F0B4B90848006800786D
S31500001AC0012808BF02207047E4E80200F4E802009B
S31500001AD0BCE80200FCE8020014E90200C8F003209A
S31500001AE000207047012181814FF6FE71C1810121DD
S31500001AF00161002101700120704770470020704786
S31500001B000020704700207047002070470020704773
S31500001B100020704700207047002070477047B520AE
S31500001B2070470020704700207047002070477047BC
S31500001B307047704700207047B52070477047704760
S31500001B40002070477047000080B5FFF72DFBFF2887
S31500001B5004D018B9DFF89C07007802BD002002BD4A
S31500001B6000B583B00221009101AB0022032100F0F1
S31500001B7022FF20B9BDF8040010B1012000E00020CA
S31500001B80C0B20EBDF0B5059D00260027092D0446FE
S31500001B9002D300200021F0BDB4460FE05FFA8CFCB2
S31500001BA0A5EB0C0020443F0210F8010C47EA16672B
S31500001BB0002110EB06264F410CF1010C5FFA8CF068
S31500001BC0A842EBD39F4206D828BF964203D2901B69
S31500001BD063EB0701F0BDB01A67EB0301F0BD10B56A
S31500001BE00168DFF814270B8813804B8853804979E6
S31500001BF011710168097951714FF48A51D1800168D8
S31500001C008979890644BF4FF48B51D180DFF8EC16F1
S31500001C1083690A783BB9C088DFF8E436188002F099
S31500001C20FD00087010BD42F002020A70162281699A
S31500001C30DFF8D046204600F0B5FB0020207010BD2E
S31500001C4080B50020FEF755FEFF20FFF707FBFEF7E5
S31500001C505EFEFEF7DAFF02460121DFF8980600F085
S31500001C60E4FBDFF89436DFF8A026DFF8A006522161
S31500001C7003F094F9FEF796FD03F0D3FA03F035FC72
S31500001C8003F078FD03F0F6FE04F028F9BDE8014004
S31500001C90FFF78DB8704780B504F048FE20B906F00E
S31500001CA07EF908B904F07FFBFFF738FFBDE8014075
S31500001CB0FFF745BF10B500224FF6FF71DFF850362B
S31500001CC000E0521C92B233F832408C4203D0844278
S31500001CD0F7D1104610BD084610BD38B50446FFF7CB
S31500001CE0E9FFDFF8305601464FF6FF722888914229
S31500001CF003D12246DFF8201606E0DFF8142602EBB1
S31500001D00C1014A68DFF8141603F091F82888BDE887
S31500001D10324003F07CB810B50446DFF804060078BC
S31500001D20002882B03BD006F0D7F90246DFF8F4155A
S31500001D30022003F07CF82068418800914379A2894B
S31500001D40DFF8E415022003F072F8022003F03CF8F5
S31500001D5018B120684088FFF7C0FFE07B28B1228ACF
S31500001D60DFF8C815022003F062F8E07CDFF8C01542
S31500001D700090A0680278A37C022003F058F8207D2A
S31500001D80A1890A1AA1680144012392B2022006F031
S31500001D90C5F9BDE81C40A4A1022003F042B813BD5A
S31500001DA010B5044620684079FFF7FEF9FF281DD0DC
S31500001DB0DFF88015227F01EB0010017B914215D1DF
S31500001DC0226840881188884206D04FF6FF739942F0
S31500001DD00CD1B0F5004F09DA2079022818BF032884
S31500001DE006D11189507906F0DFFB08B9002010BD35
S31500001DF0A07B0028204603D0BDE8104006F000BCBA
S31500001E00BDE8104006F034BC30B5144683B01A461F
S31500001E1023785B074CBF052303239A420AD200931B
S31500001E201346DFF81425DFF81415022002F0F9FF37
S31500001E3000203EBD089D286029710698E880AC60A8
S31500001E40AA81207800F00100A8732078800800F0AD
S31500001E500100E8732078C00800F0010068750120D1
S31500001E602875E87B30B10121204606F0C8FE297DA1
S31500001E70891C29752882287D411C2975205CA87437
S31500001E80481C2875C9B2605CE8740798A86100F020
S31500001E90B6FB287701203EBD2DE9FE430F46DFF84D
S31500001EA0A014DFF8A054DFF8A08491EC080B85ECB1
S31500001EB0080B0B9E0295019600240A99009139465B
S31500001EC0FFF7A2FF002866D0C8F80050A87CDFF80C
S31500001ED07C1408702846FFF71EFF2846FFF77FFE92
S31500001EE0284600F0DBFA20BB2EBB042F18BF052FB7
S31500001EF003D0022F18BF032F01D1012200E00022D8
S31500001F00E988286801914188009101210388E87CCD
S31500001F1000F011F990B12868807980060ED4DFF8B8
S31500001F203044012020700121284600F002F90020EB
S31500001F30207001242FE0307D80072CD52868407959
S31500001F40FF2824D10027DFF8B063FEF75EFEF9B262
S31500001F50814220D2F8B2FFF72BF98146F8B2FEF79C
S31500001F6058FE90B1286841884846FFF7ABF860B143
S31500001F702846FFF734FE286880F8059086F8049016
S31500001F802846FFF70DFF00B101247F1CDDE7284638
S31500001F90FFF706FF044606F0AFFD16220021DFF824
S31500001FA0640300F042FA0020C8F800002046BDE8AD
S31500001FB0FE83DFF8A0030178491C017001F07F0061
S31500001FC07047DFF838130A78002814BF42F0010082
S31500001FD002F0FE0008707047DFF87C130870704747
S31500001FE078B1DFF874130978012903D1018841F02B
S31500001FF0400105E0022904D101884FF6BF72114065
S315000020000180704778B1DFF854130A78012A04D1A9
S31500002010DFF84C2312780A7001E0022A03D1017816
S3150000202041F01001017070475D000000F0B5B34D3E
S3150000203004462878C00783B001D50020FEBDB34E04
S31500002040AD4F3046FFF7DEFFB81DFFF7C9FFBF48AB
S315000020503178007849074CBFF0707070AA48018843
S315000020602878800708D53246A648FFF7F9FC297874
S3150000207001F0FD012970FEBDA14800884FF6FC72F3
S31500002080904208DA0B460146019400963A46002033
S3150000209006F029FFFEBD0A4600943346394606F08F
S315000020A00CFFFEBD0020C1E70A460146A6480068AF
S315000020B001E00021F8E770B504460E4620790100DC
S315000020C018BF012815460BD1A0680078C00601D5B7
S315000020D0300005D0A07B002804BFE07C0B2801D18E
S315000020E0002070BD884900200880607DE17B0028C3
S315000020F00CBF0820002011B906F015FD06E040F0DF
S31500002100040006F010FD208A06F01CFDA07C06F0F7
S315000021100AFD0B2006F007FDE07C06F004FD3046C4
S3150000212006F001FD2046FFF75AFD2846BDE870403F
S315000021307CE70022BFE770B504461846894B844DFC
S315000021401B78012B01D02E7816B10020287070BDA7
S3150000215082F001020A4301D1002070BD2BB10A466C
S3150000216004992346FFF75DFC00B1012070BD000015
S3150000217038B5D2885224950648BF4924550544BF30
S31500002180083CE4B2150544BF083CE4B2120444BF5F
S31500002190A41EE4B203284FF6FD7310D8DFE800F062
S315000021A00204080D0B460AE0C8B207F072F902E015
S315000021B0C8B207F0A0FB034601E0641EE4B218466D
S315000021C0FFF74CFC201AC0B232BDB0B504460D0074
S315000021D00EBF00202878FF28174601D12070B0BD19
S315000021E0284606F031FD874288BF07463A46691CF5
S315000021F0601C00F0D7F82770B0BDB0B50D000446DE
S31500002200174603D1002060702070B0BD2878FF28E3
S3150000221002BF6878FF2820700CD0284606F019FD0A
S31500002220874288BF07463A46A91CA01C00F0BAF8A8
S315000022302770380A6070B0BDF0B5541E002B37D039
S31500002240052A48DA0025002600230CE0571EFF1A4F
S31500002250FF000CFA07FC4CEA050511F80EC00CFA53
S3150000226007F73E435B1CDFB2974209D2DBB2A4EB11
S31500002270030E00280CBF4FF0000C10F80EC0E5E767
S31500002280042A0FDAD0000121D200401E91404942B3
S3150000229045FA00F2D20748BF0D4346FA00F2D007CE
S315000022A048BF0E43AE420FDBB54214DA10E05B1CAA
S315000022B0DDB295420FD2DBB2E51A00280CBF00262C
S315000022C0465D4D5DB54201DA0120F0BDAE42EEDA63
S315000022D04FF0FF30F0BD0020F0BD0021224A01E0A2
S315000022E0891CC9B2535C8342FAD3501840787047B0
S315000022F00000000030FE032068F0032035FE0320B6
S31500002300BCFD032010F50320BEFD032074F003205E
S3150000231090260300C6FD0320F825030010260300BF
S31500002320BEE30320182603002026030040260300F0
S315000023304C26030078E70320882603006C2603005A
S31500002340F0260300ECF403200CF50320E2E303205F
S3150000235031FE0320E3E3032032FE032033FE032095
S3150000236034FE0320E1E30320102703002838082861
S315000023708041C00F704740B11C280CD01D280DD0DD
S315000023801E2818BF1F2806D00AE0A1F10B0010284E
S3150000239006D2002070471B29FBDB01E00829F8DB89
S315000023A08A207047814233D210441144401E491E90
S315000023B010E011F8013900F80139121F11F801393E
S315000023C000F8013911F8013900F8013911F801391D
S315000023D000F8013992B2042AEBDA93B2002B1EBF41
S315000023E011F8013900F80139521EF6D1704711F87B
S315000023F0013B00F8013B121F11F8013B00F8013BBD
S3150000240011F8013B00F8013B11F8013B00F8013BD4
S3150000241092B2042AEBDA93B2002B1EBF11F8013BED
S3150000242000F8013B521EF6D17047130003D00A464E
S31500002430194607F005BC704710B500E0521E93B26E
S3150000244023B100F012F8F9D0181B10BD002010BD02
S3150000245010B500E0521E93B22BB100F006F8F9D089
S31500002460181B40B210BD002010BD10F8013B11F83A
S31500002470014BA342704780B5FFF7F4FAFFF7E0FB84
S31500002480BDE8014007F010BC80B5FFF7EEFAFFF794
S3150000249001FCBDE8014007F0B7BC7047FFF732BB4F
S315000024A0FFF736BB0020704738B504460D46FFF7E8
S315000024B049FB29462046BDE8344007F04CBDFFF7EE
S315000024C029BBFFF732BB000010B57448744C006896
S315000024D02060606048220021FFF7A7FF714821684D
S315000024E0007808704FF6FF71206800224180027361
S315000024F00020226850730B202268907314202268F3
S31500002500D0734FF6FE7220680282418207F06CFD9E
S315000025102168087607F068FD2168487607F064FDB3
S3150000252021688876604821680078C8765F49206807
S31500002530096840F8281F5E49097801715D482168DD
S315000025400068086310BD10B501F08DF9544C616840
S31500002550897B884203D0084601F034F950B901F06E
S3150000256086F90146606890F90F00814204D001F0B7
S315000025708DF908B1012010BD6068008A01F0DCFD0C
S315000025806068408A01F0F6FD6068007B012818BF8C
S31500002590002001F0BDFD002010BD10B5464C002006
S315000025A0207008F0C1F920B92046BDE81040FEF7BA
S315000025B0DDB967E080B5002000F015F828B10020ED
S315000025C000F005F808B1002002BDFF2002BD344826
S315000025D00068407B02281CBF1128432801D1012036
S315000025E07047002070472E480068007B01281CBFFA
S315000025F00228032801D101207047002070470020DF
S315000026007047002070472D490870704770470020BA
S3150000261070470120704770470020704700207047C0
S31500002620704770470020704780B50020FFF7CFFF46
S3150000263018B1BDE802400020D5E702BD80B50020F4
S31500002640FFF7C5FF30B116480068007B032801DAA2
S31500002650002002BDFF2002BD10B5040005D040F2E7
S3150000266049110FF20C10FFF7B5F81448007808B9B5
S31500002670702010BD09480068482111FB04F1084488
S3150000268007494860BDE810405DE705484068008A94
S31500002690704703484068408A7047000094DF032073
S315000026A0B0F50320D3E30320D4E3032098DF03200F
S315000026B0CBE303209CDF0320A8F50320E6E30320F9
S315000026C07047002070470020704707F012BF704720
S315000026D008F032BC08F00BBB82B08DF80010DDE9C3
S315000026E0002311461A4602B0FFF78AB932B586B002
S315000026F004468DF8042005F0F5FB0546204605F056
S31500002700FFFB80F001010D420DD0BDF8180005F069
S31500002710CAFC8DF80000FF2804BF00208DF80000D9
S31500002720CDF808D01AE0294308BF06A815D00542FF
S3150000273014D0BDF8180005F0B6FC8DF80000FF288F
S3150000274004BF00208DF800009DF800008DF80C00F5
S31500002750BDF81800ADF80E0003A80290DDE90101EE
S315000027600A4601462046FFF74BF907B030BD000088
S31500002770656D6265722D6D756C74692D6E65747705
S315000027806F726B2D737475622E63000008F0D6BBF2
S3150000279080B50121154808F091FC0421072009F0B5
S315000027A0F3F813481349144A016004211160022109
S315000027B041620421114A1160816A41F0020181627D
S315000027C001BD0B4809F022B9A52800D0704780B595
S315000027D000F005F810B10A490020086001BD044860
S315000027E0006810F0010018BF01207047002508009E
S315000027F0002005400108030080E200E000E100E05F
S315000028000000A44210B5DFF8C4400120207082B059
S31500002810002009F007F938B1002009F003F918B1D2
S3150000282000202070492016BD02237F220021684621
S3150000283000F00BF8BDF80000B0F57F7F03D0002054
S315000028402070072016BD002016BD10B5FF2908DC34
S31500002850DFF87840247844B1BDE81040C9B209F0E9
S31500002860FBBCBDE810400AF0DFBA10BD2DE9F0410F
S315000028700446FF2C0D461646984617DCDFF84C003A
S315000028800078C8B1DFF84C70387820B18421DFF8C1
S315000028904000FEF79FFF0120387043462A46314626
S315000028A0E0B20AF02DF80020387005E042463146C5
S315000028B0BDE8F0410AF0DABABDE8F081DFF80C10A5
S315000028C00978002918BF0AF073B970472BFE032058
S315000028D0B82403002CFE03202DE9F04786B00F9F95
S315000028E0109D0E9C0295019706468A46904699468B
S315000028F00094FFF78FF818B1022803D002D310E036
S3150000290001200EE00CBF012000200021049103905D
S315000029100295019700944B4642465146304600F0D8
S3150000292073F906B0BDE8F08710B586B000240494AC
S3150000293001240394099C0294089C019400240094A9
S3150000294018E010B586B000F002F8402312E000242B
S3150000295004940193012403940023089C0093029499
S31500002960704710B586B000F009F84023099C029420
S31500002970089C019400F048F906B010BD00240494A8
S31500002980009301240394704710B586B00124049483
S31500002990002403940A9C0294099C0194089C0094C8
S315000029A0E8E71FB5089C0394079C0294069C0194D3
S315000029B0002400940CE01FB500F002F8402307E065
S315000029C00024019303940023069C0093029470470D
S315000029D000F0CCF904B010BD2DE9FE4F92461D461D
S315000029E0064688462A46FEF777FB002407000C9821
S315000029F08DF80060A346D946ADF802808DF80450E4
S31500002A00ADF806A0ADF8080047D069463846FEF78F
S31500002A1027FA002841D0DDF83880002505E006F0C9
S31500002A2082F8641C09F101096D1C3989A8B2884233
S31500002A302BD27868ADB20C21694346183888B0F5B8
S31500002A407C4F09DA3088ADF806006A4631463846CA
S31500002A50FEF71CFA0028E7D03088504538BF0BF146
S31500002A60010BDFD39DF83420A1B29142DAD206F0F1
S31500002A7069F8B07806F057F85FEA0800D1D03079E7
S31500002A80C0074CBF07200520C9E71FFA8BF111FAD2
S31500002A9084F01FFA89F1884201D1012000E000206C
S31500002AA0BDE8FE8F2DE9F0478EB00025DFF84C918A
S31500002AB000E06D1CFEF7A9F8E9B281424CD2EDB2F6
S31500002AC000274FEA051A00E07F1C09EB0A00F9B25D
S31500002AD0806802799142ECD20068FFB2142111FBA2
S31500002AE007F100EB0108002407E0B078FEF7ADF827
S31500002AF010B104A806F0ADF8641CB8F80810A0B22E
S31500002B008842E1D2D8F80400A4B20C2161434618E9
S31500002B10FFF757FE31464046FEF786F931790090B9
S31500002B2049064CBF802340230021039121210291B5
S31500002B3004A901913288B8F8001019F80A0000F0CB
S31500002B4015F98628D8D0B078FEF777F80028CCD0CB
S31500002B5004A806F079F8CFE70EB0BDE8F08770B5A7
S31500002B608EB01546139C052C3FDB04AA0392212246
S31500002B70029205AA0192129A00922A4600F0F6F8ED
S31500002B80060034D19DF81000412818BF422804D110
S31500002B9005A806F059F8461C0BE0432818BF442840
S31500002BA004D105A806F055F8861C02E00AF0BAF929
S31500002BB00646F6B2301D844217DB284605F0C2FFF2
S31500002BC0002005F0B0FF9DF810000D4C05F0ABFF9E
S31500002BD020883118522908DA0A4B324605A91844CA
S31500002BE0FFF7E0FB2088301820800EB070BD284625
S31500002BF005F0A8FF304605F096FFF6E778E70320D4
S31500002C00BEFD032074F003202DE9F04F89B0054680
S31500002C100020049000908946129C934698468DF8B1
S31500002C201450ADF816908DF81880ADF81AB0ADF8BE
S31500002C301C400023002204A905A8FEF73AF90498CF
S31500002C4008B9862082E0159868B904999DF8500065
S31500002C508978884218BF8D2078D104980079C007FA
S31500002C6058BF882072D504980079139E400725D551
S31500002C700498806840680290049880688068019093
S31500002C8004988078FFF772FB82460498C0788DF826
S31500002C900000032853460246314629DA02A8FFF708
S31500002CA0CBFA07469DF800205346314601A8FFF7A8
S31500002CB0C3FA012F18BF10F1010F28D0169800286B
S31500002CC043D100F046F8FEF719FF01003ED100F0AF
S31500002CD040F8FEF729F8010038D1012000900023C2
S31500002CE03246002105A8FEF7E4F8010011D02DE0D8
S31500002CF00298FFF7A1FA012809D09DF80020019853
S31500002D0053463146FFF798FA10F1010FD6D18720C6
S31500002D101CE0049B4A4629463046FEF7D2FB029643
S31500002D20009443469DF8500001905A46494628466D
S31500002D3003F046FB00F00DF8FEF7DFFE0094434675
S31500002D405A4649462846FDF7CBFF002009B0BDE8A4
S31500002D50F08F039643460498C078029000945A4632
S31500002D609DF85000019049462846704710B586B038
S31500002D7000248DF808008DF80C30ADF80E20ADF863
S31500002D800A100194009401A908980A9B099AADF8C3
S31500002D90100002A8FEF78DF8010004D10B9911B1BD
S31500002DA0019A92780A7006B010BD0000012100F069
S31500002DB01F029140DFF8DC24400942F820107047DA
S31500002DC070B50546FEF788FC002600242821DFF8AA
S31500002DD0C82401FB06F313449B7F13B1761C042E13
S31500002DE0F7DB042E08BFDFF8B44408D02DB17143D9
S31500002DF0114401238B772E6001E0DFF8A444FEF72F
S31500002E0071FC204670BD10B5DFF89804017809B151
S31500002E10002010BD01210170DFF88C04DFF88C441E
S31500002E2008F04CF90321DFF8880408F0B5FA03200E
S31500002E3020710121DFF87C0408F040F920460AF0F1
S31500002E4098F8DFF87414DFF8744401200AF07AF871
S31500002E50E069C00AC002E06140F2FF70A061002094
S31500002E6020601E20FFF7A2FFDFF854144FF08040C9
S31500002E700860A021E06940F00100E061DFF8180475
S31500002E800AF098F8DFF83C1400200870DFF83814D0
S31500002E900870DFF838140860DFF834140860DFF8CB
S31500002EA03414086010BD2DE9FE4F0546042D8B46EF
S31500002EB0144699464FF0000828BFDFF820040ED2CA
S31500002EC0FEF70AFC02902821DFF8CC036943461876
S31500002ED0B07F28B90298FEF705FCDFF8040488E005
S31500002EE00C9F34B9B9F1000F02D039462846C847BD
S31500002EF07BE0610CE003DFF8C453D5F800A0C6F808
S31500002F00189000F078F8C6E90201BBF1010F0ED166
S31500002F104FF47A726243CDE900280246F420A0FB02
S31500002F200249DDE90001001B30617A207061D6E9B3
S31500002F300201401C61F1FF31C6E900010120307732
S31500002F4086F81FB03762DFF87C03007800284CD182
S31500002F50DFF87873386810F1010F02D03868401C2A
S31500002F603860DFF86443DFF87C932078A8B9C9F8A5
S31500002F7000A00420A8616FF06402D6E90001414573
S31500002F8001D8904200D310465044E864E86940F006
S31500002F900400E8610120207022E0386801281FD172
S31500002FA086F81C8000F0D7F8AAEB000000F0DAF8EB
S31500002FB000F02CF9B8F1000F04BF0120307750461D
S31500002FC000F034F9D5F800A0E86C217808F1010882
S31500002FD031B1D9F80010401AAAEB01018842E1D3B9
S31500002FE0386810B13868401E38600298FEF77AFBE0
S31500002FF00020BDE8FE8F10F57A6041F100014FF424
S31500003000FA52002309F0DABF2822DFF88C12624355
S3150000301011448A7F70472DE9F0410446042C0E4680
S3150000302028BFDFF8B8023AD20EB99D4837E0FEF75E
S3150000303053FBFFF7E9FF22B9FEF754FBDFF8A002C6
S315000030402DE00A7F22B9FEF74DFBDFF89C0226E051
S31500003050D1E9004899490F68A2490D68FEF742FB7D
S31500003060781B0021884504D8844238BF4FF480403D
S3150000307010D3221A68EB0103DB0043EA5273D20035
S315000030804FF47A74A4FB020104FB031110F580408F
S3150000309041F10001C00B40EA414030600020BDE82C
S315000030A0F08170B58A4E002334688448026830681F
S315000030B08442F9D1981844EB030170BD30B54FF442
S315000030C0FA5200F004F8C00B40EA414030BDA2FBC2
S315000030D0004502FB015514F5804045F1000170479B
S315000030E02DE9F047FEF7F8FA744D8246E86929693A
S315000030F000EA010626F00500A86170071ED5714F8B
S31500003100DFF8C481DFF8DC91012038702C6800F00C
S3150000311022F8201A00F026F800F078F8204600F091
S3150000312085F82C68E86C98F8001029B1D9F80010D9
S31500003130401A611A8842EAD300203870F00705D594
S315000031400120A86162480168491C01605046BDE83B
S31500003150F047FEF7C7BAE86920F00400E861D9F83D
S31500003160000070472DE9F04300260446002528217B
S31500003170494871434718387F7D77002841D0D7E901
S3150000318000018D4207D828BF844204D2001BA94102
S31500003190C7E9000135E0F87F08B938772DE0D7E9AF
S315000031A00001D7E90223201AD7E9028965EB01015C
S315000031B009F004FFB8EB020069EB0301C7E900015F
S315000031C0386939690128786909DB0818F4287861B3
S315000031D013D3D7E90001401C61F1FF3108E0401A22
S315000031E0F428786109D3D7E90001401E61F1000196
S315000031F0C7E900017869F4387861B86908B1012037
S315000032007877761C042EB2DBBDE8F08310B5002477
S315000032102821214861434218507F18B1116A9269EA
S3150000322020469047641C042CF2DB10BDF0B54FF02D
S31500003230FF3213460021184C28254D436619367F68
S3150000324046B12544D5E900679F4203D82EBF964272
S3150000325032463B46491C0429EEDB00214FF0FF3481
S31500003260A34208BFA24212D08B426FF0640401D879
S31500003270A24200D322461B49174B0860042119605D
S31500003280101858630121586840F0040058600E4831
S315000032900170F0BD80E200E0C8E50320011000F0F7
S315000032A0041000F022FE03200025080074E103202C
S315000032B0050020008009120080E103200820044058
S315000032C000E100E020FE032021FE03204CF2032053
S315000032D050F2032054F2032020200440021000F094
S315000032E0031000F048F20320051000F0012100F061
S315000032F01F029140514A400942F82010704730B5EC
S315000033004F48504D0FC887B003AC84E80F0068469D
S315000033100021002200230EC002208DF806000121A4
S3150000332049484A4C07F0CAFE4FF6FF70E0616A460C
S315000033300021204609F01EFF00208DF80E0003A98B
S31500003340204609F0CBFE424807F0E8FE9DF80E1035
S3150000335001228A40491C8DF80E10B0FBF2F0C9B26A
S315000033600B29286002D23B498842E8D23A4807F046
S31500003370D5FE3A492A68B1FBF0F339480021E3FB50
S315000033800201384A002309F019FE37490860002077
S3150000339036490870A06920F01000A0610B20FFF7E5
S315000033A0A5FF33494FF40060086007B0002030BD28
S315000033B038B500F01BF804460D4605E04FF6E85018
S315000033C000F02AF800F00CF800218D424FF6E95083
S315000033D0F4D88442F2D2A0B200F01EF8002032BD2A
S315000033E024484FF0FF3124184D41704715491C4AB7
S315000033F009680023E0FB012310461946194A0023F9
S3150000340009F0DCBD1C480168C90604D5102181609D
S315000034100120164908707047010081B00BD017498A
S315000034200A6892B20B68ADF80030BDF800309B1AFE
S315000034309BB28342F6D301B07047000080E200E001
S315000034404C250300E4F40320000204000080014040
S315000034504041050081841E005000020000B0710B3F
S3150000346020A1070040420F00E8F403202FFE0320AE
S3150000347000E100E01802FFFF0C80014024800140BB
S315000034803E480168090C090481603B4801607047A9
S315000034903B4A410952F8212000F01F00C240D207E2
S315000034A006D5384A52F82110C14001F00100704794
S315000034B0002070470000000070B50646072808BFC8
S315000034C0032602D0082808BF0226FFF788F930B184
S315000034D0012E04D1A520FFF777F9012400E000248E
S315000034E009F09EFE002080F311880AF08EF8214D27
S315000034F0761E0020042E286016D8DFE806F0030AA0
S315000035000A0E12002048016821F00401016030BF54
S315000035100EE001200AF062FB0AE001200AF06BFBD4
S3150000352006E00AF094FB03E0AF211848FEF752F9D3
S315000035301248C1680068084086B22E600A20FFF76C
S31500003540A7FF18B91220FFF7A3FF10B146F4803089
S3150000355028601E20FFF79CFF18B1286840F4003051
S3150000356028600CB1FFF714F90AF068F8BDE870405E
S315000035700AF0F2BC64F4032068F403201CA40040A3
S3150000358000E200E000E100E010ED00E0B41F0300FF
S3150000359092E7000010B54C00014600F05EFD2246A1
S315000035A00AF0F5FCA04201D0002010BD012010BD9C
S315000035B080B500F052FD0AF044FD00B10120C0B212
S315000035C002BDDFF8A00A407D00B101207047DFF898
S315000035D0942A117B01B9704780B50146106A0AF03A
S315000035E086FD20B1BDE8044040F24F1100E301BD65
S315000035F010B5DFF8704A627D010018BF012102B1E3
S3150000360001229142607519D068B16FF07F00FFF713
S31500003610DEFF0AF0E3FDC00510D5206ABDE81040C4
S3150000362001210AF0D5BEDFF8784A94F90C0000F0C3
S3150000363014FE207ABDE8104000F034BD10BDDFF85E
S31500003640241A497D01F0FE010843D1E780B500F058
S3150000365004FD0AF095FC00F00300032801D10120C7
S3150000366002BD002002BD80B5B0F5004F07D100F0C5
S3150000367021FEDFF8980A00F0D9FCBDF80000DFF85B
S31500003680201AC883002002BD2DE9F04F440900F03E
S315000036901F050027DFF89C8A00E07F1C98F806606B
S315000036A0F8B2B04245D2D8F80800FFB250F8270069
S315000036B04FF0000C01E00CF1010CC67E5FFA8CFEA7
S315000036C0B645EAD2D0F81CE05FFA8CFC182616FB49
S315000036D00CF6B6449EF8086006F00706A642EAD144
S315000036E09EF80960B542E6DB9EF801B09EF80090B0
S315000036F006EB0B0AAAEB090AAA45DCDBDFF8704ADF
S31500003700247854B1DFF85C49A47B34B9DEF80C4068
S315000037101CB12468EC40E4070BD511B1AC1B4C443A
S315000037200C7012B19EF8081011701BB1C3F800E0BE
S3150000373000E00020BDE8F08F400918BF40F01800F7
S31500003740704710B5DFF81C49206A0AF07AFC024679
S31500003750206ABDE8104000210AF08FBC0B38102803
S3150000376034BFDFF8D40ADFF8480B006870473EB56F
S3150000377068460021002200230EC0DFF824090178E4
S315000037808DF80010817A0A0018BF022914D1007939
S31500003790DFF8D05800F0BBF8044600F00EF858B138
S315000037A0286A012200210AF0EDFB00F006F818B1A4
S315000037B040F2792100F068FB37BD286A6A46214647
S315000037C00AF008BC2DE9F041044604F01F001B284E
S315000037D086B034D2002000906B460022002120469D
S315000037E0FFF752FF07002AD02046FFF7B7FF5FEA30
S315000037F0000824D0DFF86C68DFF8445AF06B804587
S3150000380015D001A8414606220AF0E8FD306AC6F83E
S315000038103C8001A90AF0CDFC88B9306A03A90AF0F8
S31500003820D6FCB5F91C10306A0AF09EFC38B900982F
S31500003830B06277620098002818BF006901E08A200C
S315000038400EE0F06229798C421CBF2C71FFF78FFFC6
S3150000385096F90D00C101306A09B20AF0AFFF0020E7
S3150000386006B0BDE8F081DFF8D80900797047DFF8C7
S31500003870D009B0F91C00002854BF05216FF00401DF
S3150000388008180A2190FBF1F040B270470A2110FB9C
S3150000389001F0FFE7F8B500F5D77240F277239A42B8
S315000038A001D38B20F2BDDFF8BC47DFF89459A26A3A
S315000038B00A23002A1EBFAE7F06F0C006802E12D055
S315000038C0A67B86B992F9026016FB03F7B842B8BF29
S315000038D016FB03F007DB92F9032012FB03F6864280
S315000038E0B8BF12FB03F0217B61B10146206A0AF0E2
S315000038F03BFC18B14FF4367100F0C6FA206A0AF0A4
S3150000390046FC01E010FB03F0A8830020F2BD38B5A9
S315000039100446FFF723FF90B1002300220021204632
S31500003920FFF7B2FE58B104F01F051B2D07D2204643
S31500003930FFF702FF18B90B2D01DB284632BDFF2029
S3150000394032BD0FF208014008085C7047F0A0500035
S315000039507047C0B2704710F1590F01DA0020704766
S3150000396010F1240F01DBFF2070475A300002362188
S3150000397090FBF1F0C0B2704770B5DFF8E846DFF8AB
S31500003980A05A00202064687828B10AF01BFF01289D
S3150000399018BF032801D1002070BDE16ADFF8843A20
S315000039A0DFF89C2800291FBFA66A7669002E022828
S315000039B017D12364906900F5FA709061E07C18B124
S315000039C000200021642203E0E87829794FF4A072F0
S315000039D02070A2806170A878A0708020E08000200E
S315000039E030E0DFF8445A9069AE4213D1DFF83C3A32
S315000039F0236400F57A709061E07C88B908792070BC
S31500003A0001228B7808799A40101891F90320101832
S31500003A10401E0CE0236400F5FA709061E07C18B15A
S31500003A2000202080642005E0487820708878607047
S31500003A3008780001A0804879A07008890001E0801C
S31500003A40C8880001A06000F03BFCE07094F9020019
S31500003A50010048BF4042C0B270BD70B50446DFF8F1
S31500003A600466257896F9140008B18C2070BDFFF71E
S31500003A7083FFB075DFF8A829DFF8C4074178017421
S31500003A80690101F5807181619379716C002BB37BBB
S31500003A901DBFAD1EEDB221F0020141F0020173B966
S31500003AA0127862B16278920609D56FF0010232751A
S31500003AB041F00101826902F50872826104E0490859
S31500003AC04FF0FF30490030757164032000F006F9AD
S31500003AD06A1C306A4FF4807392B221460AF09BFE4C
S31500003AE0691C884203DA40F2294100F0CDF9002032
S31500003AF070BD0000F8B5DFF86C5595F91410002478
S31500003B00091D04290FD8DFE801F0080E1010030084
S31500003B10FFF7A3FF040008D0F2BD2C75286A0AF04F
S31500003B2035FA8D20F2BD8C20F2BD0AF0EEFBE8B12D
S31500003B30286CDFF8F018884218D1A87DB0B1DFF8FC
S31500003B40E80A0068002811D5DFF8E00AC168C160FC
S31500003B500122006800F00F0002FA00F0401E014248
S31500003B6004D100F0E5FB64200AF073FEFDF7B4FD16
S31500003B70064695F9140010F1010F1CBF95F91400C3
S31500003B8010F1020F29D195F91400DFF8B4764042FE
S31500003B902875FDF7ABFD7862296C387949B9FFF7CE
S31500003BA0B6FE01466A6C286A07F110030AF001FAAC
S31500003BB00BE0FFF7ACFE07F11001009101466A6CBD
S31500003BC0286AD5F840C02B46E04760B1002028752A
S31500003BD08C244FF0FF30786202E0002028758D2497
S31500003BE0286A0AF0D3F93046FDF77CFD2046F2BD7F
S31500003BF0DFF8800AFDF7EEBD2046BDE81040FDF770
S31500003C0071BDDFF83C06C08B70470000F8B5FDF7C4
S31500003C1063FDDFF88C540446A87A012803D12046B8
S31500003C20FDF760FDF1BDDFF8501ADFF83864DFF804
S31500003C30447A402008600122306A01210AF0A2F984
S31500003C40DFF8381A4FF40010086069460FF2880052
S31500003C5000680090306A0AF0A5FD20B140F2D74115
S31500003C603846FDF7B7FD02208DF800006946306A38
S31500003C700AF075FD20B140F2D9413846FDF7AAFD9C
S31500003C80306A0AF094F9002100200AF0DAFA00F00E
S31500003C903FFB0120A87296F91400001D072810D8D2
S31500003CA0DFE800F0140F0707040B0B0B0AF0A2FF66
S31500003CB00CE06FF00300307508E0892000F06EFB21
S31500003CC004E040F2FB413846FDF784FD2046FDF74F
S31500003CD009FD0BF043F8F1BD040100002DE9F04D9C
S31500003CE0DFF8BC530446A87AA04282B063D00FF234
S31500003CF0CC01DFF88C690968DFF87889DFF864732E
S31500003D00DFF878A9009103284FF4001B4FD8DFE8AD
S31500003D1000F047023E2B0BF02AF8386A69460AF093
S31500003D2041FD18B14FF4A36100F04AF802208DF866
S31500003D3000006946386A0AF012FD18B140F21A51BD
S31500003D4000F03EF86879002814BF00220222386A83
S31500003D5002210BF05DF818B140F21F5100F030F867
S31500003D600320032CA87218D0CAF800B00220A8724B
S31500003D702879FFF7CCFD0146386A00220AF02AF9B5
S31500003D8018B140F22F5100F01BF8022C13D0002C72
S31500003D9018BF032C0FD10020A872C6F800B00AE0A5
S31500003DA0022C08D1CAF800B00220A87203E040F243
S31500003DB0455100F005F8BDE8F38D0000040200004F
S31500003DC04046FDF707BD002088E7DFF8BC0A807A89
S31500003DD070470000032805D8DFE800F0030203035C
S31500003DE014E77BE740F2635102E780B500F00EF876
S31500003DF004D500210175006A0AF0C8F8A848407A7F
S31500003E00012802D1BDE8014000E701BDDFF87C0AC8
S31500003E1090F9141000297047DFF86C0A407A704751
S31500003E2080B5032801DB012002BD9D494872897ACD
S31500003E30884218BFFFF7CEFF002002BD2DE97C4F58
S31500003E40DFF8486A03EA010BD6E9068929EA010583
S31500003E5028EA000402EA000A45EA0B0544EA0A04D5
S31500003E604D4508BF44450DD0CDE900230246306AD2
S31500003E700B460AF099FC18B140F28B5100F004F899
S31500003E80C6E90645BDE8738F0FF63020FDF7A2BCE4
S31500003E9038B5744D0446287BE8B1200018BFDFF81A
S31500003EA0F02904D1A87C08B1402200E000220023BA
S31500003EB0DFF8DC090021FFF7C1FF002C14BF082240
S31500003EC00022286A08210AF0A3FF20B1BDE8344089
S31500003ED040F2C7518CE631BDF8B50446022C0FF608
S31500003EE0DC1503DB4FF4BE6100F0A5F85D4E307BB8
S31500003EF0002840F097806A4FB87A012803D040F234
S31500003F00F65100F098F8002107F130000AF026F883
S31500003F10306218B940F2F95100F08DF8306A052187
S31500003F200AF0D9FA18B140F2FB5100F084F8306A71
S31500003F300FF69C110AF07EFF18B140F2FC5100F01A
S31500003F407AF8306A0AF0AAFF18B140F2FD5100F083
S31500003F5072F84FF0FF30DFF83C2906230146FFF7E1
S31500003F606DFF306A4FF001110AF099F818B140F26E
S31500003F70126100F060F8306A4FF4803200210AF0D6
S31500003F807CF8306A09224FF0FF310AF041FF18B180
S31500003F9040F2196100F04FF8012030730223DFF878
S31500003FA0F80800F043F8BDF80000C0054CBF00203B
S31500003FB0BDF8000070730AF0A8F9FFF769FFF88BE7
S31500003FC0FFF751FB0AF0EAFF00F08CF83879FFF7AB
S31500003FD0F9FB18B140F22C6100F02DF8F87900F0E9
S31500003FE043F8387A00F05EF8307C00F091F8787982
S31500003FF000F0D4F800F064F900F02FF9B07C00F07E
S3150000400025FBB7F91C00FFF745FC388C00F094F847
S31500004010788C00F0AFF8B87900F014F9601E804192
S31500004020C00FB8722046FFF7D5FEF1BD01887F228A
S31500004030684608F0F9BE2846FDF7CCBB80B500F00F
S315000040400CF8012109F0C9FF10F5007F02D16FF0CD
S315000040507F0002BD8005001602BDDFF83008006A49
S315000040607047000068E6032010B50446DFF81C0818
S31500004070017B51B1611E8941006AC90F0AF060FFD8
S3150000408018B140F26761FFF7FFFE2000DFF8F8176E
S3150000409018BF0120C87110BDDFF8EC07C079704762
S315000040A0CCE10320F8B50446FDF716FB0546644847
S315000040B0DFF8D8670472377BFFF783FA00F0010058
S315000040C080F00100074204D0306A84F001010AF052
S315000040D07FF92846BDE8F240FDF704BBDFF8A807E4
S315000040E0007A7047DFF8A407017B01B9704780B5F5
S315000040F0006ADFF8A81700220AF00FFF20B1BDE81A
S31500004100044040F2926173E501BD0000E22D030018
S31500004110DFF87827117B107401B9704780B5014626
S31500004120106A0AF001FF20B1BDE8044040F29D612B
S315000041305EE501BD2C2B03004149DFF850370884AA
S31500004140197B01B9704780B50146186A00220AF04A
S31500004150DDFE20B1BDE8044040F2AE6148E501BD98
S31500004160DFF82407008C7047DFF81C07408C704787
S31500004170EAE303203249DFF814374884197B01B992
S31500004180704780B50146186A00220AF0B8FE20B1D1
S31500004190BDE8044040F2C4612AE501BD28494A79D8
S315000041A0824200D1704710B58C7A4871012C05D037
S315000041B0FFF72CFD2046BDE810408FE510BD10B579
S315000041C000F032F800F02BF80146206A012209F0CF
S315000041D0F9FE20B1BDE8104040F2E66108E510BDE9
S315000041E080B5FFF73AFF09F0F0FE18B140F2EB6137
S315000041F0FFF74AFEBDE80140FFF7B9BA10B500F077
S3150000420013F800F00CF80146206A002209F0DAFEE5
S3150000421020B1BDE8104040F2F661E9E410BDDFF8D8
S3150000422068060079FFF773BBDFF86046206A012253
S31500004230012109F0A7BE0000ECE00320D0E7000052
S31500004240CCE1032010B50446FFF707FF21460AF02C
S31500004250B1FEDFF83406847110BD38B504467F2CF4
S315000042600CD100F027F8DFF83806FFF7DFFEBDF8BF
S3150000427000007E24C00558BFBDF80040FDF72CFAAB
S315000042800546FFF79EF960B960B27E2805D1DFF8D2
S31500004290FC15896A09B191F904007E28B8BFFFF7B9
S315000042A096F9DFF8E40504732846FDF71BFA31BDDD
S315000042B0F0E003204FF6FF70ADF8000002237047D0
S315000042C0DFF8C40590F90C007E2807D1DFF8BC059D
S315000042D0806A08B97F20704790F90400704710B5CE
S315000042E009F07CFF800411D5DFF89C454FF0FF30C4
S315000042F0A06209F073FFC0044CBF03200120002117
S3150000430009F0C2FFFDF7F2F9E06210BDBDE810400A
S3150000431080B5DFF874054FF0FF318162C162FFF7A7
S3150000432095F920B9BDE80440002109F0ADBF01BDF3
S3150000433080B509F053FF4005BDE804404CBF03209B
S315000043400120002109F07DBF10B5DFF8404594F942
S31500004350140003280DD100F024F9DFF82C154FF0D6
S31500004360FF3048620022216BBDE8104040200AF071
S31500004370BCBA10BD38B50446FFF7CAFFDFF80C55C6
S31500004380FDF7C5F9686314B10AF035FA01E00020BB
S315000043906874BDE831400AF02DBC000038B504460B
S315000043A0DFF8E414DFF8E4544FF0FF304862FDF71D
S315000043B0AEF9686395F91400012802DABDE83140C8
S315000043C0A6E7A87D08B1686BA86300F071FAA87B20
S315000043D010B10120E87331BD2046BDE83840002207
S315000043E000210AF082BA10B509F08FFF78B1FFF705
S315000043F02DF960B1DFF890444FF0FF30E062FDF731
S3150000440075F9A06209F068FF002109F03DFFDFF8A9
S315000044107C04807C18B1BDE8104000F068BA10BD7D
S3150000442098E10320B9DF0000EC480000BFDF000080
S315000044302DE9F043DFF854440FF28049206A89B031
S3150000444005AA02210AF0EAF9050003D140F6F401B3
S3150000445000F0A4F89DF81400DFF82C64BDF816806F
S3150000446007281CBF7079002819D1B8F1060F16DB92
S3150000447008F108008B2812D2002000904346DFF88E
S315000044802474206A3A4629460AF0D0F9404503D0FA
S3150000449040F60D1100F082F83878000602D5FFF7D5
S315000044A01EFF78E001208DF80800CDF804806A46EA
S315000044B0206A29460AF0B6F918B140F6241100F030
S315000044C06DF8787800F0070002281ED1FFF720FF6C
S315000044D094F91400032808BFB8F1060F11D19DF80E
S315000044E00D0070B17878000900F0010500F059F868
S315000044F04FF0FF3070622A4600218F200AF0F5F94E
S3150000450049E0F079002846D105E09DF80D0010B18C
S315000045100020FFF719FFF0799DF80D10084203D02F
S3150000452040F64C1100F03AF8F07930B17878800610
S3150000453003D5206A09F04FFF18B1FFF7E9FE002006
S3150000454060743878401C404503D040F6661100F090
S3150000455025F807EB080530792870FEF75FF86870D4
S315000045609DF80E00A87095F90200FFF7F4F9E870BF
S3150000457008F10801FF202871C9B20098000C687183
S315000045800098000AA8710098E8713846627C0AF023
S31500004590ECFA0020607409B0BDE8F0834846FDF7E8
S315000045A019B900202075206A09F0F0BC0FF214300A
S315000045B0FDF710B938B50446002C0D4607D4FDF7B3
S315000045C095F8011B89B28D428041C00F32BD002093
S315000045D032BD10B5DFF8B042606A4FF47A71FFF76A
S315000045E0E9FF60B1DFF8A40290F91400032803D1B3
S315000045F00020FFF7A9FE02E08920FFF7CFFEA06AA0
S315000046000A21FFF7D7FF08B1FFF782FE09F0E6FDA2
S3150000461000F0FF01E06AFFF7CDFF10B1BDE81040E2
S3150000462076E610BD00000000044008404C500840EB
S3150000463010B540B90AF0E0F8FDF74EF80446FFF76A
S31500004640C8FFFFF7D9BABDE81040C2E738B58F4DAD
S315000046500446287B60B1200002D109F056FE08B15D
S31500004660402200E00022002340200021FFF7E6FB65
S31500004670AC7431BDBC4800000840084018600846CC
S31500004680186008442DE9F04781461446600688B054
S31500004690984648BF002002D4200602D50120FFF725
S315000046A0A2FEA003794D25D50020687469464846C8
S315000046B00AF05BFCF0B99DF8080002280ED1BDF89F
S315000046C000000AF07BFCFF280ED07749096831F814
S315000046D010004FF4E461084206D10BE0032809D12B
S315000046E068460AF0DEFC28B1286A0AF03BFC08B9E5
S315000046F001206874600410D509F007FE68B1FEF762
S31500004700A5FF50B109F0F5FD064609F0E5FD864224
S3150000471003D00021304609F0B7FD200744BF4846C4
S31500004720FFF786FEE00548BFFFF7D9FD4FF41850A6
S31500004730044218BFFFF7ECFDE00244BF0120FFF77B
S3150000474019FE600244BF0120FFF714FEE00144BFDA
S315000047500020FFF70FFE95F914000FF2601A0128EA
S3150000476064DB286A484E21034FF0FF3730D595F9B0
S31500004770141001295ADB95F91410032956DA002181
S315000047808DF8181001218DF8141003A909F022FDE7
S3150000479003982863FCF7BBFF6863A87D08B1686BC4
S315000047A0A86395F91400012804D002280AD1032031
S315000047B028753BE000F07CF87762A87BA8B9296BE6
S315000047C0002218E040F61D015046FDF703F82DE0E3
S315000047D014F0845F12D00021297509F0D7FB04205C
S315000047E00AF00BF87762A87B10B10120E8731DE090
S315000047F0002200218D200AF078F817E0A00248BFB9
S31500004800892002D4A00103D58820FFF7C7FD0DE05B
S31500004810600048BFFFF78CFDA00007D5234800685D
S31500004820400403D40021002009F00BFDA00744BF7B
S315000048304846FFF789FD002C04D5FFF769FD484679
S31500004840FFF782FD08F002010023994212D0484684
S3150000485009F092FB022802D0032802D005E0892045
S3150000486000E08D20FFF79AFD04E040F688015046EF
S31500004870FCF7B0FF08F004010023994218BF0AF0C4
S31500004880F3FD08B0BDE8F087CCE1032068E603201D
S31500004890406700600A00FA93E42D0300FCF503204C
S315000048A0E62D030068F603207CDF03200440084061
S315000048B000202875286A09F069BB00007068792E07
S315000048C0630000006C69627261696C2E6100000011
S315000048D00000000001006003010101016400B60050
S315000048E06400C000000000000B00000000007047DC
S315000048F0602080F31188704770B50AF0E4FEA94C79
S3150000490020460BF095FAD8B920460BF047FAFF2857
S31500004910044615D0A4490968085C851EE9B22046FC
S315000049200BF0D1F90646E9B220460BF0DFF8214636
S31500004930304600F0E5F82046BDE870400AF076BF44
S3150000494070BD03460A4696A10420FFE70CB480B565
S3150000495002AA00F02AF801BC5DF80CFB00B587B08E
S315000049600AF022FA00210591049102466121039181
S31500004970002300210291019101208C4900910FF240
S315000049803C21FFF7E3FF8A488179C3788278039157
S3150000499001880291417901910179009142200FF23B
S315000049A02821FFF7D3FF07B000BD2DE9F04F85B0F2
S315000049B005460C4690460BF05EFA0026F8B90AF05A
S315000049C00BFEE0B101200AF0C6FE8246BAF1FF0FE7
S315000049D015D000210AF0BAFE294601A80AF002FE07
S315000049E005469CB900F087F830B950460AF062FED9
S315000049F010B104200BF03BFA50460AF017FF05B041
S31500004A00BDE8F08F8DF804200125641C2078010094
S31500004A10E8D0A0F130010A2905D20A2101FB0600DF
S31500004A20A0F13006F1E700F066F80028E4D122781C
S31500004A300025422A01A80ED0442A1AD0462A25D09B
S31500004A40572A0DD0622A3AD0662A2AD06C2A25D057
S31500004A50702A26D0D6E758F8040B8DF80400D3E761
S31500004A6058F8041B8DF8041002250904090E41703C
S31500004A70CBE758F8041B8DF804100A0A4270042587
S31500004A800A0C8270080E8DF80700BEE758F8041B62
S31500004A9050460AF0DDFF0028B7D0ADE758F8046BA2
S31500004AA0B3E7012358F8041B662A08BF0223F2B2B3
S31500004AB050460AF0ACFF002808BF0026ECE73A484B
S31500004AC058F8047B006810F80A90FFB2FF2F9CD0BC
S31500004AD010F807B00BEB0901C9B250460BF006F807
S31500004AE0002889D1CDF800B000233A464946504601
S31500004AF00BF00BF989E72A4601A950460AF0A6BF32
S31500004B002DE9F043122885B080460D4609D03A2893
S31500004B101FD04FF6FE71884204BF2846FCF767FF98
S31500004B2036E02148234F0068465D0BE028460AF030
S31500004B3007FE01462246002008F096FD3868455DCE
S31500004B40203EF6B2FF2D23D0212EACBF20243446C2
S31500004B50ECE703F024FA8146FFF706FB0646FEF76C
S31500004B6086FE0746FEF77FFE0446FFF7F9FA024681
S31500004B700E480FF25C010390CDF8109023460E48C4
S31500004B80006840880290019600973B20FFF7DEFE02
S31500004B902946404605B0BDE8F0430BF06EB900006B
S31500004BA05746000020E3032068DF0320FCF50320BE
S31500004BB0002B030070DF0320B0F50320424238705B
S31500004BC0424242425742420042424242574200005B
S31500004BD05742425757387042000000002DE9F04115
S31500004BE00125012818BF202894B004460F46904698
S31500004BF01E4623D10AA82749242209F0FFFB68464E
S31500004C000AA9242209F0FAFB1020012C18BF202C37
S31500004C10ADF82400ADF8260008D0022C18BF212CD0
S31500004C2004D0032C1CBF222C232C14D1012E019757
S31500004C30ADF80C8004D14FF4805005E001200BE064
S31500004C40022E03D14FF44050ADF80A0069462046C3
S31500004C5008F02DFD0546E8B214B0BDE8F08180B538
S31500004C6008F0C8FDC0B202BD80B508F037FEC0B27C
S31500004C7002BD80B508F0C4FEC0B202BD0CB480B55A
S31500004C800A46014602AB04480BF039F902BC002083
S31500004C905DF80CFB001F03008BD900007047000075
S31500004CA010B50446FFF724FE200A00283A4808BF3C
S31500004CB024024FF20F0104804180BFF35F8FBFF3E0
S31500004CC04F8F3648364A016801F4E06111430160AE
S31500004CD0BFF34F8F00BFFDE780B5002000F009F855
S31500004CE030B9BDE80440E3210FF2C800FCF772BDFD
S31500004CF001BD2DE9F0422B4C216842428D1815F07A
S31500004D001F0108D0002802D44842054403E0484267
S31500004D10284400F120052448A5F12006A84224BF16
S31500004D202248864203D3EFF30880854201D3002050
S31500004D302DE0FCF7D1FC81461D48006810F0010704
S31500004D4018BF0BF026FA206801468D4206D2A8420B
S31500004D5024BFCD2100F80119F9D206E0203800223F
S31500004D6001E000F8012B8842FBD3256030460BF0AA
S31500004D7017FAE22001E006F8010BAE42FBD30FB1B1
S31500004D800BF0E4F94846FCF7ADFC20682038BDE896
S31500004D90F082044800687047000000200CED00E037
S31500004DA00400FA0524E30320D0D10320C410002018
S31500004DB094ED00E06D6963726F2D696E7465726EB5
S31500004DC0616C2E63000000004FF6FF71884207D029
S31500004DD0010A01D0002070471B490978084000D01D
S31500004DE001207047F8B504460D4616461F46FFF7E4
S31500004DF0EBFF58B13A46314620200BF097F91DB12A
S31500004E0010A120200BF08AF910480480F1BD80B56E
S31500004E10FFF7DAFF20B1BDE802402020FFF729BFE7
S31500004E2001BD0CB480B50A4602AB012104E00CB406
S31500004E3080B50A4602AB0021FFF7D4FF01BC5DF83E
S31500004E400CFB00000D0A0000E0E30320C6FD032072
S31500004E502DE9F74F032904461D4602DB280006D03C
S31500004E600529C0F2968042F004008DF8080002A8D9
S31500004E70FDF7C8F89DF8080020700126280003D029
S31500004E80280A6570A0700326FDF793F8A055711CDB
S31500004E900C9889B24D1C60540026DDF838A006E057
S31500004EA0424649466019FDF77DFA4544761C0D9841
S31500004EB0F6B2805D01006ED0002774284FF0000B1B
S31500004EC0B9463ADA4C285AF8049B1CBF5328622884
S31500004ED015D15AF8048B4C2808D11FFA88F8C34616
S31500004EE04FF6FF7083453AD0022738E0532836D173
S31500004EF05FFA88FBBBF1FF0F31D001272FE06C284A
S31500004F0005D1484603F0A5FE00F1020827E0732804
S31500004F1005D1484603F098FE00F101081FE0A0F114
S31500004F2030010A2938BFA0F1300818D3A0F1410199
S31500004F3007292ED2A0F1370811E07528C84608BF08
S31500004F4001270AD0762808BF022706D0782808BF8E
S31500004F50032702D077281CD104275AF804BB1FFA6E
S31500004F6088F8BDF8040018FA85F1C919884206DAEE
S31500004F700FE004F805B06D1C4FEA1B2B7F1EF9B23B
S31500004F800029ADB2F5D1B8F1000F8FD0B9F1000FFD
S31500004F9086D1002000E0A8B2BDE8FE8F10B52C4CEB
S31500004FA020602C4801802C4802602C48036010BD0C
S31500004FB03EB50C4607A90291009313460699019146
S31500004FC0024607E03EB500920C4606A9024602914B
S31500004FD0019300231F4801881D480068FFF738FF2A
S31500004FE005461D48006805804FF48A511B48006835
S31500004FF04480C180801DFCF7F3FF28463EBD034672
S31500005000134802681448006801881448006803F0D1
S3150000501096BF0020F3E70E4802680F480068018833
S315000050200E48006803F010BF00B583B00192084A2D
S3150000503012680092084A12681388084A126803F038
S3150000504052FF0EBD0022EFE70448006870470000DB
S31500005050F4EA0320DEF80320F8EA0320FCEA032042
S3150000506000EB0110C266704730B57049704D87B0CD
S315000050701CC968461CC06F480FC803AC84E80F0003
S315000050800BF06BFA4FF6FF71884208BF4FF47A7047
S31500005090694C6A49B1FBF0F020800121684806F0AE
S315000050A00DF800F066F800F059F840F0090000F03D
S315000050B05CF86A46012100F05EF8286B40F00200B9
S315000050C000F04FF840F410606863012100F04FF8DB
S315000050D06A46022100F04FF8286B40F0040000F009
S315000050E040F840F480206863022100F040F800F0A8
S315000050F02FF801215348544D05F0E0FF00F039F830
S3150000510000F02CF840F00F0000F02FF86A4601215D
S3150000511000F031F8286B40F0020000F022F840F46D
S31500005120B0506863012100F022F86A46022100F0BF
S3150000513022F8286B40F0040000F013F840F46020D9
S315000051406863022100F013F800F002F807B030BDE2
S315000051502088E86103A9284607F0C0BF286B40F005
S31500005160010028630022686B7047686300212846A7
S3150000517076E76A460021284607F0FCBF80B5012184
S31500005180324805F09BFF002304220E2101200BF07C
S315000051904DFA002304220F2101200BF047FA0023C9
S315000051A004220B2101200BF041FA002304220A21DC
S315000051B002200BF03BFA002304220F2103200BF000
S315000051C035FA002304220B2102200BF02FFAFFF7F9
S315000051D04BFF0BF031FBBDE8014000F013BE164853
S315000051E00088704726207047491E02460529104B45
S315000051F0154811D8DFE801F0030A0C0E0507002157
S3150000520002E0012100E00221184604E0002102E04C
S31500005210012100E0022123E74FF496710C48FCF7C8
S31500005220D9BAABE7044800880621DDE704E50200A9
S315000052300080014010E502003EF7032000F049021D
S31500005240000204000012040000840140003508003A
S31500005250ECE4020006210020C6E7000000B583B09A
S3150000526004237F222B2101A8FDF7EFFA04237F22D6
S315000052702A216846FDF7E9FA01980099421ADFF8F3
S31500005280881400F02FF901980099401A80B21F285F
S315000052900CDB042301AA7F212A20FDF7E7FA07BDCC
S315000052A02A20FDF70BFB0098401C009001980099FE
S315000052B0401A80B20028F3D107BD00002DE9F04363
S315000052C085B004237F222B2104A8FDF7BEFA042310
S315000052D07F222A2103A8FDF7B8FA02F060FEDFF864
S315000052E02C54DFF82C142A78DFF8284403460120D2
S315000052F0FFF797FD287803284FF6FF7800F2EA803B
S31500005300DFE800F0027BBBE302F049FE0328DFF88A
S315000053100814A8BF02200870FCF7F9F90246DFF866
S31500005320FC1300F0DFF80020FBF742FF07460123DD
S315000053307F22392102A8FDF788FA012000900DF19D
S315000053400703002206213846FDF735FB01200090B1
S315000053500DF10603002208213846FDF72CFB9DF8C7
S31500005360080018B1012822D1002000E001208DF8A4
S315000053700400FE208DF805009DF80600FE2808D0E2
S31500005380202000900DF10503002208213846FDF784
S31500005390D8FA9DF807009DF80410884207D010201F
S315000053A0009001AB002206213846FDF7CAFA09F043
S315000053B0EDFC074609F0E0FC06460BF0C4FA814610
S315000053C00BF0BDFA0197024600964B46DFF85013E4
S315000053D00120FFF726FD2B20FDF770FA012028702B
S315000053E002237F2237216846FDF72FFABDF8000019
S315000053F040450CBF642101463CE0FCF788F90246B3
S31500005400DFF8201300F06EF802F0C9FD90B9FFF73F
S3150000541025FF0BF0A9FA30B142F2107100F01FF926
S31500005420032028705BE000F07DF80020207000F07B
S3150000543046F954E0039B049ABB490120FFF7F1FCAF
S3150000544004980399401A80B20A2804DBFFF706FF86
S315000054500BF0C9FC36E00220287002237F22382197
S315000054606846FDF7F2F9BDF80000404514BF014655
S315000054704FF4FA6100F0F3F831E0FCF748F9024620
S31500005480AA4900F02FF804980399421A92B2A84943
S3150000549000F028F804980399401A80B2052805DB25
S315000054A00BF0A2FEA34900F0DDF809E0042807D1BD
S315000054B0A14900F0D7F80020FBF77AFE0BF014FFA5
S315000054C0FFF7CCFE0020207009E00020207000F0DD
S315000054D029F804E04FF492719848FCF77BF905B07F
S315000054E0BDE8F0830120FFF79CBC7CB50BF038FAD1
S315000054F0B8B9864908708748FBF738FA09F046FCC0
S31500005500044609F039FC05460BF01DFA06460BF079
S3150000551016FA024601940095334689490120FFF7A1
S3150000552080FC73BD80B50BF01BFA88B985480178FD
S31500005530142908DA491C01700CF018F9BDE804407A
S3150000554049F64041D7E0BDE802409320FCF795BA02
S3150000555001BD10B502F023FD00247B4900E0641C68
S31500005560E4B2224611F83230FF2B0AD08342F6D13C
S3150000557001EBC20061A14268BDE810400120FFF7BF
S3150000558056BC10BD70B5644D70492E780446012096
S31500005590FFF74DFCFFF7DDFF00206D4900E0401CE2
S315000055A0C0B2024611F83230FF2B06D0A342F6D124
S315000055B001EBC20052A1426801E022466549012082
S315000055C0FFF735FC902C08D0912C19D0942C02BFF3
S315000055D0642105200BF04FF919E05A4900200870A4
S315000055E016B964210A2002E0032E02D100210BF035
S315000055F040F902F0D4FC287000200BF044F906E0D4
S31500005600642105200BF037F902F0C9FC28703DA192
S3150000561000F028F8912C21D102F0C1FC4E4C68B95B
S315000056204E4900F01FF800F04AF84FF4FA710320D3
S315000056300BF01FF941F2883100F011F802F0AFFCCF
