S0270000786E63702D6C65645F65667233326D673132703433326631303234676C3132352E733337D9
S3150000000048E50320F1710200F93C0000D5710200B9
S31500000010A70A02020002000004180FAC0061540097
S3150000002000000000000000000000000000000000CA
S31500000030000000009487020000000000000000009D
S315000000400000000000000000FFFFFFFFFFFFFFFFB2
S31500000050FFFFFFFFFFFFFFFFFFFFFFFFFFFFFFFFAA
S3150000006000700F000000000000000000FFFFFFFF0F
S31500000070FFFFFFFF1C000000000000000000000062
S315000000800000000000000000BFFD0320BFFD0320AC
S3150000009048E503202C97020026750200E8DB0320C2
S311000000A0D4130020000010000000000037
S3150000020048E50320F1710200F93C0000D5710200B7
S31500000210DD710200D9710200E1710200ED71020088
S31500000220ED710200ED710200ED710200ED71020048
S31500000230E5710200ED710200ED710200452A000031
S315000002401B970000E1060100351C0000ED7102005D
S315000002500903010021070100E7060100E906010084
S31500000260E306010069F80100B3FA0100F573000026
S31500000270B3550000ED710200ED7102003F0500006C
S31500000280ED710200ED710200D1FA0100ED7102007C
S31500000290ED710200ED710200ED710200ED710200D8
S315000002A0ED710200ED710200ED710200ED710200C8
S315000002B023070100E5060100D17800005707010079
S315000002C0ED710200E5740200ED710200ED710200AD
S315000002D0ED710200ED710200ED710200ED71020098
S315000002E0ED710200ED710200ED710200ED71020088
S315000002F0ED710200ED710200ED710200ED71020078
S31500000300ED710200ED710200ED7102006F49704A55
S3150000031001E021B1491E1369DB07FAD401B9B0E047
S31500000320506001201060106910F0060F05D04107DB
S3150000033000D5A9E0800700D5A9E000207047F0B5F8
S3150000034013460022002936D0604C614D8BB98B4292
S3150000035031D250F8046BEE605B1C08262E602646F0
S3150000036001E036B3761E2F69FF07FAD4002EEED1D0
S315000003701FE0EFF3108672B600230EE02F6907F038
S315000003801907102F08BF2F602F693F07F6D550F8C1
S31500000390047BEF605B1C10272F608B42F4D306B9F9
S315000003A062B6264601E026B1761E2869C007FAD451
S315000003B00EB96FF002021046F0BD2DE9F0479A46DD
S315000003C0444B454F1C681B683B688046002043F041
S315000003D001033B60950881460C4602E0B14404EBFC
S315000003E08604A94517D208EB89063046FFF78EFF2B
S315000003F0010014D1C6F30A00C0F500608608A5EB1B
S315000004000900B04238BF0646524631462046FFF73D
S3150000041096FF0100E2D03968490849003960BDE815
S31500000420F0872C49294A0B6809682B490B6843F069
S3150000043001030B608860012048604869400704D5C5
S3150000044008684008400008601EE04869800704D537
S31500000450086840084000086019E00220486001E092
S3150000046022B1521E4869C007FAD422B9086840086A
S315000004704000086005E00868400840000860002069
S3150000048070476FF0020070474FF0FF3070476FF013
S3150000049001007047002390E70F48016841F0010111
S315000004A0016046F21A31C1644FF4807141604169BE
S315000004B0C907FCD44FF4007141604169C907FCD4F7
S315000004C00021C1640020704700000000809698005B
S315000004D00C000E4004300E4008000E40072802D2E1
S315000004E03549085C7047FF207047072802D2334918
S315000004F0085C7047FF20704738B50446304800EB6B
S315000005008105A8780009FFF7E9FF2071A87800F0B7
S315000005100F00FFF7EAFF6071FF2814BF01200020DB
S31500000520E8702146E878A071287860706878254DD3
S31500000530A070284600F0A3F80120A86031BD10B5D0
S31500000540214984B01CC968461CC02048204A01784D
S31500000550D36814682340DB072DD503292BD2184C0A
S3150000056012691C4B04EB8104E4781CB114B2002C14
S3150000057048BF002223F811200123174A147803FAF2
S3150000058001F121431170154A117891B100211478B7
S31500000590CC40E40708D501708B40107858401070A5
S315000005A06846FFF7A9FF1FBD491CC9B20329EED350
S315000005B01FBD032101701FBD7087020078870200EE
S315000005C0B4ED0320002000406487020081FD032073
S315000005D038200040D8ED032082FD032080FD032053
S315000005E0890001EB401000F184400260704730B58D
S315000005F0002A446BDFF834511ABF1022DFF830317D
S31500000600DFF8303123400024A84237D1DFF8280133
S3150000061051B101290CD002291ED003290CD006297C
S3150000062015D0812918D023E001680468006816E017
S3150000063001680468006802E0416844684068090C83
S3150000064001F4FE41C4F303442143000C0CE081682D
S31500000650806801F00F0107E041684468406801F4D2
S31500000660FE4104F00F04214300F0F00040EA0104CB
S3150000067004FA02F0DFF8C4101843086030BD38B53C
S3150000068004460D460220A0600022A9782046FFF706
S31500000690AEFF287969786B79020242EA016242EA82
S315000006A00342EB7842EAC302EB790BB142F0005207
S315000006B02B7A0BB142F00402AB790BB142F0020285
S315000006C06B7A0BB142F00102AB78F32806D1180021
S315000006D004D10429BCBF042060F31B6218064CBF7A
S315000006E042F0E00042EA4310206115496069084083
S315000006F0A9780A0644BF21F080010843297840EA18
S315000007004140E97A09B140F4804060610221AA7A49
S315000007102046FFF765FF2879F32804F13000BDE88D
S3150000072038400CBF01220022102159E7002000406A
S31500000730FFFF00800080FFFF1082E00F34200040A2
S31500000740F8BFE1FF42DE704738B504460D4600F0BB
S31500000750FFFB01F08AFA01F0A9FA2946204601F0CA
S31500000760CEFA2B4622466949012001F088FC29462B
S315000007702046BDE83440E5E765482DE9F047654D7C
S3150000078001682E1D4FF420687165016AB1656249E2
S315000007900A68F26549683166416A7166816AB166BE
S315000007A0C16AF166016B3167806B706796F8340039
S315000007B040074CBFF46BB46B01F0EFFC0022F2640F
S315000007C08442564A014624BFA2F1200AA245274682
S315000007D0316505F19003DFF848C1DFF848E118D329
S315000007E0A0693064E4697464746DC4F30804062C6B
S315000007F013D1704511D360450FD200884DF642647F
S31500000800A0420AD13068586040F20178706898605A
S3150000081003E000273764776407464348814202D2E3
S31500000820014600E0091D0846904203D20C68B4F167
S31500000830CD3FF7D03D49081AB0640021002005EBF2
S315000008408004401C0628E167F9D3002003E0C0B20B
S3150000085005EB8004E167974223D252F8041D7145E7
S31500000860F9D36145F7D2CC07F5D5002405EB840909
S31500000870D9F87C90894502D0641C062CF6D3062C48
S31500000880E9D1002814BF401E0520E0E7B16F00241F
S3150000089005EB8402641CD2F88070D767052CF7D369
S315000008A019600146481EC9B20029EFD1706DC0F328
S315000008B00800032810D0042811D0052812D00628D5
S315000008C013D00C2817D0122818D1194800688007B1
S315000008D019D540F2025816E040F6012813E040F61A
S315000008E0022810E040F603280DE0B8F5206F0AD183
S315000008F040F6042807E040F6052804E018B143282E
S3150000090038BF40F607284046BDE8F08780870200DA
S3150000091004ED00E00000002000E300E048E50320CD
S3150000092026750200DC0400009C00002048E5032038
S315000009301C20054010B54C00014600F030FD224653
S3150000094001F069FCA04201D0002010BD012010BDBD
S3150000095080B500F024FD01F0B8FC00B10120C0B262
S3150000096002BDDFF8440A407D00B101207047DFF880
S31500000970382A117B01B9704780B50146106A01F02B
S31500000980FAFC20B1BDE8044040F24F11D2E201BDAD
S3150000099080B500F004FD01F037FC00F003000328E9
S315000009A001D1012002BD002002BD80B5B0F5004F87
S315000009B007D100F021FEDFF8980A00F0D9FCBDF857
S315000009C00000DFF8201AC883002002BD2DE9F04F91
S315000009D0440900F01F050027DFF89C8A00E07F1C11
S315000009E098F80660F8B2B04245D2D8F80800FFB2CF
S315000009F050F827004FF0000C01E00CF1010CC67E08
S31500000A005FFA8CFEB645EAD2D0F81CE05FFA8CFCA1
S31500000A10182616FB0CF6B6449EF8086006F0070684
S31500000A20A642EAD19EF80960B542E6DB9EF801B01F
S31500000A309EF8009006EB0B0AAAEB090AAA45DCDB36
S31500000A40DFF8704A247854B1DFF85C49A47B34B9E6
S31500000A50DEF80C401CB12468EC40E4070BD511B15C
S31500000A60AC1B4C440C7012B19EF8081011701BB1EF
S31500000A70C3F800E000E00020BDE8F08F400918BF91
S31500000A8040F01800704710B5DFF81C49206A01F0E5
S31500000A901CFC0246206ABDE81040002101F031BC72
S31500000AA00B38102834BFDFF8D40ADFF8480B00688B
S31500000AB070473EB568460021002200230EC0DFF8CD
S31500000AC0240901788DF80010817A0A0018BF0229DE
S31500000AD014D10079DFF8D05800F0BBF8044600F0D6
S31500000AE00EF858B1286A0122002101F08FFB00F0B0
S31500000AF006F818B140F2792100F068FB37BD286A84
S31500000B006A46214601F0AABB2DE9F041044604F0ED
S31500000B101F001B2886B034D2002000906B460022AE
S31500000B2000212046FFF752FF07002AD02046FFF794
S31500000B30B7FF5FEA000824D0DFF86C68DFF8445A94
S31500000B40F06B804515D001A84146062201F08AFCCB
S31500000B50306AC6F83C8001A901F06FFC88B9306A9A
S31500000B6003A901F078FCB5F91C10306A01F040FCCD
S31500000B7038B90098B06277620098002818BF0069FB
S31500000B8001E08A200EE0F06229798C421CBF2C71AC
S31500000B90FFF78FFF96F90D00C101306A09B201F027
S31500000BA051FE002006B0BDE8F081DFF8D8090079D3
S31500000BB07047DFF8D009B0F91C00002854BF0521A2
S31500000BC06FF0040108180A2190FBF1F040B270475B
S31500000BD00A2110FB01F0FFE7F8B500F5D77240F2E5
S31500000BE077239A4201D38B20F2BDDFF8BC47DFF8AA
S31500000BF09459A26A0A23002A1EBFAE7F06F0C006D9
S31500000C00802E12D0A67B86B992F9026016FB03F7F6
S31500000C10B842B8BF16FB03F007DB92F9032012FBBC
S31500000C2003F68642B8BF12FB03F0217B61B1014691
S31500000C30206A01F0DDFB18B14FF4367100F0C6FAF8
S31500000C40206A01F0E8FB01E010FB03F0A883002016
S31500000C50F2BD38B50446FFF723FF90B1002300220A
S31500000C6000212046FFF7B2FE58B104F01F051B2DE8
S31500000C7007D22046FFF702FF18B90B2D01DB2846E5
S31500000C8032BDFF2032BD0FF208014008085C7047F4
S31500000C90F0A050007047C0B2704710F1590F01DA4A
S31500000CA00020704710F1240F01DBFF2070475A30F7
S31500000CB00002362190FBF1F0C0B2704770B5DFF844
S31500000CC0E846DFF8A05A00202064687828B101F0D1
S31500000CD0BDFD012818BF032801D1002070BDE16ABF
S31500000CE0DFF8843ADFF89C2800291FBFA66A7669D8
S31500000CF0002E022817D12364906900F5FA709061DE
S31500000D00E07C18B100200021642203E0E87829790C
S31500000D104FF4A0722070A2806170A878A070802025
S31500000D20E080002030E0DFF8445A9069AE4213D1EB
S31500000D30DFF83C3A236400F57A709061E07C88B96C
S31500000D400879207001228B7808799A40101891F959
S31500000D5003201018401E0CE0236400F5FA70906121
S31500000D60E07C18B100202080642005E048782070DF
S31500000D708878607008780001A0804879A07008899A
S31500000D800001E080C8880001A06000F03BFCE07034
S31500000D9094F90200010048BF4042C0B270BD70B570
S31500000DA00446DFF80466257896F9140008B18C200D
S31500000DB070BDFFF783FFB075DFF8A829DFF8C40719
S31500000DC041780174690101F5807181619379716CD3
S31500000DD0002BB37B1DBFAD1EEDB221F0020141F029
S31500000DE0020173B9127862B16278920609D56FF082
S31500000DF00102327541F00101826902F508728261D1
S31500000E0004E049084FF0FF30490030757164032053
S31500000E1000F006F96A1C306A4FF4807392B22146DC
S31500000E2001F03DFD691C884203DA40F2294100F0D9
S31500000E30CDF9002070BD0000F8B5DFF86C5595F9C6
S31500000E4014100024091D04290FD8DFE801F0080E4C
S31500000E5010100300FFF7A3FF040008D0F2BD2C75A5
S31500000E60286A01F0D7F98D20F2BD8C20F2BD01F081
S31500000E7032FDE8B1286CDFF8F018884218D1A87D59
S31500000E80B0B1DFF8E80A0068002811D5DFF8E00AFB
S31500000E90C168C1600122006800F00F0002FA00F08C
S31500000EA0401E014204D100F0E5FB642001F017FD6D
S31500000EB001F06AFD064695F9140010F1010F1CBFFA
S31500000EC095F9140010F1020F29D195F91400DFF8F5
S31500000ED0B4764042287501F05DFD7862296C387958
S31500000EE049B9FFF7B6FE01466A6C286A07F1100396
S31500000EF001F0A3F90BE0FFF7ACFE07F1100100913A
S31500000F0001466A6C286AD5F840C02B46E04760B1B6
S31500000F10002028758C244FF0FF30786202E0002014
S31500000F2028758D24286A01F075F9304601F095FD83
S31500000F302046F2BDDFF8800AFFF706BC2046BDE872
S31500000F40104001F08ABDDFF83C06C08B70470000F8
S31500000F50F8B501F019FDDFF88C540446A87A01288B
S31500000F6003D1204601F079FDF1BDDFF8501ADFF814
S31500000F703864DFF8447A402008600122306A012193
S31500000F8001F044F9DFF8381A4FF40010086069469A
S31500000F900FF2880000680090306A01F047FC20B12B
S31500000FA040F2D7413846FFF7CFFB02208DF800000C
S31500000FB06946306A01F017FC20B140F2D941384643
S31500000FC0FFF7C2FB306A01F036F90021002001F07C
S31500000FD047FD00F03FFB0120A87296F91400001DA2
S31500000FE0072810D8DFE800F0140F0707040B0B0BD7
S31500000FF001F0E8FE0CE06FF00300307508E0892090
S3150000100000F06EFB04E040F2FB413846FFF79CFB24
S31500001010204601F022FD01F081FFF1BD0401000030
S315000010202DE9F04DDFF8BC530446A87AA04282B001
S3150000103063D00FF2CC01DFF88C690968DFF8788994
S31500001040DFF86473DFF878A9009103284FF4001BDA
S315000010504FD8DFE800F047023E2B01F068FF386A00
S31500001060694601F0E3FB18B14FF4A36100F04AF8BA
S3150000107002208DF800006946386A01F0B4FB18B109
S3150000108040F21A5100F03EF86879002814BF002299
S315000010900222386A022101F07FFF18B140F21F5187
S315000010A000F030F80320032CA87218D0CAF800B05C
S315000010B00220A8722879FFF7CCFD0146386A002283
S315000010C001F0CCF818B140F22F5100F01BF8022CB9
S315000010D013D0002C18BF032C0FD10020A872C6F81D
S315000010E000B00AE0022C08D1CAF800B00220A872AB
S315000010F003E040F2455100F005F8BDE8F38D00002D
S31500001100040200004046FFF71FBB002088E7DFF817
S31500001110BC0A807A70470000032805D8DFE800F093
S315000011200302030314E77BE740F2635102E780B54D
S3150000113000F00EF804D500210175006A01F06AF886
S31500001140A848407A012802D1BDE8014000E701BD68
S31500001150DFF87C0A90F9141000297047DFF86C0A52
S31500001160407A704780B5032801DB012002BD9D4906
S315000011704872897A884218BFFFF7CEFF002002BD69
S315000011802DE97C4FDFF8486A03EA010BD6E90689A8
S3150000119029EA010528EA000402EA000A45EA0B05E5
S315000011A044EA0A044D4508BF44450DD0CDE9002365
S315000011B00246306A0B4601F03BFB18B140F28B51F8
S315000011C000F004F8C6E90645BDE8738F0FF6302037
S315000011D0FFF7BABA38B5744D0446287BE8B120004B
S315000011E018BFDFF8F02904D1A87C08B1402200E03E
S315000011F000220023DFF8DC090021FFF7C1FF002CE5
S3150000120014BF08220022286A082101F0C5FE20B179
S31500001210BDE8344040F2C7518CE631BDF8B504460E
S31500001220022C0FF6DC1503DB4FF4BE6100F0A5F8C7
S315000012305D4E307B002840F097806A4FB87A0128CF
S3150000124003D040F2F65100F098F8002107F1300083
S3150000125000F0C8FF306218B940F2F95100F08DF87D
S31500001260306A052101F07BF918B140F2FB5100F01C
S3150000127084F8306A0FF69C1101F0A0FE18B140F216
S31500001280FC5100F07AF8306A01F0CCFE18B140F259
S31500001290FD5100F072F84FF0FF30DFF83C290623CD
S315000012A00146FFF76DFF306A4FF0011101F03BF880
S315000012B018B140F2126100F060F8306A4FF48032E3
S315000012C0002101F01EF8306A09224FF0FF3101F0CB
S315000012D063FE18B140F2196100F04FF80120307337
S315000012E00223DFF8F80800F043F8BDF80000C00557
S315000012F04CBF0020BDF80000707301F0ECFAFFF758
S3150000130069FFF88BFFF751FB01F00CFF00F08CF83A
S315000013103879FFF7F9FB18B140F22C6100F02DF88F
S31500001320F87900F043F8387A00F05EF8307C00F087
S3150000133091F8787900F0D4F800F064F900F02FF90C
S31500001340B07C00F025FBB7F91C00FFF745FC388C94
S3150000135000F094F8788C00F0AFF8B87900F014F942
S31500001360601E8041C00FB8722046FFF7D5FEF1BD62
S3150000137001887F22684601F023BF2846FFF7E4B9BB
S3150000138080B500F00CF8012100F06BFF10F5007F2E
S3150000139002D16FF07F0002BD8005001602BDDFF8A6
S315000013A03008006A7047000048ED032010B5044677
S315000013B0DFF81C08017B51B1611E8941006AC90F23
S315000013C001F082FE18B140F26761FFF7FFFE2000D0
S315000013D0DFF8F81718BF0120C87110BDDFF8EC0759
S315000013E0C079704740E90320F8B5044601F0CCFA0D
S315000013F005466448DFF8D8670472377BFFF7B1FA11
S3150000140000F0010080F00100074204D0306A84F049
S31500001410010101F098FF2846BDE8F24001F01DBB2E
S31500001420DFF8A807007A7047DFF8A407017B01B947
S31500001430704780B5006ADFF8A817002201F031FE78
S3150000144020B1BDE8044040F2926173E501BD0000A1
S31500001450FA910200DFF87827117B107401B9704702
S3150000146080B50146106A01F023FE20B1BDE80440B4
S3150000147040F29D615EE501BD448F02004149DFF8FF
S3150000148050370884197B01B9704780B50146186A40
S31500001490002201F0FFFD20B1BDE8044040F2AE613C
S315000014A048E501BDDFF82407008C7047DFF81C070C
S315000014B0408C7047DAEB03203249DFF81437488452
S315000014C0197B01B9704780B50146186A002201F000
S315000014D0DAFD20B1BDE8044040F2C4612AE501BD51
S315000014E028494A79824200D1704710B58C7A4871F2
S315000014F0012C05D0FFF72CFD2046BDE810408FE5F6
S3150000150010BD10B500F032F800F02BF80146206A45
S31500001510012200F09BFE20B1BDE8104040F2E661DA
S3150000152008E510BD80B5FFF73AFF00F092FE18B14E
S3150000153040F2EB61FFF74AFEBDE80140FFF7B9BA9A
S3150000154010B500F013F800F00CF80146206A0022EE
S3150000155000F07CFE20B1BDE8104040F2F661E9E4FF
S3150000156010BDDFF868060079FFF773BBDFF8604649
S31500001570206A0122012100F049BE0000C0E80320D4
S31500001580D0E7000040E9032010B50446FFF707FF47
S31500001590214601F0DEFEDFF83406847110BD38B551
S315000015A004467F2C0CD100F027F8DFF83806FFF749
S315000015B0DFFEBDF800007E24C00558BFBDF8004020
S315000015C001F0E2F90546FFF7CCF960B960B27E2872
S315000015D005D1DFF8FC15896A09B191F904007E2866
S315000015E0B8BFFFF7C4F9DFF8E4050473284601F035
S315000015F034FA31BDC4E803204FF6FF70ADF80000A1
S3150000160002237047DFF8C40590F90C007E2807D145
S31500001610DFF8BC05806A08B97F20704790F904009E
S31500001620704710B501F098FE800411D5DFF89C458F
S315000016304FF0FF30A06201F08FFEC0044CBF0320C4
S315000016400120002101F08AFE01F0A4F9E06210BD3C
S31500001650BDE8104080B5DFF874054FF0FF318162B8
S31500001660C162FFF795F920B9BDE80440002101F0F9
S3150000167075BE01BD80B501F06FFE4005BDE80440B2
S315000016804CBF03200120002101F0EAB910B5DFF8B4
S31500001690404594F9140003280DD100F024F9DFF831
S315000016A02C154FF0FF3048620022216BBDE8104038
S315000016B0402001F002BA10BD38B50446FFF7CAFF54
S315000016C0DFF80C5501F077F9686314B101F0D7F82B
S315000016D001E000206874BDE8314001F073BB0000F2
S315000016E038B50446DFF8E414DFF8E4544FF0FF3071
S315000016F0486201F060F9686395F91400012802DA7E
S31500001700BDE83140A6E7A87D08B1686BA86300F084
S3150000171071FAA87B10B10120E87331BD2046BDE8FF
S3150000172038400022002101F0C8B910B501F0D3F805
S3150000173078B1FFF72DF960B1DFF890444FF0FF3034
S31500001740E06201F027F9A06201F00AFE002101F033
S3150000175005FEDFF87C04807C18B1BDE8104000F07F
S3150000176068BA10BDF4EA032041220000301C0000D4
S31500001770472200002DE9F043DFF854440FF2804978
S31500001780206A89B005AA022101F08CF8050003D170
S3150000179040F6F40100F0A4F89DF81400DFF82C647C
S315000017A0BDF8168007281CBF7079002819D1B8F13A
S315000017B0060F16DB08F108008B2812D200200090D5
S315000017C04346DFF82474206A3A46294601F072F847
S315000017D0404503D040F60D1100F082F83878000637
S315000017E002D5FFF71EFF78E001208DF80800CDF83E
S315000017F004806A46206A294601F058F818B140F676
S31500001800241100F06DF8787800F0070002281ED148
S31500001810FFF720FF94F91400032808BFB8F1060F5C
S3150000182011D19DF80D0070B17878000900F001051E
S3150000183000F059F84FF0FF3070622A4600218F20E1
S3150000184001F03BF949E0F079002846D105E09DF822
S315000018500D0010B10020FFF719FFF0799DF80D106B
S31500001860084203D040F64C1100F03AF8F07930B156
S315000018707878800603D5206A01F068FD18B1FFF775
S31500001880E9FE002060743878401C404503D040F6DD
S31500001890661100F025F807EB08053079287001F08D
S315000018A00DFE68709DF80E00A87095F90200FFF70E
S315000018B0F4F9E87008F10801FF202871C9B2009810
S315000018C0000C68710098000AA8710098E871384603
S315000018D0627C01F032FA0020607409B0BDE8F08342
S315000018E04846FEF731BF00202075206A00F092BC02
S315000018F00FF21430FEF728BF38B50446002C0D460B
S3150000190007D401F047F8011B89B28D428041C00F10
S3150000191032BD002032BD10B5DFF8B042606A4FF428
S315000019207A71FFF7E9FF60B1DFF8A40290F91400BD
S31500001930032803D10020FFF7A9FE02E08920FFF764
S31500001940CFFEA06A0A21FFF7D7FF08B1FFF782FE94
S3150000195001F002FD00F0FF01E06AFFF7CDFF10B1D4
S31500001960BDE8104076E610BD0000000004400840C7
S315000019704C50084010B540B900F082FF01F004F861
S315000019800446FFF7C8FFFFF7D9BABDE81040C2E723
S3150000199038B58F4D0446287B60B1200002D100F097
S315000019A09AFF08B1402200E00022002340200021D7
S315000019B0FFF7E6FBAC7431BD001C00000840084090
S315000019C018600846186008442DE9F0478146144619
S315000019D0600688B0984648BF002002D4200602D58B
S315000019E00120FFF7A2FEA003794D25D500206874DB
S315000019F06946484601F07DFBF0B99DF808000228CB
S31500001A000ED1BDF8000001F01FFEFF280ED0774969
S31500001A10096831F810004FF4E461084206D10BE082
S31500001A20032809D1684601F082FE28B1286A01F030
S31500001A305DFB08B901206874600410D500F04BFF07
S31500001A4068B1FEF7A5FF50B102F0F8F8064601F0BE
S31500001A5087FC864203D00021304601F07FFC200738
S31500001A6044BF4846FFF786FEE00548BFFFF7D9FDAD
S31500001A704FF41850044218BFFFF7ECFDE00244BFD4
S31500001A800120FFF719FE600244BF0120FFF714FE94
S31500001A90E00144BF0020FFF70FFE95F914000FF296
S31500001AA0601A012864DB286A484E21034FF0FF378D
S31500001AB030D595F9141001295ADB95F9141003292C
S31500001AC056DA00218DF8181001218DF8141003A99B
S31500001AD000F0C4FC0398286300F06DFF6863A87DDE
S31500001AE008B1686BA86395F91400012804D0022890
S31500001AF00AD1032028753BE000F07CF87762A87BCA
S31500001B00A8B9296B002218E040F61D015046FEF7E1
S31500001B101BFE2DE014F0845F12D00021297500F021
S31500001B2079FB042000F0ADFE7762A87B10B101209E
S31500001B30E8731DE0002200218D2000F0BEFF17E0B3
S31500001B40A00248BF892002D4A00103D58820FFF750
S31500001B50C7FD0DE0600048BFFFF78CFDA00007D56C
S31500001B6023480068400403D40021002000F078FFD9
S31500001B70A00744BF4846FFF789FD002C04D5FFF7B0
S31500001B8069FD4846FFF782FD08F0020100239942ED
S31500001B9012D0484600F034FB022802D0032802D0B7
S31500001BA005E0892000E08D20FFF79AFD04E040F66D
S31500001BB088015046FEF7C8FD08F00401002399424B
S31500001BC018BF02F097F808B0BDE8F08740E9032097
S31500001BD048ED0320406700600A00FA93FE91020078
S31500001BE020F6032000920200F4F3032064E80320A9
S31500001BF00440084000202875286A00F00BBB00004E
S31500001C007068792E630000006C69627261696C2EDF
S31500001C1061000000000000000100600301010101F5
S31500001C206400B6006400C000000000000B00000065
S31500001C300000704702F060B880B50121154802F037
S31500001C401BF90421072002F07DFD13481349144AAD
S31500001C50016004211160022141620421114A1160D0
S31500001C60816A41F00201816201BD0B4802F0ACBD00
S31500001C70A52800D0704780B500F005F810B10A49D4
S31500001C800020086001BD0448006810F0010018BF7C
S31500001C9001207047002508000020054001080300C8
S31500001CA080E200E000E100E00000A442602080F352
S31500001CB01188704770B502F05BFEA94C204603F010
S31500001CC00FFAD8B9204603F0C1F9FF28044615D00B
S31500001CD0A4490968085C851EE9B2204603F04BF961
S31500001CE00646E9B2204603F055F82146304600F094
S31500001CF0E5F82046BDE8704002F0ECBE70BD034634
S31500001D000A4696A10420FFE70CB480B502AA00F0AB
S31500001D102AF801BC5DF80CFB00B587B001F00CF9A0
S31500001D2000210591049102466121039100230021BF
S31500001D300291019101208C4900910FF23C21FFF79D
S31500001D40E3FF8A488179C3788278039101880291FA
S31500001D50417901910179009142200FF22821FFF784
S31500001D60D3FF07B000BD2DE9F04F85B005460C4600
S31500001D70904603F00AFA0026F8B902F082FDE0B1B7
S31500001D80012002F03CFE8246BAF1FF0F15D0002179
S31500001D9002F030FE294601A802F079FD05469CB9FD
S31500001DA000F087F830B9504602F0D9FD10B1042092
S31500001DB003F0DCF9504602F08DFE05B0BDE8F08F69
S31500001DC08DF804200125641C20780100E8D0A0F1DC
S31500001DD030010A2905D20A2101FB0600A0F13006CE
S31500001DE0F1E700F066F80028E4D122780025422ABF
S31500001DF001A80ED0442A1AD0462A25D0572A0DD03B
S31500001E00622A3AD0662A2AD06C2A25D0702A26D091
S31500001E10D6E758F8040B8DF80400D3E758F8041BEE
S31500001E208DF8041002250904090E4170CBE758F815
S31500001E30041B8DF804100A0A427004250A0C8270ED
S31500001E40080E8DF80700BEE758F8041B504602F04E
S31500001E5053FF0028B7D0ADE758F8046BB3E701236A
S31500001E6058F8041B662A08BF0223F2B2504602F055
S31500001E7022FF002808BF0026ECE73A4858F8047B02
S31500001E80006810F80A90FFB2FF2F9CD010F807B038
S31500001E900BEB0901C9B2504602F07CFF002889D13C
S31500001EA0CDF800B000233A464946504603F085F87F
S31500001EB089E72A4601A9504602F01CBF2DE9F043E6
S31500001EC0122885B080460D4609D03A281FD04FF615
S31500001ED0FE71884204BF284601F0B3FE36E0214871
S31500001EE0234F0068465D0BE0284602F07DFD014663
S31500001EF02246002003F09AFB3868455D203EF6B284
S31500001F00FF2D23D0212EACBF20243446ECE703F06E
S31500001F10F4FD8146FFF7CAFA0646FEF74AFE074673
S31500001F20FEF743FE0446FFF7BDFA02460E480FF2DF
S31500001F305C010390CDF8109023460E480068408857
S31500001F400290019600973B20FFF7DEFE29464046A9
S31500001F5005B0BDE8F04303F039B90000574600006C
S31500001F6094EA032050E8032020F60320548F020051
S31500001F7058E8032018F60320424238704242424293
S31500001F80574242004242424257420000574242579D
S31500001F9057387042000000002DE9F0410125012864
S31500001FA018BF202894B004460F4690461E4623D1FB
S31500001FB00AA83949242200F065FA68460AA92422AB
S31500001FC000F060FA1020012C18BF202CADF8240078
S31500001FD0ADF8260008D0022C18BF212C04D0032C03
S31500001FE01CBF222C232C14D1012E0197ADF80C8096
S31500001FF004D14FF4805005E001200BE0022E03D1FE
S315000020004FF44050ADF80A006946204603F04BFBFA
S315000020100546E8B214B0BDE8F08180B503F0E6FBF2
S31500002020C0B202BD80B503F041FCC0B202BD2DE9CD
S31500002030F8431A4D804628680E4617461C4601E0AE
S31500002040865D203FFFB2202FFADAE0B2A8B1C7F1D1
S3150000205020005FFA84F9C1B2894588BF89463046B7
S3150000206002F0C2FCC1194A464046FFF7DBFF28686A
S31500002070865DA4EB09040027E7E7BDE8F2830CB40C
S3150000208080B50A46014602AB054803F0ECFD02BCEA
S3150000209000205DF80CFB0000DC8A020058E80320F3
S315000020A05B5900007047000010B50446FFF7FEFDBF
S315000020B0200A00283E4808BF24024FF20F01048080
S315000020C04180BFF35F8FBFF34F8F3A483A4A0168AA
S315000020D001F4E06111430160BFF34F8F00BFFDE7DC
S315000020E080B5002000F009F830B9BDE80440E321CE
S315000020F00FF2DC00FEF728BB01BD2DE9F0422F4CA4
S31500002100216842428D1815F01F0108D0002802D41C
S315000021104842054403E04842284400F12005284887
S31500002120A5F12006A84224BF2648864203D3EFF332
S315000021300880854201D300202DE000F025FC814671
S315000021402148006810F0010718BF03F0B6FE2068AA
S3150000215001468D4206D2A84224BFCD2100F80119BE
S31500002160F9D206E02038002201E000F8012B88426F
S31500002170FBD32560304603F0A7FEE22001E006F817
S31500002180010BAE42FBD30FB103F074FE484600F0DC
S3150000219064FC20682038BDE8F08208480068704773
S315000021A0064800682038704708487047000000005D
S315000021B0000000200CED00E00400FA0598EA032078
S315000021C0E8DB0320D413002094ED00E0000000209B
S315000021D06D6963726F2D696E7465726E616C2E63C4
S315000021E00000000038B50446064804600D46204647
S315000021F000F0AAF929462046BDE8344000F070B93F
S315000022000120704704F6032000F0C7B908461146BE
S3150000221000F0B9B970470846114603F069BE10B51B
S315000022200C4611461A4603462046BDE8104004F007
S31500002230AEBA04F0E0BA04F0E3BA0C3000F08CB8A1
S315000022400C3000F09BB80C3000F0AAB80C3000F04F
S31500002250B4B880B504F07EFB002002BD0C3000F05F
S315000022609EBE0C3003F041BE0120704738B500F029
S315000022701BF800212561E160BDE8324004F05EBF35
S3150000228038B500F011F82169E26829400D0018BF41
S3150000229001251143E16004F051FF15B1002004212E
S315000022A034BD0020002134BD04460D4604F049BF6C
S315000022B038B5FFF7F9FF2269E1682A4021EA0205ED
S315000022C0E56004F03BFF284632BD8069704770B573
S315000022D082B005460C0006BF0FF25C00006820685D
S315000022E01646009006B9EE6831462846FFF7E0FF2D
S315000022F032466946284604F097FA0CB100982060E9
S3150000230073BDF8B500F10C070C4615463846FFF7C5
S31500002310ABFF022628B12A4621463846FFF7D7FFEB
S3150000232000263046F2BD80B50C3001F00111FFF7F2
S315000023309DFF002002BD0000FFFFFFFF38B50446E9
S315000023400D4604F05BF808B9022032BDA9B220465A
S31500002350BDE8344000F03FB938B50446154689B2A9
S31500002360FFF7ECFF010005D129462046BDE83440C1
S3150000237004F067B832BD0C3004F050B970B500F007
S315000023800AF8010006D1324629462046BDE87040CB
S3150000239004F09FB870BD044615461E4689B2CDE7C7
S315000023A070B5FFF7F8FF010006D1324629462046F0
S315000023B0BDE8704004F04EB870BD70B5D4B22500CB
S315000023C018BF012C01D0012070BD89B200F003F9BD
S315000023D006000BD10121012000F0D5F814B904F054
S315000023E0C0FA03E0012C08BF04F0C2FA304670BD03
S315000023F07CB50D466946044600F02DF89DF80010A0
S315000024002A46204604F0A2FE04F10C060146304698
S3150000241004F068FA76BD30B583B06946044600F02C
S315000024201AF804F10C05284604F092FA02469DF8C3
S315000024300010204604F0F2FE3EBD38B50C4600F111
S315000024400C050021284604F04DFA21462846BDE831
S31500002450344004F03ABA0C3004F074BA0C3003F08D
S3150000246031BE000062B38B0708D0521E11F8013B43
S3150000247000F8013B00F024808B07F6D1830740F07B
S31500002480208000BF103A07D330B4B1E83810103AB4
S31500002490A0E83810F9D230BC530724BFB1E80810C1
S315000024A0A0E8081044BF51F8043B40F8043BD207AB
S315000024B024BF31F8022B20F8022B44BF0B7803709F
S315000024C07047083A07D3B1E80810083A40F8043BC9
S315000024D040F804CBF7D25307E4E700000120704729
S315000024E010B5044603F022FE08B1002010BD2046B8
S315000024F010BD70B50D00044614BF012600261F212D
S31500002500304604F0DFFE0020606225621F2130465F
S3150000251004F0D8FE4FF6FF76002001E0401CC0B262
S31500002520E968884209D2A968182212FB00F2114410
S31500002530C989B142F2DA0E00F0D13146204600F0E8
S315000025404AF8304670BD704710B5044603F0A5FE44
S31500002550A06A01008C4908BF8C48886010BD38B558
S3150000256000F10C050C462846FFF7B8FF28B103F02A
S3150000257010FF012801D0022032BD21462846BDE8C1
S31500002580344003F0DCBE10B50C4603F0EDFE1CB182
S3150000259003F0FFFE0128FBD110BD03F0FABEF0B533
S315000025A004467B48066883B00D466946204604F01B
S315000025B0C9F9B5F91220012747F6FF70247982423E
S315000025C007D09DF80010304604F0C0FDA04238BF89
S315000025D000273846FEBD2DE9F04F85B04FF00009C3
S315000025E08DF801900446684F8DF800900D463868C6
S315000025F0D7F804A00290CDF804A0204600F0C1F858
S315000026008046266AD4F824B000F0EBF8002818BFFC
S31500002610D34505D1BBF1000F02D0A8B240454BD03F
S31500002620002E1CBFB068002801D0F06808B903204E
S315000026309CE0CA4601E00AF1010AF068824518D218
S31500002640B068182101FB0AF10144A8B2CA89904278
S3150000265022BF088AAAB29042EDD301208DF800006D
S315000026608B462046FFF79BFF0028E4D001208DF81B
S31500002670010003A9204604F065F9204604F068F934
S3150000268082469DF80100C0B1217900F073F83868E0
S3150000269060B3B04223D17A680AB35A451FD1A9B2B2
S315000026A0884506D00023204604F069F95FEA000950
S315000026B012D1C4F824B0658057E09DF8000048B1F7
S315000026C0BBF912209DF80C10A4F10C0004F03EFD9D
S315000026D00146DAE7012049E000F04BF83FE00168E7
S315000026E021B13268914208BF416800D0316800F0DC
S315000026F045F881465FEA090004D1DBF8001000F0D6
S315000027003DF881465FEA09000FD100F06AF810B182
S315000027103E60C7F804B0C4F824B0658001235A4669
S31500002720A9B2204604F02BF981465FEA090005D1DB
S31500002730BA685946A4F10C00904716E000F051F82B
S3150000274098B10298386001987860386808B100F04E
S3150000275014F800F00EF8786838B100F00EF87A68D0
S3150000276000234146204604F00AF9484605B0BDE874
S31500002770F08F5146204604F0D5B80168204604F093
S31500002780CBBB40887047000040EB03204725000084
S3150000279004F6032001281CBF0428022801D10120C9
S315000027A070470020704738B500F03CF840B16878B3
S315000027B0FFF7F0FF20B1287869780843400701D574
S315000027C0012032BD00F00DF828B103F0E2FD40070C
S315000027D001D5022032BD29462046BDE8344004F02A
S315000027E042B820467AE60C30DDE738B500F01AF834
S315000027F038B16878FFF7CEFF00281CBF6878042838
S3150000280001D1012032BDFFF7ECFF28B103F0C1FD75
S31500002810800701D5022032BD29462046BDE8344056
S3150000282004F042B80D4604462878B3E70C30DCE7DE
S3150000283030B583B00C30DDE90645CDE9004503F03F
S31500002840FAFC3EBD0C3004F049BB00000020704786
S3150000285038B51446FEF7F0FA05466CB128000BD0E1
S315000028600A48007818B10A490120087004E00022DD
S315000028700021284600F021F9284632BD70477047EE
S3150000288070470449087070470000000056ED0320A9
S3150000289057ED0320B3FD03207047012070470C302D
S315000028A004F065BA0846114604F0D2B90846114646
S315000028B004F0EEB970B50C4615461E460C30FFF70F
S315000028C0ECFF38B1049B324629462046BDE87040ED
S315000028D003F0ECBC70BD002070470000704704F0A8
S315000028E05FBD10B504460521112001F033FC00221E
S315000028F00021022001F0E4FD1E491F480A6802403B
S315000029000A600B681D4A02EAC42213430B604B6837
S31500002910184048604868104348600122012102209F
S3150000292001F0CEFDBDE810400421112001F012BCDB
S31500002930134800680003C00D704770B5054611487E
S315000029400C4682B001884FF6FF76ADF80060022390
S315000029507F22684604F0AFFDBDF80000B04205D006
S315000029602880BDF800002080012076BD002076BDBD
S31500002970000000002C400E40FF07F0FF00F80F009B
S3150000298030400E4004920200EFF31180602181F383
S315000029901188704780B504F07CFF04F087FF80B291
S315000029A002BD80B504F075FF04F080FFFA21B0FB8C
S315000029B0F1F080B202BD80B504F06BFFBDE80440C3
S315000029C004F074BF80B504F092FC13480021416006
S315000029D0001D04F0EDFD20B139210FF26C00FDF76A
S315000029E0B3FE002002BD0C4901200870704770B587
S315000029F0044682B02268002502B911E000F002F810
S31500002A00012011E0044E054B3570009500217068D9
S31500002A1004F041BE0000000080F40320E729000016
S31500002A2005F05CF8002076BD05F0E4F8307828B9AA
S31500002A307068214604F0E7FE852501E025603570C3
S31500002A40284676BD00F008B873797374656D2D74E9
S31500002A50696D65722E630000704780F311887047B8
S31500002A6001207047DFF8E003002120F8801B0022D8
S31500002A70FF2101704170C27002714171827170470D
S31500002A8038B50446402C154606D100F065FC00F02A
S31500002A908020B0F1004F03D000210020FFF7E0FFB7
S31500002AA0DFF8A803290018BF01210470417000F067
S31500002AB085F9BDE8314001F01CB970B504460D46F4
S31500002AC016468D2C08BFFFF7D9FE3246294620460A
S31500002AD0BDE87040D4E7F8B5DFF86C43FFF754FF64
S31500002AE004F180056E79FF2E60D0FF216971FFF732
S31500002AF0B4FF30001CBF402E8F2E1BD103F056F8BA
S31500002B00400917D0E01C05F076F800F44060B0F5F7
S31500002B10406F05D104F10801002005F097F905E0A2
S31500002B2004F1080005F067F800F08EFDA1780D317C
S31500002B3005F0E3FC002E207816BF8F2E0127002714
S31500002B40022802D0CE2100F09FF8380011D0A01C38
S31500002B5000F0CDF868B1A87938B10120207029219C
S31500002B60BDE8F440BA4805F0E3BCFEF7E0FA3120D0
S31500002B7019E0FEF7DCFA402E08D16078411E61703C
S31500002B8070B105F0E0FDBDE8F1403BE08D2E07D1C8
S31500002B90287805F091FE01460022202000F005FD70
S31500002BA007B100263046BDE8F240B3E0FFF755FF17
S31500002BB02078032804BF002000F0ACF804F181005F
S31500002BC002F044FAFF280AD0E978491EE97006F0B7
S31500002BD072F9207818B9BDE8F14006F025B8F1BDC4
S31500002BE079E780B500F0B8FB40054CBF0320012013
S31500002BF00021FFF735FFBDE8084001224FF47A7146
S31500002C00944818E180B5012006F024FC06F0B2FBDA
S31500002C109149C0B9487830B100F09EFB00280BD529
S31500002C20FFF759FE40B100F097FB40054CBF03206B
S31500002C3001200021FFF714FF01224FF47A71854825
S31500002C4000F0F9F81BE001280DD10020487000F0D3
S31500002C5083FB40054CBF02200020804940F0110054
S31500002C60FFF7FEFE0BE0022805D1002200218D2091
S31500002C70FFF706FF03E040F2751100F005F8BDE826
S31500002C800240002006F0E6BB0FF2E410FDF75CBD43
S31500002C9038B5044600208DF800006B4D287818B131
S31500002CA04FF4C071FFF7F0FF0220287085F88040CE
S31500002CB06A46A91C204605F08FFE67494870684899
S31500002CC000786870FFF79EFF31BD06F0D2BA0100AA
S31500002CD080B508BF012002016249002006F0D0FB42
S31500002CE0002002BD5F49002006F009BC704710B500
S31500002CF0441C204604F07FFF00F00700032807D19C
S31500002D00204605F099FD205C042801D1012010BD64
S31500002D10002010BD38B504464B4D7E220021A81C6C
S31500002D2006F065FC0020287005F07EFF95F88010FF
S31500002D302046BDE8344005F078BF70B504460D4620
S31500002D401646FEF76DFB60B13EB12046FFF7CFFF9A
S31500002D5018B1607840F0200002E0607800F0DF00F3
S31500002D6060702946204601F038FF0146FF2924D02D
S31500002D70354D3D4E05F18104204602F052F915F815
S31500002D80830F401C2870C0B2318881420BD268780C
S31500002D90401C687007E0204602F058F901F09AFEE0
S31500002DA02878401E2870308829788842F3D300F0AE
S31500002DB005F8BDE8704000F09CBF70BD2B48007858
S31500002DC005F0A6BC10B5204C2078012806D1204974
S31500002DD000200870FEF7ABF90320207010BD10B577
S31500002DE01B49002008700024FFF7CEFD16490A781B
S31500002DF0012A02D1032201240A70FFF72EFE2CB10C
S31500002E00FEF795F9BDE81040312083E710BD0E4866
S31500002E100178481E8041C00F7047FEF7A3B9FEF740
S31500002E209DB9094890F88310002904BF813002F04B
S31500002E3057B900207047FFF70BBD034800780128FB
S31500002E4018BF00207047000034F60320B9F60320AF
S31500002E50BCF6032036F60320F4EA0320E32B000039
S31500002E60F1EB0320CB2C0000B4EB0320A4FD0320E0
S31500002E706C6F7765722D6D61632D65667233322EC8
S31500002E806300000010B53D483D4986B00068000E5D
S31500002E9009D14AF6E850C862486B40F0040048631E
S31500002EA00020C86201E0022803D2086840F40050FE
S31500002EB0086002AC3348016821F4401141F48811DE
S31500002EC001603148016841F48071016001202F4999
S31500002ED0086006F0B3FB04F08EFB06F0A0FC2C485D
S31500002EE0D0E90023CDE9002301208DF803006846D0
S31500002EF006F033FE04F0F6FDFFF764FD25480FC823
S31500002F0084E80F0008208DF8140002A807F0C0F826
S31500002F1006B010BD40F20160FFF7C6B880B50021CB
S31500002F20002000F01BFABDE8014007F0BFB807F02B
S31500002F30BEB8032004F025BB10B507F0FAF8044626
S31500002F4007F0FBF8C0B208B9012C07D1072C11D83D
S31500002F50DFE804F004100608080A0C0E002010BD75
S31500002F60092010BD022010BD032010BD0B2010BD8E
S31500002F70062010BD44F0800010BD0000FC81E00F6B
S31500002F8064310E4020400E4000000E4010300E40CE
S31500002F90648902001C8A02000C3003F0A2BB38B51B
S31500002FA00D46044689B2FFF716FB010005D1A9B20A
S31500002FB02046BDE8344003F041BB32BD70B50C4637
S31500002FC084B000F10C05237E627EA17E284607F0C0
S31500002FD020F9684604F10C010C22FFF743FA694612
S31500002FE0284604F04BF8211D284600F066F9060035
S31500002FF003D1284607F044F90646300005D10FF202
S315000030001C11284604F02DF80646300003D1284648
S3150000301007F0ABF806462168284600F006F8304669
S3150000302004B070BD0C3007F099B870B58AB004468C
S315000030300D4668460FF2C0012422FFF723FA05B9B0
S315000030406D46002601E0010005D135F81610F2B2F2
S31500003050204607F0AAF8010006D105EB4600F2B2B9
S31500003060C188204607F0A7F8010007D105EBC60086
S3150000307000F10C01F2B2204607F0AEF8761C032EE2
S31500003080E1DB0AB070BD032ABCBF0C3007F08DB877
S3150000309001207047032ABCBF0C3007F08CB8012012
S315000030A07047032ABCBF0C3007F096B80120704762
S315000030B038B500F015F828B121462846BDE8344059
S315000030C007F09AB8022032BD38B500F009F828B1E9
S315000030D021462846BDE8344007F084B8022032BDB8
S315000030E000F10C050C46284607F036B80C3007F000
S315000030F09FB8084602F0B1BFFFFFFFFFFFFFFFFFCB
S31500003100FFFFFFFF000000000000000000000000BD
S31500003110000000000000000000000000000002089F
S315000031200000000003480188034808237F2200F0BE
S3150000313047B800BF0E92020020F6032038B50C46B1
S3150000314011461A467F2908BF002141F2F0139C421E
S3150000315018D154490B6849680024D5B27DB303558C
S31500003160641C1B0A521EE4B2042CF6D3E4B2082CEB
S3150000317025D2D3B2002B1FBF0155090A521E641C6B
S31500003180F4D131BD04F47045C4F30B03B5F5805F8B
S3150000319011FB02F108BF43F07E630BD0B5F5005F6B
S315000031A01CBF04F47044B4F5405F08D143F07C635F
S315000031B043F40113C918BDE8384006F0D5B931BD4E
S315000031C070B51E00044615461BD04BF23460814292
S315000031D011D1092E28BF082633467F2241F202016B
S315000031E02046FFF7ABFF32462F49204606F006FA87
S315000031F038B941F2F01133462A462046BDE8704000
S315000032009CE770BD2DE9F84307460024F807884679
S3150000321015466FF00F06DFF8949002D5652100F091
S3150000322049F8E80702D5662100F044F807F4704132
S31500003230B1F5805FC7F30B000CD140F07E64B4F1AA
S315000032407E6F264604D32819401E1949884210D39A
S315000032506B210CE0B1F5005F18BFB1F5405F05D1F9
S3150000326040F07C6444F40114264602E0722100F02A
S3150000327021F8002706E0F05DFF2802D07C2100F04F
S3150000328019F87F1CAF42F6D36A084146204607F07C
S3150000329057F828B14846BDE8F4438521FDF754BAEE
S315000032A0BDE8F183F081E00F5C89020050890200DD
S315000032B00008E00F4846FDF747BA70B50D4682B0E4
S315000032C00446287858B90021204603F0A3FB0021C4
S315000032D0204603F0FFFB0021204603F003FC28787C
S315000032E0002814BF0420287900F027F814BF287995
S315000032F068798DF801002046FFF777FA06001AD1A3
S315000033002878002814BF0220A87900F016F814BF08
S31500003310A879E8798DF801002046FFF744FA0600FF
S3150000332009D1287838B16988204603F083FB01214A
S31500003330204603F06FFB304676BD8DF800006946E7
S315000033402878002870470C3003F0C4BB0C3003F01B
S31500003350D3BB084603F0C2BE002070470120704769
S315000033600020704710B57C487C4C00682060606087
S315000033704822002106F03BF9794821680078087058
S315000033804FF6FF71206800224180027300202268F8
S3150000339050730B202268907314202268D0734FF666
S315000033A0FE7220680282418207F008F821680876DA
S315000033B007F004F82168487607F000F82168887657
S315000033C0684821680078C87667492068096840F827
S315000033D0281F6649097801716548216800680863F5
S315000033E010BD10B5FDF7E1FB5C4C6168897B884236
S315000033F003D00846FDF788FB50B9FDF7DAFB014616
S31500003400606890F90F00814204D0FDF7E1FB08B136
S31500003410012010BD6068008AFEF730F86068408AB7
S31500003420FEF74AF86068007B012818BF0020FEF707
S3150000343011F8002010BD10B54E4C0020207005F08C
S3150000344057FF20B92046BDE8104005F067B869E08F
S3150000345080B5002000F015F828B1002000F005F82E
S3150000346008B1002002BDFF2002BD3C480068407B39
S3150000347002281CBF1128432801D1012070470020D3
S31500003480704736480068007B01281CBF02280328C5
S3150000349001D101207047002070470020704770203E
S315000034A07047002070473449087070477047002005
S315000034B07047012070477047002070470020704712
S315000034C0704770470020704780B50020FFF7CDFF9A
S315000034D018B1BDE802400020D3E702BD80B5002048
S315000034E0FFF7C3FF30B11D480068007B032801DAEF
S315000034F0002002BDFF2002BD10B5040005D040F239
S3150000350049110FF22810FDF71FF91B48007808B97A
S31500003510702010BD10480068482111FB04F10844D2
S315000035200E494860BDE810405BE70C484068008AD9
S3150000353070470A484068408A7047084909684A69DE
S315000035400260C97E017170470449096802684A61D0
S315000035500079C8767047000088E8032018F6032033
S315000035608DFD0320CFEB03208CE80320C5EB032061
S3150000357090E8032008F60320F0EB032070470020B4
S3150000358070470020704705F080BC7047704707F011
S315000035909AB807F0DFB982B08DF80010DDE9002394
S315000035A011461A4602B007F02FBA32B586B0044665
S315000035B08DF8042002F040FA0546204602F04AFA49
S315000035C080F001010D420DD0BDF8180002F0F4FAAA
S315000035D08DF80000FF2804BF00208DF80000CDF80C
S315000035E008D01AE0294308BF06A815D0054214D012
S315000035F0BDF8180002F0E0FA8DF80000FF2804BFBD
S3150000360000208DF800009DF800008DF80C00BDF834
S315000036101800ADF80E0003A80290DDE901010A4684
S315000036200146204607F0F0F907B030BD656D6265CA
S31500003630722D6D756C74692D6E6574776F726B2D56
S31500003640737475622E630000F8B50F4D2E68040082
S3150000365001D1FF20F2BDFFF797F90C4F29683A78A0
S3150000366021F8124036F8021BA142FBD1FFF7F5F90B
S3150000367029683A78B01E401A4010C1B2914208BF7C
S31500003680FF20C0B2F2BD00BF60E80320BFEB0320FD
S31500003690DFF87C1500200870FF21DFF8780501703F
S315000036A001717047F8B50446FFF774F90546DFF86F
S315000036B06805DFF860750688204605F0D9F8B0F58C
S315000036C0006F16D1204605F0F7F8FFF7BDFFFF287B
S315000036D00DD000F025FA2146381D01F0A2FCDFF8D6
S315000036E03005017881B10089A9190E1A10E09320DE
S315000036F0F2BDFF21384601F0BFFC052802DA21465B
S315000037003846EAE73920F2BD0581314604F010FF5C
S31500003710B2B20321204605F022F8032205212046F5
S3150000372005F028F8204601F0C7F90020F2BDF8B5EB
S315000037300446DFF8E0040078FF2813D0DFF8DC54F5
S3150000374029680E5C3746384605F0A7F80146082278
S31500003750204605F053FF08B90120F2BD2868C75D71
S31500003760B742F0D10020F2BD2DE9F843044605F03A
S3150000377028F8000B00F00106204605F0B2F80546D1
S31500003780204605F09DF8B0F5404F14D1002E62D0CA
S315000037902946002000F07FF90446FF2C5BD000216B
S315000037A005F081FA002856D000F09BF940F080021F
S315000037B00521204646E0284604F01DFA0546FFF797
S315000037C043FF0446FF2C08BF002045D001200021FE
S315000037D0224607F027FADFF84824D2E9008948EAAA
S315000037E0000349EA0107C2E90037A6B3DFF83464EB
S315000037F0336833F814704FF4E4631F422BD0BB06D2
S3150000380023D5280A8DF801008DF80050694601205D
S3150000381000F041F90546FF2D08D1306830F8141044
S315000038204FF6DF72114020F8141014E0002105F065
S315000038303AFA80B10521284604F0A3FF40F0800241
S315000038400521284604F096FF05E0D2E9024520430B
S315000038502943C2E902010120BDE8F28338B50446D6
S3150000386005F006F8B0F5006F0CBF012500252046CF
S3150000387005F013F804462146284600F00CF9FF2807
S3150000388010D18DB1204604F0B6F9FFF7DDFEFF2812
S315000038900AD0DFF89013096831F810004FF4E061A0
S315000038A0084201D0012032BD002032BD2DE9F04191
S315000038B007460C4604F0DCFFD64DB0F5006F0CBF92
S315000038C0281D28460078FF2845D0D4490968085C99
S315000038D00646B7423CD1FFF757F8804605213046E9
S315000038E004F04FFF00F07F00471EFAB20521304674
S315000038F004F040FF200018BF312C01D0FFB207BBF7
S31500003900FFF742F80746304604F0B2FFB0F5006F05
S31500003910314605D1281D01F0AFFB00F0E6F802E0C4
S31500003920284601F0A9FB3846FFF797F84046FFF70F
S3150000393094F82146304608F031F9304601F0CAF8CD
S3150000394004E000F0D2F84046FFF787F8012003E0D4
S315000039508E5D8642BDD10020BDE8F08110B5FFF72F
S3150000396019F8AB4C21892081411A88B200F0E1F8A0
S315000039704FF6FF71884202D10020207010BD01462B
S315000039802046BDE8104004F0D3BD4FF6FF70D0E0EE
S315000039902DE9F84F00F079F808BF904273D001275F
S315000039A0934600249046FEF7EFFF82469C4800258A
S315000039B0D0E900010BEA010207EA0006AA4208BFA5
S315000039C0AE421DD0FE436FEA0B09954A304001EA2C
S315000039D00901C2E900010125D2E902010BEA01034E
S315000039E007EA0002434508BF424509D08C488C4A85
S315000039F0D0E90201304001EA0901C2E90201A84604
S31500003A005046FFF72AF88DB38648006810F8140070
S31500003A1080072BD58448006830F814508348007816
S31500003A20C0070AD582490968002041F82400814868
S31500003A300068015D41F0F0010155B8F1000F09D0B1
S31500003A407848006830F8141041F4006120F814102A
S31500003A5005F07BF9002000902B461A226BA103206B
S31500003A6001F08BFB0021284608F024FD4FEA4B00AD
S31500003A7040EAD77B7F00641C402C04DA00F005F88E
S31500003A8008BF90428ED1BDE8F18F65480022D0E98B
S31500003A900001914270472DE9F04188465D490028B2
S31500003AA01ABF091D022508250878FF2816D05B4E87
S31500003AB031680F5C3C4600F014F800060AD4204634
S31500003AC004F0EBFE01462A46404605F097FD08B98C
S31500003AD0204604E03068045DBC42ECD1FF20BDE81E
S31500003AE0F0810521204604F04CBE70B5002120204F
S31500003AF004F048F947480079FF2810D0474C216860
S31500003B000D5C2E46304604F0D7FEFFF79DFDFF28DC
S31500003B1001D000F005F82068865DAE42F2D170BD96
S31500003B204049096831F8102042F0200221F810209F
S31500003B3070472DE9F84F80460FF2FC00354E0068BD
S31500003B40364F00904FF6FF7A344600E0341DFEF7FC
S31500003B501BFF814606E0204601F078FA29466846B2
S31500003B6001F05FFA204601F0BBFA40B938682178C7
S31500003B70455C0321284604F0E9FD8045EBD2301D63
S31500003B80844208BFFFF7B1FF4846FEF766FF20787C
S31500003B90FF2819D0396811F800904D4603212846B0
S31500003BA004F0D4FDA0EB080B1FFA8BF20321284684
S31500003BB004F0D5FD3868455D51461FFA8BFA8A45F3
S31500003BC088BF8A464D45E9D1301D8442BED168463C
S31500003BD001F086FAA8B9684601F038FA044604F0FE
S31500003BE0FAFDFFF76DFCFFF77CFF000603D44221C8
S31500003BF0204607F0D3FF204600F06CFFFFF761FC7C
S31500003C00E5E71FFA8AF0BDE8F28F0000425742004E
S31500003C1028F603204CEB03209CEB03205CE80320F2
S31500003C2090ED032064E8032060E80320B8F7032042
S31500003C3068E80320B0E80320FF000000002070477A
S31500003C4070477047019870477047702008F07FBC36
S31500003C5070B5044643381E4D08D0401E012809D9C8
S31500003C60801E01280ED9C01F31D02AE0BDE8704061
S31500003C7009F030BF09F05FFF20B109F02BFF0028E3
S31500003C80FBD170BD134E307808BB01203070002088
S31500003C9009F08CFF442C11D00CD3462C05D00DD343
S31500003CA0472C07D140F6010001E040F60200FEF77E
S31500003CB0FBF903E0E3212846FCF746FD00203070BF
S31500003CC070BD2846BDE87040F521FCF73DBD70BDCE
S31500003CD02C8A020091FD03200020704701207047C6
S31500003CE001207047704700207047704770470020DA
S31500003CF070477047FCF7C7BE09F0AABF890001EB01
S31500003D00401000F1844002607047890001EB4010CA
S31500003D1000F184400068704710B5DFF8644712214F
S31500003D202046FFF7F2FF0028F9D12068000C00F0CA
S31500003D30030010BD0122DFF80C1610B5884232BF11
S31500003D400022DFF80416884201D2144600E002245D
S31500003D501021DFF8F805FFF7D1FFDFF82807016823
S31500003D6021F0807141EA0461016010BDF0B5DFF811
S31500003D707C26D36B03B1012341F67134D463DFF89B
S31500003D8008571468002405EBC406CFB23679BE4244
S31500003D9003D155F83460864202D2641C052CF2D356
S31500003DA0052C0EBF032005EBC4004079116821F0F5
S31500003DB0407141EA00601060DBB20BB10020D063B5
S31500003DC0F0BD80B509F089FFBDE804400021CDE7CC
S31500003DD0CCE7C01C0F2801D2000770474FF0704097
S31500003DE07047000038B50446002500F05DF9DFF89D
S31500003DF08026DFF80416944208D0DFF8782694422D
S31500003E0006D0DFF88826944204D006E0086802E06F
S31500003E10486800E0886800F00700401E03281BD8A9
S31500003E20DFE800F002050C0809F088FF04E009F05D
S31500003E308BFF01E009F085FF05460DE009F040FF24
S31500003E40DFF840160968090E01F001010122491C3C
S31500003E5002FA01F1B0FBF1F5284632BDDFF8301663
S31500003E604A68D20702D40A680242FCD1704780B57C
S31500003E7000F0D4F8401C02BD70B5020A0C4602F0F0
S31500003E800F020021521E092ADFF8F85714D8DFE87E
S31500003E9002F005141313071619131C20DFF8AC548F
S31500003EA0C0F3043611B10846FFF7D8FF2246314663
S31500003EB02846BDE8704021E770BD1035F0E7303583
S31500003EC00121EDE738351021EAE740354FF480311E
S31500003ED0E6E7DFF81C58E3E770B5DFF8B815DFF85A
S31500003EE090250E68DFF88C15DFF89845012510F44B
S31500003EF0781075D0B0F5003F30D0B0F5802F27D0C0
S31500003F00B0F5002F6CD0B0F5202F2DD0B0F5402F96
S31500003F105ED0B0F5602F3FD0B0F5901F53D0B0F50E
S31500003F20A01F2AD0B0F5B01F39D0B0F5D01F22D0CF
S31500003F30B0F5E01F31D0B0F5001F44D0B0F5281F12
S31500003F4022D0B0F5301F31D0B0F5381F4BD061E02C
S31500003F5009F0C5FEE168C1F308210AE009F0BFFED9
S31500003F60A168C1F3082104E009F0B9FE6169C1F353
S31500003F700421491C24E0104627E01046FFF732FFD3
S31500003F80216A01F00F0119E01046FFF72BFF0646E4
S31500003F90206AC0F30110C6403DE0084615E0084619
S31500003FA0FFF720FFA16AC1F3011107E00846FFF7FA
S31500003FB019FFA16A090A01F00301091D05FA01F1B9
S31500003FC0B0FBF1F627E0DFF8C404FFF70BFF1FE0B4
S31500003FD0DFF8200700F068F807281CD0092819D157
S31500003FE009F07DFE14E0DFF8100700F05DF8042804
S31500003FF00CD007280FD008280CD109F070FE2168D4
S31500004000C1F30421491C01FB00F604E009F082FE1D
S31500004010064600E00026304670BD0000030903F0A6
S315000040200F0301215B1E072BDFF858243AD8DFE87F
S3150000403003F004060A0E10142339106800E05069D4
S31500004040C0F3042070471068C0F300607047D06862
S3150000405000E09068C0F308207047DFF8A036984269
S3150000406004D0DFF89C36984204D01BE0106A00F0BA
S315000040700F0013E0106A09E0DFF88836984204D092
S31500004080DFF88436984204D00CE0906AC0F3011041
S3150000409004E0906A000A00F00300001D01FA00F037
S315000040A0401E704700207047014601F00F010120B5
S315000040B0491E0729DFF8582649D8DFE801F0040F22
S315000040C01348202E4836506A00F0070002283AD0DE
S315000040D002D3042804D01CD30520704711690FE0D1
S315000040E002207047516901F00701491E03292FD8A4
S315000040F0DFE801F00F020311F2E70620704791692D
S3150000410001F00701012904D00229E9D0042902D0CF
S315000041107047032070470A207047116811F00101AB
S315000041200FD0012914D109207047DFF8E815096876
S3150000413001F03001102904D0202904D0302904D000
S3150000414070470720704704207047082070470020FA
S31500004150704700002DE9F843804600260324B8F195
S31500004160110F0F46A14612D1042F02D109F0D2FD3C
S3150000417008E0052F0BD1DFF8A005DFF8A0150068D1
S31500004180884204D306001CBF002105F09DFC08F000
S315000041900F00401E0728DFF878550ED8DFE800F03C
S315000041A0043D438B406F8B79022F664806D0032F60
S315000041B029D0042F2AD0052F2DD07CE004244FF0DF
S315000041C0000901220121484600F07AF9FFF7F9FDBE
S315000041D036B11221DFF8A802FFF797FD0028F8D1C3
S315000041E06C6000F07AF8FFF7A5FD09F069FD04465A
S315000041F0FFF792FD01462046FFF7EAFD002E5AD151
S31500004200BDE8F443F4E04FF00109DAE70224A146E1
S31500004210FFF790FDD5E70124FAE705F1100404E065
S3150000422005F1180401E005F11404012F08D0022F4E
S3150000423009D0032F0ED0062F13D00A2F1DD03AE037
S315000042400020206037E001220121002000F038F92B
S315000042500220F6E701220121012000F031F90120B8
S31500004260EFE709F02DFDFFF765FD01220221DFF8DA
S315000042701404FFF743FD0320E3E70420E1E7072FDB
S3150000428002D0092F02D016E0002000E001202860AD
S3150000429011E0012F06D0042F16D0072F0DD0082FBE
S315000042A019D008E00020DFF86C140A6822F030020A
S315000042B042EA00100860BDE8F183012201210420D2
S315000042C000F0FEF80120EEE701220121022000F0B5
S315000042D0F7F80220E7E70320E5E7DFF83004FBE51F
S315000042E06D4ADFF8441490421FBF6C4A90426C4AF4
S315000042F0904215D06B4A904214D06B4A904213D02C
S315000043006A4A904212D06A4A904211D0694A904253
S3150000431010D0694A90420FD0684A90420ED00FE002
S3150000432008687047C868704788697047C8697047E9
S31500004330086A7047886A7047C86A7047086B704792
S31500004340002070470148E8010190D00300400E406C
S3150000435070B50446FFF7C4FF0646DFF8BC030568E0
S31500004360046000F08AF8052808BFFFF72AFD182127
S315000043704748FFF7CAFC0028F9D147498C4208D0C4
S3150000438046498C4207D046498C4208BF26F0C06693
S3150000439004E0022000E0012060F35A6600F06DF8A8
S315000043A0052804BF2046FFF7C5FCA54203D201211C
S315000043B0204605F089FBDFF86803066000F05DF82B
S315000043C0052808D109F07CFC0646FFF7A5FC014646
S315000043D03046FFF7FDFCFFF780FFFFF7ABFCA54279
S315000043E002D3BDE8704003E070BD000004000E403B
S315000043F00121002005F068BB80400E4070B500F03A
S315000044003BF801220021022000F05AF8217CDFF857
S315000044101C5300200229296808BF0120490840EAE8
S3150000442041002860082122782846FFF767FCA0880B
S31500004430617A41EAC020A860EE68207AFFF7C9FCDD
S31500004440E28806F07F6141EAC221A27A1143227A0C
S3150000445041EAC2110843E860A17B607B090141EA99
S315000044600030E17B0843217B40EA0140286170BDB2
S3150000447002001A0003001C000446112014E6000086
S3150000448004300E4000410E403C880200050020002A
S3150000449040410E4048E8032040420F0080841E0041
S315000044A000093D00C0CF6A00405DC6000024F4004C
S315000044B0C0EA210180BA8C010048E80180D5430298
S315000044C02DE9F84F04288246904673D8DFE800F0BD
S315000044D04E493F03440001260220012700240029FB
S315000044E0DFF80892914D60D0BAF1020F02BF28683A
S315000044F0C0F3011000284FF0000B0CD18C48006867
S315000045002868C0074FF0010B05D5286820F0300059
S3150000451040F010002860EE6300F04EF80028FBD053
S31500004520B8F1000F46D0394600F047F80028FAD017
S31500004530BAF1020F3ED1BBF1000F3BD02868C0078D
S315000045401BD501222021022000F0C0F819E0042624
S31500004550082003270224C2E710262020052704246A
S31500004560BDE74026802007270624B8E74FF480766B
S315000045704FF4007009270824B1E70021022000F05B
S3150000458083F8022000F01CF80446012200210220D4
S31500004590FFF796FF2146022000F02CF8EE6339461D
S315000045A000F00BF80028FAD004E0E86300F004F805
S315000045B00028FBD1BDE8F18F21464846FFF7A5BB91
S315000045C0401E0328564912D8DFE800F0020C060800
S315000045D00869C0F308007047086800E0886800F0C2
S315000045E07F00704753480068C0F30A0070470020F8
S315000045F07047000070B5401E0D46032805F07F0188
S31500004600474C484E3DD8DFE800F0022A101DC5F39E
S3150000461008051A213046FFF778FB0028F9D12069F2
S31500004620400A45EA4020206170BD0D4618213046FB
S31500004630FFF76BFB0028F9D12068C00945EAC010D6
S31500004640206070BD0D4619213046FFF75EFB00283D
S31500004650F9D1A068C00945EAC010A06070BD234822
S315000046600068606920F0300040F010006061C5F31A
S31500004670C310FFF7AEFB216A2F4A114029430843B6
S31500004680206270BDB0400E4028480268C2F3011295
S31500004690002A18BF002907D0202902D0302903D0CC
S315000046A005E04FF4000103E04FF4400100E0234928
S315000046B0C26E0A408A42FBD1490204D5C06F800A05
S315000046C000F00100704701207047000010B5022875
S315000046D00AD10B0004D01A4B4FF480645C64196055
S315000046E012B1BDE81040CFE7012010BD90400E404A
S315000046F050410E4006000C0098002E006006140083
S3150000470060162A007017160070272C000025080076
S3150000471070400E405C410E4038E90320012D310106
S3150000472010400E4040410E403082E00F24400E40C3
S315000047303C300E409C400E4000F8FF0FFF33E1076F
S3150000474064400E4010B51B4B1C6890FAA0F2B2FAFA
S3150000475082F224EA000091400843186010BD164911
S3150000476001200860704770B51448154B0168002099
S31500004770002203EBC20453F832506468114E3668C7
S3150000478076070DD4B5F5007F18BFB5F5806F05D057
S31500004790B5F5006F18BFB5F5803F01D144F48074BC
S315000047A0294202D0214208BF2843521C092AE0D3DD
S315000047B070BD000000500E4008500E4004500E40E0
S315000047C064880200E841E00F0168C90707D58168DF
S315000047D0890704D48168C907FCD401214160704768
S315000047E080B501216E48FFF747FB6E49012008603E
S315000047F0002009F0DFFA012304220221052009F036
S315000048001BFB012000F07CFC00F00EF800F0A9FC78
S3150000481009F006FC012340226349644809F0CEFBF7
S3150000482063490860C00F02BD10B5012201210420B2
S31500004830FFF746FE5F48604C016841F001010160E8
S315000048400022C16841F08071C16000235B495C4869
S3150000485008605C4802605C4A1360022323601523EB
S315000048605A4C236000230364594B0B655949116068
S315000048704FF48071584A1160016841F480710160FB
S3150000488010BD4C48006800B10120C0B27047D1226B
S3150000489002704170090A817050490A78C270501C32
S315000048A00870042070472DE9F84FDFF834A1DFF8CF
S315000048B034810446DAF80000005D461DFEF76AF80A
S315000048C0F6B2002500904FF6FF7B18E0A91EC9B28C
S315000048D0204600F0A6FA0746594609F0ADFB834686
S315000048E04D4639480068C00709D536480068C005F6
S315000048F005D5D8F800000028FBD088F80070FFF72F
S31500004900C0FFEDB228B3B54223DAFEF743F80099AB
S31500004910401A80B2B0F5FA7F1BDC15B95B2701257A
S31500004920DFE7012D05F1010903D1DAF80000075D83
S31500004930D6E7F01E854208BF5F46D1D0B01E85423D
S3150000494008BF4FEA1B27CBD0701E8542BED15D271C
S31500004950C6E7B5420CBF00200120BDE8F28F204912
S315000049600968095C0429A8BFFFF79DBF01207047AD
S3150000497010B50F48006890B04022694609F009FB5F
S3150000498058B1C1B2684600F028F904462146122003
S31500004990FDF794FA204600F09DF810B010BD000017
S315000049A000350800108814424CEF0320F8870200F7
S315000049B044E80320F0ED00E0F00004E0B00F00E072
S315000049C055CEACC5000E00E0800E00E0100004E0FD
S315000049D0FF0300400D000100040304E083FD0320F3
S315000049E050E80320200000E0DFF8D416096801EB48
S315000049F040107047DFF8CC261268115470472DE935
S31500004A00F041040035D0FDF7BFFFDFF8BC16DFF834
S31500004A10BC360E78FF228046FE2EDFF8B4061BD188
S31500004A2000260E70DFF8ACC6DFF8AC6637781F706C
S31500004A30002708E007F1010E05F807E0DCF8005052
S31500004A40EA555FFA8EF796F800E005687745F1DBE0
S31500004A5005EB0E0606F8012C1E78A6420BD2404640
S31500004A60FDF7FBFF052000F081FB00211B20FEF770
S31500004A7092FDFF201EE0361B1E70DFF860360E78B2
S31500004A800F78D3F800E001250EF80750641E05687C
S31500004A9015F807E081F800E05FFA84FEBEF1000F2A
S31500004AA0EED1EA5500213046FFF7A4FF4046FDF758
S31500004AB0D4FF3046BDE8F08110B50446FDF764FF2B
S31500004AC0DFF8181609680A5D521C0A55BDE8104041
S31500004AD0FDF7C3BF2DE9F041054600F031F8044665
S31500004AE0FDF752FFDFF8E025DFF8E035DFF8E06597
S31500004AF0DFF8E885FF2D1FD0D8F800104F5D7F1E28
S31500004B004F557F27D8F800E01EF80510394213D11B
S31500004B103168495D00270EF805701F787F1C1F70ED
S31500004B20FF29376892F800E007F805E0157006BF20
S31500004B302546FF240D46DDE7BDE8F041FDF78DBFB4
S31500004B4080B5DFF898150968095C090603D5FFF7F3
S31500004B504BFF007802BDFF2002BDB0B504460D46EE
S31500004B60FFF7EEFFFF2818BFFFF7B4FFFF2DDFF8B2
S31500004B706C7504D13868015D01F07F0106E02846B6
S31500004B80FFF79AFF3868015D41F080010155204624
S31500004B90FFF72AFF0570B0BD0EB478B504460120B4
S31500004BA0FFF72DFF0546FFF71FFF0646FF2D08BF3F
S31500004BB0FF200FD0E1B22846FFF71CFF05A8002111
S31500004BC004E050F8042B06F8012B491CC9B2A14297
S31500004BD0F7D3284672BC5DF810FB70B504460D4647
S31500004BE005F11F000004400D82B0C0B2FFF707FFB9
S31500004BF00646FF2E0CD02946FFF7FCFE3CB10120ED
S31500004C0000902B4600223146204600F002F830463E
S31500004C1076BD73B500F0D0F8405C15461E46711996
S31500004C20884203DA40F2651100F0EBF830000CD050
S31500004C30294601A800F0E9F8024606989DF80410F6
S31500004C4000903346204600F001F873BD2DE9F84385
S31500004C50089CDFF87C840546894616461F460BE00D
S31500004C606A5C4254491CB142FADBD8F80000BF1B0B
S31500004C70AD1910F809900026F8B2D0B14846FFF7F2
S31500004C80B3FE801956FA87F12029B9BFFFB23E4616
S31500004C90C6F12006F6B22100324604D10146284666
S31500004CA004F062FCE1E7012C08BF2946F8D0002198
S31500004CB0D9E7BDE8F1832DE9F04100F07DF882B037
S31500004CC0055D884616467119C9B2A9421F4605DB1D
S31500004CD030000CD0204600F05DF808B1182007E03F
S31500004CE0009733462A4621464046FFF792FF0020AA
S31500004CF0BDE8F6810123DEE70A4600E0521C137880
S31500004D00002BFBD1521A0223D2B2D4E72DE9F0418F
S31500004D10054601F11F00C70402F11F00C0043F0E43
S31500004D20000E07B9012700B9012087422CD0DFF811
S31500004D30A0431BDAC01BC0B2FFF761FE8046B8F184
S31500004D40FF0F08BF002020D07F1E00F020F8266845
S31500004D50305CFF2804D000F01AF8305CFFF7BAFE8A
S31500004D6000F015F8216801F800800DE08A420BD2A8
S31500004D70411EC9B200F00CF805462068405DFFF7F9
S31500004D80A9FE2168FF2048550120BDE8F081F9B24F
S31500004D90284616E038B500F00FF80D46015D2A46A4
S31500004DA02046FFF7B3FF28B129462046FFF722FE2B
S31500004DB0002032BD182032BD0446DFF80803006823
S31500004DC0704704E0DFF808231268105C491ECAB277
S31500004DD0002AF7D1704711B50C46DFF8E8120968CA
S31500004DE081B0095C8C4203D340F2012100F009F83E
S31500004DF0214601A800F009F8044600F00FF9204406
S31500004E0016BD0FF2EC20FBF79FBC38B504460D46E5
S31500004E10E9042078090EFFF7D4FF207005F01F0083
S31500004E2032BD80B5FFF7D7FF007802BD10B5144636
S31500004E30FFF7D1FF047010BDB0B5FFF7BDFF82B01C
S31500004E40055DFF2C03D140F22121FFF7DAFF05F1C2
S31500004E501F000004400DC0B2FFF7D1FD0746FF2F2B
S31500004E600AD02946FFF7C6FD0095002322460021F9
S31500004E70384600F0A2F83846B6BDF8B504460D46E9
S31500004E8016460120FFF7BBFD0746FFF7ADFDFF2FD6
S31500004E9001D1FF20F2BD33462A462021204400F0EE
S31500004EA00FF82118C9B23846FFF7A4FD3846F2BDFF
S31500004EB00CB480B502AAFFF7E0FF02BC5DF80CFB5C
S31500004EC02DE9F047814614469A464F460025884606
S31500004ED00AE03246384604F047FB7019BF19451EF2
S31500004EE0EDB26D1C641CEDB245453BDA207801003D
S31500004EF038D0312818BF32280ED15AF8041B07F8CB
S31500004F00011B3228EDD16D1CEDB2A845A4BF0812D5
S31500004F1007F8010BE5DA25E034280ED1291D5AF8E9
S31500004F20040B88451EDB3870010A7970ED1C010CF4
S31500004F30000EB970F8703F1DD2E7A0F133025AF89F
S31500004F40041B072A38BFA0F1300607D3A0F141029F
S31500004F50072A34BFA0F137065AF8046BF6B2701967
S31500004F604045B6DBA7EB0900C0B2BDE8F08756495D
S31500004F70FE200870704770B500F014F800F003F8D2
S31500004F80301880B270BD06022946204649E700B5B2
S31500004F9083B002238DF80420120A8DF80520012221
S31500004FA0009204E00D46691C0446C9B239E70A4678
S31500004FB0014601A8FFF72DFE07BD2DE9FC4405B407
S31500004FC00A9C20001F4627D089B26846FFF71DFFBE
S31500004FD00646B9B201A8FFF718FF0746BE42A8BFAA
S31500004FE03046A4B2C0F120002546C0B2A842B8BFE0
S31500004FF0054600F013F882469DF80000FFF7F4FC22
S315000050002A460AEB0701304404F0AEFA641BA919DC
S31500005010EF19A0B20028D7D1BDE8FF849DF804009F
S31500005020E2E470B504460D46FDF7AEFC294B217847
S315000050301B68FF2908BF5D5503D019440E785E55DD
S315000050400D702570BDE87040FDF707BD38B5044604
S31500005050FDF79AFC2178FF22FF2908BFFF2507D01C
S315000050601C4B1B685D5C8D420EBF22705A5D5A5404
S31500005070FDF7F3FC284632BDF8B504460D46FDF7AC
S3150000508083FC21780026FF2915D0124B1B680A469F
S31500005090012602E0761C3A46F6B29F5CAF4208D182
S315000050A0DF5D9F54A94206D18A4208BFFF222270C3
S315000050B001E08F42EED1FDF7D0FC3046F2BD000094
S315000050C04CE8032050E80320DBEB0320BDEB032074
S315000050D058E803205CE80320BCEB032054E80320D7
S315000050E00078FF2801D1012070470020704700009A
S315000050F07061636B65742D6275666665722E6300FA
S315000051002F49087070470EB430B504462C48007815
S3150000511020B3FFF7B6FB08B3FCF7C4FF0120FFF787
S315000051206EFC0546FF2D19D0FFF75EFC0221FFF746
S31500005130AEFB01462846FFF75DFC03AB2246294637
S31500005140204800F090FD30B12846FFF708FC10B16A
S31500005150042000F00BF82846FFF7BCFC30BC5DF8D5
S3150000516010FB0C220021184804F041BA164931F808
S315000051701020521C21F8102070470CB480B502AAEA
S31500005180FCF7F1FD01BC5DF80CFB0D490978A1B9EE
S31500005190010018BF012810D0042818BF05280CD01C
S315000051A0312818BF332808D037281EBF3B284FF6B2
S315000051B0FF71884201D0012070470020704700002F
S315000051C09BFD0320F54C000088F40320302818BF0F
S315000051D0322806D034281CBF3628382801D00020B3
S315000051E07047012070470000012100F01F02914026
S315000051F0DFF8982705E0012100F01F029140DFF853
S315000052009027400942F820107047012100F01F0244
S315000052109140DFF88027F4E710B5012818BF202851
S31500005220DFF8744705D04FF4BD71DFF87007FBF760
S315000052308BFA204610BD426892884089401A824205
S3150000524001DA01207047002070473EB5012818BFDB
S31500005250202834D1012818BF202830D1FFF7DCFFE1
S315000052600446FDF791FB0546A06901AB6A4602A913
S315000052700AF03DF900992289206889B200F024F8E5
S315000052802846FDF7EAFBA0690AF0A7F9012816D11E
S31500005290216820898988401A218A88420FDBA06903
S315000052A090F83110022903D10AF01FF9022804DA16
S315000052B0A06990F83100012801D100F001F837BD4E
S315000052C0A06900210AF063B970B504460D4616467A
S315000052D0FDF75AFBE188A9420CD22288521A5219CC
S315000052E092FBF6F306FB13222280A288AA18511A13
S315000052F0A180E580BDE87040FDF7AFBBF8B5012899
S3150000530018BF20280C46154616D1FFF785FF06461E
S31500005310307B10B101207073F1BD707B18B130463F
S31500005320BDE8F240B2E00FF2CD1700F006F818B172
S3150000533000F003F80028FBD1F1BDB0693B462A46D0
S3150000534021460AF02EBA70B505460E46FFF764FFF1
S31500005350012D18BF202D044640D1A069016890F8A0
S315000053603200E8B90420886400F048F9A0690068B2
S31500005370C16C002E07D041F00401C1640C20FFF778
S3150000538033FF052106E021F00401C1640C20FFF77C
S3150000539032FF0021A0690068BDE870400AF094BAA7
S315000053A00420486300F02AF9A0690068816B002E8A
S315000053B007D041F0040181630C20FFF715FF05219A
S315000053C006E021F0040181630C20FFF714FF0021A1
S315000053D0A0690068BDE870400AF003BB70BD38B52F
S315000053E00446DFF8BC05814230D0DFF8AC55A86929
S315000053F0A0422BD12A89286899B2FFF765FF296850
S315000054000020C88002E0284600F021F820460AF075
S315000054106CF803281ADA2A68E889698A938841436E
S31500005420002B89B2EFD05388128840188342B8BF48
S31500005430914205DB9A42E6D28342A8BF9142E2DA64
S315000054402046BDE8344001210AF0A1B831BD38B587
S315000054500446DFF85035E089658A216802466843CC
S31500005460084400F10801A0690AF053F9A0690AF09E
S315000054703CF8022801DBFFF723FF608AA18A401C63
S3150000548090FBF1F201FB1200608231BDFEB50446CD
S31500005490207B68BB60680FF25D074188084400F115
S315000054A00805A0696B4601AA02A90AF040F86068DF
S315000054B08188009A891A019A8E1A41880088884242
S315000054C00ED26089421AA0693B4629460AF069F95C
S315000054D070B9606861894288711A561800F108052A
S315000054E0A0693B46F2B229460AF05BF900B960733F
S315000054F0F7BD000070B5DFF8A054A96981421C46CB
S3150000550015D168688188A14238BF8488FDF73CFAC6
S3150000551069686B894A88A4B2A21892FBF3F603FB6A
S3150000552016224A8069688A88121B8A80E2E670BD64
S3150000553038B50D46FFF770FE112D044609D1A06956
S3150000554000210AF033F8002020732046BDE83240DF
S315000055509CE7132D06D1A06901210AF027F8012046
S31500005560207331BD206801880844057220680188CF
S31500005570228900F08AF901808188491C8180A0690E
S315000055800AF02BF8226821899288891A89B220B9F3
S31500005590E2898A42A8BF012105DA012808D1208ABA
S315000055A0814205DB0021A069BDE8344009F0EFBF68
S315000055B031BD80B5DFF8F0030169090606D50AF0AA
S315000055C0FDF9BDE8044001460120B1E701BD80B503
S315000055D0DFF8D803016829B10168DFF8D423116028
S315000055E00021016000F00AF80C20FFF7FDFDDFF84E
S315000055F0C403016841F00401016001BD0C2004E60A
S3150000560080B5DFF8B40304210160416821F004018C
S315000056104160FFF7F3FF0C20FFF7EDFDDFF8900385
S31500005620006810B1DFF88413086001BDF8B50C46B8
S315000056301546FFF7F1FD0646EAB2306880883189E3
S31500005640891A884201DB0120F2BD00270DE0FDF733
