S02E00005A3344696D6D61626C654C69676874536F635F65667233326D67317037333266323536696D33322E733337B1
S31500004000585A002079ED0200E1ED0000F5D70200D4
S31500004010A70A0A010042000004180FAC0061540010
S31500004020000000000000000000000000000000008A
S3150000403000000000800C03000000000000000000EB
S315000040400000000000000000FFFFFFFFFFFFFFFF72
S31500004050FFFFFFFF007003001016011800000000AC
S31500004060FFFFFFFFFFFFFFFF100000000000000042
S31500004070000000000000000000000000000000003A
S315000040800000000000000000F07F0020F07F00200C
S31500004090585A0020205E030002F00200F85000206B
S311000040A0D010002000000400000000000A
S31500004200585A002079ED0200E1ED0000F5D70200D2
S31500004210FDD70200F9D7020001D802000DD802002E
S315000042200DD802000DD802000DD802000DD80200EC
S3150000423005D802000DD802000DD802007556000000
S3150000424091450200919D020051660000A599020069
S31500004250D59D0200979D0200999D0200939D020044
S315000042608D8F0200D791020069740000731201005D
S315000042700DD802000DD80200174500000DD8020027
S315000042800DD80200F59102000DD802000DD80200EB
S315000042900DD802000DD802000DD802000DD802007C
S315000042A00DD802000DD802000DD80200D79D0200DD
S315000042B0959D0200457100000B9E02000DD802007C
S315000042C0C1EF02000DD802000DD802000DD8020081
S315000042D00DD802000DD802000DD802000DD802003C
S315000042E07149724A01E021B1491E1369DB07FAD40C
S315000042F001B9BAE0506001201060106910F0060F95
S3150000430005D0410700D5B3E0800700D5B3E0002013
S315000043107047F0B513460022002936D0624C634D33
S315000043208BB98B4231D250F8046BEE605B1C0826C9
S315000043302E60264601E036B3761E2F69FF07FAD4B3
S31500004340002EEED11FE0EFF3108672B600230EE0CA
S315000043502F6907F01907102F08BF2F602F693F0735
S31500004360F6D550F8047BEF605B1C10272F608B425C
S31500004370F4D306B962B6264601E026B1761E286950
S31500004380C007FAD40EB96FF002021046F0BD2DE94F
S31500004390F84F474F0D4639680446002041F00101A9
S315000043A09B4639604FEA92088146AA4602E0B1442C
S315000043B00AEB860AC14517D204EB89063046FFF799
S315000043C08FFF010022D1C6F30A00C0F500608608FF
S315000043D0A8EB0900B04238BF06465A463146504659
S315000043E0FFF797FF0100E2D021682A68914209D0C1
S315000043F02046FFF775FF010004D15A4601212846E1
S31500004400FFF787FF3968490849003960BDE8F28F30
S315000044102749254A0B6843F001030B608860012099
S3150000442048604869400704D50868400840000860AD
S315000044301EE04869800704D5086840084000086007
S3150000444019E00220486001E022B1521E4869C00707
S31500004450FAD422B9086840084000086005E00868F8
S31500004460400840000860002070476FF00200704767
S315000044704FF0FF3070476FF001007047002386E76A
S315000044800B48016841F00101016046F21A31C1642E
S315000044904FF4807141604169C907FCD40021C164B1
S315000044A00020704700000000809698000C000E4027
S315000044B008000E40072802D23549085C7047FF20E5
S315000044C07047072802D23349085C7047FF207047BF
S315000044D038B50446304800EB8105A8780009FFF797
S315000044E0E9FF2071A87800F00F00FFF7EAFF60717E
S315000044F0FF2814BF01200020E8702146E878A0714B
S31500004500287860706878254DA070284600F0A3F8DA
S315000045100120A86031BD10B5214984B01CC9684688
S315000045201CC02048204A0178D36814682340DB0762
S315000045302DD503292BD2184C12691C4B04EB810490
S31500004540E4781CB114B2002C48BF002223F81120D5
S315000045500123174A147803FA01F121431170154A11
S31500004560117891B100211478CC40E40708D5017088
S315000045708B401078584010706846FFF7A9FF1FBDA2
S31500004580491CC9B20329EED31FBD032101701FBD0B
S31500004590F4FF0200FCFF0200D46600200020004069
S315000045A0E8FF0200787F002038200040E066002007
S315000045B0797F0020737E0020890001EB401000F116
S315000045C084400260704730B5002A446BDFF83451EE
S315000045D01ABF1022DFF83031DFF8303123400024D3
S315000045E0A84237D1DFF8280151B101290CD00229A0
S315000045F01ED003290CD0062915D0812918D023E016
S3150000460001680468006816E001680468006802E052
S31500004610416844684068090C01F4FE41C4F3034450
S315000046202143000C0CE08168806801F00F0107E06F
S3150000463041684468406801F4FE4104F00F042143D8
S3150000464000F0F00040EA010404FA02F0DFF8C410BA
S315000046501843086030BD38B504460D460220A060F8
S315000046600022A9782046FFF7AEFF287969786B7992
S31500004670020242EA016242EA0342EB7842EAC302DC
S31500004680EB790BB142F000522B7A0BB142F00402E7
S31500004690AB790BB142F002026B7A0BB142F0010228
S315000046A0AB78F32806D1180004D10429BCBF042036
S315000046B060F31B6218064CBF42F0E00042EA43106A
S315000046C02061154960690840A9780A0644BF21F0AF
S315000046D080010843297840EA4140E97A09B140F46B
S315000046E0804060610221AA7A2046FFF765FF28799B
S315000046F0F32804F13000BDE838400CBF0122002247
S31500004700102159E700200040FFFF00800080FFFFD6
S315000047101082E00F34200040F8BFE1FF38B50446B0
S315000047200D46104600F0D1F800202070A847BDE8DD
S31500004730314000F0D8B800224B494C48EEE7002241
S315000047404B494C48EAE770B5044616460D463046D6
S3150000475000F0C0F8002020703046A847BDE8704041
S3150000476000F0C1B8012244494448ECE7012244491B
S315000047704448E8E7012244494448E4E780B501207B
S3150000478000F0E1F9424800F076F94249087001BDAF
S3150000479080B500F0E9F9012805D03E480078BDE86B
S315000047A0024000F050B901BD30B5002400E0641CA1
S315000047B0394D2D88E3B2AB420FD2E4B20C25374B0C
S315000047C015FB04F52B441D78854201BF5D888D429B
S315000047D01D799542EBD1184630BD002030BD80B51D
S315000047E019B900F0AFF8002002BDB1F1004F02D2B6
S315000047F000F0B2F8F7E7022002BDB1F5000F3CBFAA
S315000048000902FFF7ECBF0220704770B504461D464B
S31500004810FFF7CAFF06000ED0204600F0A6FC50B1F6
S31500004820B0682946FFF7DBFF28B904987071059830
S31500004830B071002070BD022070BD1CB500931346F8
S31500004840049C0194012205E01CB500931346049CC8
S3150000485001940022FFF7D9FF16BD80B5002300930F
S31500004860FFF7F2FF02BD00004D4E01000067002079
S31500004870D5DC0000086700204B810200E8660020B6
S315000048805D830200F066002023DB0100F86600204D
S31500004890740203007A7F0020946300202C5C0020C1
S315000048A080B5FFF781FF20B18068002101700020EC
S315000048B002BD022002BD0122F2E70022F0E700005D
S315000048C00C490D4808600020704700B17020704701
S315000048D00020704780B500F013F8FF2801D1A3200F
S315000048E002BD002002BD00207047704700BF03488C
S315000048F00078704728720020E855030060670020A2
S3150000490080B500F03DFCFF2818BF002002BD002145
S3150000491001707047007800B101207047FFF75FBF54
S31500004920FFF76BBF38B54478456800F033FE00F0FA
S315000049309CF85B1BB3F1004F98BF5550BDE8324061
S3150000494000F02EBE10B500F07BF8606004202070E9
S315000049502046BDE81040E5E738B504460D4600F0B0
S3150000496034FE28186060012020702046BDE83240E1
S31500004970D8E710B50446207801000CD0042806D0EC
S3150000498000F023FE6168421AB2F1004F01D8002000
S3150000499010BD081A10BD4FF0FF3010BD70B500F005
S315000049A04FF8054600F0F6FD064660686FF00041D8
S315000049B000F02CF8401920603046BDE8704000F049
S315000049C0EFBDF8B504460D46164600F0FEFD002183
S315000049D056B1FF22327007E0121AAA4202D21546D9
S315000049E006B13170491C083422680AB92846F2BD5E
S315000049F013781F00F6D0042B04D05268831AB3F143
S31500004A00004FE9D806B131700020F2BD0022D8E788
S31500004A1038B500F015F805460EE001780A000AD010
S31500004A20042904D04168691AB1F1004F03D8042162
S31500004A30017061688847083420680028EDD131BDCF
S31500004A40044600F0C2BD10B5FFF7FAFF00F00DF8FE
S31500004A50C01AB0F1004F07D854186068FFF7D8FFA6
S31500004A602046BDE8104099E710BD0C2111FB04F16A
S31500004A70364A5358704770B5354E3649097804465C
S31500004A807078884204D3E5210FF2CC0000F000FED6
S31500004A907578681C70700C212C4811FB05F10844D0
S31500004AA001214460017200E04D7054F8081B002992
S31500004AB0FAD1FFF773FF284670BDF8B54FF0FF3106
S31500004AC00C2400916043214D214E2844002101729F
S31500004AD0307820B300F0D2FE28B94FF48F710FF270
S31500004AE0780000F0D5FD00F070FD002105E0009B88
S31500004AF09A4288BF1A460092491C7378CAB29A42F3
S31500004B0011D2C9B214FB01F3EA58871AB7F1004F64
S31500004B1005D92B44121A1B7A0BB9002AE7D100F0EB
S31500004B20BAFE0020F2BD684600F0CFFE10B9684616
S31500004B3000F067FD0120F2BD0C23044A58431044DF
S31500004B400121017270470249087070477C7000208D
S31500004B50717E0020325603006576656E742D636F94
S31500004B606E74726F6C2E63000248007870470149BC
S31500004B7008707047857F0020DFF8DC09DFF8DC1954
S31500004B80007882B08DF80300DFF8D4090088ADF80C
S31500004B900600DFF8D0090088ADF8040000208DF883
S31500004BA00200ADF80000012008709DF80310DFF840
S31500004BB0B8099DF801200170BDF806104180BDF8C6
S31500004BC0041081809DF802108171DFF8A01901EBB5
S31500004BD0C20181609DF80010017302B0012141738A
S31500004BE07047DFF8780900787047DFF87C1901EB29
S31500004BF00010407B00F001007047412818BF422892
S31500004C0003D0432818BF442801D101207047002053
S31500004C107047412818BF422801D101207047002063
S31500004C207047432818BF442801D10120704700204F
S31500004C307047F8B51546069A04461E4600F038FA3F
S31500004C4060B1042100F025FC070007D02046FFF7DD
S31500004C5041FE324629462046B84790E0F1BD2DE98F
S31500004C60F04383B00446160098461EBF0A9F002FE5
S31500004C705FEA08000D461DD0387871880007307944
S31500004C804CBF4022802200F013FA98B1082100F0B0
S31500004C9000FC814670B13079FFF71CFE0B9801903D
S31500004CA000974346324629462046C847BDE8F743A3
S31500004CB0FFF719BEBDE8F783F8B5164605461A464E
S31500004CC000F0F6F9D8B1069C21000BD1022100F0C4
S31500004CD0E0FB040013D02846FFF7FCFD31462846CA
S31500004CE0A0470BE0102100F0D4FB070007D02846B0
S31500004CF0FFF7F0FD224631462846B8473FE0F1BDB2
S31500004D00F8B5154604461A4600F0D2F908B98620C9
S31500004D10F2BD0699002689B9202100F0BAFB0700EA
S31500004D200CD02046FFF7D6FD0998089B079A0090FD
S31500004D3029462046B8470646FFF7D5FD3046F2BD60
S31500004D40F8B50446A5682078FFF7C4FD002612E0F2
S31500004D502868F6B2142111FB06F147182078398825
S31500004D6000F0BCFD0121384600F093FB01001CBF9A
S31500004D7020788847761C2979F0B28842E8D3BDE8C6
S31500004D80F140FFF7B0BD70B50024DFF8DC57DFF85F
S31500004D90CC6708E0FFF729FF20B1E4B205EB041069
S31500004DA0FFF7CEFF641C3178E0B28842F2D370BDC3
S31500004DB010B586B000248DF80800ADF80A108DF8FD
S31500004DC00C30ADF80E200194009400230898ADF83D
S31500004DD01000002201A902A800F057F8019806B0B9
S31500004DE010BD10B5002301E0001D5B1C9CB28C4277
S31500004DF004D204889442F7D1408810BD002010BD2B
S31500004E000288B2F57C4FA8BF00F00BB8DFF8600748
S31500004E10081A0C2190FBF1F082B20021DFF854074A
S31500004E20DFE7DFF85417401A142190FBF1F082B245
S31500004E300221DFF84807D4E710B50C4601886388DD
S31500004E4099420DD1027B23791A4209D0B1F57C4FE4
S31500004E5004DBFFF7E6FF2189884201D1012010BD5E
S31500004E60002010BD10B514460A88E3889A420AD17C
S31500004E700288B2F57C4F04DAFFF7C2FF2189884227
S31500004E8001D1012010BD002010BD2DE9F74F0446C9
S31500004E909B460025002603E0C0884519ADB2761C66
S31500004EA0DFF8B8160978F0B2884280F0D080F6B202
S31500004EB03101DFF8B406DFF8B0260844515C2278E9
S31500004EC080689142E8D100903046FFF78EFE0028B8
S31500004ED0E5D04FF0000A05E0B8F80A004519ADB272
S31500004EE00AF1010A009909795FFA8AF08842D6D256
S31500004EF000985FFA8AFA0068142111FB0AF100EBA8
S31500004F00010821464046FFF797FF0028E4D04FF0FE
S31500004F10000908E038793021084202D1F8782D18C6
S31500004F20ADB209F10109B8F808101FFA89F08842F4
S31500004F30D6D2D8F804001FFA89F90C2101FB09F131
S31500004F404718224639464046FFF78CFF0028E1D035
S31500004F50019800B107603879800611D5DFF8100690
S31500004F60002106E00279920602D5C278891889B234
S31500004F700C30B842F6D3DFF8080600EB010A03E06E
S31500004F80DFF8000600EB050A0C9D280018D0029EEB
S31500004F9000F060F802463B8861882078DFF8E895E3
S31500004FA000F09AFCE8B13879C0061CD500F052F83A
S31500004FB00346029800903A4661882078C84747E041
S31500004FC00298002844D05646824600F043F802462E
S31500004FD03B8861882078DFF8B49500F07BFC0028D8
S31500004FE0E1D17E2034E097F80280BBF1000F0CBFC0
S31500004FF0FC785C464046FFF70CFE30B1621ED2B22A
S315000050003146504601F043F81FE04046FFF709FEDF
S3150000501030B1A21E92B23146504601F050F814E06B
S315000050203DB9BBF1000F04D0F878834538BF89201D
S315000050300ED3002E224604D10021504601F057F926
S3150000504003E03146504601F00FF9002000E08620CB
S31500005050BDE8FE8F39464046D2E660B5002503E03E
S315000050601E7B360616D46D1C0679EBB2B34213D2FC
S315000050700368EDB2142616FB05F633441E888E42ED
S31500005080F1D1160006D0802AEAD0402AEBD11E7B49
S315000050907606E8D5184660BD002060BD80B50022C2
S315000050A001E080B5402200F003F800B1012002BD06
S315000050B038B50C46154600F063F8FF2801D10020EC
S315000050C032BD04E038B50C46154600F05BF8DFF853
S315000050D0983403EB00102A4680682146BDE8384024
S315000050E0BBE74022FFE72DE9F04780468946924616
S315000050F0FFF7DEFF002508B9FF2019E00026DFF8DC
S315000051006874DFF8584400E0761C2178F0B28842D3
S315000051100DD2F6B23001385C404508D052464946B9
S31500005120FFF7D0FF0028EFD06D1CEDB2ECE7284664
S31500005130BDE8F08730B50022DFF82C3400E0521CC1
S31500005140DFF818542D78D4B2AC420CD2D2B2140186
S315000051501D5D8542F3D10D0003D01C44647BE4073A
S31500005160EDD5104630BDFF2030BD80B50021FFF7DC
S31500005170E1FFFF2801D1002002BDBDE8024034E571
S315000051800121D7E70021D5E7DFF8DC130001085C31
S31500005190704738B50C46FFF7F3FF01460020FF299C
S315000051A01FBFDFF8C42302EB01118968002916D05E
S315000051B0002203E01B0648BF2846521C0D79D3B2D5
S315000051C0AB420BD20B68D2B2142515FB02F52B4469
S315000051D0451C1B7B002CEDD05B06ECE7C0B232BD54
S315000051E0F8B50C461546FFF7CBFF01460022FF290E
S315000051F01ED0002301E0521C5B1CDFF86C0300EBA1
S315000052000110DEB280680779BE4211D20068DBB2B7
S31500005210142616FB03F630442F00067B02D07606D2
S3150000522002D4E9E73606E7D5D6B2A642E3D1F2BD07
S315000052300020F2BD002109E010B50446012100F06E
S3150000524005F82046BDE8104001F089B82DE9F34F76
S3150000525087B001F036F906900024C048DFF80883CD
S31500005260007805909DF81C00019000E0641C0599EB
S31500005270E4B28C427BDA0199FF2907D09DF81C0025
S31500005280FFF77EFF0446FF2C06D177E008EB0410FB
S315000052900699007B8842E9D14FF0000A4FEA0419CB
S315000052A001E00AF1010A08EB09005FFA8AF1806859
S315000052B00279914257D200685FFA8AFA142111FBEB
S315000052C00AF145182889B0F5967FC8BF01F0DBF9C9
S315000052D0002613E00120009000235A46002102A870
S315000052E0FFF7D3FD9DF8200038B1BDF80A2018F865
S315000052F009103B46584600F089F8761C2989B0B259
S315000053008842CED26868B6B20C2171434718387904
S31500005310C006F2D418F809008DF808003946288826
S31500005320ADF80A00387940064CBF802040208DF841
S315000053300C003888ADF80E002846FFF761FDADF881
S3150000534010003979F878490706D5D7F808B0032848
S31500005350C0DBDBF800B0BDE70328B4BF07F1080BDC
S31500005360D7F808B0B6E70198FF283FF47FAF9DF85D
S31500005370200018B99DF81C0000F003F809B0BDE83C
S31500005380F08F30B583B0044601F09BF80546012046
S31500005390FFF7B6FA012C03D0FF2C08BFA8422DD187
S315000053A001237F22202100F02AF81020009001AB73
S315000053B000220621012001F0BCF901237F222121D0
S315000053C000F01DF82020009001AB002200F01AF832
S315000053D001237F22222100F012F81820009001AB51
S315000053E00F2200F00FF801237F22232100F007F897
S315000053F02020009001AB112200F004F837BD01A86F
S3150000540001F0BFBC0821012001F093B9F8B51D4693
S315000054100446287980070E46174635D50122002115
S31500005420684600F064FF04B96C46012E2CD1062FA5
S3150000543008D1288840BB2879400625D400F025F8F5
S3150000544020201FE0082F1FD1288838B92879400668
S315000054501AD400F01AF8212001F0A4FC28880F289D
S3150000546007D12879400604D400F00FF8222001F075
S3150000547099FC2888112807D12879400604D400F021
S3150000548004F8232001F08EFCF1BD012322467F2182
S31500005490704730B5047B012200230C4205D1002061
S315000054A030BD144218BF5B1C5200D5B28D42F8D3F2
S315000054B00069DBB250F8230030BD2DE9F04F0C46F1
S315000054C001210028607D4FF0000C08D0050008BFC0
S315000054D04FF0020E09D0012805D18E4605E010B91D
S315000054E04FF0080E01E04FF0040E09980A9DDDF812
S315000054F02C90DDF830A0E046254F07EB880637886C
S3150000550097421FD1F77817EA0E0F1BD0B7784F4591
S3150000551018D396F803B0E77B5FEACB6B01D50FB9DA
S3150000552010E07FB9E24501D0844501DB00210EE0A1
S31500005530B77803F80C700CF101062F887F1C2F80BA
S315000055401FFA86FC08F10108B8F1310FD4DB0846D2
S31500005550BDE8F08F000000002E5603007C7F00207F
S31500005560A2510300BA51030060670020680A0300D5
S3150000557090070300780A0300A0090300700A0300DD
S31500005580B867002070670020FB580000F75800003D
S31500005590CC060300EFF31180602181F31188704778
S315000055A080F311887047000080B501F0ACFD01F072
S315000055B0B7FD80B202BD80B501F0A5FD01F0B0FDDA
S315000055C0FA21B0FBF1F080B202BD80B501F09BFD7F
S315000055D0BDE8044001F0A4BD80B501F0C2FE184844
S315000055E000214160001D01F01DFC20B139210FF2A0
S315000055F0880000F04DF8002002BD11490120087016
S31500005600704770B5044682B02268002502B91BE0D7
S3150000561000F00DF801201BE070B50C4682B0226840
S31500005620002502B910E000F002F8022010E0044E56
S31500005630044B357000950021706801F066BC0000CF
S31500005640A4780020FB55000000F025F9002076BD67
S3150000565001F0D0FF307828B97068214601F00DFDC1
S31500005660852501E025603570284676BD0146002275
S315000056700020D1E700F008B873797374656D2D7456
S31500005680696D65722E6300007047000042DE704748
S3150000569038B504460D4602F0EBFA00F0F4FF03F0CD
S315000056A059F92946204603F07EF92B4622466949D8
S315000056B0012003F015FB29462046BDE83440E5E706
S315000056C065482DE9F047654D01682E1D4FF42068A9
S315000056D07165016AB16562490A68F26549683166B1
S315000056E0416A7166816AB166C16AF166016B3167AA
S315000056F0806B706796F8340040074CBFF46BB46B50
S3150000570003F09FFB0022F2648442564A014624BFFE
S31500005710A2F1200AA2452746316505F19003DFF87C
S3150000572048C1DFF848E118D3A0693064E4697464BD
S31500005730746DC4F30804062C13D1704511D360456B
S315000057400FD200884DF64264A0420AD130685860F4
S3150000575040F201787068986003E000273764776448
S3150000576007464348814202D2014600E0091D084629
S31500005770904203D20C68B4F1CD3FF7D03D49081AE8
S31500005780B0640021002005EB8004401C0628E16778
S31500005790F9D3002003E0C0B205EB8004E16797422D
S315000057A023D252F8041D7145F9D36145F7D2CC07CF
S315000057B0F5D5002405EB8409D9F87C90894502D0FB
S315000057C0641C062CF6D3062CE9D1002814BF401E13
S315000057D00520E0E7B16F002405EB8402641CD2F8D3
S315000057E08070D767052CF7D319600146481EC9B2E9
S315000057F00029EFD1706DC0F30800032810D00428EB
S3150000580011D0052812D0062813D00C2817D012283C
S3150000581018D119480068800719D540F2025816E0D9
S3150000582040F6012813E040F6022810E040F603286F
S315000058300DE0B8F5206F0AD140F6042807E040F6DF
S31500005840052804E018B1322838BF40F6072840463C
S31500005850BDE8F0870C06030004ED00E00000002020
S3150000586000E300E0585A002002F00200B4440000B1
S315000058709C000020585A00201C200540EFF31080A1
S31500005880C00706D4EFF3118060288041C043C00FE3
S31500005890704701207047002080F3118870477047D9
S315000058A0704770477047704770477047704770473A
S315000058B070470020704770477047704770477047C1
S315000058C07047704770470020704700207047704748
S315000058D00120704701207047012070477047002063
S315000058E07047002070470020704700207047002056
S315000058F07047002070470120704701207047B5208F
S315000059007047002070470020704700207047002035
S31500005910704700207047704700207047B5207047D9
S31500005920704700207047704700207047B5207047C9
S3150000593070470020704770477047704770470020D7
S315000059407047704770B50C4615461E4601000CBFE1
S315000059500D4A0E4A03460E49012003F0C2FA3246AA
S315000059600C49012003F0BDFA2B462246BDE87040E3
S315000059700949012003F0B5BA0848006800780128F3
S3150000598008BF022070470000B0100300C0100300DB
S3150000599088100300C8100300E010030028720020DE
S315000059A000207047012181814FF6FE71C1810121DE
S315000059B00161002101700120704770470020704787
S315000059C00020704700207047002070470020704775
S315000059D00020704700207047002070477047B520B0
S315000059E070470020704700207047002070477047BE
S315000059F070477047704700207047B5207047704762
S31500005A0070477047002070477047000080B5FFF769
S31500005A10B7FBFF2804D018B9DFF89C07007802BD51
S31500005A20002002BD00B583B00221009101AB002227
S31500005A30032100F0B8FE20B9BDF8040010B1012022
S31500005A4000E00020C0B20EBDF0B5059D002600277F
S31500005A50092D044602D300200021F0BDB4460FE014
S31500005A605FFA8CFCA5EB0C0020443F0210F8010CF9
S31500005A7047EA1667002110EB06264F410CF1010C90
S31500005A805FFA8CF0A842EBD39F4206D828BF964215
S31500005A9003D2901B63EB0701F0BDB01A67EB03015D
S31500005AA0F0BD10B50168DFF814270B8813804B880A
S31500005AB05380497911710168097951714FF48A51FE
S31500005AC0D18001688979890644BF4FF48B51D18012
S31500005AD0DFF8EC1683690A783BB9C088DFF8E4364C
S31500005AE0188002F0FD00087010BD42F002020A7034
S31500005AF016228169DFF8D046204600F0B5FB00206B
S31500005B00207010BD80B50020FEF7DFFEFF20FFF7F6
S31500005B1091FBFEF7E8FEFFF764F802460121DFF885
S31500005B20980600F0E4FBDFF89436DFF8A026DFF8ED
S31500005B30A006522103F092FAFEF720FE03F0D1FBF5
S31500005B4003F033FD03F076FE03F0CEFF04F0A4F875
S31500005B50BDE80140FFF717B9704780B504F0C4FDF2
S31500005B6020B906F0FAF808B904F0FBFAFFF736FF99
S31500005B70BDE80140FFF744BF10B500224FF6FF71A4
S31500005B80DFF8503600E0521C92B233F832408C42B5
S31500005B9003D08442F7D1104610BD084610BD38B573
S31500005BA00446FFF7E9FFDFF8305601464FF6FF726D
S31500005BB02888914203D12246DFF8201606E0DFF856
S31500005BC0142602EBC1014A68DFF8141603F08FF9B8
S31500005BD02888BDE8324003F07AB910B50446DFF8EC
S31500005BE004060078002882B03BD006F053F902463E
S31500005BF0DFF8F415022003F07AF920684188009155
S31500005C004379A289DFF8E415022003F070F9022037
S31500005C1003F03AF918B120684088FFF7C0FFE07B2F
S31500005C2028B1228ADFF8C815022003F060F9E07C6B
S31500005C30DFF8C0150090A0680278A37C022003F06C
S31500005C4056F9207DA1890A1AA1680144012392B25E
S31500005C50022006F041F9BDE81C40A4A1022003F091
S31500005C6040B913BD10B5044620684079FFF788FA9D
S31500005C70FF281DD0DFF88015227F01EB0010017B85
S31500005C80914215D1226840881188884206D04FF685
S31500005C90FF7399420CD1B0F5004F09DA207902283A
S31500005CA018BF032806D11189507906F05BFB08B9A5
S31500005CB0002010BDA07B0028204603D0BDE8104080
S31500005CC006F07CBBBDE8104006F0B0BB30B514460C
S31500005CD083B01A4623785B074CBF052303239A42F9
S31500005CE00AD200931346DFF81425DFF814150220B4
S31500005CF003F0F7F800203EBD089D2860297106983C
S31500005D00E880AC60AA81207800F00100A8732078B2
S31500005D10800800F00100E8732078C00800F0010058
S31500005D20687501202875E87B30B10121204606F010
S31500005D309CFE297D891C29752882287D411C297590
S31500005D40205CA874481C2875C9B2605CE874079882
S31500005D50A86100F0B6FB287701203EBD2DE9FE4381
S31500005D600F46DFF8A014DFF8A054DFF8A08491EC0A
S31500005D70080B85EC080B0B9E0295019600240A99E8
S31500005D8000913946FFF7A2FF002866D0C8F80050F8
S31500005D90A87CDFF87C1408702846FFF71EFF28460B
S31500005DA0FFF77FFE284600F0DBFA20BB2EBB042F50
S31500005DB018BF052F03D0022F18BF032F01D10122D0
S31500005DC000E00022E98828680191418800910121BC
S31500005DD00388E87C00F011F990B128688079800684
S31500005DE00ED4DFF83044012020700121284600F04F
S31500005DF002F90020207001242FE0307D80072CD589
S31500005E0028684079FF2824D10027DFF8B063FEF721
S31500005E10E8FEF9B2814220D2F8B2FFF7B5F9814621
S31500005E20F8B2FEF7E2FE90B1286841884846FFF7CF
S31500005E3035F960B12846FFF734FE286880F80590EA
S31500005E4086F804902846FFF70DFF00B101247F1C59
S31500005E50DDE72846FFF706FF044606F083FD162217
S31500005E600021DFF8640300F042FA0020C8F80000C1
S31500005E702046BDE8FE83DFF8A0030178491C0170C7
S31500005E8001F07F007047DFF838130A78002814BF46
S31500005E9042F0010002F0FE0008707047DFF87C1344
S31500005EA00870704778B1DFF874130978012903D1B7
S31500005EB0018841F0400105E0022904D101884FF62E
S31500005EC0BF7211400180704778B1DFF854130A7829
S31500005ED0012A04D1DFF84C2312780A7001E0022A65
S31500005EE003D1017841F01001017070475D00000098
S31500005EF0F0B5B34D04462878C00783B001D500201D
S31500005F00FEBDB34EAD4F3046FFF7DEFFB81DFFF7BF
S31500005F10C9FFBF483178007849074CBFF0707070F0
S31500005F20AA4801882878800708D53246A648FFF790
S31500005F30F5FC297801F0FD012970FEBDA148008815
S31500005F404FF6FC72904208DA0B4601460194009621
S31500005F503A46002006F0FDFEFEBD0A460094334692
S31500005F60394606F0E0FEFEBD0020C1E70A460146BE
S31500005F70A648006801E00021F8E770B504460E4621
S31500005F802079010018BF012815460BD1A0680078BA
S31500005F90C00601D5300005D0A07B002804BFE07CF8
S31500005FA00B2801D1002070BD884900200880607D43
S31500005FB0E17B00280CBF0820002011B906F0E9FC9F
S31500005FC006E040F0040006F0E4FC208A06F0F0FC4F
S31500005FD0A07C06F0DEFC0B2006F0DBFCE07C06F085
S31500005FE0D8FC304606F0D5FC2046FFF75AFD284679
S31500005FF0BDE870407CE70022BFE770B5044618464E
S31500006000894B844D1B78012B01D02E7816B10020C8
S31500006010287070BD82F001020A4301D1002070BDD4
S315000060202BB10A4604992346FFF759FC00B101201B
S3150000603070BD000038B5D2885224950648BF492461
S31500006040550544BF083CE4B2150544BF083CE4B21C
S31500006050120444BFA41EE4B203284FF6FD7310D801
S31500006060DFE800F00204080D0B460AE0C8B207F0AC
S3150000607050F902E0C8B207F07EFB034601E0641E59
S31500006080E4B21846FFF748FC201AC0B232BDB0B5DC
S3150000609004460D000EBF00202878FF28174601D1C0
S315000060A02070B0BD284606F005FD874288BF07462A
S315000060B03A46691C601C00F0D7F82770B0BDB0B531
S315000060C00D000446174603D1002060702070B0BD55
S315000060D02878FF2802BF6878FF2820700CD0284651
S315000060E006F0EDFC874288BF07463A46A91CA01C6D
S315000060F000F0BAF82770380A6070B0BDF0B5541ECB
S31500006100002B37D0052A48DA0025002600230CE0AC
S31500006110571EFF1AFF000CFA07FC4CEA050511F89A
S315000061200EC00CFA07F73E435B1CDFB2974209D25A
S31500006130DBB2A4EB030E00280CBF4FF0000C10F8E6
S315000061400EC0E5E7042A0FDAD0000121D200401E76
S315000061509140494245FA00F2D20748BF0D4346FA3C
S3150000616000F2D00748BF0E43AE420FDBB54214DA49
S3150000617010E05B1CDDB295420FD2DBB2E51A0028B7
S315000061800CBF0026465D4D5DB54201DA0120F0BD2B
S31500006190AE42EEDA4FF0FF30F0BD0020F0BD002138
S315000061A0224A01E0891CC9B2535C8342FAD35018D3
S315000061B04078704700000000D07F0020C8710020A2
S315000061C0D57F0020567F0020A4760020587F00202F
S315000061D0D47100203C4D0300607F0020A44C0300D6
S315000061E0BC4C0300BA630020C44C0300CC4C030033
S315000061F0EC4C0300F84C030060670020344D0300AC
S31500006200184D0300944D030080760020A0760020F0
S31500006210DF630020D17F0020E0630020D27F0020D2
S31500006220D37F0020D47F0020DE630020B44D03001E
S31500006230283808288041C00F704740B11C280CD070
S315000062401D280DD01E2818BF1F2806D00AE0A1F170
S315000062500B00102806D2002070471B29FBDB01E04B
S315000062600829F8DB8A207047814233D21044114452
S31500006270401E491E10E011F8013900F80139121FBD
S3150000628011F8013900F8013911F8013900F801391E
S3150000629011F8013900F8013992B2042AEBDA93B207
S315000062A0002B1EBF11F8013900F80139521EF6D134
S315000062B0704711F8013B00F8013B121F11F8013B32
S315000062C000F8013B11F8013B00F8013B11F8013BD6
S315000062D000F8013B92B2042AEBDA93B2002B1EBF00
S315000062E011F8013B00F8013B521EF6D1704713002E
S315000062F003D00A46194607F0E3BB704710B500E025
S31500006300521E93B223B100F012F8F9D0181B10BD3B
S31500006310002010BD10B500E0521E93B22BB100F064
S3150000632006F8F9D0181B40B210BD002010BD10F8B9
S31500006330013B11F8014BA342704780B5FFF7F0FA15
S31500006340FFF7E0FBBDE8014007F0EEBB80B5FFF7C5
S31500006350EAFAFFF701FCBDE8014007F095BC70477B
S31500006360FFF730BBFFF734BB0020704738B5044653
S315000063700D46FFF749FB29462046BDE8344007F0A5
S315000063802ABDFFF727BBFFF730BB000010B57448E6
S31500006390744C00682060606048220021FFF7A7FF68
S315000063A071482168007808704FF6FF712068002256
S315000063B0418002730020226850730B20226890737C
S315000063C014202268D0734FF6FE7220680282418242
S315000063D007F04AFD2168087607F046FD21684876F1
S315000063E007F042FD21688876604821680078C87603
S315000063F05F492068096840F8281F5E4909780171DD
S315000064005D4821680068086310BD10B501F05DFAAB
S31500006410544C6168897B884203D0084601F004FA2F
S3150000642050B901F056FA0146606890F90F008142B2
S3150000643004D001F05DFA08B1012010BD6068008A41
S3150000644001F0ACFE6068408A01F0C6FE6068007B21
S31500006450012818BF002001F08DFE002010BD10B5E8
S31500006460464C0020207008F09FF920B92046BDE870
S315000064701040FEF767BA67E080B5002000F015F817
S3150000648028B1002000F005F808B1002002BDFF2069
S3150000649002BD34480068407B02281CBF11284328EF
S315000064A001D101207047002070472E480068007B0C
S315000064B001281CBF0228032801D1012070470020B3
S315000064C0704700207047002070472D4908707047BC
S315000064D070470020704701207047704700207047C2
S315000064E000207047704770470020704780B5002035
S315000064F0FFF7CFFF18B1BDE802400020D5E702BD87
S3150000650080B50020FFF7C5FF30B116480068007B54
S31500006510032801DA002002BDFF2002BD10B50400E9
S3150000652005D040F249110FF20C10FFF7B1F81448EC
S31500006530007808B9702010BD09480068482111FB91
S3150000654004F1084407494860BDE810405DE7054886
S315000065504068008A704703484068408A70470000D8
S315000065608C5E002044770020CF630020D06300209B
S31500006570905E0020C7630020945E00203C770020D8
S31500006580E36300207047002070470020704707F043
S31500006590F0BE704708F022BC08F0E9BA82B08DF868
S315000065A00010DDE9002311461A4602B0FFF786B94E
S315000065B032B586B004468DF8042005F071FB054619
S315000065C0204605F07BFB80F001010D420DD0BDF8A1
S315000065D0180005F046FC8DF80000FF2804BF0020D7
S315000065E08DF80000CDF808D01AE0294308BF06A8A8
S315000065F015D0054214D0BDF8180005F032FC8DF810
S315000066000000FF2804BF00208DF800009DF8000060
S315000066108DF80C00BDF81800ADF80E0003A8029026
S31500006620DDE901010A4601462046FFF747F907B0B2
S3150000663030BD0000656D6265722D6D756C74692DD7
S315000066406E6574776F726B2D737475622E630000BE
S3150000665008F0C6BB80B50121154808F067FC042187
S31500006660072008F0CFFF13481349144A016004219C
S315000066701160022141620421114A1160816A41F0D0
S315000066800201816201BD0B4809F00CB8A52800D0B3
S31500006690704780B500F005F810B10A49002008607F
S315000066A001BD0448006810F0010018BF01207047C2
S315000066B000050800002005400108030080E200E014
S315000066C000E100E00000A4422DE9F04786B00F9FEC
S315000066D0109D0E9C0295019706468A46904699465D
S315000066E00094FFF7F5F818B1022803D002D310E0A2
S315000066F001200EE00CBF0120002000210491039030
S315000067000295019700944B4642465146304600F0AA
S31500006710F2F906B0BDE8F08710B586B000240494FF
S3150000672001240394099C0294089C0194002400947B
S3150000673018E010B586B000F002F8402312E00024FD
S3150000674004940193012403940023089C009302946B
S31500006750704710B586B000F009F84023099C0294F2
S31500006760089C019400F0C7F906B010BD00240494FB
S31500006770009301240394704710B586B00124049455
S31500006780002403940A9C0294099C0194089C00949A
S31500006790E8E71FB5089C0394079C0294069C0194A5
S315000067A0002400940CE01FB500F002F8402307E037
S315000067B00024019303940023069C009302947047DF
S315000067C000F063FA04B010BD2DE9FE4F92461D4657
S315000067D0064688462A46FEF76BFC002407000C98FE
S315000067E08DF80060A346D946ADF802808DF80450B6
S315000067F0ADF806A0ADF8080047D069463846FEF762
S315000068001BFB002841D0DDF83880002505E006F0A6
S31500006810C0F8641C09F101096D1C3989A8B28842C7
S315000068202BD27868ADB20C21694346183888B0F58A
S315000068307C4F09DA3088ADF806006A46314638469C
S31500006840FEF710FB0028E7D03088504538BF0BF123
S31500006850010BDFD39DF83420A1B29142DAD206F0C3
S31500006860A7F8B07806F095F85FEA0800D1D030793D
S31500006870C0074CBF07200520C9E71FFA8BF111FAA4
S3150000688084F01FFA89F1884201D1012000E000203E
S31500006890BDE8FE8F2DE9F04F8DB00025DFF8388476
S315000068A000E06D1CFEF79DF9E9B2814280F0AD80F3
S315000068B0EDB24FEA0519DFF8241418F8092000F0A4
S315000068C0D4F9DFF81C1400F0CDF94FF0000A01E00E
S315000068D00AF1010A08EB09005FFA8AF18068027979
S315000068E09142DED200685FFA8AFA142111FB0AF19E
S315000068F04418002617E0FA78012392B204A904206E
S3150000690005F0EAFA2088FFF737F94FF6FF7188425B
S3150000691008D0DFF8D01301EBC000DFF8CC134268D3
S3150000692000F0A3F9761C2189B0B28842D0D2606803
S31500006930B6B20C2171434718FFF7A5FE3879DFF888
S31500006940AC134006388800904CBFDFF8A433DFF85C
S31500006950A4332288042002F0CAFA39462046FEF7FC
S315000069604FFA834628B9DFF89013042002F0BFFAE5
S3150000697004E05A465BA1042002F0B9FA387981078F
S3150000698048BFDFF8781305D4C1064CBFDFF8701393
S31500006990DFF87013C00754BF53A054A001910090B4
S315000069A0FB78BA78DFF86013042002F0A0FA387991
S315000069B0CDF800B040064CBF802340230020039052
S315000069C02120029004A801903A88218818F809002D
S315000069D000F05BF9862804D1DFF8301300F042F9A5
S315000069E0A0E7B878FEF715F920B104A806F062F81A
S315000069F0421C81E7B878FEF714F900283FF47BAF14
S31500006A0004A806F05CF8821C76E70DB0BDE8F08FAE
S31500006A102DE9F0438FB08146179C052C8846174612
S31500006A201E4651DB169DDFF8E81202950196009787
S31500006A3043464A4600F05CF804A8039000952120DE
S31500006A400290334605A801903A464146484600F072
S31500006A501CF905003BD19DF81000412818BF4228BB
S31500006A6004D105A806F026F8451C0BE0432818BFFC
S31500006A70442804D105A806F022F8851C02E008F097
S31500006A801DFE0546EDB2281D84421DDB384605F085
S31500006A908FFF002005F07DFF9DF810009D4C05F04E
S31500006AA078FF20882918522908DA9B4B2A4605A91F
S31500006AB01844FFF7D9FB20882818208000953B460C
S31500006AC04246964900F014F80FB0BDE8F083384608
S31500006AD005F06EFF284605F05CFF00953B464246F2
S31500006AE08F49EFE725327800524F000052570000D9
S31500006AF0042002F0F6B92DE9F04F89B08146002056
S31500006B00049000900E46129C174698468DF81490F5
S31500006B10ADF816608DF81880ADF81A70ADF81C4007
S31500006B200023002204A905A8FEF7AFF904987D4AC0
S31500006B3038B9019700964B467B49FFF7D9FF862067
S31500006B408DE0159898B904999DF850008978884287
S31500006B5004D0764900F089F88D2080E00498007909
S31500006B60C00704D4724900F080F8882077E00498C2
S31500006B700079139D400726D50498806840680290E6
S31500006B80049880688068019004988078FFF750FB2D
S31500006B9082460498C0788DF80000032853460246C2
S31500006BA029462ADA02A8FFF7A9FA83469DF80020AB
S31500006BB05346294601A8FFF7A1FABBF1010F18BFFA
S31500006BC010F1010F28D01698002844D100F050F893
S31500006BD0FEF7F4FE010042D100F04AF8FEF790F805
S31500006BE001003CD10120009000232A46002105A87F
S31500006BF0FEF74BF9010011D031E00298FFF77EFA5B
S31500006C00012809D09DF80020019853462946FFF730
S31500006C1075FA10F1010FD6D1872020E0049B324689
S31500006C2049462846FEF7F2FB0295009443469DF836
S31500006C30500001903A463146484603F09FFA00F06C
S31500006C4017F8FEF7BAFE009443463A4631464846E0
S31500006C50FEF732F802E0374900F004F8002009B0E8
S31500006C60BDE8F08F042002F03CB9042002F039B9E7
S31500006C70039543460498C078029000943A469DF8DE
S31500006C805000019031464846704710B586B0002442
S31500006C908DF808008DF80C30ADF80E20ADF80A100E
S31500006CA00194009401A908980A9B099AADF810006E
S31500006CB002A8FEF7EAF8040005D10B9840B1019945
S31500006CC08978017004E0892C02D11B49FFF7CAFFBD
S31500006CD0204606B010BD000060670020840A03004D
S31500006CE0900A03003C4D03007C0A0300D00A03000F
S31500006CF0E40A0300EC0A0300F40A0300140B030081
S31500006D001C0B0300240B0300FC0A03002C0B0300DE
S31500006D10380B0300587F0020D4710020900B03002D
S31500006D206C0B0300E40B0300BC0B0300F00B030029
S31500006D30040C0300180C0300380C030010B5DFF830
S31500006D40C4400120207082B0002008F0C7FC38B192
S31500006D50002008F0C3FC18B100202070492016BDA1
S31500006D6002237F220021684600F00BF8BDF80000E0
S31500006D70B0F57F7F03D000202070072016BD0020CD
S31500006D8016BD10B5FF2908DCDFF87840247844B139
S31500006D90BDE81040C9B209F0BBB8BDE8104009F023
S31500006DA09FBE10BD2DE9F0410446FF2C0D46164648
S31500006DB0984617DCDFF84C000078C8B1DFF84C7055
S31500006DC0387820B18421DFF84000FEF761FC01200D
S31500006DD0387043462A463146E0B209F0EDFB002002
S31500006DE0387005E042463146BDE8F04109F09ABEEA
S31500006DF0BDE8F081DFF80C100978002918BF09F00A
S31500006E0033BD7047CB7F0020744B0300CC7F00203E
S31500006E10012100F01F029140DFF8DC24400942F80E
S31500006E202010704770B50546FEF7B4FB0026002417
S31500006E302821DFF8C82401FB06F313449B7F13B116
S31500006E40761C042EF7DB042E08BFDFF8B44408D006
S31500006E502DB17143114401238B772E6001E0DFF8D9
S31500006E60A444FEF79DFB204670BD10B5DFF89804DC
S31500006E70017809B1002010BD01210170DFF88C04F2
S31500006E80DFF88C4408F052F80321DFF8880408F094
S31500006E9091F9032020710121DFF87C0408F046F8FF
S31500006EA0204609F0B2FEDFF87414DFF874440120BE
S31500006EB009F094FEE069C00AC002E06140F2FF708A
S31500006EC0A061002020601D20FFF7A2FFDFF8541408
S31500006ED04FF000500860A021E06940F00100E06139
S31500006EE0DFF8180409F0B2FEDFF83C140020087041
S31500006EF0DFF838140870DFF838140860DFF8341447
S31500006F000860DFF83414086010BD2DE9FE4F054611
S31500006F10042D8B46144699464FF0000828BFDFF82B
S31500006F2020040ED2FEF736FB02902821DFF8CC03B0
S31500006F3069434618B07F28B90298FEF731FBDFF89F
S31500006F40040488E00C9F34B9B9F1000F02D0394629
S31500006F502846C8477BE0610CE003DFF8C453D5F848
S31500006F6000A0C6F8189000F078F8C6E90201BBF157
S31500006F70010F0ED14FF47A726243CDE90028024622
S31500006F80F420A0FB0249DDE90001001B30617A20F4
S31500006F907061D6E90201401C61F1FF31C6E90001CA
S31500006FA00120307786F81FB03762DFF87C0300785F
S31500006FB000284CD1DFF87873386810F1010F02D041
S31500006FC03868401C3860DFF86443DFF87C9320782B
S31500006FD0A8B9C9F800A00420A8616FF06402D6E938
S31500006FE00001414501D8904200D310465044E86460
S31500006FF0E86940F00400E8610120207022E038686A
S3150000700001281FD186F81C8000F0D7F8AAEB0000F3
S3150000701000F0DAF800F02CF9B8F1000F04BF0120F7
S315000070203077504600F034F9D5F800A0E86C2178A6
S3150000703008F1010831B1D9F80010401AAAEB010194
S315000070408842E1D3386810B13868401E386002982B
S31500007050FEF7A6FA0020BDE8FE8F10F57A6041F132
S3150000706000014FF4FA52002309F0F4BD2822DFF89C
S315000070708C12624311448A7F70472DE9F041044621
S31500007080042C0E4628BFDFF8B8023AD20EB99D4846
S3150000709037E0FEF77FFAFFF7E9FF22B9FEF780FA3D
S315000070A0DFF8A0022DE00A7F22B9FEF779FADFF8B1
S315000070B09C0226E0D1E9004899490F68A2490D686B
S315000070C0FEF76EFA781B0021884504D8844238BF43
S315000070D04FF4804010D3221A68EB0103DB0043EA29
S315000070E05273D2004FF47A74A4FB020104FB03111D
S315000070F010F5804041F10001C00B40EA414030608C
S315000071000020BDE8F08170B58A4E002334688448BB
S31500007110026830688442F9D1981844EB030170BDC7
S3150000712030B54FF4FA5200F004F8C00B40EA414083
S3150000713030BDA2FB004502FB015514F5804045F128
S31500007140000170472DE9F047FEF724FA744D824698
S31500007150E869296900EA010626F00500A8617007BA
S315000071601ED5714FDFF8C481DFF8DC91012038703D
S315000071702C6800F022F8201A00F026F800F078F8C3
S31500007180204600F085F82C68E86C98F8001029B1C4
S31500007190D9F80010401A611A8842EAD300203870E4
S315000071A0F00705D50120A86162480168491C016005
S315000071B05046BDE8F047FEF7F3B9E86920F0040051
S315000071C0E861D9F8000070472DE9F043002604462F
S315000071D000252821494871434718387F7D770028C4
S315000071E041D0D7E900018D4207D828BF844204D296
S315000071F0001BA941C7E9000135E0F87F08B93877D7
S315000072002DE0D7E90001D7E90223201AD7E9028940
S3150000721065EB010109F01EFDB8EB020069EB030105
S31500007220C7E90001386939690128786909DB081856
S31500007230F428786113D3D7E90001401C61F1FF31CE
S3150000724008E0401AF428786109D3D7E90001401E06
S3150000725061F10001C7E900017869F4387861B8691D
S3150000726008B101207877761C042EB2DBBDE8F083E6
S3150000727010B500242821214861434218507F18B1D7
S31500007280116A926920469047641C042CF2DB10BDFB
S31500007290F0B54FF0FF3213460021184C28254D4318
S315000072A06619367F46B12544D5E900679F4203D863
S315000072B02EBF964232463B46491C0429EEDB00218E
S315000072C04FF0FF34A34208BFA24212D08B426FF0A8
S315000072D0640401D8A24200D322461B49174B08601A
S315000072E004211960101858630121586840F0040001
S315000072F058600E480170F0BD80E200E0C8650020CD
S31500007300011000F0041000F0C27F00200005080004
S315000073104061002005002000800912004C61002019
S315000073200820044000E100E0C07F0020C17F00206B
S31500007330AC730020B0730020B473002020200440FA
S31500007340021000F0031000F0A8730020051000F0F2
S31500007350012100F01F029140514A400942F82010D5
S31500007360704730B54F48504D0FC887B003AC84E81E
S315000073700F0068460021002200230EC002208DF86F
S315000073800600012149484A4C07F0D0FD4FF6FF7030
S31500007390E0616A460021204609F02EFD00208DF8A6
S315000073A00E0003A9204609F0DBFC424807F0EEFD7B
S315000073B09DF80E1001228A40491C8DF80E10B0FB74
S315000073C0F2F0C9B20B29286002D23B498842E8D2C2
S315000073D03A4807F0DBFD3A492A68B1FBF0F3394831
S315000073E00021E3FB0201384A002309F033FC374948
S315000073F00860002036490870A06920F01000A061DE
S315000074000A20FFF7A5FF33494FF48060086007B0F4
S31500007410002030BD38B500F01BF804460D4605E0E7
S315000074204FF6E85000F02AF800F00CF800218D42E3
S315000074304FF6E950F4D88442F2D2A0B200F01EF81A
S31500007440002032BD24484FF0FF3124184D417047CB
S3150000745015491C4A09680023E0FB0123104619461A
S31500007460194A002309F0F6BB1C480168C90604D571
S31500007470102181600120164908707047010081B013
S315000074800BD017490A6892B20B68ADF80030BDF808
S3150000749000309B1A9BB28342F6D301B070470000BE
S315000074A080E200E0084C0300787600200002040029
S315000074B0008001404041050081841E00500002000A
S315000074C000B0710B20A1070040420F007C7600201F
S315000074D0CF7F002000E100E01802FFFF0C80014092
S315000074E0248001403E480168090C090481603B483C
S315000074F0016070473B4A410952F8212000F01F0005
S31500007500C240D20706D5384A52F82110C14001F0D0
S3150000751001007047002070470000000070B5064665
S31500007520072808BF032602D0082808BF0226FFF74F
S31500007530B8F830B1012E04D1A520FFF7A7F8012431
S3150000754000E0002409F0AEFC002080F3118809F069
S315000075509EFE214D761E0020042E286016D8DFE8F8
S3150000756006F0030A0A0E12002048016821F0040101
S31500007570016030BF0EE001200AF04DF90AE001205B
S315000075800AF05AF906E00AF086F903E0AF21184836
S31500007590FEF77EF81248C1680068084086B22E6081
S315000075A00920FFF7A7FF18B91120FFF7A3FF10B1B5
S315000075B046F4803028601D20FFF79CFF18B128682C
S315000075C040F4003028600CB1FFF744F809F078FE6B
S315000075D0BDE870400AF0C2BAB8750020BC7500203C
S315000075E01CA4004000E200E000E100E010ED00E035
S315000075F0C046030092E7000010B54C00014600F0BB
S315000076005EFD22460AF0C5FAA04201D0002010BD58
S31500007610012010BD80B500F052FD0AF014FB00B148
S315000076200120C0B202BDDFF8A00A407D00B10120F2
S315000076307047DFF8942A117B01B9704780B501467F
S31500007640106A0AF056FB20B1BDE8044040F24F1123
S3150000765000E301BD10B5DFF8704A627D010018BF76
S31500007660012102B101229142607519D068B16FF013
S315000076707F00FFF7DEFF0AF0B3FBC00510D5206AD6
S31500007680BDE8104001210AF0A5BCDFF8784A94F95C
S315000076900C0000F014FE207ABDE8104000F034BD66
S315000076A010BDDFF8241A497D01F0FE010843D1E739
S315000076B080B500F004FD0AF065FA00F00300032827
S315000076C001D1012002BD002002BD80B5B0F5004FFA
S315000076D007D100F021FEDFF8980A00F0D9FCBDF8CA
S315000076E00000DFF8201AC883002002BD2DE9F04F04
S315000076F0440900F01F050027DFF89C8A00E07F1C84
S3150000770098F80660F8B2B04245D2D8F80800FFB241
S3150000771050F827004FF0000C01E00CF1010CC67E7A
S315000077205FFA8CFEB645EAD2D0F81CE05FFA8CFC14
S31500007730182616FB0CF6B6449EF8086006F00706F7
S31500007740A642EAD19EF80960B542E6DB9EF801B092
S315000077509EF8009006EB0B0AAAEB090AAA45DCDBA9
S31500007760DFF8704A247854B1DFF85C49A47B34B959
S31500007770DEF80C401CB12468EC40E4070BD511B1CF
S31500007780AC1B4C440C7012B19EF8081011701BB162
S31500007790C3F800E000E00020BDE8F08F400918BF04
S315000077A040F01800704710B5DFF81C49206A0AF04F
S315000077B04AFA0246206ABDE8104000210AF05FBA84
S315000077C00B38102834BFDFF8D40ADFF8480B0068FE
S315000077D070473EB568460021002200230EC0DFF840
S315000077E0240901788DF80010817A0A0018BF022951
S315000077F014D10079DFF8D05800F0BBF8044600F049
S315000078000EF858B1286A012200210AF0BDF900F0ED
S3150000781006F818B140F2792100F068FB37BD286AF6
S315000078206A4621460AF0D8B92DE9F041044604F02B
S315000078301F001B2886B034D2002000906B46002221
S3150000784000212046FFF752FF07002AD02046FFF707
S31500007850B7FF5FEA000824D0DFF86C68DFF8445A07
S31500007860F06B804515D001A8414606220AF0B8FB08
S31500007870306AC6F83C8001A90AF09DFA88B9306AD8
S3150000788003A90AF0A6FAB5F91C10306A0AF06EFAD6
S3150000789038B90098B06277620098002818BF00696E
S315000078A001E08A200EE0F06229798C421CBF2C711F
S315000078B0FFF78FFF96F90D00C101306A09B20AF091
S315000078C07FFD002006B0BDE8F081DFF8D809007919
S315000078D07047DFF8D009B0F91C00002854BF052115
S315000078E06FF0040108180A2190FBF1F040B27047CE
S315000078F00A2110FB01F0FFE7F8B500F5D77240F258
S3150000790077239A4201D38B20F2BDDFF8BC47DFF81C
S315000079109459A26A0A23002A1EBFAE7F06F0C0064B
S31500007920802E12D0A67B86B992F9026016FB03F769
S31500007930B842B8BF16FB03F007DB92F9032012FB2F
S3150000794003F68642B8BF12FB03F0217B61B1014604
S31500007950206A0AF00BFA18B14FF4367100F0C6FA35
S31500007960206A0AF016FA01E010FB03F0A883002053
S31500007970F2BD38B50446FFF723FF90B1002300227D
S3150000798000212046FFF7B2FE58B104F01F051B2D5B
S3150000799007D22046FFF702FF18B90B2D01DB284658
S315000079A032BDFF2032BD0FF208014008085C704767
S315000079B0F0A050007047C0B2704710F1590F01DABD
S315000079C00020704710F1240F01DBFF2070475A306A
S315000079D00002362190FBF1F0C0B2704770B5DFF8B7
S315000079E0E846DFF8A05A00202064687828B10AF03B
S315000079F0EBFC012818BF032801D1002070BDE16A05
S31500007A00DFF8843ADFF89C2800291FBFA66A76694A
S31500007A10002E022817D12364906900F5FA70906150
S31500007A20E07C18B100200021642203E0E87829797F
S31500007A304FF4A0722070A2806170A878A070802098
S31500007A40E080002030E0DFF8445A9069AE4213D15E
S31500007A50DFF83C3A236400F57A709061E07C88B9DF
S31500007A600879207001228B7808799A40101891F9CC
S31500007A7003201018401E0CE0236400F5FA70906194
S31500007A80E07C18B100202080642005E04878207052
S31500007A908878607008780001A0804879A07008890D
S31500007AA00001E080C8880001A06000F03BFCE070A7
S31500007AB094F90200010048BF4042C0B270BD70B5E3
S31500007AC00446DFF80466257896F9140008B18C2080
S31500007AD070BDFFF783FFB075DFF8A829DFF8C4078C
S31500007AE041780174690101F5807181619379716C46
S31500007AF0002BB37B1DBFAD1EEDB221F0020141F09C
S31500007B00020173B9127862B16278920609D56FF0F4
S31500007B100102327541F00101826902F50872826143
S31500007B2004E049084FF0FF304900307571640320C6
S31500007B3000F006F96A1C306A4FF4807392B221464F
S31500007B400AF06BFC691C884203DA40F2294100F016
S31500007B50CDF9002070BD0000F8B5DFF86C5595F939
S31500007B6014100024091D04290FD8DFE801F0080EBF
S31500007B7010100300FFF7A3FF040008D0F2BD2C7518
S31500007B80286A0AF005F88D20F2BD8C20F2BD0AF0B5
S31500007B90BEF9E8B1286CDFF8F018884218D1A87D44
S31500007BA0B0B1DFF8E80A0068002811D5DFF8E00A6E
S31500007BB0C168C1600122006800F00F0002FA00F0FF
S31500007BC0401E014204D100F0E5FB64200AF043FCAC
S31500007BD0FDF7E0FC064695F9140010F1010F1CBFF5
S31500007BE095F9140010F1020F29D195F91400DFF868
S31500007BF0B47640422875FDF7D7FC7862296C38794F
S31500007C0049B9FFF7B6FE01466A6C286A07F1100308
S31500007C1009F0D1FF0BE0FFF7ACFE07F11001009170
S31500007C2001466A6C286AD5F840C02B46E04760B129
S31500007C30002028758C244FF0FF30786202E0002087
S31500007C4028758D24286A09F0A3FF3046FDF7A8FCA5
S31500007C502046F2BDDFF8800AFDF71ABD2046BDE8D2
S31500007C601040FDF79DBCDFF83C06C08B7047000056
S31500007C70F8B5FDF78FFCDFF88C540446A87A012886
S31500007C8003D12046FDF78CFCF1BDDFF8501ADFF872
S31500007C903864DFF8447A402008600122306A012106
S31500007CA009F072FFDFF8381A4FF4001008606946D1
S31500007CB00FF2880000680090306A0AF075FB20B168
S31500007CC040F2D7413846FDF7E3FC02208DF800006C
S31500007CD06946306A0AF045FB20B140F2D941384680
S31500007CE0FDF7D6FC306A09F064FF002100200AF097
S31500007CF0AAF800F03FFB0120A87296F91400001DB7
S31500007D00072810D8DFE800F0140F0707040B0B0B49
S31500007D100AF072FD0CE06FF00300307508E0892070
S31500007D2000F06EFB04E040F2FB413846FDF7B0FC84
S31500007D302046FDF735FC0AF029FEF1BD04010000DE
S31500007D402DE9F04DDFF8BC530446A87AA04282B074
S31500007D5063D00FF2CC01DFF88C690968DFF8788907
S31500007D60DFF86473DFF878A9009103284FF4001B4D
S31500007D704FD8DFE800F047023E2B0AF010FE386AC3
S31500007D8069460AF011FB18B14FF4A36100F04AF8F6
S31500007D9002208DF800006946386A0AF0E2FA18B146
S31500007DA040F21A5100F03EF86879002814BF00220C
S31500007DB00222386A02210AF047FE18B140F21F512A
S31500007DC000F030F80320032CA87218D0CAF800B0CF
S31500007DD00220A8722879FFF7CCFD0146386A0022F6
S31500007DE009F0FAFE18B140F22F5100F01BF8022CF0
S31500007DF013D0002C18BF032C0FD10020A872C6F890
S31500007E0000B00AE0022C08D1CAF800B00220A8721D
S31500007E1003E040F2455100F005F8BDE8F38D00009F
S31500007E20040200004046FDF733BC002088E7DFF877
S31500007E30BC0A807A70470000032805D8DFE800F006
S31500007E400302030314E77BE740F2635102E780B5C0
S31500007E5000F00EF804D500210175006A09F098FEBD
S31500007E60A848407A012802D1BDE8014000E701BDDB
S31500007E70DFF87C0A90F9141000297047DFF86C0AC5
S31500007E80407A704780B5032801DB012002BD9D4979
S31500007E904872897A884218BFFFF7CEFF002002BDDC
S31500007EA02DE97C4FDFF8486A03EA010BD6E906891B
S31500007EB029EA010528EA000402EA000A45EA0B0558
S31500007EC044EA0A044D4508BF44450DD0CDE90023D8
S31500007ED00246306A0B460AF069FA18B140F28B5135
S31500007EE000F004F8C6E90645BDE8738F0FF63020AA
S31500007EF0FDF7CEBB38B5744D0446287BE8B12000AB
S31500007F0018BFDFF8F02904D1A87C08B1402200E0B0
S31500007F1000220023DFF8DC090021FFF7C1FF002C57
S31500007F2014BF08220022286A08210AF08DFD20B11C
S31500007F30BDE8344040F2C7518CE631BDF8B5044681
S31500007F40022C0FF6DC1503DB4FF4BE6100F0A5F83A
S31500007F505D4E307B002840F097806A4FB87A012842
S31500007F6003D040F2F65100F098F8002107F13000F6
S31500007F7009F0F6FD306218B940F2F95100F08DF8BB
S31500007F80306A05210AF0A9F818B140F2FB5100F059
S31500007F9084F8306A0FF69C110AF068FD18B140F2B9
S31500007FA0FC5100F07AF8306A0AF094FD18B140F2FC
S31500007FB0FD5100F072F84FF0FF30DFF83C29062340
S31500007FC00146FFF76DFF306A4FF0011109F069FEB7
S31500007FD018B140F2126100F060F8306A4FF4803256
S31500007FE0002109F04CFE306A09224FF0FF310AF0F9
S31500007FF02BFD18B140F2196100F04FF801203073E3
S315000080000223DFF8F80800F043F8BDF80000C005C9
S315000080104CBF0020BDF80000707309F078FFFFF731
S3150000802069FFF88BFFF751FB0AF0D4FD00F08CF8DE
S315000080303879FFF7F9FB18B140F22C6100F02DF802
S31500008040F87900F043F8387A00F05EF8307C00F0FA
S3150000805091F8787900F0D4F800F064F900F02FF97F
S31500008060B07C00F025FBB7F91C00FFF745FC388C07
S3150000807000F094F8788C00F0AFF8B87900F014F9B5
S31500008080601E8041C00FB8722046FFF7D5FEF1BDD5
S3150000809001887F22684608F023BD2846FDF7F8BA16
S315000080A080B500F00CF8012109F099FD10F5007F6C
S315000080B002D16FF07F0002BD8005001602BDDFF819
S315000080C03008006A704700006866002010B5044654
S315000080D0DFF81C08017B51B1611E8941006AC90F96
S315000080E00AF04AFD18B140F26761FFF7FFFE200073
S315000080F0DFF8F81718BF0120C87110BDDFF8EC07CC
S31500008100C079704798610020F8B50446FDF742FA39
S3150000811005466448DFF8D8670472377BFFF783FAB1
S3150000812000F0010080F00100074204D0306A84F0BC
S31500008130010109F04FFF2846BDE8F240FDF730BACD
S31500008140DFF8A807007A7047DFF8A407017B01B9BA
S31500008150704780B5006ADFF8A81700220AF0F9FC1C
S3150000816020B1BDE8044040F2926173E501BD000014
S31500008170F8550300DFF87827117B107401B97047B2
S3150000818080B50146106A0AF0EBFC20B1BDE8044058
S3150000819040F29D615EE501BDD05103004149DFF823
S315000081A050370884197B01B9704780B50146186AB3
S315000081B000220AF0C7FC20B1BDE8044040F2AE61DF
S315000081C048E501BDDFF82407008C7047DFF81C077F
S315000081D0408C7047E76300203249DFF81437488443
S315000081E0197B01B9704780B50146186A00220AF06A
S315000081F0A2FC20B1BDE8044040F2C4612AE501BDFD
S3150000820028494A79824200D1704710B58C7A487164
S31500008210012C05D0FFF72CFD2046BDE810408FE568
S3150000822010BD10B500F032F800F02BF80146206AB8
S31500008230012209F0C9FC20B1BDE8104040F2E66118
S3150000824008E510BD80B5FFF73AFF09F0C0FC18B18C
S3150000825040F2EB61FFF74AFEBDE80140FFF7B9BA0D
S3150000826010B500F013F800F00CF80146206A002261
S3150000827009F0AAFC20B1BDE8104040F2F661E9E43D
S3150000828010BDDFF868060079FFF773BBDFF86046BC
S31500008290206A0122012109F077BC0000B8600020A5
S315000082A0D0E700009861002010B50446FFF707FFED
S315000082B021460AF09BFCDFF83406847110BD38B500
S315000082C004467F2C0CD100F027F8DFF83806FFF7BC
S315000082D0DFFEBDF800007E24C00558BFBDF8004093
S315000082E0FDF758F90546FFF79EF960B960B27E289A
S315000082F005D1DFF8FC15896A09B191F904007E28D9
S31500008300B8BFFFF796F9DFF8E40504732846FDF7D2
S3150000831047F931BDBC6000204FF6FF70ADF8000094
S3150000832002237047DFF8C40590F90C007E2807D1B8
S31500008330DFF8BC05806A08B97F20704790F9040011
S31500008340704710B509F04CFD800411D5DFF89C4547
S315000083504FF0FF30A06209F043FDC0044CBF03207C
S315000083600120002109F092FDFDF71EF9E06210BD23
S31500008370BDE8104080B5DFF874054FF0FF3181622B
S31500008380C162FFF795F920B9BDE80440002109F064
S315000083907DBD01BD80B509F023FD4005BDE8044063
S315000083A04CBF03200120002109F04DBD10B5DFF8B8
S315000083B0404594F9140003280DD100F024F9DFF8A4
S315000083C02C154FF0FF3048620022216BBDE81040AB
S315000083D040200AF08CB810BD38B50446FFF7CAFF36
S315000083E0DFF80C55FDF7F1F8686314B10AF005F8EB
S315000083F001E000206874BDE831400AF0FDB90000D4
S3150000840038B50446DFF8E414DFF8E4544FF0FF30E3
S315000084104862FDF7DAF8686395F91400012802DA74
S31500008420BDE83140A6E7A87D08B1686BA86300F0F7
S3150000843071FAA87B10B10120E87331BD2046BDE872
S315000084403840002200210AF052B810B509F05FFD4D
S3150000845078B1FFF72DF960B1DFF890444FF0FF30A7
S31500008460E062FDF7A1F8A06209F038FD002109F0ED
S315000084700DFDDFF87C04807C18B1BDE8104000F0EB
S3150000848068BA10BD64610020BD1B01005089000060
S31500008490C31B01002DE9F043DFF854440FF2804975
S315000084A0206A89B005AA022109F0BAFF050003D1A6
S315000084B040F6F40100F0A4F89DF81400DFF82C64EF
S315000084C0BDF8168007281CBF7079002819D1B8F1AD
S315000084D0060F16DB08F108008B2812D20020009048
S315000084E04346DFF82474206A3A46294609F0A0FF7D
S315000084F0404503D040F60D1100F082F838780006AA
S3150000850002D5FFF71EFF78E001208DF80800CDF8B0
S3150000851004806A46206A294609F086FF18B140F6AB
S31500008520241100F06DF8787800F0070002281ED1BB
S31500008530FFF720FF94F91400032808BFB8F1060FCF
S3150000854011D19DF80D0070B17878000900F0010591
S3150000855000F059F84FF0FF3070622A4600218F2054
S3150000856009F0C5FF49E0F079002846D105E09DF8FD
S315000085700D0010B10020FFF719FFF0799DF80D10DE
S31500008580084203D040F64C1100F03AF8F07930B1C9
S315000085907878800603D5206A09F01FFD18B1FFF729
S315000085A0E9FE002060743878401C404503D040F650
S315000085B0661100F025F807EB080530792870FDF7FD
S315000085C08FFF68709DF80E00A87095F90200FFF7FE
S315000085D0F4F9E87008F10801FF202871C9B2009883
S315000085E0000C68710098000AA8710098E871384676
S315000085F0627C0AF0BCF80020607409B0BDE8F08324
S315000086004846FDF745B800202075206A09F0C0BA33
S315000086100FF21430FDF73CB838B50446002C0D4671
S3150000862007D4FCF7C1FF011B89B28D428041C00F00
S3150000863032BD002032BD10B5DFF8B042606A4FF49B
S315000086407A71FFF7E9FF60B1DFF8A40290F9140030
S31500008650032803D10020FFF7A9FE02E08920FFF7D7
S31500008660CFFEA06A0A21FFF7D7FF08B1FFF782FE07
S3150000867009F0B6FB00F0FF01E06AFFF7CDFF10B18D
S31500008680BDE8104076E610BD00000000044008403A
S315000086904C50084010B540B909F0B0FEFCF77AFF1F
S315000086A00446FFF7C8FFFFF7D9BABDE81040C2E796
S315000086B038B58F4D0446287B60B1200002D109F001
S315000086C026FC08B1402200E00022002340200021C1
S315000086D0FFF7E6FBAC7431BD208900000840084076
S315000086E018600846186008442DE9F047814614468C
S315000086F0600688B0984648BF002002D4200602D5FE
S315000087000120FFF7A2FEA003794D25D5002068744D
S31500008710694648460AF045FAF0B99DF8080002286D
S315000087200ED1BDF800000AF065FAFF280ED0774991
S31500008730096831F810004FF4E461084206D10BE0F5
S31500008740032809D168460AF0C8FA28B1286A0AF04F
S3150000875025FA08B901206874600410D509F0D7FB22
S3150000876068B1FEF7A5FF50B109F0C5FB064609F052
S31500008770B5FB864203D00021304609F087FB20076F
S3150000878044BF4846FFF786FEE00548BFFFF7D9FD20
S315000087904FF41850044218BFFFF7ECFDE00244BF47
S315000087A00120FFF719FE600244BF0120FFF714FE07
S315000087B0E00144BF0020FFF70FFE95F914000FF209
S315000087C0601A012864DB286A484E21034FF0FF3700
S315000087D030D595F9141001295ADB95F9141003299F
S315000087E056DA00218DF8181001218DF8141003A90E
S315000087F009F0F2FA03982863FCF7E7FE6863A87DA0
S3150000880008B1686BA86395F91400012804D0022802
S315000088100AD1032028753BE000F07CF87762A87B3C
S31500008820A8B9296B002218E040F61D015046FCF756
S315000088302FFF2DE014F0845F12D00021297509F076
S31500008840A7F9042009F0DBFD7762A87B10B10120AF
S31500008850E8731DE0002200218D2009F048FE17E094
S31500008860A00248BF892002D4A00103D58820FFF7C3
S31500008870C7FD0DE0600048BFFFF78CFDA00007D5DF
S3150000888023480068400403D40021002009F0DBFAE5
S31500008890A00744BF4846FFF789FD002C04D5FFF723
S315000088A069FD4846FFF782FD08F002010023994260
S315000088B012D0484609F062F9022802D0032802D0F5
S315000088C005E0892000E08D20FFF79AFD04E040F6E0
S315000088D088015046FCF7DCFE08F0040100239942AB
S315000088E018BF0AF0DDFB08B0BDE8F08798610020EC
S315000088F068660020406700600A00FA93FA55030094
S3150000890090770020FC550300FC770020745E002061
S315000089100440084000202875286A09F039B900008B
S315000089207068792E630000006C69627261696C2E52
S315000089306100000000000000010060030101010168
S315000089406400B6006400C000000000000B000000D8
S3150000895000007047602080F31188704770B50AF0F8
S31500008960CEFCA94C20460BF07FF8D8B920460BF078
S3150000897031F8FF28044615D0A4490968085C851E0D
S31500008980E9B220460AF0BBFF0646E9B220460AF0E5
S31500008990C9FE2146304600F0E5F82046BDE87040A5
S315000089A00AF060BD70BD03460A4696A10420FFE7A3
S315000089B00CB480B502AA00F02AF801BC5DF80CFBE5
S315000089C000B587B00AF008F8002105910491024627
S315000089D061210391002300210291019101208C491C
S315000089E000910FF23C21FFF7E3FF8A488179C378B3
S315000089F08278039101880291417901910179009170
S31500008A0042200FF22821FFF7D3FF07B000BD2DE962
S31500008A10F04F85B005460C4690460BF048F8002608
S31500008A20F8B90AF0F5FBE0B101200AF0B0FC824685
S31500008A30BAF1FF0F15D000210AF0A4FC294601A8BF
S31500008A400AF0ECFB05469CB900F087F830B95046B1
S31500008A500AF04CFC10B104200BF025F850460AF041
S31500008A6001FD05B0BDE8F08F8DF804200125641CDA
S31500008A7020780100E8D0A0F130010A2905D20A21A8
S31500008A8001FB0600A0F13006F1E700F066F80028C9
S31500008A90E4D122780025422A01A80ED0442A1AD011
S31500008AA0462A25D0572A0DD0622A3AD0662A2AD0DD
S31500008AB06C2A25D0702A26D0D6E758F8040B8DF8F4
S31500008AC00400D3E758F8041B8DF8041002250904A6
S31500008AD0090E4170CBE758F8041B8DF804100A0AFA
S31500008AE0427004250A0C8270080E8DF80700BEE756
S31500008AF058F8041B50460AF0C7FD0028B7D0ADE76A
S31500008B0058F8046BB3E7012358F8041B662A08BF1C
S31500008B100223F2B250460AF096FD002808BF00264E
S31500008B20ECE73A4858F8047B006810F80A90FFB260
S31500008B30FF2F9CD010F807B00BEB0901C9B25046C5
S31500008B400AF0F0FD002889D1CDF800B000233A469E
S31500008B50494650460AF0F5FE89E72A4601A95046DD
S31500008B600AF090BD2DE9F043122885B080460D46E7
S31500008B7009D03A281FD04FF6FE71884204BF284616
S31500008B80FCF793FE36E02148234F0068465D0BE074
S31500008B9028460AF0F1FB01462246002008F0A6FB13
S31500008BA03868455D203EF6B2FF2D23D0212EACBF9E
S31500008BB020243446ECE703F0D0F88146FFF706FBA5
S31500008BC00646FEF786FE0746FEF77FFE0446FFF7DB
S31500008BD0F9FA02460E480FF25C010390CDF81090A8
S31500008BE023460E48006840880290019600973B2075
S31500008BF0FFF7DEFE2946404605B0BDE8F0430AF021
S31500008C0058BF000057460000EC620020605E00205E
S31500008C1090770020A4510300685E0020447700206E
S31500008C204242387042424242574242004242424227
S31500008C305742000057424257573870420000000022
S31500008C402DE9F0410125012818BF202894B00446DB
S31500008C500F4690461E4623D10AA82749242209F02A
S31500008C60CFF968460AA9242209F0CAF91020012C76
S31500008C7018BF202CADF82400ADF8260008D0022C31
S31500008C8018BF212C04D0032C1CBF222C232C14D15A
S31500008C90012E0197ADF80C8004D14FF4805005E009
S31500008CA001200BE0022E03D14FF44050ADF80A002C
S31500008CB06946204608F03DFB0546E8B214B0BDE81B
S31500008CC0F08180B508F0D8FBC0B202BD80B508F0CF
S31500008CD047FCC0B202BD80B508F0D4FCC0B202BDEC
S31500008CE00CB480B50A46014602AB04480AF023FFDD
S31500008CF002BC00205DF80CFB144603000F160100B1
S31500008D0070470000890001EB401000F184400260CA
S31500008D107047000010B50446FFF71CFE4A484AF6A5
S31500008D20E8510160C162016B01F00F01022913D104
S31500008D30464A01211160806B00F00300012818BF2C
S31500008D40022809D100221C214148FFF7DBFF00223F
S31500008D5000214048FFF7D6FF200A00283E4808BFFA
S31500008D6024024FF20F0104804180BFF35F8FBFF3EF
S31500008D704F8F3A483A4A016801F4E06111430160B5
S31500008D80BFF34F8F00BFFDE780B5002000F009F864
S31500008D9030B9BDE80440E3210FF2D800FCF778BCF7
S31500008DA001BD2DE9F0422F4C216842428D1815F085
S31500008DB01F0108D0002802D44842054403E0484277
S31500008DC0284400F120052848A5F12006A84224BF22
S31500008DD02648864203D3EFF30880854201D300205C
S31500008DE02DE0FCF7D7FB81462148006810F001070B
S31500008DF018BF0AF0EAFF206801468D4206D2A84253
S31500008E0024BFCD2100F80119F9D206E0203800224E
S31500008E1001E000F8012B8842FBD3256030460AF0BA
S31500008E20DBFFE22001E006F8010BAE42FBD30FB1F7
S31500008E300AF0A8FF4846FCF7B3FB20682038BDE8D7
S31500008E40F08208480068704708300E4040400840ED
S31500008E5060300E4074300E40000000200CED00E043
S31500008E600400FA05F0620020F8500020D01000201F
S31500008E7094ED00E06D6963726F2D696E7465726EB4
S31500008E80616C2E63000000004FF6FF71884207D028
S31500008E90010A01D0002070471B490978084000D01C
S31500008EA001207047F8B504460D4616461F46FFF7E3
S31500008EB0EBFF58B13A46314620200AF053FF1DB168
S31500008EC010A120200AF046FF10480480F1BD80B5AD
S31500008ED0FFF7DAFF20B1BDE802402020FFF7FBBE16
S31500008EE001BD0CB480B50A4602AB012104E00CB406
S31500008EF080B50A4602AB0021FFF7D4FF01BC5DF83E
S31500008F000CFB00000D0A0000DD630020607F0020DE
S31500008F102DE9F74F032904461D4602DB280006D03B
S31500008F200529C0F2968042F004008DF8080002A8D8
S31500008F30FCF7CAFF9DF8080020700126280003D020
S31500008F40280A6570A0700326FCF795FFA055711CD2
S31500008F500C9889B24D1C60540026DDF838A006E056
S31500008F60424649466019FDF77FF94544761C0D983F
S31500008F70F6B2805D01006ED0002774284FF0000B1A
S31500008F80B9463ADA4C285AF8049B1CBF5328622883
S31500008F9015D15AF8048B4C2808D11FFA88F8C34615
S31500008FA04FF6FF7083453AD0022738E0532836D172
S31500008FB05FFA88FBBBF1FF0F31D001272FE06C2849
S31500008FC005D1484603F07BFD00F1020827E073282F
S31500008FD005D1484603F06EFD00F101081FE0A0F13F
S31500008FE030010A2938BFA0F1300818D3A0F1410199
S31500008FF007292ED2A0F1370811E07528C84608BF08
S3150000900001270AD0762808BF022706D0782808BF8D
S31500009010032702D077281CD104275AF804BB1FFA6D
S3150000902088F8BDF8040018FA85F1C919884206DAED
S315000090300FE004F805B06D1C4FEA1B2B7F1EF9B23A
S315000090400029ADB2F5D1B8F1000F8FD0B9F1000FFC
S3150000905086D1002000E0A8B2BDE8FE8F10B52C4CEA
S3150000906020602C4801802C4802602C48036010BD0B
S315000090703EB50C4607A90291009313460699019145
S31500009080024607E03EB500920C4606A9024602914A
S31500009090019300231F4801881D480068FFF738FF29
S315000090A005461D48006805804FF48A511B48006834
S315000090B04480C180801DFCF7F5FE28463EBD034670
S315000090C0134802681448006801881448006803F0D1
S315000090D06CBE0020F3E70E4802680F48006801885E
S315000090E00E48006803F0E6BD00B583B00192084A59
S315000090F012680092084A12681388084A126803F038
S3150000910028FE0EBD0022EFE7044800687047000005
S31500009110A06C0020727A0020A46C0020A86C0020AD
S3150000912000EB0110C266704730B57049704D87B0CC
S315000091301CC968461CC06F480FC803AC84E80F0002
S315000091400BF027F84FF6FF71884208BF4FF47A708C
S31500009150694C6A49B1FBF0F020800121684805F0AE
S31500009160E5FE00F066F800F059F840F0090000F05E
S315000091705CF86A46012100F05EF8286B40F00200B8
S3150000918000F04FF840F410606863012100F04FF8DA
S315000091906A46022100F04FF8286B40F0040000F008
S315000091A040F840F480206863022100F040F800F0A7
S315000091B02FF801215348544D05F0B8FE00F039F858
S315000091C000F02CF840F00F0000F02FF86A4601215D
S315000091D000F031F8286B40F0020000F022F840F46D
S315000091E0B0506863012100F022F86A46022100F0BF
S315000091F022F8286B40F0040000F013F840F46020D9
S315000092006863022100F013F800F002F807B030BDE1
S315000092102088E86103A9284607F0A2BD286B40F024
S31500009220010028630022686B7047686300212846A6
S3150000923076E76A460021284607F0DEBD80B50121A3
S31500009240324805F073FE002304220E2101200BF0A4
S3150000925009F8002304220F2101200BF003F8002354
S3150000926004220B2101200AF0FDFF002304220A211B
S3150000927002200AF0F7FF002304220F2103200AF040
S31500009280F1FF002304220B2102200AF0EBFFFFF777
S315000092904BFF0BF0EDF8BDE8014000F0ACBC164802
S315000092A00088704726207047491E02460529104B44
S315000092B0154811D8DFE801F0030A0C0E0507002156
S315000092C002E0012100E00221184604E0002102E04C
S315000092D0012100E0022123E74FF496710C48FCF7C8
S315000092E0D7B9ABE7044800880621DDE7D00C0300B8
S315000092F000800140DC0C0300D278002000F0490217
S315000093000002040000120400008401400025080049
S31500009310B80C030006210020C6E7000000B583B0A4
S3150000932004237F22252101A8FDF72BFD04237F229C
S3150000933024216846FDF725FD01980099421ADFF8B9
S31500009340881400F02FF901980099401A80B21F285E
S315000093500CDB042301AA7F212420FDF723FD07BD92
S315000093602420FDF747FD0098401C009001980099C5
S31500009370401A80B20028F3D107BD00002DE9F04362
S3150000938085B004237F22252104A8FDF7FAFC0423D7
S315000093907F22242103A8FDF7F4FC02F0DEFCDFF8AF
S315000093A02C54DFF82C142A78DFF8284403460120D1
S315000093B0FFF797FD287803284FF6FF7800F2EA803A
S315000093C0DFE800F0027BBBE302F0C7FC0328DFF80E
S315000093D00814A8BF02200870FCF7F7F80246DFF869
S315000093E0FC1300F0DFF80020FBF7CEFE0746012352
S315000093F07F22332102A8FDF7C4FC012000900DF165
S315000094000703002206213846FDF7CDF9012000901A
S315000094100DF10603002208213846FDF7C4F99DF830
S31500009420080018B1012822D1002000E001208DF8A3
S315000094300400FE208DF805009DF80600FE2808D0E1
S31500009440202000900DF10503002208213846FDF783
S3150000945070F99DF807009DF80410884207D0102087
S31500009460009001AB002206213846FDF762F909F0AB
S31500009470A5FA074609F098FA06460BF080F88146E9
S315000094800BF079F80197024600964B46DFF8501329
S315000094900120FFF726FD2520FDF7ACFC01202870F2
S315000094A002237F2231216846FDF76BFCBDF80000E0
S315000094B040450CBF642101463CE0FCF786F80246B5
S315000094C0DFF8201300F06EF802F047FC90B9FFF7C2
S315000094D025FF0BF065F830B142F2107100F01FF96C
S315000094E0032028705BE000F07DF80020207000F07B
S315000094F046F954E0039B049ABB490120FFF7F1FCAF
S3150000950004980399401A80B20A2804DBFFF706FF85
S315000095100BF085FA36E00220287002237F223221E2
S315000095206846FDF72EFCBDF80000404514BF014615
S315000095304FF4FA6100F0F3F831E0FCF746F8024622
S31500009540AA4900F02FF804980399421A92B2A84942
S3150000955000F028F804980399401A80B2052805DB24
S315000095600BF05EFCA34900F0DDF809E0042807D102
S31500009570A14900F0D7F80020FBF706FE0BF0D0FC5F
S31500009580FFF7CCFE0020207009E00020207000F0DC
S3150000959029F804E04FF492719848FCF779F805B081
S315000095A0BDE8F0830120FFF79CBC7CB50AF0F4FF10
S315000095B0B8B9864908708748FBF7C4F909F0FEF97F
S315000095C0044609F0F1F905460AF0D9FF06460AF005
S315000095D0D2FF024601940095334689490120FFF7E0
S315000095E080FC73BD80B50AF0D7FF88B9854801783D
S315000095F0142908DA491C01700BF0D4FEBDE80440BA
S3150000960049F64041D7E0BDE802409320FCF793B904
S3150000961001BD10B502F0A1FB00247B4900E0641CEB
S31500009620E4B2224611F83230FF2B0AD08342F6D13B
S3150000963001EBC20061A14268BDE810400120FFF7BE
